:100000000C94F2010C941A020C941A020C942F080E
:100010000C942F080C942F080C941A020C943B0794
:100020000C941A020C941A020C941A020C945206A4
:100030000C941A020C941A020C941A020C941A02D0
:100040000C9408060C941A020C9485040C945F041A
:100050000C941A020C941A020C941A020C941A02B0
:100060000C9439080C941A0207634236B79BD8A740
:100070001A39685618AEBAAB558C1D3CB7CC5763CD
:10008000BD6DEDFD753EF6177231BF000000803F7B
:1000900008000000BE922449123EABAAAA2ABECD97
:1000A000CCCC4C3E00000080BEABAAAAAA3E000009
:1000B0000000BF000000803F000000000008417801
:1000C000D3BB4387D1133D190E3CC3BD4282AD2B38
:1000D0003E68EC8276BED98FE1A93E4C80EFFFBE30
:1000E00001C4FF7F3F00000000002000000000006E
:1000F0000030007C82827C00310042FE020000322F
:1001000000468A92620033004492926C0034001CD4
:1001100064FE04003500F292928C0036007C9292CC
:100120004C003700C08E90E00038006C92926C005A
:1001300039006492927C006100042A2A1E00620049
:10014000FE12120C0063000C1212120064000C125A
:1001500012FE0065001C2A2A18006600103E50504E
:100160000067000815151E006800FE101E000069DB
:1001700000002E0000006A0002012E00006B00FE4D
:10018000081412006C0000FE0200006D001E100E2C
:10019000100E6E001E10100E006F000C12120C00DC
:1001A00070001F12120C0071000C12121F0072005E
:1001B0001E08101000730012292512007400103E52
:1001C00012000075001C02021E00761804020418BA
:1001D000007718061C0618007800120C0C12007923
:1001E000001805051E007A0012161A120041007E42
:1001F00088887E004200FE92926C0043007C8282DE
:1002000044004400FE82827C004500FE92928200FF
:100210004600FE9090800047007C82925C0048007F
:10022000FE1010FE00490082FE8200004A000C020F
:1002300002FC004B00FE1028C6004C00FE02020229
:10024000004D00FE403040FE4E00FE403008FE4FA4
:10025000007C8282827C5000FE9090600051007C85
:10026000828A847A5200FE989462005300649292CB
:100270004C00540080FE8080005500FC0202FC000F
:100280005600F00C020CF05700FE043804FE580033
:10029000C63838C60059C0201E20C0005A00869AB1
:1002A000B2C2002C00010E0C00002E000006060059
:1002B00000257254781E2A4E2100007A0000003F6B
:1002C00000204A3000002D0010101010002B0808EC
:1002D0003E0808002F00020C3040002A22140814A7
:1002E00022003A0000140000002200C000C00000FC
:1002F0002328FE28FE28002800007C820000290018
:1003000000827C00003B0002240000007E00408050
:100310004080003B0002240000003D0028282828DF
:10032000007C0000FE0000003E0082442810003CDB
:10033000001028448200400000000000007C447C43
:10034000007C005C547454547C70107C74545C7C4D
:10035000545C40407C7C547C74547C00040020201D
:100360002000000000000000240027002A000000F8
:100370000008000201000003040700000000000064
:1003800000003F065B4F666D7D077F6F777C395EAF
:100390007971BF86DBCFE6EDFD87FFEFF7FCB9DEB5
:1003A000F9F10040000000002300260029000000B1
:1003B0000000250028002B000404040404040404A5
:1003C0000202020202020303030303030102040800
:1003D00010204080010204081020010204081020AF
:1003E0005920392011241FBECFEFD8E0DEBFCDBF8A
:1003F00011E0A0E0B1E0EEE0F3E502C005900D925F
:10040000A239B107D9F725E0A2E9B1E001C01D92F8
:10041000A13CB207E1F711E0C1EFD1E004C02197A0
:10042000FE010E942822C03FD107C9F70E94A610F2
:100430000C947A290C940000CF92DF92EF92FF92F5
:100440000F931F93CF93DF936C017A018B01C0E070
:10045000D0E0CE15DF0589F0D8016D918D01D60170
:10046000ED91FC910190F081E02DC6010995892B59
:1004700011F47E0102C02196ECCFC701DF91CF912C
:100480001F910F91FF90EF90DF90CF900895FC01A6
:10049000918D828D981761F0828DDF01A80FB11DBB
:1004A0005D968C91928D9F5F9F73928F90E00895DF
:1004B0008FEF9FEF0895FC01918D828D981731F099
:1004C000828DE80FF11D858D90E008958FEF9FEFED
:1004D0000895FC01918D228D892F90E0805C9F4FC3
:1004E000821B91098F739927089586EA92E00E94F2
:1004F000690221E0892B09F420E0822F0895FC0194
:10050000848DDF01A80FB11DA35ABF4F2C91848D9C
:1005100090E001968F739927848FA689B7892C93D1
:10052000A089B1898C9180648C93938D848D98136C
:1005300006C00288F389E02D80818F7D8083089535
:10054000EF92FF920F931F93CF93DF93EC0181E023
:10055000888F9B8D8C8D981305C0E889F9898081DF
:1005600085FD24C0F62E0B8D10E00F5F1F4F0F731B
:100570001127E02E8C8DE8120CC00FB607FCFACFC5
:10058000E889F989808185FFF5CFCE010E947F023D
:10059000F1CF8B8DFE01E80FF11DE35AFF4FF08282
:1005A0000B8FEA89FB898081806207C0EE89FF8911
:1005B0006083E889F98980818064808381E090E0AC
:1005C000DF91CF911F910F91FF90EF900895CF93FE
:1005D000DF93EC01888D8823C9F0EA89FB8980814B
:1005E00085FD05C0A889B9898C9186FD0FC00FB61D
:1005F00007FCF5CF808185FFF2CFA889B9898C915E
:1006000085FFEDCFCE010E947F02E7CFDF91CF9132
:10061000089580E090E0892B29F00E9475028111F5
:100620000C9400000895833081F028F4813099F013
:100630008230A1F008958730A9F08830B9F0843075
:10064000D1F4809180008F7D03C0809180008F77EE
:1006500080938000089584B58F7702C084B58F7D24
:1006600084BD08958091B0008F7703C08091B00061
:100670008F7D8093B00008953FB7F8948091A202D7
:100680009091A302A091A402B091A50226B5A89BC7
:1006900005C02F3F19F00196A11DB11D3FBFBA2F14
:1006A000A92F982F8827820F911DA11DB11DBC0174
:1006B000CD0142E0660F771F881F991F4A95D1F739
:1006C000089585ED8093BC008091BC0084FDFCCF33
:1006D00010927402089540914E02262F30E0240FAC
:1006E000311D21323105DCF4209174022430C9F42B
:1006F000FC0180E090E0861758F430914E02219181
:10070000DC01A45DBD4FA30FB11D2C930196F3CF67
:1007100080914E02680F60934E0280E0089581E060
:10072000089582E0089508958FEF9FEF08958FEF69
:100730009FEF089580912B0290E09195819591090A
:100740000895CF93DF9300D0CDB7DEB7CB01642FF0
:1007500049835A830E946B034981842F5A81952FC4
:100760000F900F90DF91CF910895CF93DF931F9259
:10077000CDB7DEB7698361E0CE0101960E946B03BD
:1007800081E090E00F90DF91CF9108950E940E27B5
:100790000F931F93CF93DF93EC018881998100978A
:1007A00029F02A813B812617370788F48B016F5F78
:1007B0007F4F0E944426009761F0998388831B83B2
:1007C0000A832C813D81232B11F4FC01108281E0EE
:1007D00001C080E0DF91CF911F910F910895EF92BA
:1007E000FF920F931F93CF93DF9300D0CDB7DEB767
:1007F0008C0169831A82FC01E480F580FFEFEF1A17
:10080000FF0AB7010E94C803882381F0F801208104
:10081000318184819581BE016F5F7F4F820F931F6D
:100820000E942927F801F582E48281E00F900F9061
:10083000DF91CF911F910F91FF90EF900895EF926C
:10084000FF920F931F93CF93DF93EC017B018A01FB
:10085000BA010E94C8032881398181110DC0211578
:10086000310519F0C9010E94AC25198218821D8238
:100870001C821B821A8206C01D830C83B701C9012A
:100880000E942927CE01DF91CF911F910F91FF90F8
:10089000EF900895FC01118210821382128215825A
:1008A00014826115710551F0FB0101900020E9F7F8
:1008B0003197AF01461B570B0C941F0408951F92EC
:1008C0000F920FB60F9211242F933F934F935F9384
:1008D0006F937F938F939F93AF93BF93EF93FF9308
:1008E00086EA92E00E947F02FF91EF91BF91AF9163
:1008F0009F918F917F916F915F914F913F912F9138
:100900000F900FBE0F901F9018951F920F920FB669
:100910000F9211242F938F939F93EF93FF93E09166
:10092000B602F091B7028081E091BC02F091BD0265
:1009300082FD12C090818091BF028F5F8F732091E2
:10094000C002821751F0E091BF02F0E0EA55FD4F7E
:10095000958F8093BF0201C08081FF91EF919F919D
:100960008F912F910F900FBE0F901F901895CF93DE
:10097000DF93282F30E0F901E259FC4F8491F9010F
:10098000E453FC4FD491F901E854FC4FC491CC23BB
:1009900091F081110E941303EC2FF0E0EE0FFF1F86
:1009A000EC55FC4FA591B491EC91ED2381E090E0E2
:1009B00021F480E002C080E090E0DF91CF910895C3
:1009C0001F93CF93DF93282F30E0F901E259FC4FBA
:1009D0008491F901E453FC4FD491F901E854FC4FA0
:1009E000C491CC23C9F0162F81110E941303EC2F60
:1009F000F0E0EE0FFF1FE255FC4FA591B4918FB7C9
:100A0000F894111105C09C91ED2FE095E92302C0E7
:100A1000EC91ED2BEC938FBFDF91CF911F91089557
:100A2000CF93DF9390E0FC01E453FC4F2491FC0151
:100A3000E854FC4F8491882361F190E0880F991F5E
:100A4000FC01EC59FC4FC591D491FC01E255FC4FDF
:100A5000A591B491611109C09FB7F8948881209540
:100A600082238883EC912E230BC0623061F49FB700
:100A7000F8943881822F809583238883EC912E2BE4
:100A80002C939FBF06C08FB7F894E8812E2B288344
:100A90008FBFDF91CF9108951F93CF93DF93182FCE
:100AA000EB0161E00E941005209711F460E004C0A2
:100AB000CF3FD10539F461E0812FDF91CF911F91B4
:100AC0000C94E004E12FF0E0E259FC4FE491E330B4
:100AD000F9F048F4E130B9F0E230A1F584B5806274
:100AE00084BDC8BD34C0E730E9F0E83019F1E43026
:100AF00049F580918000806280938000D0938B00C4
:100B0000C0938A0024C084B5806884BDC7BD1FC05F
:100B100080918000806880938000D0938900C0938A
:100B2000880015C08091B00080688093B000C093A9
:100B3000B3000DC08091B00080628093B000C0937C
:100B4000B40005C0C038D1050CF0B5CFAFCFDF91F0
:100B5000CF911F9108958E3008F08E508770806479
:100B600080937C0080917A00806480937A008091E9
:100B70007A0086FDFCCF809178002091790090E08A
:100B8000922B08958F929F92AF92BF92CF92DF9255
:100B9000EF92FF926B017C010E943C034B015C01D0
:100BA000C114D104E104F104F1F00E943C03DC0122
:100BB000CB0188199909AA09BB09883E9340A10570
:100BC000B10570F321E0C21AD108E108F10888EEFE
:100BD000880E83E0981EA11CB11CC114D104E1044D
:100BE000F10419F7DDCFFF90EF90DF90CF90BF9029
:100BF000AF909F908F9008952FB7F89460919E02C8
:100C000070919F028091A0029091A1022FBF089540
:100C10001F920F920FB60F9211242F933F938F9331
:100C20009F93AF93BF9380919E0290919F02A0915A
:100C3000A002B091A10230919D0223E0230F2D3735
:100C400020F40196A11DB11D05C026E8230F0296D0
:100C5000A11DB11D20939D0280939E0290939F023F
:100C6000A093A002B093A1028091A2029091A3024E
:100C7000A091A402B091A5020196A11DB11D80937F
:100C8000A2029093A302A093A402B093A502BF91E5
:100C9000AF919F918F913F912F910F900FBE0F9029
:100CA0001F9018951F920F920FB60F9211242F9339
:100CB0003F934F935F936F937F938F939F93AF93E4
:100CC000BF93EF93FF9380919C0287FF05C0109222
:100CD0008500109284001BC020919C02022E000C03
:100CE000330B8091670390E02817390784F48091D3
:100CF0009C02082E000C990BFC01EE0FFF1F8E0FBB
:100D00009F1FFC01ED5BFC4F808187FD15C080912A
:100D10009C028F5F80939C0220919C02022E000C0B
:100D2000330B8091670390E028173907C4F4809152
:100D30009C028C3064F113C080919C02082E000C40
:100D4000990BFC01EE0FFF1F8E0F9F1FFC01ED5B47
:100D5000FC4F808160E08F770E94E004D8CF8091C3
:100D6000840090918500049680349C4918F480E4B6
:100D70009CE905C080918400909185000496909331
:100D80008900809388008FEF80939C023BC0209164
:100D900084003091850080919C02082E000C990BF4
:100DA000FC01EE0FFF1F8E0F9F1FFC01ED5BFC4F40
:100DB00081819281820F931F909389008093880094
:100DC00080919C02082E000C990BFC01EE0FFF1F76
:100DD0008E0F9F1FFC01ED5BFC4F808187FF12C0CF
:100DE00080919C02082E000C990BFC01EE0FFF1F56
:100DF0008E0F9F1FFC01ED5BFC4F808161E08F77C0
:100E00000E94E004FF91EF91BF91AF919F918F916C
:100E10007F916F915F914F913F912F910F900FBEF6
:100E20000F901F9018951F93CF93DF93EC01162F0F
:100E300061E089810E941005612F8981DF91CF9146
:100E40001F910C94E004FC0110821182128208951B
:100E5000F89482E08093B0008093B10094E6909380
:100E6000B3001092B2008093700078941092D40373
:100E70008093690308951F920F920FB60F92112469
:100E80000F931F932F933F934F935F936F937F9392
:100E90008F939F93AF93BF93CF93EF93FF9382E092
:100EA0000E94B704C82F80916E0390916F03019642
:100EB00090936F0380936E038091D403843618F06F
:100EC00085E08093690390916903933079F018F479
:100ED000923039F072C0943011F1953009F44AC063
:100EE0006CC0C1116AC01092D40329C0C13009F08E
:100EF00064C0E091D40381E08E0F8093D403F0E0CE
:100F000080916E0390916F03E859FC4F8087109297
:100F10006F0310926E0384E0809369034EC0C11189
:100F200014C0E091D40381E08E0F8093D403F0E0ED
:100F300080916E0390916F03E859FC4F8087109267
:100F40006F0310926E0383E0E7CF80916E03909160
:100F50006F038536910588F185E0809369030E94CF
:100F6000FC0560936A0370936B0380936C0390930A
:100F70006D0323C00E94FC0500916A0310916B036E
:100F800020916C0330916D03DC01CB01801B910B30
:100F9000A20BB30B893C9105A105B10540F010925D
:100FA000D40310926F0310926E0382E0B5CFC1118B
:100FB00004C010926F0310926E03FF91EF91CF91D6
:100FC000BF91AF919F918F917F916F915F914F9161
:100FD0003F912F911F910F910F900FBE0F901F9077
:100FE00018950F931F93CF93DF938C016F3F71057B
:100FF00019F014F06FEF70E0EB0161307F4F14F4E3
:10100000C1E0DFEFF801868197818C179D0711F110
:10101000D783C683D7FD0AC061E0C8010E941307C9
:101020008FE090E00197F1F7BE010CC060E0C801CD
:101030000E9413078FE090E00197F1F7662777276A
:101040006C1B7D0BF8018081DF91CF911F910F9177
:101050000C944C05DF91CF911F910F9108951F9231
:101060000F920FB60F9211240F900FBE0F901F908A
:1010700018951F920F920FB60F9211242F933F9342
:101080004F935F936F937F938F939F93AF93BF9390
:10109000EF93FF938091B900887F803609F49CC05C
:1010A00068F5883209F45BC090F4803109F454C0CB
:1010B00038F4882309F4F6C0883009F44DC0F6C02E
:1010C000883109F44CC0803209F45DC0EFC080342F
:1010D00009F468C048F4803309F455C0883309F036
:1010E000E5C080937302D8C0803509F44FC08835BD
:1010F00009F45DC0883409F0D9C0D6C0883909F434
:10110000C7C0A8F4883709F467C038F4883609F4F2
:1011100063C0803709F460C0C9C0883809F4B8C01A
:10112000803909F45FC0803809F0C0C05BC0803BE3
:1011300009F486C038F4803A09F466C0883A09F4A4
:101140007FC0B4C0803C09F4A7C0883C09F4A4C0A7
:10115000883B09F48AC0AAC08091990210C090917E
:10116000980280919702981770F5E091980281E0BB
:101170008E0F80939802F0E0E958FD4F80818093B4
:10118000BB0085EC86C0809373028EC0E09198020C
:1011900081E08E0F809398028091BB00F0E0E958C7
:1011A000FD4F808390919802809197026EC0E091EC
:1011B000980281E08E0F809398028091BB00F0E04E
:1011C000E958FD4F80838091760281116DC081E0E6
:1011D0008093750284EA61C083E080937402109268
:1011E0007202CFCF80917202803208F051C0E0913C
:1011F000720281E08E0F809372028091BB00F0E05A
:10120000EE5AFD4F8083BDCF85EC8093BC001092D9
:10121000740280917202803230F4E0917202F0E048
:10122000EE5AFD4F10826091720270E0E091500220
:10123000F091510282E592E009951092720236C057
:1012400084E08093740210924F0210924E02E0915B
:101250004C02F0914D02099580914E02811105C01A
:1012600081E080934E0210922C02E0914F0281E0C7
:101270008E0F80934F02F0E0E45DFD4F80818093FC
:10128000BB0090914F0280914E02981708F479CFDD
:1012900085E88093BC000AC085EC8093BC00109266
:1012A000740204C0109273020E946103FF91EF91D7
:1012B000BF91AF919F918F917F916F915F914F916E
:1012C0003F912F910F900FBE0F901F901895E9E25C
:1012D000F2E0DC01AA56BE4F8C91808311968C916E
:1012E00081838091290290912A02089540E060E074
:1012F00080E00E944E0F0E94CB0E60E070E08AEE0C
:1013000093E00E94F10760E070E082EE93E00C94BD
:10131000F107609101017091020171956195710968
:10132000072E000C880B990B0E94C3272DEC3CEC78
:101330004CE45FE30E9422280E940D238AEE93E092
:101340000E94F10760910101709102017195619510
:101350007109072E000C880B990B0E94C3272DECF6
:101360003CEC4CE45FE30E9422280E940D2382EEB5
:1013700093E00C94F1076091010170910201072E36
:10138000000C880B990B0E94C3272DEC3CEC4CE41D
:101390005FE30E9422280E940D238AEE93E00E94C0
:1013A000F1076091010170910201072E000C880B7A
:1013B000990B0E94C3272DEC3CEC4CE45FE30E94A8
:1013C00022280E940D2382EE93E00C94F107609195
:1013D0000101709102018AEE93E00E94F107609191
:1013E00001017091020171956195710982EE93E09E
:1013F0000C94F10760910101709102017195619562
:1014000071098AEE93E00E94F107609101017091E9
:10141000020182EE93E00C94F107682F86EA92E0D5
:101420000C94A002CF92DF92FF920F931F93CF9361
:10143000DF931F92CDB7DEB7162FF72E082F82E06D
:1014400099830E940D0A82E9C82E81E0D82E412F8F
:101450005F2D602F9981792FF6014083518362833C
:101460007383812F0E940D0AF60181810E940D0A6B
:10147000F60182810E940D0AF60183810F90DF91AF
:10148000CF911F910F91FF90DF90CF900C940D0A98
:101490008FEF0E940D0A85E50E940D0A89E691E012
:1014A0000C94AD0ECF93DF93C2EFD3E060E088855C
:1014B0000E94E00460E089850E94E00461E0888584
:1014C0000E94E00461E08985DF91CF910C94E004F3
:1014D000CF93DF93C2EFD3E061E088850E94E00400
:1014E00061E089850E94E00460E089850E94E00453
:1014F00060E08885DF91CF910C94E004CF93DF9377
:10150000D82FC8E060E08091FA030E94E004D0FF89
:1015100002C061E001C060E08091FB030E94E00432
:10152000D69561E08091FA030E94E004C15051F722
:1015300060E08091FA030E94E00461E08091FB0387
:101540000E94E00461E08091FA030E94E00460E000
:101550008091FB030E941005C8EC8091FB030E9460
:10156000B704892B69F0C150C1F761E08091FB039A
:101570000E94100560E08091FB030E94E004ECCF24
:1015800061E08091FB03DF91CF910C941005CF9225
:10159000DF92EF92FF920F931F93CF93DF93EC01B3
:1015A0000E94FC05009178041091790420917A043E
:1015B00030917B04DC01CB01801B910BA20BB30BA0
:1015C0004897A105B10518F081E0809377048091D8
:1015D0007704882309F466C00E94FC0560937804B0
:1015E0007093790480937A0490937B04109277042B
:1015F00060E082E794E00E94130783E090E00197A7
:10160000F1F761E082E794E00E94130783E290E043
:101610000197F1F760E082E794E00E94130760E031
:10162000809173040E9410052091730430E0F90149
:10163000E453FC4F6491F901E854FC4FE49187E3D3
:101640008C9F80018D9F100D112408531F4FF0E0D7
:10165000EE0FFF1FEC55FC4F8591949120E030E098
:10166000462F0E946110611571058105910551F0A9
:101670006B017C012FEFC21AD20AE20AF20A8FE054
:10168000F82203C0C12CD12C7601C701B6010E94FB
:10169000C32760937C0470937D0480937E049093B1
:1016A0007F040CC060917C0470917D0480917E0465
:1016B00090917F040E940D236B017C01C114D10421
:1016C000E104F10441F48AE38C9F60018D9FD00C0A
:1016D0001124E12CF12CC701B6010E94C32720E0A0
:1016E00030E048E652E40E949B22DF91CF911F91A7
:1016F0000F91FF90EF90DF90CF900895CF92DF92FF
:10170000EF92FF92DC01A03282E0B8070CF03EC0FD
:10171000B7FD06C0A53BB1052CF0A4EBB0E002C0BC
:10172000A0E0B0E08091DC0328E830E06901C81A4D
:10173000D10887FDD394CC0CDD1CCC0CDD1C0D2C0A
:10174000000CEE08FF088091DD0328E532E0281B3D
:10175000310987FD3395220F331F220F331FA90153
:10176000330F660B770B9A01AB012C193D094E091B
:101770005F090E940A2924EB30E040E050E00E941B
:10178000E028C20ED31EE41EF51ED6019091DB03A5
:101790009C3098F58091DC0348E850E0481B5109E3
:1017A00087FD5395440F551F440F551FA417B507C8
:1017B0008CF08091DD0328E532E0281B310987FD9C
:1017C0003395220F331F220F331FAD012A173B071A
:1017D0000CF4A90142505109440F551F2FB7F8943A
:1017E000892F90E0FC01EE0FFF1F8E0F9F1FFC0161
:1017F000ED5BFC4F528341832FBFFF90EF90DF9052
:10180000CF900895CF939091DB039C3008F052C0A5
:10181000C82F61E00E9410058091DB03E82FF0E003
:101820009F01220F331FE20FF31FED5BFC4FCF77B9
:1018300090819078C92BC0831092DC031092DD0355
:101840006CE00E94F4219CE0899FB001112440E0EB
:1018500050E09A01260F371FF901EE0FFF1F2E0FE0
:101860003F1FF901ED5BFC4F908197FD16C04F5F64
:101870005F4F4C30510569F781110FC01092800005
:1018800082E0809381001092850010928400B19ACA
:1018900080916F00826080936F00E091DB03F0E045
:1018A000CF01880F991FE80FF91FED5BFC4F808176
:1018B000806880838091DB03CF9108954F925F927F
:1018C0006F927F928F929F92AF92BF92CF92DF9250
:1018D000EF92FF920F931F93CF93DF937C016AE007
:1018E0000E94EF03C0E0D0E044244394F9E05F2E6F
:1018F000A2ED6A2EB6E47B2E1BE9C12E1CE8D12E88
:101900000BE4A02E06E4B02E0BEB18E08BEF882E34
:1019100088E1982EF70184819581C817D90708F0CE
:101920006EC0F70180819181009729F0FC01EC0FD6
:10193000FD1F808101C080E0482F409550E060E0AD
:1019400070E0762F652F542F4427480F511D611DDD
:10195000711DBA01552744274F6F109270004092B5
:10196000B0005092B1006092B3007092B4008091C8
:10197000B00080628093B000C6010197F1F78091BA
:10198000B0008F7D8093B000C5010197F1F780E230
:1019900090E02091B00020622093B000F80140FF59
:1019A00009C03197F1F72091B0002F7D2093B0004E
:1019B000F40108C03197F1F72091B0002F7D2093FA
:1019C000B000F8013197F1F77695679557954795EF
:1019D0000197F9F68091B00080628093B000C80151
:1019E0000197F1F78091B0008F7D8093B00064E1A2
:1019F00070E080E090E00E94C20521968BCFF894C1
:101A000082E08093B0008093B10094E69093B3009D
:101A10001092B200809370007894809369031092C2
:101A2000D4038091680360E0DF91CF911F910F9103
:101A3000FF90EF90DF90CF90BF90AF909F908F90EE
:101A40007F906F905F904F900C941005EF92FF92F3
:101A50000F931F93CF93DF938C0161E080913F043C
:101A60000E94E00460E0809140040E94E004C8E02D
:101A7000D0EC60E080913F040E94E0046D2F617023
:101A8000809140040E94E00461E080913F040E9444
:101A9000E004D695C15069F7E801780180E1E80ECD
:101AA000F11C099118E060E080913F040E94E0047D
:101AB000602F6078809140040E94E00461E0809192
:101AC0003F040E94E004000F115069F7CE15DF05B6
:101AD00041F760E080913F040E94E00460E0809163
:101AE00040040E94E00461E080913F040E94E00411
:101AF00061E080914004DF91CF911F910F91FF90A1
:101B0000EF900C94E004CF93DF93D82F61E08091A5
:101B10003F040E94E00460E0809140040E94E004E1
:101B2000C8E060E080913F040E94E0046D2F617086
:101B3000809140040E94E00461E080913F040E9493
:101B4000E004D695C15069F760E080913F040E949F
:101B5000E00460E0809140040E94E00461E0809134
:101B60003F040E94E00461E080914004DF91CF9146
:101B70000C94E004CF93DF9300D000D0CDB7DEB754
:101B80009C01DE011196AD0194E09A0FF90181915B
:101B90009F01FA018193AF019E13F8CF80E22C914F
:101BA000223208F08C93EC91F0E0EE57FC4FE49178
:101BB000ED939A13F4CF0E94680A80E40E947E0A93
:101BC0000E94520A0E94680A8091F7030E947E0ACE
:101BD00089810E947E0A8A810E947E0A8B810E94EE
:101BE0007E0A8C810E947E0A0E94520A0E94680A24
:101BF0008091F8030E947E0A0F900F900F900F9033
:101C0000DF91CF910C94520ACF92DF92EF92FF9224
:101C10000F931F93CF93DF9328E030E041E06FEF05
:101C200070E09FE0C92ED12CC3E2D0E007ED10E0B8
:101C300090910004E0910104F0910204592F509515
:101C4000F42EF82281F0F894F2805F2152835181C2
:101C5000592B5183DE011197F1F75281952B928315
:101C60007894F8010FC0F894F2805F21528351817B
:101C7000592B5183DB011197F1F75281952B9283F8
:101C80007894F6013197F1F7440F2150310981F62C
:101C9000F894E0910104F091020491818091000494
:101CA000809589238183E0910104F091020492815F
:101CB00080910004892B8283E0910104F091020459
:101CC0009281809100048095892382837894DF91AA
:101CD000CF911F910F91FF90EF90DF90CF900895DB
:101CE00090910004E0910104F0910204F894818144
:101CF000292F2095822381838281892B8283789466
:101D00008DE743E050E0815039F1DA011197F1F7A6
:101D100030813923C1F3F8948281822382838181C7
:101D2000892B81837894ABE7B7E01197F1F7F894AA
:101D30008181282321838281892B8283A3E1B1E0E1
:101D40001197F1F78081982381E009F080E0789481
:101D5000E3E6F6E03197F1F70895009769F0FC01AA
:101D600001900020E9F73197AF01481B590BBC01E6
:101D700086EA92E00C941C0280E090E00895CF93F4
:101D8000C0919B0461E08C2F0E94100560E08C2FB5
:101D9000CF910C94E0040F931F93CF93DF93809126
:101DA000840490918504EC01CC0FDD1FC80FD91F6E
:101DB0000091860410918704AE01B80180918804D7
:101DC000909189040E941327892B09F43BC0A091AC
:101DD0008A04B0918B0480918E043FB7F8942C91C3
:101DE000982F90959223822BF801CE0FDF1FEC17CE
:101DF000FD0781F0219148E08C9300C027FF9C9360
:101E0000220F00C000C000C008F49C9300C04A9597
:101E100099F7EDCF3FBF4091840450918504CA01EA
:101E2000880F991F480F591F60918604709187048D
:101E300080918804909189040E9420278BEC97E080
:101E40000197F1F7DF91CF911F910F910895A82F7E
:101E5000B0E0E0918404F0918504AE17BF07E0F490
:101E6000982F990F890F90E0E0918604F0918704F4
:101E7000E80FF91F4083E0918604F0918704E80F92
:101E8000F91F61834091860450918704FA01E80F9D
:101E9000F91F228381E0089580E00895FF920F9357
:101EA0001F93CF93DF93182F062FF42EC0E0D0E0BE
:101EB000E0918404F0918504CE17DF0740F42F2DC4
:101EC000402F612F8C2F0E94270F2196F1CF81E0A8
:101ED000DF91CF911F910F91FF900895CF93DF93E2
:101EE000EC0160E089810E94100589810E94B7049D
:101EF00021E0892B09F420E0822FDF91CF91089512
:101F00001F93CF93DF93162F8093820460938304F3
:101F1000E82FF0E0EE0FFF1FE35CFE4F818180931E
:101F20008104808180938004C0E0D0E080918404AB
:101F300090918504C817D90740F420E040E060E0A4
:101F40008C2F0E94270F2196F1CF20E030E042E055
:101F500051E0809184049091850428173907E8F4B2
:101F6000822F880F820F90E0E0918804F09189041D
:101F7000E80FF91F4083E0918804F0918904E80F8D
:101F8000F91F11826091880470918904FB01E80FA8
:101F9000F91F52832F5F3F4FDCCF123019F480912D
:101FA000810402C080918004282F30E0F901E453BD
:101FB000FC4FE491E0938E04F901E854FC4FE49166
:101FC000F0E0EE0FFF1FE255FC4F25913491309366
:101FD0008B0420938A0461E0DF91CF911F910C94D0
:101FE00010053F924F925F926F927F928F929F92D5
:101FF000AF92BF92CF92DF92EF92FF920F931F9317
:10200000CF93DF934A015B019C0140E050E060E424
:1020100072E48FE090E00E94E02869017A0130903C
:102020009B0461E0832D0E941005A8EEB3E0A5019A
:1020300094010E94FF282B013C01E601D7FC219668
:10204000D595C7958E01000F111F000F111F055068
:1020500011090D2C000CEE08FF08812C912C540165
:1020600084149504A604B704D0F461E0832D0E9483
:10207000E004C230D10518F0C8010197F1F760E023
:10208000832D0E94E004C230D10518F0C8010197E9
:10209000F1F7A8958C0C9D1CAE1CBF1CE1CFDF9105
:1020A000CF911F910F91FF90EF90DF90CF90BF9055
:1020B000AF909F908F907F906F905F904F903F90E8
:1020C0000895CF92DF92EF92FF920F931F93E82F24
:1020D000F92F05C0015011092109310961F19081E1
:1020E00096239417B9F305C001501109210931094C
:1020F00011F1908196239413F7CFC12CD12CE12CB0
:10210000F12C0AC08FEFC81AD80AE80AF80A0C1591
:102110001D052E053F0579F080818623841791F3F4
:102120006C2D7D2D8E2D9F2D1F910F91FF90EF9087
:10213000DF90CF90089560E070E080E090E01F9124
:102140000F91FF90EF90DF90CF900895CF93DF93A2
:10215000CDB7DEB76E970FB6F894DEBF0FBECDBF1A
:10216000789484B5826084BD84B5816084BD85B572
:10217000826085BD85B5816085BD80916E0081607E
:1021800080936E0010928100809181008260809324
:102190008100809181008160809381008091800026
:1021A0008160809380008091B10084608093B10051
:1021B0008091B00081608093B00080917A0084604B
:1021C00080937A0080917A00826080937A00809177
:1021D0007A00816080937A0080917A008068809391
:1021E0007A001092C10065E070E080E090E00E940B
:1021F000C2050E94760961E08DE00E94100560E052
:1022000087E00E94100561E08DE00E94E0046CE22E
:1022100071E080E090E00E94C20560E08DE00E94E5
:10222000E00462E087E00E94800F40E060E080E030
:102230000E944E0F0E94CB0E61E070E080E090E0C3
:102240000E94C20540E060E08AE00E944E0F0E94BA
:10225000CB0E4CE251E060E070E086E291E00E943B
:10226000F10F6CE271E080E090E00E94C20540E076
:102270006AE080E00E944E0F0E94CB0E4CE251E0DB
:1022800060E070E08AE491E00E94F10F6CE271E09E
:1022900080E090E00E94C2054AE060E080E00E9499
:1022A0004E0F0E94CB0E4CE251E060E070E08EE5F4
:1022B00091E00E94F10F6CE271E080E090E00E94FA
:1022C000C2054AE06AE08AE00E944E0F0E94CB0EEF
:1022D000E091B602F091B70282E08083E091B20211
:1022E000F091B3021082E091B402F091B50280E166
:1022F00080831092BE02E091BA02F091BB0286E0A8
:102300008083E091B802F091B9028081806180837E
:10231000E091B802F091B902808188608083E091F9
:10232000B802F091B902808180688083E091B802A0
:10233000F091B90280818F7D80830E94BF0E87E17A
:1023400094E00E9428078FE591E00E94AD0E409135
:10235000D9035091DA036091D5037091D60386EAD0
:1023600092E00E941C0289E691E00E94AD0E8DE889
:102370000E94830D81E080934104CE0101969C8BE5
:102380008B8B8B5F8D8F8091CE0181110DC00E9450
:10239000FC056093CA017093CB018093CC019093AC
:1023A000CD0181E08093CE0180E793E090931E04FD
:1023B00080931D048091D40390E090932004809337
:1023C0001F0420916903253009F055C02091700346
:1023D00026582D3540F48330910551F480917103D6
:1023E00081528931D0F087E194E00E94280743C0F0
:1023F00083349105C4F38091710383548F3298F72D
:1024000040E050E0BA0182E090E0FC01E859FC4F66
:1024100020852850273048F0E6CF809172038850FD
:10242000873008F710921C0443C0FC01E759FC4FA9
:10243000208527512331A8F47695679557954795C0
:10244000706802968234910501F780E280931C0443
:10245000409318045093190460931A0470931B045A
:1024600027C020852850273008F0BDCF7695679586
:1024700057954795E6CF80910001813009F03FC024
:102480000E94FC050091CA011091CB012091CC0162
:102490003091CD01DC01CB01801B910BA20BB30B62
:1024A00089379105A105B10510F00C94D41D27C002
:1024B00081E08093170487E194E00E94280710913F
:1024C0001A040E94FC056093CA017093CB018093AB
:1024D000CC019093CD01812F90E0A0E0B0E080345A
:1024E0009105A105B10511F00C94621E81E0809365
:1024F000000190911A02992311F40C944F1E10922E
:10250000090286EA92E00E946902181619064CF444
:1025100081E08093090286EA92E00E94470280935C
:10252000080280910902882311F40C944B1C8091BD
:10253000080290910702853561F491110AC08091DB
:1025400006028F3FE1F481E0809305028093070249
:1025500016C080930602992391F0E0910502E230C3
:1025600019F48093040207C0E33028F0909104022C
:10257000915090930402F0E0EA56FE4F80838091E0
:1025800005028F5F843318F48093050204C0109213
:1025900005021092070280910702882311F40C941F
:1025A0004B1C8091040281110C944B1C80910502FC
:1025B000843010F40C944B1C109207021091990176
:1025C0001093030200919B0190919A01923009F4BB
:1025D0008BC220F4913061F00C94491C943011F4BA
:1025E0000C94391C953011F40C94471C0C94491C24
:1025F000013049F08FEF0E940D0A85E50E940D0A17
:10260000812F0E940D0A10919C01212F30E007308C
:1026100009F40BC188F4023009F457C030F40023E8
:1026200009F40AC2013059F15AC2053008F4FDC05C
:10263000053009F418C153C20E3109F43AC250F4FE
:10264000013109F46AC1053109F49FC10F3009F065
:1026500046C248C1033209F4D2C1023309F43AC276
:102660000F3109F03CC2220F331FF901E35FFE4F27
:10267000108160E0812F0E941005812F22C280917D
:10268000740490E08217930769F0220F331FF90159
:10269000E35CFE4F80818093720481818093730498
:1026A0001093740480E991E00E94C70A6B017C01D9
:1026B0008FEF0E940D0A85E50E940D0A80910302AA
:1026C0000E940D0AC701B60108C280919D01409188
:1026D000FE0350E04217530741F44091FF0350E0DE
:1026E000682F70E04617570749F1220F331FF90191
:1026F000E35CFE4F90819093FC03E181E093FD0346
:102700001093FE038093FF03823009F0E92F8E2F90
:1027100090E0FC01E453FC4FE491E0930004FC01E1
:10272000E854FC4FE491F0E0EE0FFF1FEC55FC4F36
:102730008591949190930204809301040E94700EFD
:102740008CEC0E94040E84E40E94040E0E94FC059E
:102750006B017C0120910004E0910104F0910204DE
:102760008181922F9095892381838281822B82831C
:1027700083E290E00197F1F78081282311F40C9413
:10278000211E0E94700E8CEC0E94040E8EEB0E94A3
:10279000040EDE0111967D014FEC50E088E090E0E0
:1027A00071E060E010910004E0910104F0910204F6
:1027B000F8942181212B21832281012F0095202350
:1027C000228327E030E0D9011197F1F7218102231C
:1027D00001832281212B228323E230E0D90111974A
:1027E000F1F720817894FA013197F1F7212309F06C
:1027F000672B770F0197B1F6F70161937F01FD8D8C
:10280000FE11CCCF6A8170E0762F66278981682B14
:10281000072E000C880B990B0E94C32720E030E0A4
:1028200040E85DE30E94222858C18091E00390E0D7
:102830008217930781F0220F331FF901E35CFE4FEB
:1028400080818093DE0381818093DF031093E00316
:1028500060E00E94100560E08091DF030E94100597
:102860008091DF032EC140919D018091150490E07D
:102870008217930769F0220F331FF901E35CFE4FC3
:102880008081809313048181809314041093150434
:10289000413081F460E0809113040E941005809122
:1028A00013040E94AB052091D6013091D7018A5EB6
:1028B000914011C0423099F460E0809114040E946C
:1028C0001005809114040E94AB058A5E914020910E
:1028D000D8013091D901BC01620F731F51C060E073
:1028E00070E04EC08091E00390E08217930781F082
:1028F000220F331FF901E35CFE4F80818093DE03DA
:1029000081818093DF031093E00360E00E94100553
:102910008EED93E00E946E0F6BC08091E00390E01B
:1029200082179307A9F0220F331FF901E35CFE4FD2
:1029300080818093DE0391819093DF031093E00305
:1029400060E00E94100560E08091DF030E941005A6
:1029500060E08091DE030E9410058091DE030E94FA
:10296000B7048C018EED93E00E946E0F61E070E081
:10297000012B11F460E070E0660F771F680F711D86
:10298000072E000C880B990BA2C080919D014091ED
:10299000E00350E04217530711F00C94321E4091AF
:1029A000E10350E0682F70E04617570711F00C94D0
:1029B000321E62E0813091F48091DE030E941005A6
:1029C00060E08091DE030E9410058091DE030E948A
:1029D000B70461E0892B69F060E00BC08091DF03F0
:1029E0000E9410058EED93E00E946E0F61E0862735
:1029F000682F70E080E090E00E94C1276EC00091D7
:102A00009D01220F331FF901E35FFE4F108160E04B
:102A1000812F0E941005812F0E94AB0511E00B97BA
:102A20000CF010E0012781E00E940D0A802F0E9427
:102A30000D0A1093DA0153C01A8219821C821B827C
:102A40001E821D826091D5037091D60361157105B8
:102A500041F04091D9035091DA03CE0101960E94D2
:102A60001F04FD800F2D1E8184E00E940D0A8F2D12
:102A70000E940D0AE12CF12CE016F106ACF48D81D8
:102A80009E81E816F90648F489819A81009729F019
:102A9000FC01EE0DFF1D808101C080E00E940D0A47
:102AA0002FEFE21AF20AE8CF89819A810E94AC25C1
:102AB00016C060E0812F0E941005812F0E94B7048C
:102AC00002C00E94AB05BC01990F880B990B0E94B4
:102AD000C32703C060E070E0CB010E94120A89E6C0
:102AE00091E00E94AD0ED5C610919C01E12FF0E05F
:102AF0000D3009F40DC618F5083009F449C0B8F4D2
:102B0000033009F4EBC5053009F0C1C6109200018D
:102B100086E090E00E946709BC018AEE93E00E9483
:102B2000F10788E090E00E946709BC012CC00A30E0
:102B3000F1F008F46EC00B3009F459C0A8C6013298
:102B400009F478C650F40E3109F44BC6003209F48A
:102B500052C6043109F09BC61DC6093209F460C192
:102B6000023309F473C6023209F091C64FC61092BF
:102B7000000187E090E00E946709BC01193019F458
:102B80008AEE93E002C082EE93E00E94F1077FC6D6
:102B90001092000160919D0100919E01F0909F01B3
:102BA000E090A0012091A101A0918204B0E0AE17B5
:102BB000BF0711F00C94431EE0918304F0E0862FD0
:102BC00090E0E817F90711F00C94431E002339F048
:102BD0004E2D6F2D8FEF800F0E94270F05C0422FC3
:102BE0006E2D8F2D0E944E0F0E94CB0E50C68091ED
:102BF0009D01EE0FFF1FE35CFE4F813011F48081D9
:102C000001C0818110919E01153B08F040C690E003
:102C100016C68091F40390E08E179F0751F1109330
:102C2000F403EE0FFF1FE35CFE4F81818093F303FB
:102C300090819093F2038093FA039093FB0361E0F9
:102C40000E94100561E08091FB030E94100580E462
:102C50008093F60380EC8093F7038AE88093F8036F
:102C600080E289838A838B838C83CE0101960E94C4
:102C7000BA0D80919D018093920180919E01809375
:102C8000930180919F01809394018091A001809392
:102C90009501409092015090930160909401709042
:102CA000950119821A821B821C8220E030E0A90162
:102CB000C301B2010E94BC2787FF08C077FA709455
:102CC00077F8709481E2898311E001C010E0BDEFD4
:102CD000AB2EBB24BA9403E0202E312C00E037FC4D
:102CE0004CC0B1016F5F7F4F072E000C880B990B12
:102CF0000E94C3279B01AC0160E070E080E291E498
:102D00000E94A0236B017C019B01AC01C301B201B5
:102D10000E949B220E9443236D8B7E8B8F8B988F0A
:102D2000B101032C000C880B990B0E94C3279B0157
:102D3000AC0160E070E080E291E40E94A023698F22
:102D40007A8F8B8F9C8FA70196016D897E898F89E1
:102D5000988D0E9422289B01AC01C301B2010E9400
:102D60002E22298D3A8D4B8D5C8D0E949B220E94D4
:102D700043230E940D23CB0123C020E030E040E23A
:102D800051E4C301B2010E942228A2E0AA16B104B4
:102D900084F020E030E040E251E40E942228B2E0DA
:102DA000AB16B10431F020E030E040E251E40E9483
:102DB00022280E940D23CB016AE070E00E941422B9
:102DC000181619062CF0222019F00023B1F00CC0BF
:102DD00021100AC0E1E0F0E0EC0FFD1FE10FF11D52
:102DE00060E1680F608307C0E1E0F0E0EC0FFD1FD9
:102DF000E10FF11D80831F5F01E0143060F4E1E01A
:102E00002E1A3108FFEFAF1ABF0A2CEF22162FEF50
:102E1000320609F064CFCE0101960E94BA0D37C583
:102E200080913D0490E08E179F07A1F1EE0FFF1FE8
:102E3000E35CFE4F808180933F0491819093400436
:102E400010933D0461E00E94100561E08091400410
:102E50000E94100561E080913F040E94E00461E05F
:102E6000809140040E94E00480E40E94830D8CE87D
:102E70000E94830DE3E4F4E080E18E0F11928E1343
:102E8000FDCF81E0809341041092420483E494E0FA
:102E90000E94260D80919D01282F30E0813009F09D
:102EA00050C140919E0150E080919F012091A0016E
:102EB00030E0A1EAB1E0EBEDF1E0BF016B5D714004
:102EC000621773071CF49D919193F7CFF901E552B6
:102ED000FE4F108291E09093420420E030E0F9012F
:102EE000E552FE4F9081F901E55CFB4F992319F003
:102EF00023313105E1F43093570420935604158EA5
:102F00004131510514F040E150E050935404409396
:102F1000530480310CF08FE087FD8FEF80935504D0
:102F20004115510509F46EC060E070E00EC0958F48
:102F30002F5F3F4FD4CF6F5F7F4F6131710509F431
:102F4000CCC0FB01E55CFB4F1782962F6417750719
:102F500091F7603109F4C1C0D12C77E0C72EE0E2CF
:102F6000BE2E4D2D50E0421753070CF042C0A12C4D
:102F70008A01085A1B4FCA9CD0011124BD01665119
:102F80007F4FFB01F490F0E4FF1629F1FB019490D0
:102F9000F801E0800E2C000CFF08E92DF0E0EE16A1
:102FA000FF06B9F400E010E01196FD01E00FF11FFB
:102FB000E651FF4FF490E92FF0E0E55CFB4FF0861F
:102FC0009F5F903141F00F5F1F4F0630110569F789
:102FD00002C0A394D0CFFB016491603429F4FA01BC
:102FE000E55CFB4FB58EDA94D394903109F0B9CFFC
:102FF00074C0E92FF0E0E55CFB4F10869F5F9031D5
:10300000C1F76BC02115310541F4E3E4F4E090E130
:103010009E0F11929E13FDCF60C0D12C10925404CC
:103020001092530440E050E090E007E0C02E60E2D0
:10303000B62E421753070CF047C0A12C8A01085A3C
:103040001B4FCA9CD0011124BD0166517F4FFB016B
:10305000F490F0E4FF1621F1FB019490F801E08078
:103060000E2C000CFF08E92DF0E0EE16FF06A9F487
:10307000FD01ED0DF11DD7FCFA95E551FF4F1491BF
:10308000E92FF0E0E55CFB4F10879F5F903138F44B
:10309000D394F6E0DF12ECCF02C0A394D2CFD12CB0
:1030A000FB016491603431F4FA01E55CFB4FB58EAD
:1030B000415051094F5F5F4F903108F4BACF1092E1
:1030C00054041092530409C0E92FF0E0E55CFB4F73
:1030D00010869F5F9031C1F7F2CF082E000C990B3C
:1030E00027E030E0281B390BE3E4F4E037FD14C09F
:1030F00090E19E0F8081022E01C0880F0A94EAF7AA
:1031000081939E13F7CF809141048111D8C2E3E4EB
:10311000F4E090E19E0F0FC0079740E14E0F208131
:1031200030E0082E02C0359527950A94E2F72193E6
:103130004E13F5CFE8CF8081809581939E13FBCF0E
:10314000BEC2823009F08CC080919E0170919F01B7
:10315000A0EAB1E0EFEEF1E09D91919321E0EF3F25
:10316000F207D1F780310CF092C378300CF08FC3A6
:1031700020914104472F072E000C550B082E000C00
:10318000990BEFEEF1E060E16E0F2223A1F128E050
:1031900030E0241B350BEFEFFE2E01C0FF0C2A950B
:1031A000EAF7DC01AD5BBB4FEFEEF1E09C012F5E77
:1031B000314000271127041B150BC9018E0F9F1FDB
:1031C00097FD14C0EC90EF208081171644F490E036
:1031D000042E02C0959587950A94E2F705C0002E4B
:1031E00001C0880F0A94EAF78E298C9311963196C4
:1031F0006E13E3CF64C228E030E0241B350BEFEF01
:10320000FE2E01C0FF0C2A95EAF7DC01AD5BBB4F37
:10321000EFEEF1E08F5E914000271127041B150BA4
:103220009C012E0F3F1F37FD16C0EC90EF20208130
:1032300030E02095309517163CF4042E02C03595E9
:1032400027950A94E2F705C0002E01C0220F0A94C8
:10325000EAF72E292C93119631966E13E1CF2FC2E7
:103260002330310509F08FC020919E0180919F018C
:103270004091A0013AE0632F0E94F421592F90E081
:10328000FC01EE0FFF1F8E0F9F1FFC01E35CFC4F44
:10329000E491E0934304FC01E25CFC4FE491E09391
:1032A0004404FC01E15CFC4FE491E093450410927E
:1032B0004604E52FF0E0CF01880F991F8E0F9F1F66
:1032C000FC01E35CFC4FE491E0934704FC01E25C09
:1032D000FC4FE491E0934804FC01E15CFC4FE49175
:1032E000E0934904842F0E94F421392F90E0FC01DF
:1032F000EE0FFF1F8E0F9F1FFC01E35CFC4FE4915C
:10330000E0934C04FC01E25CFC4FE491E0934D043B
:10331000FC01E15CFC4FE491E0934E0410924F04F9
:10332000E32FF0E0CF01880F991F8E0F9F1FFC0144
:10333000E35CFC4FE491E0935004FC01E25CFC4F41
:10334000E491E0935104FC01E15CFC4FE491E093D3
:103350005204222331F088E280934A0480934B0484
:1033600004C010924A0410924B04809141048111D0
:10337000A6C1E3E4F4E090E19E0F80818095819303
:103380009E13FBCF9CC12430310509F080C280918F
:103390009E018093920180919F018093930180917F
:1033A000A001809394018091A10180939501C09028
:1033B0009201D0909301E0909401F0909501260144
:1033C000370177FA709477F8709420E030E0A90123
:1033D000C701B6010E94BC2787FF04C01201962CCA
:1033E000872C03C016019E2C8F2C13E020E03EE3B7
:1033F0004CE156E4C701B6010E949B2387FD03C040
:1034000089E08D870DC020E030EE49E754ECC7011C
:10341000B6010E94BC2718163CF08BE08D8789E02E
:103420008E878F87888BDBC020E030E0A901C70141
:10343000B6010E94BC27A82EAA1CAA24AA1C00E040
:1034400060E070E080E09FE3011741F020E030E0B1
:1034500040E251E40E949B220F5FF6CF9B01AC013A
:10346000B101892D982D0E942F222B013C010E9431
:103470001423FB019B0100E0C9016AE070E00E9497
:103480000022A1E0B0E0AC0FBD1FA00FB11D8AE08B
:10349000689F201911242C930F5F9B01672B61F704
:1034A000802F8A0DB82EB10E94E09B1518F414E00D
:1034B000181B9CCFF02E8CE08D878E878F87888B92
:1034C000BF0180E090E00E94C1279B01AC01C301D5
:1034D000B2010E942E222B013C0184E08B19AA200C
:1034E00039F0FE01E80FF11D8BE0858785E08B192F
:1034F000080F802F8F19FF2069F0EDE0F0E0EC0F4E
:10350000FD1FE80FF11DDE01AF0DB11D8C91808311
:10351000FA94EFCF112309F462C0033071F420E074
:1035200030E040E251E4C301B2010E9422280E942F
:103530000D23672B11F58CE075CF023071F420E07C
:1035400030E048EC52E4C301B2010E9422280E94FC
:103550000D23672B91F48CE064CF013071F420E0EF
:1035600030E04AE754E4C301B2010E9422280E94DD
:103570000D23672B11F48CE053CFFF24F394F00E4E
:10358000EDE0F0E0EC0FFD1FE00FF11D8AE080831D
:10359000115028F120E030E040E251E4C301B201D3
:1035A0000E9422284B015C010E940D2301E00F0DB7
:1035B000EDE0F0E0EC0FFD1FEF0DF11D6083072E35
:1035C000000C880B990B0E94C3279B01AC01C5011D
:1035D000B4010E942E222B013C01F02ED9CFED85A3
:1035E000F0E0CF01880F991F8E0F9F1FFC01E35C55
:1035F000FC4FE491E0934304FC01E25CFC4FE49156
:10360000E0934404FC01E15CFC4FE491E093450449
:1036100010924604EE85F0E0CF01880F991F8E0FBF
:103620009F1FFC01E35CFC4FE491E0934704FC0125
:10363000E25CFC4FE491E0934804FC01E15CFC4F48
:10364000E491E093490410924A04EF85F0E0CF0141
:10365000880F991F8E0F9F1FFC01E35CFC4FE491C4
:10366000E0934B04FC01E25CFC4FE491E0934C04DA
:10367000FC01E15CFC4FE491E0934D0410924E0498
:10368000E889F0E0CF01880F991F8E0F9F1FFC0182
:10369000E35CFC4FE491E0934F04FC01E25CFC4FDF
:1036A000E491E0935004FC01E15CFC4FE491E09371
:1036B00051041092520480914104882329F083E43C
:1036C00094E00E94260DE3C0E3E4F4E090E19E0F55
:1036D0008081809581939E13FBCFF1CF8091E00391
:1036E00090E08E179F0761F0EE0FFF1FE35CFE4F27
:1036F00080818093DE0381818093DF031093E00358
:1037000011E080919D01811101C010E061E059C07C
:103710006BE671E0CE010D960E944A04009198017B
:1037200010E003501109E12CF12CE016F10664F4CD
:10373000F701EA56FE4F6681CE010D960E94EF0317
:10374000AFEFEA1AFA0AF1CF1A8219821C821B82A1
:103750001E821D826D857E856115710531F0498956
:103760005A89CE0101960E941F04CE0101960E9443
:103770005E0C89819A810E94AC2540E050E06BE6A6
:1037800071E0CE010D960E941F048D859E850E94DA
:10379000AC257DC08091E00390E08E179F0761F01B
:1037A000EE0FFF1FE35CFE4F80818093DE0381817B
:1037B0008093DF031093E00310919D0161E01230CC
:1037C00040F48091DE030E941005612F8091DE039A
:1037D0000FC0123009F460E08EED93E00E941307F1
:1037E00056C061E0812F0E94100560919D01812FDC
:1037F0000E94E0044CC061E0812F0E94100560919E
:103800009D0170E0812F0E944C0541C086E090E050
:103810000E9467098C0188E090E00E9467091016F9
:1038200011069CF5AC01990F660B770BC8010E943D
:10383000F10F2DC010919D01153B48F5CF010E945D
:10384000020C812F90E00E947E0B21C00E94FC059B
:103850000E94C12720E030E04AE754E40E949B2206
:103860006093FF0170930002809301029093020223
:103870000EC060E070E08AEE93E00E94F10760E025
:1038800070E082EE93E00E94F1070E94BF0E0E945A
:10389000480A1092050287E00E94AB0511E08536C8
:1038A00091050CF010E010931C0280911B02181778
:1038B00009F478C080918204873009F0EBC18091CF
:1038C0008304823009F0E6C110931B02112309F42E
:1038D00069C080911A0281111FC081E080931A0291
:1038E00088EC90E090930201809301010E94760998
:1038F000F8944CE251E060E070E08AE491E00E94CC
:10390000F10F78940E94BF0E40E060E080E00E94DA
:103910004E0F40E06AE020C0813001F582E08093E4
:103920001A0288EC90E090930201809301010E94BA
:103930007609F8944CE251E060E070E08AE491E0AE
:103940000E94F10F78940E94BF0E40E060E080E09A
:103950000E944E0F4AE060E080E020C0823011F506
:1039600010921A028CED90E0909302018093010175
:103970000E947609F8944CE251E060E070E086E243
:1039800091E00E94F10F78940E94BF0E40E060E049
:1039900080E00E944E0F4AE06AE08AE00E944E0FEB
:1039A0000E94CB0E00911A02013091F128F00230F2
:1039B00009F478C00C94C31110910B02123099F0E5
:1039C00048F41123C9F0113011F00C94C3110E9476
:1039D000FA090BC0143069F0183011F00C94C311BF
:1039E0000E94890902C00E94E70910930A020C9400
:1039F000C3110E94BB09F9CF80910A02882311F4F8
:103A00000C94C31110920A020E9476090C94C311FF
:103A100086E490E00E94C70A0E941423162F80912A
:103A2000100281110CC00E94FC0560930C0270937F
:103A30000D0280930E0290930F020093100286E015
:103A40000E94AB05BC01990F880B990B611571059C
:103A50008105910511F00E94B3270E94AE271150F5
:103A60001F3018F00E94FA0915C022E030E040E053
:103A700050E00E94E028662329F0613059F40E944A
:103A8000890902C00E94BB0960E273E080E090E017
:103A90000E94C20564E670E080E090E00E94C205EA
:103AA0000C94C31160E080916C040E941005809119
:103AB0006C040E94B7048C018CE694E00E946E0FA7
:103AC00021E030E0012B11F420E030E0220F331F21
:103AD000282B8091010190910201873E910534F0DD
:103AE00086EE90E090930201809301012230D9F09C
:103AF000233059F1213051F00E94FA09EAE0F0E058
:103B0000F0931902E09318020C94C3110E94FA0971
:103B100080911802909119028230910514F40C944E
:103B2000C31101970CC00E94FA098091180290916C
:103B300019028431910514F00C94C31101969093ED
:103B40001902809318020C94C3118091180290916D
:103B500019028A30910521F40E94E7090C94C311DF
:103B600000910101109102010A975CF4C8016BEF0A
:103B70007FEF0E9414228AEE93E00E94F107B801C1
:103B80000DC066277727601B710B8AEE93E00E94B9
:103B9000F107C80165E070E00E94142282EE93E014
:103BA0000E94F1070C94C31110920B020E94FC05B5
:103BB0006093CA017093CB018093CC019093CD01A7
:103BC00080911A0281110CC080918204873051F5D6
:103BD00080918304823031F54AE06AE08AE01CC0BB
:103BE000813059F480918204873009F580918304F3
:103BF0008230E9F440E06AE00EC0823011F00C94AB
:103C00007F12809182048730B9F4809183048230DE
:103C100099F44AE060E080E00E944E0F0E94CB0ED3
:103C20000C947F1262E087E00E94800FD5CF62E0A3
:103C300087E00E94800FDECF62E087E00E94800F65
:103C4000E8CF0E94FC05DC01CB018C199D09AE096F
:103C5000BF098E3E9240A105B10510F40C94AA1341
:103C60000C94C113220F331FF901E35CFE4F9081C6
:103C70009093DE0391819093DF031093E003809390
:103C8000E1030C94D914812F2E8F0E94800F2E8D6A
:103C90000C94E61562E087E00E94800F15CE8093B9
:103CA0000B0280918204873009F0CFC18091830498
:103CB000823009F0CAC140E060E080E00E944E0F0F
:103CC00040E08BCF81349105A105B10508F0C3C058
:103CD0008C309105A105B105A9F481E08093000124
:103CE000F8944CE251E060E070E086E291E00E94DE
:103CF000F10F789485E790E09093020180930101A1
:103D00000C947F128D309105A105B10508F060C0BB
:103D100088309105A105B10581F481E0809300010F
:103D2000F8944CE251E060E070E089E891E00E9494
:103D3000F10F78948AEB90E0DFCF89309105A105EF
:103D4000B105F9F481E08093000180911A0281119C
:103D50000C947F1288E080930B028091820487305C
:103D600009F07DC180918304823009F078C140E080
:103D700060E080E00E944E0F20E04AE06AE080E0D0
:103D800024C00797A105B10511F00C947F1281E0C2
:103D90008093000180911A0281110C947F1284E0BB
:103DA00080930B0280918204873009F05DC180917D
:103DB0008304823009F058C140E060E080E00E9456
:103DC0004E0F20E04AE06AE081E00E94270F26CFF4
:103DD00089319105A105B105E9F481E080930001E5
:103DE00080911A0281110C947F1282E080930B0261
:103DF00080918204873009F02DC180918304823044
:103E000009F028C140E060E080E00E944E0F40E0F1
:103E100060E0E4CE8C319105A105B10559F481E053
:103E200080930001F8944CE251E060E070E089EB8F
:103E300091E07DCF4897A105B10511F00C947F1258
:103E400081E080930001F8944CE251E060E070E082
:103E50008AE491E04CCF87349105A105B10541F585
:103E600081E08093000188EC90E0909302018093C0
:103E7000010182E080931A020E947609F8944CE2D4
:103E800051E060E070E08EE591E00E94F10F7894DF
:103E900080918204873009F0D3C0809183048230FE
:103EA00009F0CEC040E060E080E00E944E0FB1CE4D
:103EB00088349105A105B10508F06FC085349105DE
:103EC000A105B10539F581E0809300018CED90E00A
:103ED000909302018093010110921A020E947609C8
:103EE000F8944CE251E060E070E086E291E00E94DC
:103EF000F10F789480918204873009F097C0809107
:103F00008304823009F092C040E060E080E00E94CB
:103F10004E0F62CE86349105A105B10538F181E0DE
:103F20008093000128EC30E03093020120930101DE
:103F300080931A020E947609F8944CE251E060E006
:103F400070E08AE491E00E94F10F789480918204FD
:103F5000873009F070C080918304823009F06BC013
:103F600040E060E080E00E944E0F44CE8234910534
:103F7000A105B10511F00C947F1281E0809300013E
:103F8000F8944CE251E060E070E08CE292E00E9434
:103F9000F10F78948FEF90E0AFCE82359105A105B7
:103FA000B10559F481E080930001F8944CE251E0AE
:103FB00060E070E08DE492E0EACF83359105A105E1
:103FC000B10590F48A349105A105B10511F00C9466
:103FD0007F1281E080930001F8944CE251E060E0B0
:103FE00070E085E992E0D3CF8A359105A105B1054E
:103FF00059F481E080930001F8944CE251E060E0D4
:1040000070E08FEE91E093CE8E359105A105B1055C
:1040100011F00C947F1281E080930001F8944CE23F
:1040200051E060E070E08EE591E061CE62E087E013
:104030000E94800F69CF62E087E00E94800F90CFDE
:1040400062E087E00E94800F2DCF62E087E00E944F
:10405000800F31CE62E087E00E94800FD3CE62E015
:1040600087E00E94800F83CE62E087E00E94800F8D
:10407000A3CECF93DF938091D5039091D6030E9476
:10408000AC25C7E1D4E08A8D9B8D0E94AC258C893C
:104090009D890E94AC25C0E8D4E08E819F810E945A
:1040A000AC251F821E8288859985DF91CF910C9463
:1040B000AC251F93CF93DF931092A9021092A80210
:1040C00088EE93E0A0E0B0E08093AA029093AB0268
:1040D000A093AC02B093AD0221E231E03093A7028D
:1040E0002093A60225EC30E03093B3022093B20275
:1040F00024EC30E03093B5022093B40220EC30E0A1
:104100003093B7022093B60221EC30E03093B9022D
:104110002093B80222EC30E03093BB022093BA0225
:1041200026EC30E03093BD022093BC021092BF0217
:104130001092C0021092C1021092C20221E030E03F
:1041400030939D0420939C0410929E0510929F052D
:104150001092A0051092A1051092A2051092A3053D
:104160001092A4051092A5051092A6051092A7051D
:104170001092A8051092A9051092AA051092AB05FD
:104180001092AD051092AC051092AE051092AF05DD
:104190001092B0051092B1051092B2051092B305BD
:1041A0001092B4051092B5051092B60510929204C3
:1041B000109291048093930490939404A093950497
:1041C000B093960481E391E09093900480938F04E0
:1041D000109280041092810410928204ECECF3E0BF
:1041E000E491E0938E04E8EBF3E0E491F0E0EE0F6D
:1041F000FF1FE255FC4F8591949190938B0480931F
:104200008A0461E080E00E94100580E190E09093D4
:1042100085048093840480E390E00E9417259093A6
:10422000870480938604892B21F48CE691E00E9418
:10423000302720E030E08091840490918504AC0127
:10424000440F551F840F951F2817390750F4E0912C
:104250008604F0918704E20FF31F10822F5F3F4F17
:10426000EACF0E9417259093890480938804892BB4
:1042700021F48CE691E00E94302720E030E080912C
:10428000840490918504AC01440F551F840F951F41
:104290002817390750F4E0918804F0918904E20F5F
:1042A000F31F10822F5F3F4FEACF10928204C2E0CB
:1042B000C093830480E18093720481E1809373044E
:1042C00083E08093740419E010936C04DAE0D093D7
:1042D0006D04C0936E048BE394E00E9423076BE6A9
:1042E00071E08BE294E00E944A046BE671E081E3A6
:1042F00094E00E944A0460E082E00E941005C093AE
:104300006803109237041092380410923904109206
:104310003A04109222041092210410922304109265
:10432000290440E050E06BE671E08BE294E00E94EB
:104330001F0410922A0487E194E00E94280761E09C
:1043400083E00E94100560E083E00E94E004109288
:10435000130410921404109215048FE094E00E944C
:10436000230788E080939B048CEF93E00E9423074F
:1043700082EF93E00E94230786E08093EA0387E0C0
:104380008093EB031093EC0385E08093E20384E0D9
:104390008093E303D093E4038EED93E00E94230720
:1043A000809167038C30A0F491E0980F909367039D
:1043B0008093DB0390E0FC01EE0FFF1F8E0F9F1F29
:1043C000FC01ED5BFC4F88EB9BE09283818303C093
:1043D0008FEF8093DB0368E871E085ED93E0DF9178
:1043E000CF911F910C944A04991B79E004C0991F46
:1043F000961708F0961B881F7A95C9F7809508953F
:10440000AA1BBB1B51E107C0AA1FBB1FA617B707FA
:1044100010F0A61BB70B881F991F5A95A9F7809516
:104420009095BC01CD01089597FB072E16F40094DA
:1044300007D077FD09D00E94002207FC05D03EF48A
:10444000909581959F4F0895709561957F4F089540
:10445000EE0FFF1F0590F491E02D09945058BB27F3
:10446000AA270E9446220C94A6280E94982838F079
:104470000E949F2820F039F49F3F19F426F40C94F1
:1044800095280EF4E095E7FB0C948F28E92F0E9405
:10449000B72858F3BA17620773078407950720F007
:1044A00079F4A6F50C94D9280EF4E0950B2EBA2FCA
:1044B000A02D0B01B90190010C01CA01A00111242A
:1044C000FF27591B99F0593F50F4503E68F11A16D6
:1044D000F040A22F232F342F4427585FF3CF469567
:1044E00037952795A795F0405395C9F77EF41F1689
:1044F000BA0B620B730B840BBAF09150A1F0FF0F53
:10450000BB1F661F771F881FC2F70EC0BA0F621F3E
:10451000731F841F48F4879577956795B795F7952E
:104520009E3F08F0B0CF9395880F08F09927EE0FC3
:104530009795879508950E94AF220C94A6280E9413
:104540009F2858F00E94982840F029F45F3F29F0F6
:104550000C948F2851110C94DA280C9495280E9401
:10456000B72868F39923B1F3552391F3951B550BA5
:10457000BB27AA2762177307840738F09F5F5F4F36
:10458000220F331F441FAA1FA9F335D00E2E3AF075
:10459000E0E832D091505040E695001CCAF72BD08D
:1045A000FE2F29D0660F771F881FBB1F26173707DE
:1045B0004807AB07B0E809F0BB0B802DBF01FF2710
:1045C00093585F4F3AF09E3F510578F00C948F2836
:1045D0000C94DA285F3FE4F3983ED4F38695779500
:1045E0006795B795F7959F5FC9F7880F911D9695C9
:1045F000879597F90895E1E0660F771F881FBB1F25
:10460000621773078407BA0720F0621B730B840BD1
:10461000BA0BEE1F88F7E09508950E941423689462
:10462000B1110C94DA2808950E94BF2888F09F5792
:1046300098F0B92F9927B751B0F0E1F0660F771FC6
:10464000881F991F1AF0BA95C9F714C0B13091F0BC
:104650000E94D928B1E008950C94D928672F782FAB
:104660008827B85F39F0B93FCCF386957795679581
:10467000B395D9F73EF490958095709561957F4FED
:104680008F4F9F4F08950E94832390F09F3748F4E7
:10469000911116F00C94DA2860E070E080E89FEB4E
:1046A000089526F41B16611D711D811D0C945A235B
:1046B0000C947523882371F4772321F09850872B6D
:1046C000762F07C0662311F499270DC09051862BD1
:1046D00070E060E02AF09A95660F771F881FDAF77E
:1046E000880F9695879597F908959F3F31F09150DF
:1046F00020F4879577956795B795880F911D9695C6
:10470000879597F908950E94BF28A0F0BEE7B917D2
:1047100088F4BB279F3860F41616B11D672F782FD9
:104720008827985FF7CF869577956795B11D939504
:104730009639C8F308950E94FE2708F48FEF089574
:10474000FA01EE0FFF1F309621053105A1F1611529
:10475000710561F48038BFE39B0749F16894903894
:10476000810561F08038BFEF9B0741F099234AF53E
:10477000FF3FE1053105210519F1E8940894E7951B
:10478000D901AA2329F4AB2FBE2FF85FD0F310C0B4
:10479000FF5F70F4A695E0F7F73950F019F0FF3A93
:1047A00038F49F779F930DD00F9007FC9058089591
:1047B00046F00C94952860E070E080E89FE308954F
:1047C0004FE79F775F934F933F932F930E949B24D4
:1047D0002F913F914F915F910E9422280C94F823D2
:1047E00029F416F00C948F280C94D9280C94952851
:1047F0000E94BF28A8F39638A0F707F80F92E89414
:104800002BE33AEA48EB5FE70E9438280F920F92B9
:104810000F924DB75EB70F920E94E324E8E6F0E0F6
:104820000E942A244F915F91EF91FF91E595EE1F31
:10483000FF1F49F0FE57E0684427EE0F441FFA952A
:10484000E1F74195550B0E945D240F9007FE0C94F3
:1048500051240895DF93CF931F930F93FF92EF920C
:10486000DF927B018C01689406C0DA2EEF010E9472
:104870003528FE01E894A5912591359145915591F2
:10488000A6F3EF010E944622FE019701A801DA94E7
:1048900069F7DF90EF90FF900F911F91CF91DF911B
:1048A00008959B01AC0160E070E080E89FE30C9408
:1048B0009B220C948F280C9475230E94BF28D8F358
:1048C0009923C9F3940F511DA3F39150504094F0D4
:1048D00059F0882332F0660F771F881F915050409F
:1048E000C1F79E3F51052CF7880F911D969587952E
:1048F00097F908955F3FACF0983E9CF0BB278695F2
:1049000077956795B79508F4B1609395C1F7BB0F9C
:1049100058F711F460FFE8CF6F5F7F4F8F4F9F4FC5
:10492000E3CF0C94DA2816F00C9475230C94952898
:1049300068940C948F280E94BF28A8F39923C1F390
:10494000AEF3DF93CF931F930F93FF92C92FDD2711
:1049500088232AF02197660F771F881FDAF720E057
:1049600030E040E85FEB9FE3883920F0803E38F08C
:1049700021968F770E942F22E0E9F0E004C00E9488
:104980002F22EDEBF0E00E942A248B01BE01EC0106
:10499000FB2E6F5771097595771F880B990B0E9435
:1049A000C32728E132E741E35FE30E943528AF2DBA
:1049B0009801AE01FF900F911F91CF91DF910E945E
:1049C00046220C94A628FA01DC01AA0FBB1F9B010A
:1049D000AC01BF5728F4222733274427507820C042
:1049E000B75190F4AB2F0024469537952795011CBD
:1049F000A395D2F3002071F0220F331F441FB3950B
:104A0000DAF30ED00C942E2261307105A0E88A07EB
:104A1000B94630F49B01AC01662777278827907848
:104A2000309621F020833183428353830895CF93BE
:104A3000DF938230910510F482E090E0E091B905B7
:104A4000F091BA0520E030E0C0E0D0E0309711F1FD
:104A50004081518148175907C0F04817590761F440
:104A600082819381209719F09B838A832BC0909336
:104A7000BA058093B90526C02115310519F04217F2
:104A8000530718F49A01BE01DF01EF010280F381A0
:104A9000E02DDCCF2115310509F1281B390B24301D
:104AA000310590F412968D919C91139761157105C3
:104AB00021F0FB019383828304C09093BA05809315
:104AC000B905FD01329644C0FD01E20FF31F819349
:104AD0009193225031092D933C933AC02091B70510
:104AE0003091B805232B41F4209105013091060146
:104AF0003093B8052093B70520910301309104014C
:104B00002115310541F42DB73EB740910701509171
:104B10000801241B350BE091B705F091B805E217A9
:104B2000F307A0F42E1B3F0B2817390778F0AC01D0
:104B30004E5F5F4F2417350748F04E0F5F1F5093AD
:104B4000B8054093B7058193919302C0E0E0F0E08F
:104B5000CF01DF91CF9108950F931F93CF93DF93F0
:104B6000009709F48CC0FC013297138212820091E5
:104B7000B9051091BA050115110581F42081318123
:104B8000820F931F2091B7053091B8052817390778
:104B900079F5F093B805E093B70571C0D80140E00E
:104BA00050E0AE17BF0750F412962D913C91139729
:104BB000AD012115310509F1D901F3CF9D01DA01CC
:104BC0003383228360817181860F971F8217930739
:104BD00069F4EC0128813981260F371F2E5F3F4F82
:104BE000318320838A819B8193838283452B29F49F
:104BF000F093BA05E093B90542C01396FC93EE9387
:104C00001297ED01499159919E01240F351FE2172A
:104C1000F30771F480819181840F951F029611969C
:104C20009C938E938281938113969C938E9312977B
:104C3000E0E0F0E0D80112968D919C9113970097D7
:104C400019F0F8018C01F6CF8D919C9198012E5F9F
:104C50003F4F820F931F2091B7053091B805281759
:104C6000390769F4309729F41092BA051092B90502
:104C700002C0138212821093B8050093B705DF912A
:104C8000CF911F910F910895A0E0B0E0EAE4F6E221
:104C90000C941629EC01009721F4CB010E941725F2
:104CA000B8C0FC01E60FF71F9C0122503109E21742
:104CB000F30708F4ACC0D9010D911C9111970617A8
:104CC0001707B0F00530110508F49FC0C80104971C
:104CD0008617970708F499C002501109061B170B95
:104CE000019311936D937C93CF010E94AC258DC0ED
:104CF0005B01A01AB10A4C01800E911EA091B9056A
:104D0000B091BA0540E050E0E12CF12C109709F485
:104D10004AC0A815B905D1F56D907C901197630133
:104D200082E0C80ED11CCA14DB0480F1A3014A1929
:104D30005B096A0182E0C80ED11C1296BC901297E2
:104D40001396AC91B5E0CB16D10440F0B282A383A8
:104D500051834083D9016D937C930AC00E5F1F4F2E
:104D6000C301800F911FF90191838083EB2DFA2FEE
:104D7000E114F10431F0D7011396FC93EE931297EE
:104D800044C0F093BA05E093B9053FC08D919C9162
:104D900011974817590708F4AC017D0112960D9040
:104DA000BC91A02DB3CF8091B7059091B80588151F
:104DB0009905E1F446175707C8F4809103019091D3
:104DC0000401009741F48DB79EB7409107015091BF
:104DD0000801841B950BE817F907C8F4F093B80590
:104DE000E093B705F901718360830FC0CB010E9486
:104DF00017257C01009759F0A801BE010E942027C9
:104E0000CE010E94AC25C70104C0CE0102C080E0E3
:104E100090E0CDB7DEB7EEE00C94322981E090E06F
:104E2000F8940C947A29FB01DC0104C08D91019067
:104E3000801921F441505040C8F7881B990B089500
:104E4000FB01DC0102C001900D9241505040D8F7A7
:104E50000895FB01DC0101900D920020E1F7089517
:104E60000F931F93CF93DF93E091BD05F091BE05A3
:104E7000238121FF1BC08C01D0E0C0E0F8018191AB
:104E80008F016091BD057091BE05DB011896ED9113
:104E9000FC911997882331F00995892B79F3DFEF7D
:104EA000CFEFECCF8AE00995892B19F08FEF9FEFB8
:104EB00002C08D2F9C2FDF91CF911F910F910895EC
:104EC0008F929F92AF92BF92CF92DF92EF92FF921A
:104ED000CF93DF93EC01688179818A819B81611591
:104EE00071058105910521F464E279ED8BE597E088
:104EF0002DE133EF41E050E00E94E02849015A01E2
:104F00009B01AC01A7EAB1E40E94FF286B017C0180
:104F1000ACEEB4EFA50194010E940D29DC01CB0198
:104F20008C0D9D1DAE1DBF1DB7FF03C00197A109CC
:104F3000B04888839983AA83BB83BC01CD019F7746
:104F4000DF91CF91FF90EF90DF90CF90BF90AF9027
:104F50009F908F9008950E946027089589E091E0C6
:104F60000E94602708956093090170930A0180935D
:104F70000B0190930C0108950E94FE2708F481E034
:104F80000895E89409C097FB3EF49095809570953C
:104F900061957F4F8F4F9F4F9923A9F0F92F96E985
:104FA000BB279395F695879577956795B795F111FA
:104FB000F8CFFAF4BB0F11F460FF1BC06F5F7F4F97
:104FC0008F4F9F4F16C0882311F096E911C07723A9
:104FD00021F09EE8872F762F05C0662371F096E8B2
:104FE000862F70E060E02AF09A95660F771F881F81
:104FF000DAF7880F9695879597F90895990F000825
:10500000550FAA0BE0E8FEEF16161706E807F9079A
:10501000C0F012161306E407F50798F0621B730B35
:10502000840B950B39F40A2661F0232B242B252BB6
:1050300021F408950A2609F4A140A6958FEF811D59
:10504000811D08950E9435280C94A6280E94982856
:1050500038F00E949F2820F0952311F00C948F289F
:105060000C94952811240C94DA280E94B72870F328
:10507000959FC1F3950F50E0551F629FF001729FFD
:10508000BB27F00DB11D639FAA27F00DB11DAA1F0C
:10509000649F6627B00DA11D661F829F2227B00D59
:1050A000A11D621F739FB00DA11D621F839FA00DE4
:1050B000611D221F749F3327A00D611D231F849F34
:1050C000600D211D822F762F6A2F11249F5750408B
:1050D0009AF0F1F088234AF0EE0FFF1FBB1F661F06
:1050E000771F881F91505040A9F79E3F510580F0CF
:1050F0000C948F280C94DA285F3FE4F3983ED4F3A5
:10510000869577956795B795F795E7959F5FC1F772
:10511000FE2B880F911D9695879597F9089597F91D
:105120009F6780E870E060E008959FEF80EC08954D
:1051300000240A9416161706180609060895002476
:105140000A9412161306140605060895092E0394F0
:10515000000C11F4882352F0BB0F40F4BF2B11F464
:1051600060FF04C06F5F7F4F8F4F9F4F089557FDC3
:105170009058440F551F59F05F3F71F04795880FC5
:1051800097FB991F61F09F3F79F08795089512165C
:1051900013061406551FF2CF4695F1DF08C0161608
:1051A00017061806991FF1CF8695710561050894B9
:1051B0000895E894BB2766277727CB0197F90895D0
:1051C000052E97FB1EF400940E94F72857FD07D088
:1051D0000E94492907FC03D04EF40C94F7285095FF
:1051E0004095309521953F4F4F4F5F4F08959095D3
:1051F0008095709561957F4F8F4F9F4F08950E94C6
:105200006B29A59F900DB49F900DA49F800D911DBB
:1052100011240895B7FF0C94FF280E94FF28821BD9
:10522000930B08952F923F924F925F926F927F92CD
:105230008F929F92AF92BF92CF92DF92EF92FF92A6
:105240000F931F93CF93DF93CDB7DEB7CA1BDB0B52
:105250000FB6F894DEBF0FBECDBF09942A883988F7
:1052600048885F846E847D848C849B84AA84B984FE
:10527000C884DF80EE80FD800C811B81AA81B9810A
:10528000CE0FD11D0FB6F894DEBF0FBECDBFED011E
:105290000895A1E21A2EAA1BBB1BFD010DC0AA1F77
:1052A000BB1FEE1FFF1FA217B307E407F50720F08F
:1052B000A21BB30BE40BF50B661F771F881F991F0A
:1052C0001A9469F760957095809590959B01AC0153
:1052D000BD01CF010895A29FB001B39FC001A39F5C
:1052E000700D811D1124911DB29F700D811D11241F
:1052F000911D089511E0C1EFD1E004C0FE010E94AC
:0E53000028222196C23FD107C9F7F894FFCFAB
:10530E0001C8000000C1058000010000000E000F62
:10531E000010001100120013001400150000000010
:10532E0000A0021C02690247025B02E702000000B5
:10533E0000B503A1039A0397039403930300000B94
:10534E000C090A10110E0F00000814150D08140692
:10535E0007050400000000000000000000000056D9
:10536E00657273696F6E3A20000D0A00546865729B
:10537E0065206973206E6F7420656E6F7567682087
:10538E007370616365210D0030362E30312E303052
:02539E003900D4
:00000001FF
