:100000000C9449020C9471020C9471020C947102CC
:100010000C9471020C9471020C9471020C94851B67
:100020000C9471020C9471020C9471020C947C2853
:100030000C9471020C9471020C9471020C94710274
:100040000C947F2A0C9471020C94142E0C94462E5E
:100050000C9471020C9471020C9471020C94710254
:100060000C94810C0C94710218092C074A07600744
:10007000600779070B0960078809880988098809DA
:1000800088098E07AA07E2078809FD07D7078809AC
:1000900088092E086209A408BD08DF0882088809BB
:1000A0008809880927092F098809880988096808A3
:1000B00088098809880988098809880988098809B8
:1000C00088098809880988098809880944094F0925
:1000D000084AD73B3BCE016E84BCBFFDC12F3D6CAF
:1000E00074319ABD56833DDA3D00C77F11BED9E415
:1000F000BB4C3E916BAAAABE000000803F080000E6
:1001000000BE922449123EABAAAA2ABECDCCCC4C4A
:100110003E00000080BEABAAAAAA3E00000000BFBD
:10012000000000803F0000000000084178D3BB437E
:1001300087D1133D190E3CC3BD4282AD2B3E68EC06
:100140008276BED98FE1A93E4C80EFFFBE01C4FF8D
:100150007F3F000000000007634236B79BD8A71A14
:1001600039685618AEBAAB558C1D3CB7CC5763BD39
:100170006DEDFD753EF6177231BF000000803F0047
:100180000E000F00100011001200130014001500E3
:100190003F065B4F666D7D077F6F777C395E7971B7
:1001A000BF86DBCFE6EDFD87FFEFF7FCB9DEF9F1A7
:1001B00000407C447C007C005C547454547C70107F
:1001C0007C74545C7C545C40407C7C547C74547CD7
:1001D000000400202020000000200000000000009B
:1001E00030007C82827C00310042FE02000032003E
:1001F000468A92620033004492926C0034001C6480
:10020000FE04003500F292928C0036007C92924CF3
:10021000003700C08E90E00038006C92926C00397C
:10022000006492927C006100042A2A1E006200FE93
:1002300012120C0063000C1212120064000C121255
:10024000FE0065001C2A2A18006600103E5050006F
:1002500067000815151E006800FE101E00006900EA
:10026000002E0000006A0002012E00006B00FE0854
:100270001412006C0000FE0200006D001E100E1033
:100280000E6E001E10100E006F000C12120C00708B
:10029000001F12120C0071000C12121F0072001EBF
:1002A00008101000730012292512007400103E126D
:1002B000000075001C02021E0076180402041800DB
:1002C0007718061C0618007800120C0C1200790032
:1002D0001805051E007A0012161A120041007E88C9
:1002E000887E004200FE92926C0043007C82824431
:1002F000004400FE82827C004500FE92928200460D
:1003000000FE9090800047007C82925C004800FED6
:100310001010FE00490082FE8200004A000C02021A
:10032000FC004B00FE1028C6004C00FE020202003A
:100330004D00FE403040FE4E00FE403008FE4F00B3
:100340007C8282827C5000FE9090600051007C8212
:100350008A847A5200FE9894620053006492924C10
:1003600000540080FE8080005500FC0202FC005614
:1003700000F00C020CF05700FE043804FE5800C6D2
:100380003838C60059C0201E20C0005A00869AB2D4
:10039000C2002C00010E0C00002E0000060600001A
:1003A000257254781E2A4E2100007A0000003F007A
:1003B000204A3000002D0010101010002B08083EBD
:1003C0000808002F00020C3040002A2214081422D2
:1003D000003A0000140000002200C000C00000230A
:1003E00028FE28FE28002800007C8200002900004A
:1003F000827C00003B0002240000007E0040804020
:1004000080003B0002240000003D0028282828002E
:100410007C0000FE0000003E0082442810003C00EA
:100420001028448200400000000000000000000886
:1004300000020100000304070000000000000000AB
:10044000010204081020408001020408102001026B
:100450000408102004040404040404040202020238
:10046000020203030303030300000000230026002D
:10047000290000000000250028002B0000000000DB
:10048000240027002A00DF059F0B3C16762E3F062E
:10049000401611241FBECFEFD8E0DEBFCDBF11E064
:1004A000A0E0B1E0E6E4F0E702C005900D92A639C5
:1004B000B107D9F726E0A6E9B1E001C01D92A73A3D
:1004C000B207E1F714E0CEE8D4E004C02297FE01C1
:1004D0000E947D35C638D107C9F70E94BA2E0C9408
:1004E00016380C940000CF92DF92EF92FF920F9398
:1004F0001F93E82FF92F05C0015011092109310977
:1005000061F1908196239417B9F305C00150110948
:100510002109310911F1908196239413F7CFC12C51
:10052000D12CE12CF12C0AC08FEFC81AD80AE80AA6
:10053000F80A0C151D052E053F0579F080818623EC
:10054000841791F36C2D7D2D8E2D9F2D1F910F9172
:10055000FF90EF90DF90CF90089560E070E080E032
:1005600090E01F910F91FF90EF90DF90CF90089552
:100570008DEE92E00C94D81080E096E00C94172F4A
:10058000FC01E651FE4F808180932502818180939A
:10059000260280912502909126020895A7E2B2E0FA
:1005A000FC01E651FE4F80818C938181809328026B
:1005B000828180932902838180932A026D917D91AB
:1005C0008D919C910895E6EAF1E020E030E08651BB
:1005D0009E4F2617370744F4DC01A20FB31F4C913E
:1005E00041932F5F3F4FF5CFFB01EA55FE4F10823D
:1005F00086EA91E00895E6E9F1E020E030E08651F6
:100600009E4F261737075CF42031310541F0DC019D
:10061000A20FB31F4C9141932F5F3F4FF2CF86E95A
:1006200091E00895EDEBF1E020E030E0419151914F
:100630004817590791F0452B41F4F901EE0FFF1FC0
:10064000E354FE4F9183808308C02F5F3F4F2830D3
:10065000310561F780E090E00895C9010895AF92F7
:10066000BF92CF92DF92EF92FF920F931F93CF939F
:10067000DF93CDB7DEB72D970FB6F894DEBF0FBE70
:10068000CDBFD090F001ED2CF12C8D30910509F407
:1006900052C15CF58830910509F45CC0ECF48330FC
:1006A000910509F433C1059709F017C286E090E07F
:1006B0000E94C0028C0169E08EE593E00E94FA1569
:1006C000B8018EE593E00E94061688E090E00E9453
:1006D000C0028C016AE034C08A30910519F10CF433
:1006E0009AC00B9709F466C0F8C18132910509F4EC
:1006F000B4C164F48E31910509F47DC18032910555
:1007000009F483C1449709F0E8C151C189329105C8
:1007100009F499C08233910509F4C5C1829709F0A3
:10072000DCC17FC187E090E00E94C0028C018EE5B1
:1007300093E00E94462590E08E159F0529F06D2DCF
:100740008EE593E00E94FA15B8018EE593E00E94D1
:100750000616C3C1A090F101B090F2011091F3010F
:10076000C090F4010091F5018EE393E00E944625CC
:1007700090E08E159F0509F0A9C18EE393E00E94D9
:1007800049258A11A3C1BB2049F06FEF6B0D2C2DB9
:10079000412F8EE393E00E943B2607C0202F4C2D73
:1007A000612F8EE393E00E94F1268EE393E00E9496
:1007B0001E2793C12091F101C701880F991FFC01E9
:1007C000E65FFE4F213011F4008101C0018110E08D
:1007D000F090F201C8010E941203FC01EE0FFF1F0E
:1007E000E80FF91FEA59FC4F2081318142812983AA
:1007F0003A834B8384EB8F1508F46FC1CE010196C9
:100800000E94702A811105C0B801CE0101960E9494
:10081000D2296F2D42C186E293E00E94462590E0E6
:100820008E159F0529F06D2D86E293E00E94DB0F67
:1008300087E090E00E94CE02AB01BC0186E293E02B
:100840000E94FD0F4AC181EF92E00E944625282FA9
:1008500030E02E153F0529F06D2D81EF92E00E94CA
:10086000A91E8091F10190E081309105B9F40091C9
:10087000F201112707FD10954091F3016091F401F9
:1008800070E08BE090E04D870E94E3029C014D8573
:10089000B80181EF92E00E94CD201FC18230910506
:1008A000A1F4F090F2014091F30160E170E08AE080
:1008B00090E04D870E94FB028C0120E14D856F2D59
:1008C00081EF92E00E94D61E08C18330910579F431
:1008D00021E08091F201811101C020E04091F401FA
:1008E0006091F30181EF92E00E940821F6C0049725
:1008F00009F0F3C088E090E00E94CE02AB01BC0199
:1009000023E081EF92E00E94D921E7C082E293E0E8
:100910000E944625282F30E02E153F0529F06D2D29
:1009200082E293E00E94AA2561E08091F1018111A9
:1009300054C060E052C067E871E0CE0107960E94A3
:10094000E22FE090EC01F12CE3E0EE1AF10860EF09
:10095000C62E61E0D62E00E010E00E151F0554F4FF
:10096000F60161916F01CE0107960E945C300F5F26
:100970001F4FF3CFBE01695F7F4FCE0101960E94EA
:100980000F30BE016F5F7F4F89EC92E00E949A1D8D
:10099000CE0101960E94742F67E871E0CE010796A0
:1009A0000E941830CE0107960E94742F96C082E2F2
:1009B00093E00E944625282F30E02E153F0529F0B0
:1009C0006D2D82E293E00E94AA256091F101862FAD
:1009D00090E08230910534F4617082E293E00E94ED
:1009E0006E257BC061E0029709F460E082E293E04B
:1009F0000E947E2572C061E08D2D0E940B2C6091BB
:100A0000F1018D2D0E94442C68C061E08D2D0E9463
:100A10000B2C2091F101622F70E08D2D0E94832B11
:100A20005CC086E090E00E94C0028C0188E090E00B
:100A30000E94C002101611065CF49C01442737FD89
:100A40004095542FB8018DEE92E00E94741045C07D
:100A50008DEE92E00E94D81040C01091F101C701C4
:100A60000E941203FC01EE0FFF1FE80FF91FEA5965
:100A7000FC4F20813181428129833A834B83153B8E
:100A800060F5CE0101960E94702A811105C0B70160
:100A9000CE0101960E94D229612F70E0CE0101960D
:100AA0000E940B2A1AC00E94C92A0E94E73120E046
:100AB00030E04AE754E40E944E316093D5017093D0
:100AC000D6018093D7019093D80107C04A2D6D2D90
:100AD0008EE393E00E948C2656CE2D960FB6F894A6
:100AE000DEBF0FBECDBFDF91CF911F910F91FF9061
:100AF000EF90DF90CF90BF90AF90089561E08DE0D0
:100B00000E940B2C61E08DE00E94442C6CE271E0AD
:100B100080E090E00E94F82A60E08DE00E94442C82
:100B200026E040E052EC61E070E080E096E00E9458
:100B3000B22D64EF71E080E090E00E94F82A22E399
:100B400030E040E050E064EF71E08DEE92E00E9412
:100B5000741062E370E080E090E00E94F82A0E9446
:100B6000B80289EC92E00E943A1C6DE08EE393E0BB
:100B70000E94C52620E040E060E08EE393E00E9402
:100B8000F1268EE393E00E941E2786E892E00E9401
:100B9000221A6DE271E080E096E00E94152F6FE16D
:100BA00072E080E096E00E941B2F66E081EF92E009
:100BB0000E949E1E61E081EF92E00C94D31ECF93C1
:100BC000DF93C6E6D3E0CE010E943829239683E066
:100BD000CE37D807C1F78EE593E00E94F7158BE476
:100BE00093E00E9443274EE160E08EE393E00E9491
:100BF000FE2580E393E00E94D52786E293E00E94E1
:100C0000450E82E293E00E942D2581EF92E00E9442
:100C1000531E8DEE92E00E946E1089EC92E00E94CD
:100C20004D1C86E892E00E946E1682E892E00E94D7
:100C3000D91D8BE592E00E94E21084E592E00E94CB
:100C4000A21A8EE492E00E94441688E492E00E9488
:100C5000591682E492E00E94CF278BE292E00E9434
:100C6000AE0D67E371E08FE192E00E94E22F67E84A
:100C700071E089ED91E0DF91CF910C94E22F89ED45
:100C800091E00E94742F8FE192E00E94742F83EE16
:100C900092E00E94742F8DED92E00E94742F8EE3FB
:100CA00093E00C943727682F80E096E00C944D2D4C
:100CB0008FEF0E94530685E50C9453068FEF0E9438
:100CC000530685E50E9453060C94BC02CF93C82FAF
:100CD00081E00E9453068C2FCF910C945306CF9342
:100CE000E82FF0E0EE0FFF1FE058FE4FC49160E0E8
:100CF0008C2F0E940B2C8C2F0E94662BC1E00B972F
:100D00000CF0C0E08091BB018C1769F0C093BB016F
:100D10000E94580680E80E9453068C2F0E946606A7
:100D2000CF910C94BC02CF910895EF92FF920F9354
:100D30001F93CF93DF937C01FC01C4810C2F15819D
:100D400084E00E9453068C2F0E945306C0E0D0E03E
:100D5000C017D10744F4BE01C7010E9480300E9431
:100D600053062196F5CFDF91CF911F910F91FF9000
:100D7000EF900895FF920F931F93CF93DF931F92ED
:100D8000CDB7DEB78B01F82E82E099830E9453061F
:100D9000A8016F2D9981792F409327025093280243
:100DA0006093290270932A02802F0E94530680913B
:100DB00028020E945306809129020E9453068091C6
:100DC0002A020F90DF91CF911F910F91FF900C9409
:100DD0005306CF92DF92EF92FF926B017C0183E08A
:100DE0000E945306C701B6010E94B631862F262FF6
:100DF000372F30932602209325020E9453068091BC
:100E000026020E945306809127020E945306809179
:100E10002802FF90EF90DF90CF900C945306CF9272
:100E2000DF92EF92FF920F931F93CF93DF93CDB793
:100E3000DEB727970FB6F894DEBF0FBECDBF109177
:100E4000F001E12EF12C8433910508F061C2FC0120
:100E5000EC5CFF4F0C947B3580E393E00E944625C9
:100E600090E08E159F0529F0612F80E393E00E94AA
:100E7000AA2560E971E080E393E00E9455286B01A8
:100E80007C010E9458068091E5010E945306C7012B
:100E9000B60102C20091F1018BE493E00E94462565
:100EA00090E08E159F0509F025C28BE493E00E9427
:100EB000492580131FC28BE493E00E946127ECC197
:100EC00082E293E00E94462590E08E159F0561F036
:100ED000612F82E293E00E94AA2582E293E00E94C1
:100EE000D02560E00E940B2C82E293E00E949A25BC
:100EF000C3C10091F10182E892E00E94462590E092
:100F00008E159F0529F0612F82E892E00E94AA25A4
:100F1000602F82E892E00E94DC1DAEC18091DF016B
:100F2000882309F4F5C169ED71E0CE0101960E94B4
:100F30000F30CE0101960E949506CE0101960E94C7
:100F4000742F1092DF0167E871E089ED91E00E9453
:100F50001830DEC1F090F1010E94C92A0E94E731E9
:100F600020E030E04AE754E40E944E312091CD0168
:100F70003091CE014091CF015091D0010E94833039
:100F80002DEC3CEC4CE45EE30E94113318165CF04F
:100F90004091E001552747FD50952F2D30E081E02D
:100FA0004217530709F080E00E94660606C0809150
:100FB000E0010E9466061092E0011092E201109298
:100FC000E101A6C182E293E00E94462590E08E15E1
:100FD0009F0561F0612F82E293E00E94AA2582E2E0
:100FE00093E00E94D02560E00E940B2C60E082E23A
:100FF00093E00E945D25682F65C082E293E00E9425
:10100000462590E08E159F0599F0612F82E293E0CE
:101010000E94AA2582E293E00E94CD2560E00E9412
:101020000B2C82E293E00E94D02560E00E940B2C02
:1010300060E082E293E00E944C25182F60E082E29B
:1010400093E00E945D25612F70E0660F771F680FA7
:10105000711D882777FD8095982F13C10091F101AC
:10106000C02ED12C82E293E00E94462590E08E159E
:101070009F0509F046C182E293E00E94492590E075
:101080008C159D0509F03DC1CA94CD2869F482E212
:1010900093E00E94CD2562E00E940B2C60E082E28A
:1010A00093E00E944C250CC082E293E00E94D02580
:1010B00062E00E940B2C60E082E293E00E945D25DA
:1010C00061E0682770E080E090E00E94E731E4C0D2
:1010D000F701EE0FFF1FE058FE4FE4900091F10181
:1010E00060E08E2D0E940B2C8E2D0E94662B11E04D
:1010F0000B970CF010E0812F80270E94660610935A
:10110000BB0106C18BE592E00E94462590E08E155A
:101110009F05A9F0612F8BE592E00E94AA258BE53F
:1011200092E00E94D025482F8BE592E04F830E94E9
:10113000CD254F81682F8BE592E00E94DC148BE572
:1011400092E00E94E514A8C00091F10184E592E0CC
:101150000E94462590E08E159F0529F0612F84E5B9
:1011600092E00E94AA2584E592E00E94A51A602FD1
:1011700084E592E00E947E1BBAC08EE492E00E9459
:10118000462590E08E159F05A9F0612F8EE492E030
:101190000E94AA258EE492E00E94CD25482F8EE47D
:1011A00092E04F830E94D0254F81682F8EE492E019
:1011B0000E9447168EE492E00E94571622C088E4EF
:1011C00092E00E944625282F30E02E153F05A9F019
:1011D000612F88E492E00E94AA2588E492E00E94B0
:1011E000CD25482F88E492E04F830E94D0254F817F
:1011F000682F88E492E00E945C1688E492E00E94E6
:101200006C16BC01882777FD8095982F0E94E931E4
:101210000E94E9067DC06091F10186E892E06F834B
:101220000E94CF166F8186E892E00E94001934C0B8
:101230006FE172E0CE0101960E940F30CE0101965F
:101240000E949506CE0101960E94742F61C060E055
:10125000812F0E940B2C812F0E947A2C0DC0F70148
:10126000EE0FFF1FE058FE4FE49060E08E2D0E94CD
:101270000B2C8E2D0E94662BBC01882777FD809554
:10128000982F0E94E93108C06091D1017091D2017C
:101290008091D3019091D4010E94BA0639C082E4B2
:1012A00092E00E944625282F30E02E153F0529F0B8
:1012B000612F82E492E00E94AA2582E492E00E94DB
:1012C000D22715C08BE292E00E944625282F30E0FD
:1012D0002E153F0529F0612F8BE292E00E94AA258E
:1012E00081E02091BA019091F101291380E00E94E0
:1012F00066060EC0402F612F8BE493E00E944E27BC
:10130000DACD402F612F82E293E00E94BA25BCCE55
:1013100027960FB6F894DEBF0FBECDBFDF91CF91F9
:101320001F910F91FF90EF90DF90CF9008950F9352
:101330001F93CF93DF931F92CDB7DEB71092E701D3
:101340008091ED018093E5010091EF0110E0909113
:10135000EE019230E1F018F4913031F03BC094305E
:10136000D1F0953081F136C00130110531F089831B
:101370000E94580689810E945306C8010E940F07E7
:101380000F90DF91CF911F910F910C94BC02C80177
:101390000E942F0318C069E08EE593E00E94FA15C1
:1013A00060E070E08EE593E00E9406166AE08EE54C
:1013B00093E00E94FA1560E070E08EE593E00E94F1
:1013C00006160E94B8020F90DF91CF911F910F91E6
:1013D0000C945E060F90DF91CF911F910F910895AD
:1013E00010921E0280E096E00E94CF2C181619067B
:1013F0004CF481E080931E0280E096E00E94E82C8D
:101400008093E601089560E087E00E946F068BE21A
:1014100092E00E94B00D8093BA010E94C92A0E94F6
:10142000E73120E030E04AE754E40E944E31209159
:10143000D5013091D6014091D7015091D8010E9439
:1014400083306093D1017093D2018093D301909344
:10145000D40189EC92E00E94E41C892B09F440C07D
:101460008091CC028093E0010E94C92A0E94E7315A
:1014700020E030E04AE754E40E944E316093CD0111
:101480007093CE018093CF019093D0016091E001E1
:101490006A3011F06D3041F41092E2011092E101D6
:1014A00081E08093DF012EC089ED91E00E945C30E5
:1014B0008091E1019091E2010196813491052CF433
:1014C0009093E2018093E1011DC01092E20110921D
:1014D000E10167E871E089ED91E00E94183012C0E7
:1014E0008091E3019091E40101969093E40180934F
:1014F000E3012091E00112164CF48938934134F055
:101500001092E0011092E4011092E3010E94F009B0
:1015100080911E02882309F446C08091E6019091D3
:10152000E701853561F491110AC08091BC018F3FBC
:10153000E1F481E08093E9018093E70116C0809394
:10154000BC01992391F0E091E901E23019F4809314
:10155000E80107C0E33028F09091E80191509093A2
:10156000E801F0E0E651FE4F80838091E9018F5F52
:10157000843318F48093E90104C01092E9011092B9
:10158000E7018091E701882371F08091E8018111E2
:101590000AC08091E901843030F01092E7010E9486
:1015A00097091092E90108958091AE0390E020918F
:1015B000AF03821B910908952091AF038091AE0380
:1015C000281750F4E22FF0E0E055FC4F808190E0C6
:1015D0002F5F2093AF0308958FEF9FEF0895E09161
:1015E000AF038091AE03E81730F4F0E0E055FC4F14
:1015F000808190E008958FEF9FEF08950895CF9236
:10160000DF92EF92FF920F931F93CF93DF937C01B2
:10161000CB018A0120918A03222389F0EB016B011F
:10162000C40ED51ECC15DD0569F06991D701ED9189
:10163000FC910190F081E02DC7010995F3CF642F53
:101640000E94580CC801DF91CF911F910F91FF901C
:10165000EF90DF90CF900895CF93DF931F92CDB797
:10166000DEB7698320918A032223D1F020918B0376
:10167000203240F021E030E0FC013383228380E01F
:1016800090E015C080918C03E82FF0E0E357FC4F09
:10169000998190838F5F80938C0380938B0305C027
:1016A00061E0CE0101960E94580C81E090E00F901D
:1016B000DF91CF910895FC011382128248EE53E02E
:1016C00060E070E0448355836683778385E491E02E
:1016D0009183808308951092AF031092AE0310920D
:1016E0008C0310928B030C94A30B862F413208F0CD
:1016F00040E260EB73E00E94C10B1092AF03809355
:10170000AE03089581E080938A036093AD03109245
:101710008C0310928B0308950F93062F21E04091C4
:101720008B036DE873E08091AD030E94050C10926D
:101730008C0310928B0310928A030F9108958EE709
:1017400093E00C945B0B10923D0481E080933B048A
:1017500010923A0461E082E10E94442C61E083E14E
:101760000E94442CE9EBF0E080818E7F80838081B1
:101770008D7F808388E48093B80085E48093BC00EB
:101780000895413208F03FC090913D049111FCCF83
:1017900091E090933D0420933B042FEF2093D003DE
:1017A00010921504240F2093140490933C049091FC
:1017B0003C04880F892B80933C0480913A0481304B
:1017C00041F410923A0480913C048093BB0085EC74
:1017D00001C085EE8093BC0080913D048130E1F32F
:1017E00080911504841710F44091150426E134E02B
:1017F000FB01D9018A2F821B841718F48D918193E4
:10180000F9CF842F089580E008950F93413208F0B6
:1018100046C090913D049111FCCF92E090933D041D
:1018200000933B049FEF9093D003109215044093D4
:101830001404FB0166E174E0DB019A2F961B9417F8
:1018400018F491919D93F9CF10923C0490913C042F
:10185000880F892B80933C0480913A04813041F4B5
:1018600010923A0480913C048093BB0085EC01C047
:1018700085EE8093BC00222321F080913D048230CC
:10188000E1F38091D0038F3F61F08091D0038032EB
:1018900051F08091D003803341F483E007C081E0B0
:1018A00005C080E003C082E001C084E00F9108958C
:1018B000613298F420913D04243089F46093F2035E
:1018C000FC0184EF93E0DC012A2F281B261718F473
:1018D00021912D93F9CF80E0089581E0089582E071
:1018E000089585ED8093BC008091BC0084FDFCCF01
:1018F00010923D04089585EC8093BC0010923D0445
:1019000008951F920F920FB60F9211242F933F93B9
:101910004F935F936F937F938F939F93AF93BF93F7
:10192000EF93FF938091B900887F803609F49CC0C3
:1019300068F5883209F45BC090F4803109F454C032
:1019400038F4882309F4F5C0883009F44DC0F5C097
:10195000883109F44CC0803209F45DC0EEC0803497
:1019600009F468C048F4803309F455C0883309F09D
:10197000E4C08093D003A8C0803509F44FC08835F7
:1019800009F45DC0883409F0D8C0D5C0883909F49D
:10199000C6C0A8F4883709F467C038F4883609F45B
:1019A00063C0803709F460C0C8C0883809F4B7C084
:1019B000803909F45FC0803809F0BFC05BC0803B4C
:1019C00009F485C038F4803A09F466C0883A09F40D
:1019D0007EC0B3C0803C09F4A6C0883C09F4A3C013
:1019E000883B09F489C0A9C080913C0410C0909143
:1019F000150480911404981770F5E091150481E0A6
:101A00008E0F80931504F0E0EA5EFB4F8081809397
:101A1000BB0085EC85C08093D0038DC0E091150498
:101A200081E08E0F809315048091BB00F0E0EA5EA8
:101A3000FB4F808390911504809114046DC0E09158
:101A4000150481E08E0F809315048091BB00F0E0B7
:101A5000EA5EFB4F808380913B0481116CC081E082
:101A600080933A0484EA60C083E080933D0410923E
:101A7000D103CFCF8091D103803208F050C0E091E4
:101A8000D10381E08E0F8093D1038091BB00F0E001
:101A9000EE52FC4F8083BDCF8091D103803230F471
:101AA000E091D103F0E0EE52FC4F10820E94710CE5
:101AB0006091D10370E0E0913604F091370482ED3B
:101AC00093E009951092D1030E947B0C36C084E00C
:101AD00080933D041092F3031092F203E0913804D6
:101AE000F091390409958091F203811105C081E0DC
:101AF0008093F2031092F403E091F30381E08E0FE0
:101B00008093F303F0E0EC50FC4F80818093BB00A6
:101B10009091F3038091F203981708F47ACF85E847
:101B20008093BC000AC085EC8093BC0010923D04F9
:101B300004C01092D0030E94710CFF91EF91BF91ED
:101B4000AF919F918F917F916F915F914F913F9155
:101B50002F910F900FBE0F901F9018950C942D256C
:101B6000CF92DF92EF92FF920F931F93CF93DF9369
:101B7000EC010C891D890E94C92ACC80DD80EE8091
:101B8000FF809B01AC012C193D094E095F096901D9
:101B90007A0139E0C316D104E104F104E8F16C8361
:101BA0007D838E839F83CE010E949A254885598527
:101BB0006A857B85452B462B472B49F4AC0166276C
:101BC00057FD6095762F488B598B6A8B7B8B4889A4
:101BD00059896A897B89841B950B97FF03C091956E
:101BE00081959109449764F44C855D856E857F8568
:101BF0004F5F5F4F6F4F7F4F4C875D876E877F874B
:101C0000488559856A857B854F5F5F4F6F4F7F4F52
:101C1000488759876A877B8788859985AA85BB8588
:101C20000597A105B105D1F4188619861A861B8679
:101C30008C859D85AE85BF850397A105B10540F0D4
:101C400088899989AA89BB898C019D8B8C8B02C05C
:101C50000C891D891C861D861E861F86C80164E6A8
:101C600070E00E9426356830710528F4FB01EF5AB8
:101C7000FE4F808101C080E0DF91CF911F910F91D5
:101C8000FF90EF90DF90CF9008950C942D250F9347
:101C90001F93CF93DF93EC01062F18E060E0888557
:101CA0000E94442C00FF02C061E001C060E0898511
:101CB0000E94442C069561E088850E94442C1150B6
:101CC00069F760E088850E94442C61E089850E9464
:101CD000442C61E088850E94442C60E089850E9444
:101CE0000B2C18EC89850E947A2C892B59F0115005
:101CF000C9F761E089850E940B2C60E089850E940C
:101D0000442CEFCF61E08985DF91CF911F910F9136
:101D10000C940B2CCF93DF93EC0161E088850E943B
:101D2000442C61E089850E94442C60E089850E94F2
:101D3000442C60E08885DF91CF910C94442CCF93A4
:101D4000DF93EC0160E088850E94442C60E0898587
:101D50000E94442C61E088850E94442C61E08985C2
:101D6000DF91CF910C94442CCF92DF92FF920F938E
:101D70001F93CF93DF931F92CDB7DEB76C01F62E82
:101D800079830E948A0E60E4C6010E94470EC60154
:101D90000E949F0EC6010E948A0EF6016581C6014F
:101DA0000E94470E0F2D7981172F84E0F82EF8013D
:101DB00061918F01C6010E94470EFA94C1F7C601D6
:101DC0000E949F0EC6010E948A0EF6016681C6011E
:101DD0000E94470EC6010F90DF91CF911F910F9186
:101DE000FF90DF90CF900C949F0E4F925F926F9276
:101DF0007F928F929F92AF92BF92CF92DF92EF929B
:101E0000FF920F931F93CF93DF9300D000D0CDB7F5
:101E1000DEB76A017B01890137FD48C0B9016F5FF8
:101E20007F4F882777FD8095982F0E94E9319B018D
:101E3000AC0160E070E080E291E40E94C4334B01A9
:101E40005C019B01AC01C701B6010E944E310E94AA
:101E500024322B013C01B801882777FD8095982F0B
:101E60000E94E9319B01AC0160E070E080E291E406
:101E70000E94C43369837A838B839C83A501940178
:101E8000C301B2010E9461339B01AC01C701B601DD
:101E90000E94833029813A814B815C810E944E31BE
:101EA0000E9424320E94B631CB011FC0882499249D
:101EB000821A930AA12CB12C20E030E040E251E4D8
:101EC000C701B6010E9461336B017C018FEFA81A34
:101ED000B80AA814B90484F3C701B6010E94B63148
:101EE000CB016AE070E00E9426350F900F900F90B2
:101EF0000F90DF91CF911F910F91FF90EF90DF90A6
:101F0000CF90BF90AF909F908F907F906F905F9099
:101F10004F900895DB0180E090E22C91223208F08E
:101F20009C93EC91F0E0E057FE4FE491ED938F5FCE
:101F3000843099F70895EF92FF920F931F93CF93F8
:101F4000DF9300D000D0CDB7DEB78C01DB01FE01FE
:101F50003196CE0105967F012D912193E817F9075F
:101F6000D9F7B701C8010E948A0FB701C8010E94C2
:101F7000B40E0F900F900F900F90DF91CF911F91A3
:101F80000F91FF90EF900895CF93DF9300D000D092
:101F9000CDB7DEB720E229832A832B832C83BE01B1
:101FA0006F5F7F4F0E949B0F0F900F900F900F90CD
:101FB000DF91CF910895CF93DF93EC016A83E62FF1
:101FC000F0E0EE0FFF1FE65FFE4F81818983908175
:101FD00098838887998761E00E940B2C61E089854E
:101FE0000E940B2C80E48C8380EC8D838AE88E83A6
:101FF000CE01DF91CF910C94C40F8F929F92AF923C
:10200000BF92CF92DF92EF92FF920F931F93CF93E5
:10201000DF9300D000D0CDB7DEB75C016A017B0151
:1020200019821A821B821C8220E030E0A901C701BC
:10203000B6010E944A3187FF09C0F7FAF094F7F819
:10204000F09481E289839924939401C0912C03E058
:1020500010E0812C9801B701A601C5010E94F50E80
:10206000181619062CF0002319F08820B9F00CC0BE
:1020700001110AC0E1E0F0E0EC0FFD1FE90DF11DD8
:1020800020E1280F208307C0E1E0F0E0EC0FFD1F06
:10209000E90DF11D808393948824839483E089154E
:1020A00030F0015011090C3F8FEF180799F6BE016F
:1020B0006F5F7F4FC5010E949B0F0F900F900F9095
:1020C0000F90DF91CF911F910F91FF90EF90DF90D4
:1020D000CF90BF90AF909F908F9008950E942D2534
:1020E00088E080933E0408954F925F926F927F92B2
:1020F0008F929F92AF92BF92CF92DF92EF92FF9218
:102100000F931F93CF93DF9369017A019B0140E006
:1021100050E060E472E48FE090E00E945C35E901F9
:10212000890137FF02C00F5F1F4F1595079561E0CA
:1021300080913E040E940B2CA8EEB3E0A70196010B
:102140000E9490354B015C01C12CD12C76012E01EF
:10215000662457FC6094762CC814D904EA04FB0466
:10216000B0F461E080913E040E94442CC8010E94BA
:10217000202B60E080913E040E94442CC8010E9404
:10218000202BA895C40CD51CE61CF71CE5CFDF91CD
:10219000CF911F910F91FF90EF90DF90CF90BF9064
:1021A000AF909F908F907F906F905F904F90089529
:1021B00061E080913E040E940B2C60E080913E041F
:1021C0000C94442CCF93DF93EC0160E00E94362501
:1021D0008EE18B871C82DF91CF910895AF92BF92E1
:1021E000CF92DF92EF92FF920F931F93CF93DF93E3
:1021F000CDB7DEB76A970FB6F894DEBF0FBECDBF7E
:102200008C01CE0101967C01C12CD12C5C01C60150
:102210000E94C937F70181937F01FFEFCF1ADF0AD0
:102220008AE1C816D10499F72D813E814F815885E6
:1022300069817A818B819C810E94843029853A85CD
:102240004B855C850E9484302D853E854F8558895D
:102250000E94843029893A894B895C890E948430A4
:102260002D893E894F89588D0E9484306B017C01F5
:10227000698D70E080E090E00E94E9319B01AC0143
:10228000C701B6010E94843020E030E04AE253E406
:102290000E9484300E94BB318A8D68130CC08AE191
:1022A000F501D8011D9601900D928A95E1F781E024
:1022B000F801848302C0F80114826A960FB6F8947C
:1022C000DEBF0FBECDBFDF91CF911F910F91FF9069
:1022D000EF90DF90CF90BF90AF900895CF92DF92B4
:1022E000EF92FF920F931F93CF93DF938C01EB013B
:1022F0002C813D814E815F81688179818A819B81BA
:102300000E948430288539854A855B850E94843007
:102310002C853D854E855F850E94843028893989CA
:102320004A895B890E9484302C893D894E895F8966
:102330000E9484306B017C01688D70E080E090E049
:102340000E94E9319B01AC01C701B6010E948430B3
:1023500020E030E04AE253E40E9484300E94BB3126
:10236000698FE12CF12C6991C7010E94D1378FEF61
:10237000E81AF80AEAE1EE16F104A9F781E0F8019B
:102380008483DF91CF911F910F91FF90EF90DF90A9
:10239000CF900895EF92FF921F93CF93DF931F92F8
:1023A000CDB7DEB7162F7A01FC0163858EE793E087
:1023B00029830E94820B612F8EE793E00E942C0BF1
:1023C0002981813091F4422F50E0B7018EE793E0EC
:1023D0000E94FF0A61E08EE793E00F90DF91CF91BA
:1023E0001F91FF90EF900C948C0B8FEF0F90DF916B
:1023F000CF911F91FF90EF900895CF93DF931F929D
:10240000CDB7DEB7498321E0AE014F5F5F4F0E9439
:10241000CA110F90DF91CF910895EF92FF920F9321
:102420001F93CF93DF93EC01F62E8A01E22E6B858A
:102430008EE793E00E94820B6F2D8EE793E00E945F
:102440002C0B813001F560E08EE793E00E948C0B4D
:1024500081112EC081E090E00E94202B21E04E2DC2
:102460006B858EE793E00E94750BE80100E010E0B9
:10247000F12C8EE793E00E94D40A892B31F00E15DF
:102480001F0574F002C08FEF13C081E090E00E943E
:10249000202B81E00E151F0509F480E0819508C00E
:1024A0000F5F1F4F8EE793E00E94DC0A8993E1CF14
:1024B000DF91CF911F910F91FF90EF900895CF93EF
:1024C000DF93EC01AC014B5F5F4F23E06AE00E94B9
:1024D0000D1281110AC08D81883439F48E818433C4
:1024E00021F481E09F81933309F080E0DF91CF9167
:1024F0000895CF92DF92EF92FF920F931F93CF93A5
:10250000DF93EC016B018A0179010E94C412AE01D4
:102510004B5F5F4F26E063E0CE010E940D128823DF
:1025200021F0992787FD909526C08C85813031F464
:1025300041E062E070E0CE010E94FD118D8190E0EB
:10254000982F88272E81822BF6019183808389859D
:1025500090E0982F88272A85822BF8019183808329
:102560008F8190E0982F88272885822BF70191830F
:10257000808380E090E0DF91CF911F910F91FF90D9
:10258000EF90DF90CF9008952F923F924F925F92FD
:102590006F927F928F929F92AF92BF92CF92DF9273
:1025A000EF92FF920F931F93CF93DF93CDB7DEB7D8
:1025B0006C970FB6F894DEBF0FBECDBF8C0162E002
:1025C0000E944C258111B8C16AE070E080E090E083
:1025D0000E94F82A62E0C8010E944C258111ACC11A
:1025E000C8010E945F12882309F4A6C10E94C92A6B
:1025F0006B017C01712CBB24B39462E0C8010E9482
:102600004C25811116C00E94C92A6C197D098E09BA
:102610009F09693C71058105910578F3A8950E9491
:10262000C92A6B017C017B24672DC8010E947E258D
:10263000E4CF64E670E080E090E00E94F82A0E9417
:10264000C92A4B015C012FEF3FE7388B2F8740E011
:1026500050E85E874D878FEF9FE79C878B87E0E090
:10266000F0E8FA87E98738872F83212C50E8352E48
:10267000662463940E94C92A6C197D098E099F09FA
:10268000693C71058105910550F0A8950E94C92A01
:102690006B017C017624672DC8010E947E250E9473
:1026A000C92A681979098A099B096B307105810566
:1026B0009105E8F1A8959E012F5F3F4FAE014D5F58
:1026C0005F4FBE016B5F7F4FC8010E9479128D8101
:1026D0009E814F815885841795072CF0281639065E
:1026E00024F41C0102C098878F838B819C81EB8529
:1026F000FC858E179F0744F029853A8528173907EE
:102700002CF49A87898702C09C878B8789819A815C
:102710004F8558898417950744F0ED85FE85E817A5
:10272000F9072CF49E878D8702C0988B8F8762E013
:10273000C8010E944C2581119DCF60E0C8010E9414
:102740007E25B101882777FD8095982F0E94E93179
:102750006B017C012F813885B901882777FD809531
:10276000982F0E94E931698B7A8B8B8B9C8B9B0114
:10277000AC01C701B6010E948430905820E030E0DF
:1027800040E05FE30E946133F801658776878787C1
:10279000908B29853A85B901882777FD8095982FF8
:1027A0000E94E9312B013C014B855C85BA018827E9
:1027B00077FD8095982F0E94E9316D8B7E8B8F8BF2
:1027C000988F9B01AC01C301B2010E9484309058E4
:1027D00020E030E040E05FE30E946133F801618B6C
:1027E000728B838B948B2D853E85B901882777FD6D
:1027F0008095982F0E94E9314B015C014F855889E3
:10280000BA01882777FD8095982F0E94E931698F5A
:102810007A8F8B8F9C8F9B01AC01C501B4010E9404
:102820008430905820E030E040E05FE30E94613364
:10283000F801658B768B878B908F80E090E0A0E825
:10284000BFE3818F928FA38FB48F29893A894B89F7
:102850005C89C701B6010E9483306B017C012D8920
:102860003E894F89588DC301B2010E948330A70170
:1028700096010E944E31F801658F768F878F90A365
:10288000298D3A8D4B8D5C8DC501B4010E9483303A
:10289000A70196010E944E31F80161A372A383A3A0
:1028A00094A32F813885221A330A37FE03C031944E
:1028B0002194310889859A854B855C85841B950B0D
:1028C00097FF03C09195819591092D853E85EF85F0
:1028D000F8892E1B3F0B37FF03C031952195310935
:1028E000821593052CF02215330514F081E009C000
:1028F000281639062CF02817390714F082E001C099
:1029000083E0F80185A3B801635F7F4FC8010E948F
:102910006E1161E0C8010E947E2562E0C8010E943C
:102920004C25811102C0A895F8CFA89564E670E007
:1029300080E090E00E94F82A6C960FB6F894DEBF13
:102940000FBECDBFDF91CF911F910F91FF90EF9000
:10295000DF90CF90BF90AF909F908F907F906F90BF
:102960005F904F903F902F900895CF93DF93EC01AD
:102970008EE793E00E946B0B61E0CE010E947E2502
:1029800040E760E070E0CE010E94FD1140E261E0AE
:1029900070E0CE010E94FD1181E08C8741E062E091
:1029A00070E0CE010E94FD11CE010E94EE10CE011A
:1029B000DF91CF910C94C4126093400440933F0484
:1029C000FC01608341830C94B5142F923F924F9287
:1029D0005F926F927F928F929F92AF92BF92CF92AF
:1029E000DF92EF92FF920F931F93CF93DF93CDB7B8
:1029F000DEB762970FB6F894DEBF0FBECDBF8C0175
:102A00000E94C4129E012F5F3F4FAE014D5F5F4F8A
:102A1000BE016B5F7F4FC8010E947912882349F085
:102A2000682F772767FD7095872F972F0E94E931D0
:102A3000C5C0F80184812D803E802B813C81388780
:102A40002F83882309F478C045845684678470886E
:102A5000818C928CA38CB48CB901882777FD8095EA
:102A6000982F0E94E931F8012189328943895489DC
:102A70000E948430F801258D368D478D50A10E942B
:102A800061330E94B6316F83788789879A8769811D
:102A90007A81882777FD8095982F0E94E931F80187
:102AA000258936894789508D0E948430F80121A1FB
:102AB00032A143A154A10E9461330E94B6316B87B9
:102AC0007C878D879E87F80115A1113041F42B85F5
:102AD0003C85B901882777FD8095982F32C0B101D8
:102AE000882777FD8095982F0E94E931A3019201F4
:102AF0000E948430A50194010E9461330E94B63186
:102B00004B015C01123089F42B853C85B901882783
:102B100077FD8095982F0E94E9319B01AC01B401AB
:102B2000882777FD8095982F17C0133019F58827CF
:102B300077FD8095982F05C0B101882777FD809596
:102B4000982F0E94E9319B01AC01EF81F885BF010C
:102B5000882777FD8095982F2F87388B498B5A8B44
:102B60000E94E9312F85388949895A890E94F730B6
:102B70006B017C0120E030E0A901C701B6010E9491
:102B80004A3187FF0DC02BED3FE049EC50E4C7010F
:102B9000B6010E94843020E030E044E353E406C0F4
:102BA00020E030E044E353E4C701B6010E94613302
:102BB0002BED3FE049E450E40E944E3162960FB69F
:102BC000F894DEBF0FBECDBFDF91CF911F910F9163
:102BD000FF90EF90DF90CF90BF90AF909F908F903D
:102BE0007F906F905F904F903F902F90089560E09E
:102BF0000C943625CF93DF93EC010E94AA2584EF35
:102C000091E09F838E83DF91CF9108950F931F935F
:102C1000CF93DF938C016F3F710519F014F06FEFC4
:102C200070E0EB0161308FEF780714F4C1E0DFEF63
:102C3000F801868197818C179D07C9F0D783C683D9
:102C4000D7FD06C061E0C8010E947E25BE0108C014
:102C500060E0C8010E947E25662777276C1B7D0BEC
:102C6000C801DF91CF911F910F910C94A625DF91A0
:102C7000CF911F910F91089581E494E00C94781AFC
:102C800081E494E00C94A11A60E00C943625CF9373
:102C9000DF93EC016C834D838C8160E00E940B2CF0
:102CA0008D8188838C818983DF91CF9108950C94E5
:102CB0008E2560E00C943625CF93DF93EC016C8376
:102CC0004D838C8160E00E940B2C8D8188838C81E8
:102CD0008983DF91CF9108950C948E25CF93DF9354
:102CE000EC0160E00E943625CE5BDF4F88E68883EA
:102CF000DF91CF910895EF92FF920F931F93CF939F
:102D0000DF93F62E8A01E22EEC01CE5BDF4F688165
:102D10008EE793E00E94820B6F2D8EE793E00E9476
:102D20002C0B813001F560E08EE793E00E948C0B64
:102D300081112EC081E090E00E94202B21E04E2DD9
:102D400068818EE793E00E94750BE80100E010E0D7
:102D5000F12C8EE793E00E94D40A892B31F00E15F6
:102D60001F0574F002C08FEF13C081E090E00E9455
:102D7000202B81E00E151F0509F480E0819508C025
:102D80000F5F1F4F8EE793E00E94DC0A8993E1CF2B
:102D9000DF91CF911F910F91FF90EF9008952F92A7
:102DA0003F924F925F926F927F928F929F92AF92DB
:102DB000BF92CF92DF92EF92FF920F931F93CF9328
:102DC000DF93CDB7DEB72C970FB6F894DEBF0FBEFA
:102DD000CDBF1C01AC014C5C5F4F2EE06BE30E9449
:102DE0007B168111F4C1F101A4A8B12C1A2D002782
:102DF00085A9082B13A302A3E6A8F12CFE2CEE2430
:102E000087A9E82AF5A2E4A280AC912C982C88240A
:102E100081AD882A97A286A24680578060847184FB
:102E200064AD70E0762F662785AD682B882777FD27
:102E30008095982F0E94E931F10120A531A542A586
:102E400053A50E948330A30192010E944E31F101EB
:102E5000668B778B808F918F66AD70E0762F6627BB
:102E600087AD682B882777FD8095982F0E94E931E0
:102E7000F10124A535A546A557A50E948330A301DD
:102E800092010E944E31F101628F738F848F958F72
:102E9000E05CFF4F608170E0762F6627319680817D
:102EA000682B882777FD8095982F0E94E931F101E2
:102EB00020A931A942A953A90E948330A3019201FC
:102EC0000E944E31F101668F778F80A391A3B701E5
:102ED000882777FD8095982F0E94E9316B017C014E
:102EE000B401882777FD8095982F0E94E9319B01D6
:102EF000AC010E9461334B015C01A7019601C7013F
:102F0000B6010E946133A50194010E9484300E94A1
:102F100014349B01AC01B801882777FD8095982F68
:102F200029873A874B875C870E94E9312B013C0156
:102F300029853A854B855C850E94F73020E030E09A
:102F400044E353E40E9461332AED3FE049E450E456
:102F50000E944E3169837A838B839C83A301920103
:102F6000C301B2010E946133A50194010E94843023
:102F70000E9414349B01AC01C701B6010E94F730D6
:102F800020E030E044E353E40E9461332AED3FE067
:102F900049E450E40E944E316D837E838F8398878D
:102FA0000E94C92AC0905C05D0905D05E0905E0546
:102FB000F0905F056C197D098E099F090E94E73129
:102FC00020E030E04AE754E40E944E316B017C017E
:102FD0000E94C92A60935C0570935D0580935E052D
:102FE00090935F05F10186A197A11816190644F583
:102FF000228D338D448D558DC701B6010E946133FA
:103000009B01AC01F10162857385848595850E94E1
:103010008330F10162877387848795872689378992
:10302000408D518DC701B6010E9461339B01AC01F7
:10303000F10166857785808991890E94843028C056
:10304000F101228D338D448D558DC701B6010E944B
:1030500061339B01AC01F10162857385848595859F
:103060000E948430F101628773878487958726895F
:103070003789408D518DC701B6010E9461339B0194
:10308000AC01F10166857785808991890E94833042
:10309000F10166877787808B918BF101268D378DC3
:1030A00040A151A1C701B6010E946133F1012289FB
:1030B0003389448955890E9484302B013C0120E0EA
:1030C00030E044EB53E40E944E310E94243220E071
:1030D00030E044EB53E40E9461339B01AC01C30137
:1030E000B2010E9483302B013C0120E030E044E338
:1030F00053E40E941133181634F0F101428A538AC6
:10310000648A758A0DC020E030E044EB53E4C301CB
:10311000B2010E948330F101628B738B848B958B9B
:1031200020E030E040E05FE3C701B6010E94843058
:103130009B01AC0160E070E080E09FE30E944E31B3
:103140006B017C019B01AC0160E070E080E89FE3D3
:103150000E9483304B015C01F10122853385448557
:103160005585C701B6010E9461332B013C01A501C1
:10317000940169817A818B819C810E9461339B01DA
:10318000AC01C301B2010E948430F10162877387F0
:10319000848795872685378540895189C701B6017F
:1031A0000E9461336B017C01A50194016D817E81D8
:1031B0008F8198850E9461339B01AC01C701B601E4
:1031C0000E948430F10166877787808B918B2C96E3
:1031D0000FB6F894DEBF0FBECDBFDF91CF911F9128
:1031E0000F91FF90EF90DF90CF90BF90AF909F90A6
:1031F0008F907F906F905F904F903F902F900895A9
:103200000F931F93CF93DF931F92CDB7DEB78C013F
:1032100069830E94CF166981613031F4F8013285EB
:103220002385948585850FC0623031F4F801368599
:1032300027859089818907C0633031F4F80132898C
:10324000238994898589AC01632F722F852F942F50
:103250000F90DF91CF911F910F9108952F923F9280
:103260004F925F926F927F928F929F92AF92BF9296
:10327000CF92DF92EF92FF920F931F93CF93DF9342
:1032800000D000D0CDB7DEB71C0104EF11E0812CD7
:10329000912C5401412C512C320119821A821B822B
:1032A0001C827C0124E3E20EF11C26E0A70163E40A
:1032B000C1010E947B16F10184A990E0982F882714
:1032C00025A9822BAA2797FDA095BA2F29813A819B
:1032D0004B815C81280F391F4A1F5B1F29833A836A
:1032E0004B835C8386A990E0982F882727A9822B9F
:1032F000AA2797FDA095BA2F480E591E6A1E7B1E5D
:1033000080AD90E0982F882721AD822BAA2797FDCA
:10331000A095BA2F880E991EAA1EBB1E0150110936
:1033200021F624EFC22EDD24D394E12CF12C698107
:103330007A818B819C81A70196010E945C35CA012C
:10334000B9010E94E931F10160A771A782A793A793
:10335000C301B201A70196010E945C35CA01B901FF
:103360000E94E931F10164A775A786A797A7C50157
:10337000B401A70196010E945C35CA01B9010E94FF
:10338000E931F10160AB71AB82AB93AB0F900F9061
:103390000F900F90DF91CF911F910F91FF90EF90C1
:1033A000DF90CF90BF90AF909F908F907F906F9065
:1033B0005F904F903F902F900895EF92FF921F9350
:1033C000CF93DF931F92CDB7DEB7162F7A018E5BB6
:1033D0009F4FFC0160818EE793E029830E94820B5E
:1033E000612F8EE793E00E942C0B2981813091F4AC
:1033F000422F50E0B7018EE793E00E94FF0A61E0A0
:103400008EE793E00F90DF91CF911F91FF90EF90A7
:103410000C948C0B8FEF0F90DF91CF911F91FF9049
:10342000EF900895CF93DF931F92CDB7DEB7498316
:1034300021E0AE014F5F5F4F0E94DD190F90DF91D9
:10344000CF910895CF93DF93EC0140E050E063E823
:1034500072E44E835F83688779871A861B861C8691
:103460001D861E861F86188A198A1A8A1B8A1C8A3C
:103470001D8A1E8A1F8A188E198E1A8E1B8E1C8E0C
:103480001D8E1E8E1F8E18A219A21BA21AA21DA28B
:103490001CA21FA21EA218A619A61AA61BA61CA62D
:1034A0001DA61EA61FA618AA19AA1AAA1BAA8EE74D
:1034B00093E00E946B0B60E273E080E090E00E947A
:1034C000F82A40E06BE670E0CE010E94121A41E05B
:1034D0006AE170E0CE010E94121A48E06BE170E0F0
:1034E000CE010E94121ACE01DF91CF910C942E19B9
:1034F00021E030E0FC0131832083EE5FFE4F10823B
:1035000011821282138234961082118212821382E7
:103510003496108231961082319610821182128276
:103520001382349611821082329610823196108264
:1035300011821282138234961082118212821382B7
:103540000895089560E00C9436254F925F926F9233
:103550007F928F929F92AF92BF92CF92DF92EF9223
:10356000FF920F931F93CF93DF9300D000D01F9251
:10357000CDB7DEB78C01CE0101966C0185E0F60176
:1035800011928A95E9F760E0C8010E947E2564E106
:1035900070E080E090E00E94F82A61E0C8010E949B
:1035A0007E2588E290E00E94202B60E0C8010E9406
:1035B0007E250E94C92A4B015C0160E0C8010E947F
:1035C0005D2581110EC00E94C92A681979098A09EE
:1035D0009B09633071058105910578F3F801148228
:1035E00015820E94C92A4B015C0160E0C8010E945B
:1035F0005D25882359F00E94C92A681979098A092A
:103600009B09633071058105910578F3E12CF12C5C
:103610000E94C92A4B015C0160E0C8010E945D253F
:1036200081110BC00E94C92A681979098A099B096E
:10363000633071058105910578F30E94D52A4B010D
:103640005C010E94C92A2B013C0160E0C8010E9474
:103650005D25882359F00E94C92A641975098609D5
:103660009709633071058105910578F30E94D52A89
:10367000681979098A099B09F70123E0F595E7950F
:103680002A95E1F7693271058105910530F0EC0D5D
:10369000FD1D8081880F816004C0EC0DFD1D8081BF
:1036A000880F8083FFEFEF1AFF0A88E2E816F10423
:1036B00009F0AECF59814B81842F90E0850F911D89
:1036C0002D8130E08217930719F4F8015483458364
:1036D0000F900F900F900F900F90DF91CF911F914F
:1036E0000F91FF90EF90DF90CF90BF90AF909F90A1
:1036F0008F907F906F905F904F900895FC016111C3
:1037000002C084810895858108951F920F920FB69B
:103710000F9211240F931F932F933F934F935F9317
:103720006F937F938F939F93AF93BF93CF93EF93B9
:10373000FF9382E00E947A2CC82F20916605309179
:1037400067052F5F3F4F3093670520936605809193
:10375000CC05843618F085E0809361059091610571
:10376000933079F018F4923039F070C0943011F140
:10377000953009F44AC06AC0C11168C01092CC05E6
:1037800029C0C13009F062C0E091CC0581E08E0F04
:103790008093CC05F0E08091660590916705E05A32
:1037A000FA4F8087109267051092660584E0809337
:1037B00061054CC0C11114C0E091CC0581E08E0FB1
:1037C0008093CC05F0E08091660590916705E05A02
:1037D000FA4F8087109267051092660583E0E7CF65
:1037E00080916605909167058536910578F185E0B1
:1037F000809361050E94C92A6093620570936305F6
:10380000809364059093650521C00E94C92A0091A8
:103810006205109163052091640530916505601B78
:10382000710B820B930B693C71058105910540F08A
:103830001092CC05109267051092660582E0B7CF12
:10384000C11104C01092670510926605FF91EF91B7
:10385000CF91BF91AF919F918F917F916F915F9128
:103860004F913F912F911F910F910F900FBE0F908D
:103870001F901895F89482E08093B0008093B10077
:1038800094E69093B3001092B20080937000789405
:103890001092CC058093610508950F931F93CF93E9
:1038A000DF93EC018C010C5E1F4F67E871E0C801EB
:1038B0000E94E22F67E871E0CE014A960E94E22F53
:1038C00060E082E00E940B2C82E08093600518A2E9
:1038D00019A21AA21BA21B861A861C861A8A67E8DE
:1038E00071E0C8010E9418301B8ACE010E943A1C68
:1038F00061E083E00E940B2C60E083E0DF91CF91D8
:103900001F910F910C94442C1F93CF93DF93FC01D4
:10391000A681B7818C9186588D3558F48085918524
:1039200083309105A1F411968C91119781528931C0
:1039300018F080E090E044C012968C918850873057
:10394000C0F7158281E0808381E090E039C0833444
:1039500091057CF311968C91119783548F3248F71F
:1039600082E090E040E050E0BA019D012F5F3F4FC0
:10397000EC01CA0FDB1FC881C850C730D0F6E9017F
:10398000C80FD91F18811751133180F476956795A8
:1039900057954795706802968234910549F780E201
:1039A00085834183528363837483CCCFC881C8509D
:1039B000C73008F0BECF7695679557954795EBCF02
:1039C000DF91CF911F9108950F931F93CF93DF93B2
:1039D000EC0188E695E09F838E838091CC0590E092
:1039E0009987888780916105853081F4CE010E9496
:1039F000841C8C01CE010115110529F00E943A1C8E
:103A000001E010E005C00E943A1C02C000E010E096
:103A1000C801DF91CF911F910F910895CB01E0EB89
:103A2000F0E02081206220830C94202BCB01E0EB7E
:103A3000F0E020812F7D20830C94202B10927000C9
:103A4000262F30E040E050E060E47FE180E090E04D
:103A50000E945C3581E08093B00089E08093B100E2
:103A60002093B3008BEA289F212D112426952093C3
:103A7000B4000895F89482E08093B0008093B10080
:103A800094E69093B3001092B20080937000789403
:103A9000809361051092CC058091600560E00C94E4
:103AA0000B2CAF92BF92CF92DF92EF92FF920F93C7
:103AB0001F93CF93DF93EC016A017B01590166E20A
:103AC0000E941E1D68E273E2CE010E940E1D64E991
:103AD00071E1CE010E94161D00E010E060E372E08B
:103AE000CE010A151B05ACF4C0FE05C00E940E1DD8
:103AF00060E476E004C00E940E1D60E372E0CE0137
:103B00000E94161DF694E794D794C7940F5F1F4F39
:103B1000E5CF0E940E1D60E070E0CE01DF91CF91F5
:103B20001F910F91FF90EF90DF90CF90BF90AF90DB
:103B30000C94161DEF92FF920F931F93CF93DF9378
:103B40007C018B016AE0C8010E945C30C0E0D0E0DB
:103B5000F80184819581C817D90710F5BE01C80105
:103B60000E948030482F409550E060E070E0762F52
:103B7000652F542F4427480F511D611D711DBA0137
:103B8000552744274F6F20E230E0C7010E94511DA6
:103B900064E170E080E090E00E94F82A2196D8CF9E
:103BA000C701DF91CF911F910F91FF90EF900C947F
:103BB0003A1D60E00C943625613049F40E948E2550
:103BC0008A5E91402091CF053091D0050AC06230C5
:103BD00059F40E949A258A5E91402091CD0530913A
:103BE000CE05820F931F089580E090E00895CF9254
:103BF000DF92EF92FF920F931F93CF93DF93EC012D
:103C0000162FF42EE52ED22E106C61E08C810E94CE
:103C1000442C60E08D810E94442C08E060E08C819F
:103C20000E94442C612F61708D810E94442C61E0C0
:103C30008C810E94442C1695015081F7CF2C0F2DBA
:103C40001E2D802F8C198D15B0F4F801E1908F0195
:103C500088E0F82E60E08C810E94442C6E2D607804
:103C60008D810E94442C61E08C810E94442CEE0CDA
:103C7000FA9481F7E6CF60E08C810E94442C60E0EA
:103C80008D810E94442C61E08C810E94442C61E073
:103C90008D81DF91CF911F910F91FF90EF90DF9079
:103CA000CF900C94442C0C942D250F931F93CF93FD
:103CB000DF93EC01162F61E08C810E94442C60E0C0
:103CC0008D810E94442C08E060E08C810E94442C8D
:103CD000612F61708D810E94442C61E08C810E9473
:103CE000442C1695015081F760E08C810E94442C91
:103CF00060E08D810E94442C61E08C810E94442C04
:103D000061E08D81DF91CF911F910F910C94442C34
:103D100020E030E0FC01E20FF31F10862F5F3F4FE1
:103D200020313105B9F721E0FC0126831782AC016F
:103D3000485F5F4F20E160E00C94F71D693018F494
:103D4000662321F001C068E06150686060680C94EF
:103D5000551ECF93DF93EC01E62FF0E0EE0FFF1F2F
:103D6000E65FFE4F80818C8391819D836A8361E051
:103D70000E940B2C61E08D810E940B2C61E08C81F4
:103D80000E94442C61E08D810E94442C60E4CE01AD
:103D90000E94551E65E0CE010E949E1ECE01DF915D
:103DA000CF910C94881EFC01668308958F929F9298
:103DB000AF92BF92CF92DF92EF92FF920F931F9339
:103DC000CF93DF9360310CF085C048300CF082C097
:103DD000222309F47FC0FC013681A42FBB27A7FD55
:103DE000B095E8E0F0E0EA1BFB0B5FEF01C0550F78
:103DF000EA95EAF74801C0E0D0E0772767FD7095C3
:103E00006C01C60ED71EAA24BB24AA1ABB0A3323F0
:103E100079F1C21778F58E01060F171F17FD1AC02A
:103E20007601EC0EFD1EF70130853523F40100818B
:103E3000141644F410E00A2E02C0159507950A9452
:103E4000E2F705C00A2C01C0000F0A94EAF7032B21
:103E5000F70100872196FFEF8F1A9F0ADACF8E01B4
:103E6000060F171F17FF19C02196FFEF8F1A9F0A21
:103E7000C217A8F3AC01485F5F4F20E160E0DF911B
:103E8000CF911F910F91FF90EF90DF90CF90BF9057
:103E9000AF909F908F900C94F71D7601EC0EFD1E55
:103EA000F70130853523F401008110E0009510956D
:103EB00014163CF40A2E02C0159507950A94E2F7F1
:103EC00005C00A2C01C0000F0A94EAF7032BF70182
:103ED0000087CACFDF91CF911F910F91FF90EF9094
:103EE000DF90CF90BF90AF909F908F9008958F926A
:103EF0009F92AF92BF92CF92DF92EF92FF920F9379
:103F00001F93CF93DF93EC01088D198D10161106C6
:103F10000CF073C080E090E0F82E8017910751F00C
:103F200001968131910509F4E7C0FE01E80FF91F00
:103F30001782F2CF40E1841709F4DEC00B8D1C8D8F
:103F4000E12C67E0D62E70E2C72E4E2D50E04017D0
:103F500051070CF049C0B12CDE01A40FB51F5D96CE
:103F60002B2D30E0D29EC001D39E900D112487529C
:103F70009E4FFC016491603441F1FC016491EC912D
:103F8000FF27E7FDF09570E0E617F707E1F4D29E12
:103F9000B001D39E700D112420E030E066527E4FB8
:103FA000FB01E20FF31FE491DE01AF0DB11D189686
:103FB000EC93F394FFE0FF1540F02F5F3F4F263066
:103FC000310571F702C0B394CBCFFC0184918034EA
:103FD00029F4FE01E40FF51FC58EEA94E394FFE097
:103FE000FF1508F0B2CF88C0FE01EF0DF11D10865D
:103FF000F39440E1F412F8CF7FC0EB8CFC8C2AEFF5
:10400000A7012403C001259F900D1124081719074B
:1040100059F480E090E0FE01E80FF91F1086019648
:1040200080319105C1F768C022273327201B310B4F
:10403000C90166E070E00E942635398F288F9B0108
:1040400090E047E0B42E50E2A52E2E153F050CF06F
:104050004BC0912CDE01A20FB31F5D96692D70E05D
:10406000B69EA001B79E500D112447525E4FFA0133
:10407000D490F0E4DF1631F1FA018490CC90DD2485
:10408000C7FCD094E82DF0E0CE16DF06C1F4B69E52
:10409000D001B79EB00D1124FD01E80FF11D87FD81
:1040A000FA95E652FE4F6491FE01E90FF11D60871B
:1040B0009F5F903130F48F5F863071F702C0939428
:1040C000CDCF80E0FA014491403431F4FE01E20F9B
:1040D000F31FA58E215031092F5F3F4F903108F417
:1040E000B4CF198F088F08C0FE01E90FF11D1086AB
:1040F0009F5F9031C9F7F5CF4A8D552747FD509501
:1041000027E030E0241B350B80E090E037FD12C043
:10411000FE01E80FF91F4085022E01C0440F0A94EA
:10412000EAF7408701968031910591F78E818823C7
:10413000A1F01FC047505109FE01E80FF91F20856B
:1041400030E0042E02C0359527950A94E2F72087C7
:1041500001968031910581F7E9CF80E090E0FE0182
:10416000E80FF91F20852095208701968031910561
:10417000B1F7AE01485F5F4F20E160E0CE01DF9113
:10418000CF911F910F91FF90EF90DF90CF90BF9054
:10419000AF909F908F900C94F71D0F931F93FC018D
:1041A00081E08783148E138E038D148DD901A00FA7
:1041B000B11F8C91DF01A00FB11F882319F00331CB
:1041C000110564F05D961C922AEF2003C001219F27
:1041D000900D11246817790774F007C05D968C93D1
:1041E0000F5F1F4F148F038FDFCFCB01613171053C
:1041F00014F080E190E0918F808F40310CF04FE01F
:1042000047FD4FEF428FCF011F910F910C94771F05
:10421000CF93DF93DC01362F862F6AE00E940635AC
:10422000C82FD0E0FE01EE0FFF1FEC0FFD1FEE5474
:10423000FE4FE4911896EC931897FE01EE0FFF1FC6
:10424000EC0FFD1FED54FE4FE4911996EC93199776
:10425000FE01EE0FFF1FEC0FFD1FEC54FE4FE4912B
:104260001A96EC931A971B961C921B97832F0E9409
:104270000635692F70E0FB01EE0FFF1FE60FF71FF9
:10428000EE54FE4FE4911C96EC931C97FB01EE0F4D
:10429000FF1FE60FF71FED54FE4FE4911D96EC93C0
:1042A0001D97FB01EE0FFF1FE60FF71FEC54FE4FAB
:1042B000E4911E96EC931E97842F6AE00E940635C7
:1042C000682F70E0FB01EE0FFF1FE60FF71FEE54A3
:1042D000FE4FE4915196EC935197FB01EE0FFF1FB7
:1042E000E60FF71FED54FE4FE4915296EC93529770
:1042F000FB01EE0FFF1FE60FF71FEC54FE4FE4919A
:104300005396EC93539754961C925497842F6AE0DB
:104310000E940635892F90E0FC01EE0FFF1FE80F89
:10432000F91FEE54FE4FE4915596EC935597FC011E
:10433000EE0FFF1FE80FF91FED54FE4FE491569664
:10434000EC935697FC01EE0FFF1FE80FF91FEC549A
:10435000FE4FE4915796EC935797222341F088E261
:104360001F968C931F9750968C93509706C01F965C
:104370001C921F9750961C92509716968C911697E8
:10438000882351F0AD01485F5F4F20E160E0CD012F
:10439000DF91CF910C94F71D80E090E0FD01E80FD4
:1043A000F91F208520952087019680319105B1F76E
:1043B000E9CF2F923F924F925F926F927F928F92AE
:1043C0009F92AF92BF92CF92DF92EF92FF920F93A4
:1043D0001F93CF93DF93CDB7DEB72A970FB6F8942C
:1043E000DEBF0FBECDBF8C016A017B01922E2A0178
:1043F0003B0177FA709477F8709420E030E0A901DF
:10440000C701B6010E944A3187FF05C049865A8616
:10441000362C272C04C0C986DA863E2C2F2C7AE055
:10442000A72EB12C20E03EE34CE156E4C701B601D3
:104430000E94113387FD03C089E08D83C5C020E051
:1044400030EE49E754ECC701B6010E944A31181614
:1044500024F08BE08D8389E0B7C020E030E0A90133
:10446000C701B6010E944A31882E881C8824881C06
:10447000712C60E070E080E09FE3791441F020E06F
:1044800030E040E251E40E944E317394F6CF9B013C
:10449000AC0169857A85832D922D0E9484302B0191
:1044A0003C010E94BB319B01462F972FE0E0842FF7
:1044B000B5010E941235A1E0B0E0AC0FBD1FAE0FF8
:1044C000B11D8AE0689F401911244C93EF5F61157C
:1044D000710519F0462F972FEACF8E2F880D982F50
:1044E000990D953020F064E0962E981A9BCF8CE0C1
:1044F0008D838E838F83888784E0891B882041F099
:10450000DE01A80FB11D8BE015968C9385E0891B09
:10451000F82EFE0E8F2D8E1BEE2379F045E050E035
:104520004C0F5D1F480F511DCE018E0F911DDC01F8
:104530008C91DA018C93E150EDCF992009F480C081
:10454000B90180E090E00E94E7319B01AC01C3011A
:10455000B2010E948330FB01DC01E62EDF2EC82E63
:10456000BB2E83E0F8120FC020E030E040E251E4BF
:10457000BF01CD010E9461330E94B631672B39F52E
:104580008CE088875DC082E0F8120EC020E030E049
:1045900048EC52E4BF01CD010E9461330E94B63164
:1045A000672BA9F48CE011C081E0F81210C020E064
:1045B00030E04AE754E4BF01CD010E9461330E941C
:1045C000B631672B21F48CE08E838F83DACFAA2457
:1045D000A394AF0CE5E0F0E0EC0FFD1FEF0DF11D33
:1045E0008AE080839A94AFEF9A1651F120E030E090
:1045F00040E251E46E2D7D2D8C2D9B2D0E94613368
:104600006B017C010E94B631882483948A0CE5E01A
:10461000F0E0EC0FFD1FEA0DF11D6083882777FDA8
:104620008095982F0E94E9319B01AC01C701B6012A
:104630000E948330E62ED72EC82EB92EA82CD2CFBA
:104640008D8190E0FC01EE0FFF1FE80FF91FEE5483
:10465000FE4FE491D8011896EC93FC01EE0FFF1F7A
:10466000E80FF91FED54FE4FE491D8011996EC9331
:10467000FC01EE0FFF1FE80FF91FEC54FE4FE49111
:10468000D8011A96EC931A971B961C928E8190E093
:10469000FC01EE0FFF1FE80FF91FEE54FE4FE491EF
:1046A000D8011C96EC93FC01EE0FFF1FE80FF91FD9
:1046B000ED54FE4FE491D8011D96EC93FC01EE0FF2
:1046C000FF1FE80FF91FEC54FE4FE491D8011E962E
:1046D000EC931E971F961C928F8190E0FC01EE0FC9
:1046E000FF1FE80FF91FEE54FE4FE491D8015096DA
:1046F000EC93FC01EE0FFF1FE80FF91FED54FE4F86
:10470000E491D8015196EC93FC01EE0FFF1FE80FE6
:10471000F91FEC54FE4FE491D8015296EC93529756
:1047200053961C92888590E0FC01EE0FFF1FE80F66
:10473000F91FEE54FE4FE491D8015496EC93FC011E
:10474000EE0FFF1FE80FF91FED54FE4FE491D80163
:104750005596EC93FC01EE0FFF1FE80FF91FEC5488
:10476000FE4FE491D8015696EC93569757961C92BB
:10477000579716968C91882301F1A801485F5F4FE7
:1047800020E160E0C8012A960FB6F894DEBF0FBEA4
:10479000CDBFDF91CF911F910F91FF90EF90DF90F0
:1047A000CF90BF90AF909F908F907F906F905F90D1
:1047B0004F903F902F900C94F71D80E090E0F8010F
:1047C000E80FF91F208520952087019680319105FB
:1047D000B1F7D3CF089570E0FB01E05CFB4FE491AB
:1047E000DC01EC93FB01EC5AFB4FE491F0E0EE0F9F
:1047F000FF1FE859FB4F25913491FC01328321833F
:1048000008951F93CF93DF93FC011081C181D28162
:104810009981812F8095892389838A81812B8A833D
:104820008AE090E00E94202B9881912381E009F496
:1048300080E0DF91CF911F910895FF920F931F9316
:10484000CF93DF93FC011081C181D281F8948981DB
:10485000F12EF0948F2189838A81812B8A83789429
:104860000DE7015041F182E090E00E94202B888109
:104870008123B9F3F8948A818F218A838981812BDE
:104880008983789480EE91E00E94202BF8948981AE
:104890008F2189838A81812B8A8386E490E00E941C
:1048A000202B8881812301E009F000E078948AE9D7
:1048B00091E00E94202B802FDF91CF911F910F91CB
:1048C000FF9008951F93CF93DF93FC011081C18166
:1048D000D281912F909560FF12C0F8948A8189232C
:1048E0008A838981812B89838AE090E00E94202B32
:1048F0008A81812B8A83789487E390E011C0F894B1
:104900008A8189238A838981812B898381E490E04C
:104910000E94202B8A81812B8A83789485E090E005
:10492000DF91CF911F910C94202B0F931F93CF9366
:10493000DF93FC011081C181D281F8948981812BA0
:1049400089838A81012F009580238A8383E090E008
:104950000E94202B8981802389838A81812B8A83ED
:104960008AE090E00E94202BC881789485E390E053
:104970000E94202B1C2381E009F480E0DF91CF917D
:104980001F910F910895CF92DF92EF92FF920F93B4
:104990001F93CF93DF931F92CDB7DEB76C01E62E46
:1049A00008E010E0FF24F39461E09F2D9E2109F4BC
:1049B00060E0C60149830E946224FF0C0150110986
:1049C00049810115110581F741111DC0F894D601E7
:1049D0001196ED91FC91129791818C91809589238C
:1049E00081831196ED91FC91129782819C91892B84
:1049F00082831196ED91FC91129792818C91809512
:104A00008923828378940F90DF91CF911F910F912A
:104A1000FF90EF90DF90CF900895EF92FF920F9369
:104A20001F93CF93DF938C01C8E0D0E0F12CEE24EC
:104A3000E394C8010E9495248111FE28EE0C219771
:104A4000C1F78F2DDF91CF911F910F91FF90EF90C4
:104A5000089540E06CEC0C94C324FC0180910A01A1
:104A6000808380910B01818312820895DC01E62FFF
:104A7000F0E0EE0FFF1FE65FFE4F80818C93818197
:104A800011968C93119712966C930895FC01828174
:104A90000895FC0183810895CF93DF93EC01888111
:104AA0000E940B2C88810E947A2C21E0892B09F42A
:104AB00020E0822FDF91CF910895CF93DF93EC0117
:104AC00089810E940B2C89810E947A2C21E0892BFC
:104AD00009F420E0822FDF91CF9108951F93CF93A7
:104AE000DF93EC01162F61E088810E940B2C612F6F
:104AF0008881DF91CF911F910C94442C1F93CF9309
:104B0000DF93EC01162F61E089810E940B2C612F4D
:104B10008981DF91CF911F910C94442CCF93DF9327
:104B2000EC0160E088810E940B2C8881DF91CF919D
:104B30000C94662BCF93DF93EC0160E089810E9497
:104B40000B2C8981DF91CF910C94662BFC01808125
:104B50000C94832BDC01E62FF0E0EE0FFF1FE65FE5
:104B6000FE4F80818C93818111968C9311971296C0
:104B70006C930895DC01E62FF0E0EE0FFF1FE65F77
:104B8000FE4F80818C93818111968C9311971296A0
:104B90006C93129713964C930895FC0180810895AD
:104BA000FC0181810895CF93DF93EC01262F30E043
:104BB0003D832C8323E0629FC00111240E949B351A
:104BC0009F838E83892B21F489E591E00E949C3795
:104BD00080E090E04C815D819A01220F331F240F09
:104BE000351F8217930738F4EE81FF81E80FF91F14
:104BF00010820196EFCFDF91CF910895EF92FF924F
:104C00001F93CF93DF931F92CDB7DEB77C01162F92
:104C100049830E943625D70111968C91282F30E0C8
:104C2000F901E05CFB4FE491D7011C96EC93F9018C
:104C3000EC5AFB4FE491F0E0EE0FFF1FEE58FB4FF4
:104C400025913491F7013187208761E00E940B2C78
:104C50004981642FC7010E94D325D70112961C9366
:104C6000129782E013968C930F90DF91CF911F9152
:104C7000FF90EF9008950F93FC01A62FB0E0848180
:104C80009581A817B907B8F4862F880F860F90E092
:104C9000A681B781A80FB91F2C93A681B781A80F51
:104CA000B91F11964C930680F781E02DE80FF91F8C
:104CB000028381E001C080E00F910895CF92DF92DE
:104CC000EF92FF920F931F93CF93DF937C01142FEA
:104CD000D22EC02E611113C0C0E0D0E0F701848154
:104CE0009581C817D90748F40C2D2D2D412F6C2F15
:104CF000C7010E943B262196F1CF81E004C061509C
:104D00000E943B2680E0DF91CF911F910F91FF9091
:104D1000EF90DF90CF9008950F931F93CF93DF9381
:104D2000EC01142F6A834B83E62FF0E0EE0FFF1F98
:104D3000E65FFE4F818189838081888300E020E0E7
:104D400040E060E0CE010E945E26123011F48981BD
:104D500001C08881282F30E0F901E05CFB4FE4912D
:104D6000EC87F901EC5AFB4FE491F0E0EE0FFF1FE6
:104D7000EE58FB4F259134913987288761E0DF9108
:104D8000CF911F910F910C940B2C0F931F93CF93E6
:104D9000DF93EC01162F00E020E040E060E00E948D
:104DA0005E26212F30E0F901E05CFB4FE491EC87B7
:104DB000F901EC5AFB4FE491F0E0EE0FFF1FEE58C3
:104DC000FB4F259134913987288761E0812F0E941C
:104DD0000B2C1A8282E08B83DF91CF911F910F9170
:104DE00008950F93022F242F462F60E00E945E2625
:104DF0000F9108950F931F93D8013FB7F8949C919A
:104E0000822F80958923292BFB01460F571FE4171A
:104E1000F50781F0919168E02C9300C097FF8C9387
:104E2000990F00C000C000C008F48C9300C06A95C0
:104E300099F7EDCF3FBF1F910F9108950F931F93E7
:104E4000FC010085118524813581A901440F551F7E
:104E5000420F531F6681778124850E94FA2661E004
:104E600070E080E090E01F910F910C94F82ACF93AE
:104E7000DF93EC018E819F810E9433361F821E8258
:104E8000DF91CF910895CF93DF93EC010E942D2500
:104E9000CE010496DF91CF910C94EA231F93CF9318
:104EA000DF93EC01142F0E94BA25123011F46981AE
:104EB00001C06881CE010496DF91CF911F910C94BF
:104EC000EB23CF92DF92EF92FF920F931F93CF933A
:104ED000DF93CDB7DEB72C970FB6F894DEBF0FBEC9
:104EE000CDBF8C010C5F1F4FC8010E941D24C8015B
:104EF0000E94292540E064E4C8010E94C3240E9466
:104F0000C92A6B017C01C8010E94012481110BC0D8
:104F10000E94C92A6C197D098E099F096E3E724054
:104F20008105910580F3C8010E941D24C8010E94DB
:104F3000292540E06EEBC8010E94C324CE010196F2
:104F40007C016E0196E0C90ED11CC8010E940D259E
:104F5000F70181937F01EC15FD05B9F76A8170E0D7
:104F6000762F66278981682B882777FD8095982F73
:104F70000E94E93120E030E040E85DE30E946133C7
:104F80002C960FB6F894DEBF0FBECDBFDF91CF9148
:104F90001F910F91FF90EF90DF90CF90089560E008
:104FA0000C94362560E00C945D2560E00C94362569
:104FB000CF92DF92EF92FF920F931F93CF93DF93E5
:104FC00000D000D0CDB7DEB78C019A01AB012983A8
:104FD0003A834B835C830E94C92AF801C680D7803C
:104FE000E084F1846C197D098E099F0929813A8139
:104FF0004B815C81683171058105910510F081E07C
:105000008583F80185818823C1F129833A834B8305
:105010005C830E94C92AF801668377838087918721
:10502000158260E0C8010E947E2582E090E00E9427
:10503000202B61E0C8010E947E258AE090E00E945A
:10504000202B60E0C8010E947E2560E0F80181818C
:105050000E940B2C29813A814B815C8161E0F8012F
:1050600081810E94A32C6B017C010E94E931F8012F
:10507000628773878487958709C0F8016285738585
:10508000848595850E94B6316B017C01C701B6010C
:105090000F900F900F900F90DF91CF911F910F9174
:1050A000FF90EF90DF90CF900895CF93DF93EB01C7
:1050B00027E3269FA001279F500D112448535F4FDF
:1050C00060E070E00E94D8276115710581059105A7
:1050D00041F48AE38C9FB0018D9F700D112480E014
:1050E00090E00E94E93120E030E048E652E40E947E
:1050F0004E31DF91CF9108951F920F920FB60F920C
:1051000011242F933F934F935F936F937F938F93CC
:105110009F93AF93BF93EF93FF938091D20587FF47
:1051200005C010928500109284001AC02091D2050B
:10513000332727FD30958091D10590E02817390756
:105140007CF48091D205992787FD9095FC01EE0FA4
:10515000FF1FE80FF91FED52FA4F808187FD15C040
:105160008091D2058F5F8093D2052091D20533279D
:1051700027FD30958091D10590E028173907BCF4C0
:105180008091D2058C305CF112C08091D2059927B4
:1051900087FD9095FC01EE0FFF1FE80FF91FED5200
:1051A000FA4F808160E08F770E94442CD9CF8091A4
:1051B000840090918500049680349C4918F480E422
:1051C0009CE905C08091840090918500049690939D
:1051D0008900809388008FEF8093D20538C020919A
:1051E0008400309185008091D205992787FD9095A4
:1051F000FC01EE0FFF1FE80FF91FED52FA4F8181FE
:105200009281820F931F90938900809388008091F0
:10521000D205992787FD9095FC01EE0FFF1FE80F3F
:10522000F91FED52FA4F808187FF11C08091D2059E
:10523000992787FD9095FC01EE0FFF1FE80FF91FDE
:10524000ED52FA4F808161E08F770E94442CFF91EC
:10525000EF91BF91AF919F918F917F916F915F91EE
:105260004F913F912F910F900FBE0F901F90189567
:105270002091D1052C30A0F431E0320F3093D105CC
:10528000FC012083822F90E0FC01EE0FFF1FE80F4E
:10529000F91FED52FA4F88EB9BE0928381830895CA
:1052A0002FEFFC0120830895DF92EF92FF920F937E
:1052B0001F93CF93DF93EC01D62E7A018901888169
:1052C0008C3008F066C061E08D2D0E940B2C888127
:1052D000A82FB0E0FD01EE0FFF1FEA0FFB1FED52FC
:1052E000FA4F2D2D2F7790819078922B908360E24A
:1052F00072E06E197F0977FF02C06D5F7F4F759571
:10530000679575956795698340E659E0401B510B99
:1053100057FF02C04D5F5F4F55954795559547958F
:105320004A836CE00E9406359CE0899FB0011124FD
:1053300020E030E0A901460F571FFA01EE0FFF1FD2
:10534000E40FF51FED52FA4F908197FD16C02F5FC5
:105350003F4F2C30310571F781110FC01092800042
:1053600082E0809381001092850010928400B19AAF
:1053700080916F00826080936F00888190E0FC01D3
:10538000EE0FFF1FE80FF91FED52FA4F8081806882
:1053900080838881DF91CF911F910F91FF90EF90D3
:1053A000DF90089520E639E040E252E00C94542961
:1053B000FC0180818C3070F5918128E830E0291B58
:1053C000310997FD3395220F331F220F331F6217C8
:1053D00073077CF0928128E532E0291B310997FDA3
:1053E0003395220F331F220F331F621773070CF4FC
:1053F0009B0122503109220F331F4FB7F89490E0E0
:10540000FC01EE0FFF1FE80FF91FED52FA4F328338
:1054100021834FBF08954F925F926F927F92AF9218
:10542000BF92CF92DF92EF92FF920F931F93CF9391
:10543000DF93EC01603282E078070CF040C077FD2A
:1054400006C0653B71052CF064EB70E002C060E0C3
:1054500070E0898128E830E0281B310987FD339509
:10546000220F331F220F331F5901CC24B7FCC094E5
:10547000DC2C882777FD8095982F2A8148E552E01B
:10548000421B510927FD5395440F551F440F551FCB
:105490002A01662457FC6094762C7F926F925F926B
:1054A0004F9214EBE12EF12C00E010E020E030E010
:1054B000A9010E942D2F0F900F900F900F90CE01F9
:1054C000DF91CF911F910F91FF90EF90DF90CF90E0
:1054D000BF90AF907F906F905F904F900C94D829C1
:1054E000FC01808190E0FC01EE0FFF1FE80FF91F27
:1054F000ED52FA4F808187FB882780F908951F922B
:105500000F920FB60F9211242F933F938F939F9377
:10551000AF93BF938091F8059091F905A091FA059A
:10552000B091FB053091F70523E0230F2D3720F4D0
:105530000196A11DB11D05C026E8230F0296A11DED
:10554000B11D2093F7058093F8059093F905A0937A
:10555000FA05B093FB058091FC059091FD05A091A3
:10556000FE05B091FF050196A11DB11D8093FC05BC
:105570009093FD05A093FE05B093FF05BF91AF91F9
:105580009F918F913F912F910F900FBE0F901F9081
:1055900018952FB7F8946091F8057091F9058091EE
:1055A000FA059091FB052FBF08953FB7F8948091BD
:1055B000FC059091FD05A091FE05B091FF0526B573
:1055C000A89B05C02F3F19F00196A11DB11D3FBF3B
:1055D0006627782F892F9A2F620F711D811D911DCB
:1055E00042E0660F771F881F991F4A95D1F70895EB
:1055F000CF92DF92EF92FF92CF93DF936B017C010A
:105600000E94D52AEB01C114D104E104F10489F010
:105610000E9482300E94D52A6C1B7D0B683E73402D
:1056200090F381E0C81AD108E108F108C851DC4FB5
:10563000EACFDF91CF91FF90EF90DF90CF90089568
:105640008230910538F0880F991F880F991F0597B0
:105650000197F1F70895789484B5826084BD84B58C
:10566000816084BD85B5826085BD85B5816085BD5D
:10567000EEE6F0E0808181608083E1E8F0E0108276
:10568000808182608083808181608083E0E8F0E0B7
:10569000808181608083E1EBF0E0808184608083A1
:1056A000E0EBF0E0808181608083EAE7F0E08081D8
:1056B0008460808380818260808380818160808338
:1056C0008081806880831092C10008958E3008F038
:1056D0008E50877020912C0190E4299F9001112415
:1056E000822B80937C0080917A00806480937A0082
:1056F00080917A0086FDFCCF80917800209179001E
:1057000090E0922B08951F93CF93DF93182FEB0116
:1057100061E00E940B2C209711F460E004C0CF3FA1
:10572000D10539F461E0812FDF91CF911F910C9465
:10573000442CE12FF0E0E45DFB4FE491E330F9F01D
:1057400048F4E130B9F0E230A1F584B5806284BD5F
:10575000C8BD34C0E730E9F0E83019F1E43049F56C
:1057600080918000806280938000D0938B00C093F2
:105770008A0024C084B5806884BDC7BD1FC08091E5
:105780008000806880938000D0938900C093880057
:1057900015C08091B00080688093B000C093B300C2
:1057A0000DC08091B00080628093B000C093B400BF
:1057B00005C0C038D1050CF0B5CFAFCFDF91CF9188
:1057C0001F910895833081F028F4813099F0823060
:1057D000A1F008958730A9F08830B9F08430D1F471
:1057E000809180008F7D03C0809180008F778093AF
:1057F0008000089584B58F7702C084B58F7D84BD05
:1058000008958091B0008F7703C08091B0008F7DA4
:105810008093B0000895CF93DF9390E0FC01E05CAB
:10582000FB4F2491FC01EC5AFB4F8491882349F1F2
:1058300090E0880F991FFC01E458FB4FA591B491AB
:105840008E589B4FFC01C591D4919FB7611108C040
:10585000F8948C91209582238C93888182230AC0AE
:10586000623051F4F8948C91322F309583238C93CD
:105870008881822B888304C0F8948C91822B8C932E
:105880009FBFDF91CF9108950F931F93CF93DF9325
:105890001F92CDB7DEB7282F30E0F901E45DFB4F52
:1058A0008491F901E05CFB4F1491F901EC5AFB4F34
:1058B00004910023C9F0882321F069830E94E22B20
:1058C0006981E02FF0E0EE0FFF1FEE58FB4FA5912E
:1058D000B4919FB7F8948C91611103C01095812306
:1058E00001C0812B8C939FBF0F90DF91CF911F91AF
:1058F0000F910895CF93DF93282F30E0F901E45DF5
:10590000FB4F8491F901E05CFB4FD491F901EC5A13
:10591000FB4FC491CC2391F081110E94E22BEC2F1C
:10592000F0E0EE0FFF1FE859FB4FA591B4912C91C9
:105930002D2381E090E021F480E002C080E090E03F
:10594000DF91CF9108950F931F93762F90E0FC0184
:10595000E05CFB4F6491FC01EC5AFB4FE491711148
:10596000762FF0E0EE0FFF1FE859FB4F85919491E1
:1059700089019A013F70472F0E94730261157105DA
:105980008105910531F06F5F7F4F8F4F9F4F9F7063
:1059900003C060E070E0CB011F910F910895FC01FE
:1059A000818D228D90E0805C9F4F821B91098F73C7
:1059B00099270895FC01918D828D981731F0828D81
:1059C000E80FF11D858D90E008958FEF9FEF08950A
:1059D000FC01918D828D981761F0828DDF01A80FF7
:1059E000B11D5D968C91928D9F5F9F73928F90E019
:1059F00008958FEF9FEF08958CE69EE2892B49F082
:105A000080E090E0892B29F00E946C2E81110C948B
:105A100000000895FC01848DDF01A80FB11DA35A79
:105A2000BF4F2C91848D90E001968F739927848FBE
:105A3000A689B7892C93A089B1898C9180648C93B5
:105A4000938D848D981306C00288F389E02D8081A0
:105A50008F7D80830895CF93DF93EC01888D882319
:105A6000C9F0EA89FB89808185FD05C0A889B989CB
:105A70008C9186FD0FC00FB607FCF5CF808185FFA6
:105A8000F2CFA889B9898C9185FFEDCFCE010E9414
:105A90000A2DE7CFDF91CF910895CF92DF92FF9249
:105AA0000F931F93CF93DF931F92CDB7DEB76C0197
:105AB00081E0D60158968C9358975B969C915B97A2
:105AC0005C968C915C97981307C05096ED91FC9171
:105AD0005197808185FD2EC0F601038D10E00F5F88
