:1000000020C300000C9461620C9492620C94C36251
:100010000C94F4620C9425630C9456630C948763DF
:100020000C94B8630C9437600C9437600C94376070
:1000300039C300000C943C3B35C3000033C30000BF
:1000400031C300000C94435A2DC300002BC30000A1
:1000500029C3000027C3000025C300000C94E963F6
:1000600021C300000C947E680C94B4681BC300008C
:1000700019C3000017C3000015C3000013C300001C
:100080000C94705A0FC300000DC300000BC3000096
:1000900009C3000007C3000005C300000C94185EEC
:1000A00001C30000FFC200000C949D5AFBC2000077
:1000B000F9C20000F7C20000F5C200000C94CA5A51
:1000C000F1C20000EFC20000EDC200000C942969EB
:1000D0000C945F69E7C200000C94D4690C940A6A1E
:1000E000E1C20000991AD5180219181918192F1908
:1000F000881A18190B1C0B1C0B1C0B1C0B1C0B1C43
:100100000B1C8C194C19AA190B1C0B1C0B1CD91994
:10011000211B271A471A671A071A0B1C0B1C0B1CEA
:10012000A71AAE1A0B1C0B1C0B1C0B1CD01ABD1AE9
:100130000B1C0B1C0B1C0B1C0B1C0B1C0B1C0B1C87
:100140000B1C0B1C0B1C0B1C081B111B0B1C0B1C76
:100150000B1C0B1C0B1C0B1C0B1C0B1C7A1B361BCF
:100160000B1C0B1C691C0B1C0B1C851B0B1C0F1C7C
:100170003B6205620D6219622662476254623D6508
:100180004265476551655B65D46565656D657565F7
:100190007F6589659365A265AC65D465B665C06504
:1001A000CA65F665F965E865EC65F2653066FD657A
:1001B000016607660B660F66156619661D66306672
:1001C000236627662B66084AD73B3BCE016E84BC6C
:1001D000BFFDC12F3D6C74319ABD56833DDA3D00A1
:1001E000C77F11BED9E4BB4C3E916BAAAABE0000EA
:1001F00000803F08000000BE922449123EABAAAA2C
:100200002ABECDCCCC4C3E00000080BEABAAAAAA30
:100210003E00000000BF000000803F000000000022
:10022000084178D3BB4387D1133D190E3CC3BD426F
:1002300082AD2B3E68EC8276BED98FE1A93E4C8020
:10024000EFFFBE01C4FF7F3F0000000000076342D4
:1002500036B79BD8A71A39685618AEBAAB558C1D5D
:100260003CB7CC5763BD6DEDFD753EF6177231BFDF
:10027000000000803F003F065B4F666D7D077F6F8B
:10028000777C395E7971BF86DBCFE6EDFD87FFEFC6
:10029000F7FCB9DEF9F100407C447C007C005C5442
:1002A0007454547C70107C74545C7C545C40407C6E
:1002B0007C547C74547C000400202020000000202A
:1002C00000000000000030007C82827C003100428F
:1002D000FE0200003200468A92620033004492928D
:1002E0006C0034001C64FE04003500F292928C0015
:1002F00036007C92924C003700C08E90E0003800AF
:100300006C92926C0039006492927C006100042A25
:100310002A1E006200FE12120C0063000C12121260
:100320000064000C1212FE0065001C2A2A180066E8
:1003300000103E50500067000815151E006800FEB2
:10034000101E00006900002E0000006A0002012E4D
:1003500000006B00FE081412006C0000FE0200009A
:100360006D001E100E100E6E001E10100E006F009D
:100370000C12120C0070001F12120C0071000C12F3
:10038000121F0072001E081010007300122925129F
:10039000007400103E12000075001C02021E007660
:1003A0001804020418007718061C061800780012BA
:1003B0000C0C120079001805051E007A0012161A9E
:1003C000120041007E88887E004200FE92926C00FE
:1003D00043007C828244004400FE82827C0045000F
:1003E000FE929282004600FE9090800047007C8240
:1003F000925C004800FE1010FE00490082FE820060
:10040000004A000C0202FC004B00FE1028C6004C03
:1004100000FE020202004D00FE403040FE4E00FE93
:10042000403008FE4F007C8282827C5000FE90901B
:10043000600051007C828A847A5200FE98946200A7
:1004400053006492924C00540080FE80800055005E
:10045000FC0202FC005600F00C020CF05700FE04F7
:100460003804FE5800C63838C60059C0201E20C0C7
:10047000005A00869AB2C2002C00010E0C00002E19
:10048000000006060000257254781E2A4E21000046
:100490007A0000003F00204A3000002D00101010AC
:1004A00010002B08083E0808002F00020C30400006
:1004B0002A2214081422003A00001400000022002E
:1004C000C000C000002328FE28FE28002800007C71
:1004D000820000290000827C00003B000224000012
:1004E000007E0040804080003B0002240000003D70
:1004F0000028282828007C0000FE0000003E008222
:10050000442810003C0010284482004000000000F5
:10051000000000000A0B02090C0D0E08070304017D
:1005200000000000000000000000000000000000CB
:100530000000000000000000000000000000121198
:10054000100000000000000000000000000000009B
:100550000000000000000000010210202008081028
:100560002040102040800201020108040201010223
:1005700004081020408080402010080402018004FC
:100580000201804020100804020108040201010257
:100590000408102040800102040810204080050556
:1005A0000505070508080808020202020A0A0808E9
:1005B0000404040401010101010101010303030317
:1005C00003030303040707070C0C0C0C0C0C0C0CA6
:1005D0000202020206060606060606060B0B0B0BB7
:1005E0000B0B0B0B000020002300260029002C0021
:1005F0002F00320000010000030106010901000084
:100600002200250028002B002E00310034000201BA
:100610000000050108010B01000021002400270053
:100620002A002D0030003300010100000401070101
:100630000A018617EC2B375DE66891693C6A001861
:10064000F02B11241FBECFEFD1E2DEBFCDBF00E003
:100650000CBF13E0A0E0B2E0EEEFF7EE00E00BBF5E
:1006600002C007900D92A83DB107D9F72EE0A8ED82
:10067000B3E001C01D92AA3AB207E1F716E0CEE35B
:10068000D6E000E006C022970109FE010BBF0E94E0
:100690002971C233D10780E00807A9F70E94806A58
:1006A0000C94EE73ADCCCF92DF92EF92FF920F934A
:1006B0001F93E82FF92F05C00150110921093109B5
:1006C00061F1908196239417B9F305C00150110987
:1006D0002109310911F1908196239413F7CFC12C90
:1006E000D12CE12CF12C0AC08FEFC81AD80AE80AE5
:1006F000F80A0C151D052E053F0579F0808186232B
:10070000841791F36C2D7D2D8E2D9F2D1F910F91B0
:10071000FF90EF90DF90CF90089560E070E080E070
:1007200090E01F910F91FF90EF90DF90CF90089590
:1007300081EC96E00E94292D0E949F66892B21F46E
:1007400081EC96E00C94422D81EC96E00C94342DD3
:1007500081E496E00E94292D0E949F66892B21F456
:1007600081E496E00C94422D81E496E00C94342DC3
:1007700081EC95E00E94292D0E949F66892B21F42F
:1007800081EC95E00C94422D81EC95E00C94342D95
:1007900081E495E00E94292D0E949F66892B21F417
:1007A00081E495E00C94422D81E495E00C94342D85
:1007B0000C94E0730C94D873CF92DF92EF92FF9277
:1007C0000F931F93CF93DF931F921F92CDB7DEB786
:1007D0006C018B017C0184E0E80EF11CC601698389
:1007E0007A830E94D873F80181938F01FFEFCF1AAB
:1007F000DF0A69817A81CE14DF0481F7CB010F9083
:100800000F90DF91CF911F910F91FF90EF90DF90AC
:10081000CF900895EF92FF920F931F93CF93DF93A2
:100820001F92CDB7DEB77C01FC0100811181C801A8
:1008300069830E94D8736981681719F0C8010E9402
:10084000E073C7010F90DF91CF911F910F91FF903F
:10085000EF900895BF92CF92DF92EF92FF920F93A5
:100860001F93CF93DF9300D0CDB7DEB78C01B62EA8
:10087000E62EF72E6C0184E0C80ED11CF7016191C1
:100880007F011A830983CE0101967B83C3DF0F5F4B
:100890001F4F7B810C151D0589F78B2D972F0F900E
:1008A0000F900F90DF91CF911F910F91FF90EF90DC
:1008B000DF90CF90BF900895CF92DF92EF92FF929A
:1008C0000F931F93CF93DF931F921F92CDB7DEB785
:1008D0006C018C0183E5E82EF12CF80161918F0108
:1008E000FA82E982CE01019695DFFFEFEF1AFF0A47
:1008F00087E5E816F10489F7C6010F900F90DF91A4
:10090000CF911F910F91FF90EF90DF90CF900895BE
:100910006BEA80E590E04CDF6DEC81E590E048DF2C
:100920006BEA82E590E044DF8AE092E0C5DF6EE3A7
:1009300074E087E590E08EDF62E474E08BE590E0A0
:1009400089DF66E474E08FE590E084DF6EE174E0B7
:1009500083E690E07FDF62E274E087E690E07ADF92
:1009600066E274E08BE690E075DF6EEF73E08FE691
:1009700090E070DF6FEE83E790E01ADF6BEA82E9C8
:1009800090E016DF6091060583E990E011DF6FEEDD
:1009900084E990E00DCF6BEA80E990E009DF6DEC2F
:1009A00081E990E005DF6BEA82E990E001DF609188
:1009B000060583E990E0FCDE6FEE84E990E0F8CE76
:1009C0000F931F93CF93DF9380E590E0F3DE8B3A94
:1009D00029F481E590E0EEDE8D3C71F099DF80E94D
:1009E00090E0E8DE8B3A09F04BC081E990E0E2DE6E
:1009F0008D3C09F045C049C082E590E0DBDE8B3AD2
:100A000009F037C083E790E0D5DE8F3E91F50AE02C
:100A100012E0C3E5D0E0CE010E94D873F8018193C3
:100A20008F012196C735D105B1F76EE374E087E5F4
:100A300090E0C2DE62E474E08BE590E0BDDE66E447
:100A400074E08FE590E0B8DE6EE174E083E690E05C
:100A5000B3DE62E274E087E690E0AEDE66E274E068
:100A60008BE690E0A9DE6EEF73E08FE690E0A4DE07
:100A7000B6CF64EC72E089EC9CE00E94EE6AAFCFE6
:100A8000DF91CF911F910F9186CF82E990E092DEA6
:100A90008B3A81F484E990E08DDE8F3E59F483E94E
:100AA00090E00E94D87380930605DF91CF911F914B
:100AB0000F9108956AEE72E089EC9CE0DF91CF918E
:100AC0001F910F910C94EE6A6091120270911302C3
:100AD00081EC96E00E946A2D6091120270911302DF
:100AE00071956195710981E496E00C946A2D60918D
:100AF00012027091130271956195710981EC96E073
:100B00000E946A2D609112027091130281E496E0B6
:100B10000C946A2D609112027091130277FF02C04B
:100B20006D5F7F4F75956795759567957195619523
:100B3000710981EC96E00E946A2D60911202709119
:100B4000130281E496E00C946A2D60911202709178
:100B5000130271956195710981EC96E00E946A2DEE
:100B6000609112027091130277FF02C06D5F7F4F98
:100B7000759567957595679581E496E00C946A2D57
:100B8000609112027091130281EC96E00E946A2D2E
:100B9000609112027091130277FF02C06F5F7F4F66
:100BA0007595679571956195710981E496E00C944E
:100BB0006A2D609112027091130277FF02C06F5F7D
:100BC0007F4F7595679581EC96E00E946A2D609144
:100BD00012027091130271956195710981E496E09A
:100BE0000C946A2D609112027091130281EC96E0D0
:100BF0000E946A2D609112027091130281E496E0C6
:100C00000C946A2D60911202709113027195619596
:100C1000710981EC96E00E946A2D60911202709138
:100C2000130271956195710981E496E00C946A2D27
:100C300060E070E081EC96E00E946A2D60E070E078
:100C400081E496E00C946A2D20910105211104C0E5
:100C5000FC01E553FB4F05C0233029F4FC01E956A4
:100C6000FB4F80810895089520910105211104C052
:100C7000FC01E553FB4F05C0233021F4FC01E9568C
:100C8000FB4F6083089580910105811103C089ECB9
:100C90009CE004C0833021F483E09EE00C94DB6A86
:100CA0000895CF93DF93EC01CFDF80932705CE012A
:100CB0000196CADF80932805809127059091280529
:100CC000DF91CF9108950F931F93CF93DF93EC01A2
:100CD000BBDF09E215E0F8018083CE010196B4DFA5
:100CE00080932A05CE010296AFDF80932B05CE01BB
:100CF0000396AADF80932C05F801608171818281BF
:100D00009381DF91CF911F910F910895CF93DF933E
:100D1000EC019ADF80932905CE01019695DF80933F
:100D20002A05CE01029690DF80932B05CE01039613
:100D30008BDF80932C056091290570912A058091A5
:100D40002B0590912C05DF91CF910895EF92FF92A2
:100D50000F931F93CF93DF938B01CAEED3E08A5E8C
:100D600093407C01CE018A5E93408017910734F452
:100D7000C7018C0F9D1F68DF8993F4CFF801E651FE
:100D8000FC4F10828AEE93E0DF91CF911F910F917B
:100D9000FF90EF900895CF92DF92EF92FF920F9322
:100DA0001F93CF93DF937B010AED13E0C0E0D0E007
:100DB0008A5D93406C01CE15DF0564F4C031D10526
:100DC00049F0C601800F911F3FDFF80181938F0129
:100DD0002196F1CF8AED93E0DF91CF911F910F9192
:100DE000FF90EF90DF90CF900895FC01DB01129609
:100DF0008C911297828313968C9113978383149608
:100E00008C911497848315968C91159785831696EB
:100E10008C911697868317968C91179787831896CF
:100E20008C911897808719968C91199781871A96BB
:100E30008C911A9782871B968C911B9783871C969F
:100E40004D915D916D917C911F9744875587668781
:100E5000778750964D915D916D917C915397408B22
:100E6000518B628B738B54964D915D916D917C91FA
:100E70005797448B558B668B778B58964D915D9128
:100E80006D917C915B97408F518F628F738F5C96D1
:100E90004D915D916D917C915F97448F558F668FD9
:100EA000778F90964D915D916D917C91939740A332
:100EB00051A362A373A394964D915D916D917C9122
:100EC000979744A355A366A377A398964D915D91F8
:100ED0006D917C919B9740A751A762A773A79C96A1
:100EE0004D915D916D917C919F9744A755A766A701
:100EF00077A7D0964D915D916D917C91D39740AB42
:100F000051AB62AB73ABD4964D915D916D917C9179
:100F1000D79744AB55AB66AB77ABD8968D919C9188
:100F2000D99791AF80AFDA968D919C91DB9793AF73
:100F300082AFDC968D919C91DD9795AF84AFDE9664
:100F40008C91DE9786AFDF968D919C91DF01DF96C5
:100F50008D939C93CF010895CF93DF93EC0184E8A8
:100F600093E099838883CE0182599F4F0E94656BDD
:100F7000CE01DF91CF910C94B560EFE0F5E020E079
:100F800030E0419151914817590791F0452B41F4B8
:100F9000F901EE0FFF1FE15FFA4F9183808308C0D4
:100FA0002F5F3F4F2C30310561F780E090E00895CE
:100FB000C90108954F925F926F927F928F929F9294
:100FC000AF92BF92CF92DF92EF92FF920F931F9357
:100FD000CF93DF93CDB7DEB7C554D1090FB6F894E0
:100FE000DEBF0FBECDBF182F86E090E02DDE782E3D
:100FF000183209F47BC010F51A3009F443C078F4B4
:10100000153009F45CC020F4133009F449C2C2C79A
:10101000183009F45EC1193009F4B3C1BBC71E31E1
:1010200009F471C220F4143109F44DC2B3C710326F
:1010300009F474C2113209F47DC2ACC71D3389F1C1
:1010400078F4123309F4A1C220F4193209F4AEC1C4
:10105000A1C7143309F4ACC21C3309F471C19AC797
:10106000113409F44AC438F41E3309F4EAC21034C6
:1010700009F442C68FC7143409F44EC4153409F478
:101080004BC588C787E090E00CDE8C01672D84E5B6
:1010900099E00E941642B80184E599E00E94364228
:1010A00079C7811177C787E090E0CEDD182F88E0FF
:1010B00090E0F7DD66277727681B790B71C386E020
:1010C00090E0EFDD66277727681B790B81EC96E0CF
:1010D0000E94562D88E090E0E4DD66277727681BA4
:1010E000790B81E496E00E94562D54C787E090E08A
:1010F000D8DD8C0189E090E009DE4B015C0181E0E4
:10110000781237C061E070E0CE0101960E941E5453
:10111000BE016F5F7F4F85E797E067DEB501A401F1
:1011200085E797E00E94B356B801882777FD809540
:10113000982F0E94776D4B015C01AB01BC0185E7E4
:1011400097E00E94C95640E050E46CE976E485E7F8
:1011500097E00E94235760E185E797E00E94A15441
:10116000B501A40185E797E00E949C5785E797E0C9
:1011700039C082E0781239C062E070E0CE01019699
:101180000E941E54BE016F5F7F4F86EB97E02DDEFD
:10119000B501A40186EB97E00E94B356B8018827F9
:1011A00077FD8095982F0E94776D4B015C01AB0114
:1011B000BC0186EB97E00E94C95640E050E46CE920
:1011C00076E486EB97E00E94235760E186EB97E098
:1011D0000E94A154B501A40186EB97E00E949C57A0
:1011E00086EB97E00E944258D5C683E0781237C05C
:1011F00063E070E0CE0101960E941E54BE016F5F55
:101200007F4F87EF97E0F1DDB501A40187EF97E00D
:101210000E94B356B801882777FD8095982F0E94C9
:10122000776D4B015C01AB01BC0187EF97E00E9439
:10123000C95640E050E46CE976E487EF97E00E94FD
:10124000235760E187EF97E00E94A154B501A40104
:1012500087EF97E00E949C5787EF97E0C3CF84E029
:10126000781298C664E070E0CE0101960E941E5488
:10127000BE016F5F7F4F88E398E0B7DDB501A40141
:1012800088E398E00E94B356B801882777FD8095DF
:10129000982F0E94776D4B015C01AB01BC0188E384
:1012A00098E00E94C95640E050E46CE976E488E397
:1012B00098E00E94235760E188E398E00E94A154DF
:1012C000B501A40188E398E00E949C5788E398E068
:1012D00089CF87E090E0B8DC982E88E090E0B4DC1D
:1012E000A82E89E090E0B0DC182F8AE090E0ACDC1A
:1012F000B82E8BE090E0A8DC082F8AE299E00E94EB
:101300007544871140C68AE299E00E9478448911A9
:101310003AC6AA2049F06FEF6A0D2B2D412F8AE2C1
:1013200099E00E947E4507C0202F4B2D612F8AE255
:1013300099E00E940A468AE299E00E9436462AC64F
:1013400087E090E081DC182F82E1781223C670DC00
:10135000153050F41093060583E990E02BDA8117DD
:1013600009F418C6612F09C01092060583E990E0C0
:1013700021DA882309F40EC660E083E990E018DAE8
:1013800009C68EE199E00E947544871529F0672D02
:101390008EE199E00E94E62287E090E094DCAB01C8
:1013A000BC018EE199E00E940723F4C589EE98E024
:1013B0000E947544871529F0672D89EE98E00E94F8
:1013C000C23C87E090E040DC813011F588E090E09D
:1013D0003BDC182F89E090E037DC482F8AE090E072
:1013E00026964FAF269730DC682F772767FD7095DC
:1013F0008BE090E0ABDC9C01612F772767FD709557
:1014000026964FAD269789EE98E00E94DE3EC2C533
:101410008230D9F488E090E017DCB82E89E090E0C3
:1014200013DC482F60E170E08AE090E026964FAF31
:101430002697B1DC8C0120E126964FAD26976B2DC7
:1014400089EE98E00E94E93CA5C58330D9F488E094
:1014500090E0FADB182F89E090E0F6DB682F8AE055
:1014600090E023966FAF2397EFDB21E023966FADDB
:101470002397111101C020E0482F89EE98E00E94C7
:10148000183F88C5843009F085C588E090E01BDCF2
:10149000AB01BC0123E089EE98E00E94E83F7AC5E9
:1014A0008AE199E00E947544871529F0672D8AE149
:1014B00099E00E94D94487E090E0C6DB61E08111A9
:1014C00014C060E012C08AE199E00E94754487155B
:1014D00029F0672D8AE199E00E94D94487E090E0E5
:1014E000B3DB823038F4682F61708AE199E00E94A2
:1014F0009D4450C561E0823009F460E08AE199E0E2
:101500000E94AD4447C561E00E94316687E090E0EB
:101510009BDB682F872D0E946A663CC561E00E94B4
:10152000316687E090E090DB682F70E0872D0E94A5
:10153000196530C587E090E087DBB82E84EB8B150A
:1015400008F428C5072D10E0C80117DDFC01EE0FD7
:10155000FF1FE80FF91FE75AF64F208131814281C2
:1015600029833A834B83CE0101960E945E5C8111F0
:1015700005C0B801CE0101960E94C25B6B2D70E0E0
:10158000CE0101960E94FA5B05C50E9433640E9459
:10159000756D20E030E04AE754E40E94DC6C609313
:1015A0009304709394048093950490939604F2C4EA
:1015B0008111F0C487E090E074DB8C0189E090E059
:1015C00070DBBC01882777FD8095982F0E94776D8E
:1015D00090582AE939E949E15EE30E94EF6E4B0138
:1015E0005C0160932A0470932B0480932C049093E5
:1015F0002D04B801882777FD8095982F0E94776D7C
:101600002DEC3CEC4CE45EE30E94EF6E60930A0428
:1016100070930B0480930C0490930D04C501B401E6
:101620000E94446D9B0177FF04C022273327261BAD
:10163000370B223031050CF4ADC481E08093650492
:10164000A9C487E090E000DB182F81E0781260C029
:1016500088E090E05BDB4B015C018CE090E021DBFB
:1016600097FF03C0919581959109113091F4BC01C8
:10167000882777FD8095982F0E94776D8B019C01BC
:10168000C12CD12CE12CF12CB501A40181EC96E008
:1016900013C01230A1F4BC01882777FD8095982FE4
:1016A0000E94776D8B019C01C12CD12CE12CF12C77
:1016B000B501A40181E496E00E94A12F6BC4133010
:1016C00091F4BC01882777FD8095982F0E94776D53
:1016D0008B019C01C12CD12CE12CF12CB501A40172
:1016E00081EC95E0E9CF143009F054C4BC0188279F
:1016F00077FD8095982F0E94776D8B019C01C12CFE
:10170000D12CE12CF12CB501A40181E495E0D4CFDA
:1017100082E078123EC088E090E0C3DA113061F4D4
:10172000BC01882777FD8095982F0E94776DAB01CB
:10173000BC0181EC96E00DC0123071F4BC01882729
:1017400077FD8095982F0E94776DAB01BC0181E4F5
:1017500096E00E945F2F1EC4133061F4BC018827FD
:1017600077FD8095982F0E94776DAB01BC0181ECCD
:1017700095E0EFCF143009F00DC4BC01882777FD48
:101780008095982F0E94776DAB01BC0181E495E0B4
:10179000E0CF83E0781217C088E090E082DABC01E5
:1017A000113019F0123021F49CCC81EC96E09BCCE6
:1017B000133019F481EC95E096CC143009F0EAC3AB
:1017C00081E495E090CC84E0781223C0113031F4AC
:1017D00040E050E0BA0181EC96E007C0123041F4DD
:1017E00040E050E0BA0181E496E00E942E2DD2C381
:1017F000133031F440E050E0BA0181EC95E0F5CFD0
:10180000143009F0C7C340E050E0BA0181E495E02C
:10181000ECCF85E07812BEC388E090E077DA4B0128
:101820005C018CE090E03DDA1130F9F4BC018827CE
:1018300077FD8095982F0E94776D2B013C01C12C7C
:10184000D12CE12CF12C8B019C01B501A40181EC80
:1018500096E00E94A12F44275527BA01481959093B
:101860006A097B099301820125CF1230B9F4BC01CA
:10187000882777FD8095982F0E94776D2B013C017A
:1018800044275527BA01481959096A097B09C12C0F
:10189000D12CE12CF12C9301820128C0133051F49A
:1018A000BC01882777FD8095982F0E94776D2B01CA
:1018B0003C0114C0143009F06DC3BC01882777FDCA
:1018C0008095982F0E94776D2B013C01B094A094D5
:1018D00090948094811C911CA11CB11CC12CD12C12
:1018E000E12CF12C93018201B501A40181EC96E079
:1018F0000E94A12F93018201DBCE87E090E0D1D935
:101900008C01672D8CE499E00E94A22BB8018CE435
:1019100099E00E94AE2B3EC387E090E095D9182F46
:1019200081E0781277C01130D9F48091350590911B
:101930003605009769F483E090E00E948C6A8C0180
:1019400061E00E948C42109336050093350503C078
:1019500061E00E94B842809135059091360557C0EC
:101960001230D9F48091330590913405009769F4D1
:1019700083E090E00E948C6A8C0162E00E948C42BD
:10198000109334050093330503C062E00E94B8420F
:1019900080913305909134053AC01330D9F4809189
:1019A000310590913205009769F483E090E00E9440
:1019B0008C6A8C0163E00E948C4210933205009384
:1019C000310503C063E00E94B842809131059091D7
:1019D00032051DC0143009F0DDC280912F059091B1
:1019E0003005009769F483E090E00E948C6A8C01D6
:1019F00064E00E948C421093300500932F0503C0D1
:101A000064E00E94B84280912F05909130050E94B9
:101A1000D142C0C282E07812BDC288E090E014D901
:101A2000B82E1130E1F48091350590913605892B5F
:101A300079F483E090E00E948C6A8C0161E00E945E
:101A40008C421093360500933505C8010E94D1429F
:101A50006B2D70E080913505909136055AC012309B
:101A6000E1F42091330530913405232B79F483E0A0
:101A700090E00E948C6A8C0162E00E948C4210937C
:101A8000340500933305C8010E94D1426B2D70E0EC
:101A900080913305909134053CC01330E1F42091DE
:101AA000310530913205232B79F483E090E00E94D8
:101AB0008C6A8C0163E00E948C4210933205009383
:101AC0003105C8010E94D1426B2D70E08091310533
:101AD000909132051EC0143009F05CC220912F0590
:101AE00030913005232B79F483E090E00E948C6ADA
:101AF0008C0164E00E948C421093300500932F0506
:101B0000C8010E94D1426B2D70E080912F05909109
:101B100030050E94F1423EC287E090E095D8582EF1
:101B200088E090E091D8482F81E078124BC089E09E
:101B300090E026964FAF2697E9D84B015C018DE0E7
:101B400090E0AFD88C0126964FAD269797FF03C043
:101B500011950195110980913F05909140050097DD
:101B6000B1F488E190E026964FAF26970E948C6AE8
:101B70003C0126964FAD2697652D0E94FB2B709257
:101B8000400560923F05C3010E94002C03C0652DF3
:101B90000E94042CB801882777FD8095982F0E9419
:101BA000776D8B019C01C12CD12C60E8E62E6FE390
:101BB000F62EB501A40180913F05909140050E9449
:101BC0002C2CE8C182E078123AC089E090E0269699
:101BD0004FAF269766D85C0180913F0590914005F4
:101BE00026964FAD2697009799F488E190E00E94E1
:101BF0008C6A8C0126964FAD2697652D0E94FB2B93
:101C00001093400500933F05C8010E94002C03C0BB
:101C1000652D0E94042CB501882777FD8095982FAB
:101C20000E94776DAB01BC0100E010E020E83FE3CB
:101C300080913F05909140050E94512CABC183E0FB
:101C400078122EC089E090E026964FAF269729D8CB
:101C50005C0180913F059091400526964FAD2697F7
:101C6000009799F488E190E00E948C6A8C01269696
:101C70004FAD2697652D0E94FB2B109340050093D6
:101C80003F05C8010E94002C03C0652D0E94042C52
:101C9000B50180913F05909140050E946A2C7AC160
:101CA00084E0781277C180913F05909140050097BC
:101CB000B1F488E190E026964FAF26970E948C6A97
:101CC0008C0126964FAD2697652D0E94FB2B109315
:101CD000400500933F05C8010E94002C03C0652DFC
:101CE0000E94042C40E050E0BA0180913F059091A1
:101CF00040050E94782C4EC187E090E00E942406A7
:101D0000A82E88E090E00E942406B82E8091370526
:101D100090913805009789F04F960E9475448A1576
:101D200089F100913705109138050115110529F049
:101D3000C80112D9C8010E948D6A84E691E00E9410
:101D40008C6A8C016A2D0E94084810933805009314
:101D5000370540E052EC61E070E0C8010E94D646D1
:101D600065E070E080E090E00E9462648091370559
:101D7000909138050E94C64A62E370E080E090E0EE
:101D80000E94626481E078120DC089E090E00E94B8
:101D90002406482F6B2D80913705909138050E94BD
:101DA000824DF8C082E0781223C089E090E00E9462
:101DB0002406482F8AE090E026964FAF26970E948F
:101DC0002406282F8BE090E025962FAF25970E94C0
:101DD0002406082F25962FAD259726964FAD2697DA
:101DE0006B2D80913705909138050E941C4ED2C012
:101DF00083E0781208C06B2D8091370590913805EB
:101E00000E94D64EC7C084E078122EC089E090E0D0
:101E10000E9486069B01AC018DE090E025962FAFD5
:101E2000259723963FAF239726964FAF2697249664
:101E30005FAF24970E946306C12CD12C7B018C01DB
:101E400025962FAD259723963FAD239726964FAD28
:101E5000269724965FAD24976B2D8091370590913E
:101E600038050E945A4B96C085E078122EC089E052
:101E700090E00E9486069B01AC018DE090E02596E3
:101E80002FAF259723963FAF239726964FAF2697E0
:101E900024965FAF24970E946306C12CD12C7B014E
:101EA0008C0125962FAD259723963FAD2397269637
:101EB0004FAD269724965FAD24976B2D8091370503
:101EC000909138050E94264C65C086E078120DC0BE
:101ED00089E090E00E945106AC016B2D809137059E
:101EE000909138050E94664F55C087E0781208C06F
:101EF0006B2D80913705909138050E94F24C4AC0B5
:101F000088E078120BC028E230E040E06B2D809131
:101F10003705909138050E94FC4F3CC089E078124B
:101F200039C000913705109138050115110529F0C8
:101F3000C80112D8C8010E948D6A84E691E00E940F
:101F40008C6A8C016A2D0E94084810933805009312
:101F5000370540E052EC61E070E0C8010E94D646CF
:101F600065E070E080E090E00E9462648091370557
:101F7000909138050E94C64A62E370E080E090E0EC
:101F80000E94626407C0492D672D8AE299E00E9491
:101F9000CD45BFC9CB5BDF4F0FB6F894DEBF0FBE98
:101FA000CDBFDF91CF911F910F91FF90EF90DF9008
:101FB000CF90BF90AF909F908F907F906F905F90E9
:101FC0004F9008951F93CF93DF93ECE2F6E0C59115
:101FD000D491E2E1F6E0A591B4919FB7F89488819D
:101FE000877F88838C91877F8C939FBFC8EFD5E0D4
:101FF000FE01A591B4912C91287015E080910805FF
:10200000821771F0115061F062E070E080E090E0C2
:102010000E946264FE01A591B4912C912870EECFCC
:102020002093080581E090E0211101C080E0DF915C
:10203000CF911F9108954F925F926F927F928F92EE
:102040009F92AF92BF92CF92DF92EF92FF920F9347
:102050001F93CF93DF9384EA98E00E9494359058C1
:1020600060938B0470938C0480938D0490938E0402
:1020700020914A0430914B0440914C0450914D04FE
:102080000E94116C6B017C01209152043091530429
:1020900040915404509155040E94126C8B01D82F2A
:1020A000C92F20E030E048EC52EC0E94D86C87FD4C
:1020B00010C020E030E048EC52E4B8018D2F9C2F96
:1020C0000E949F6E18164CF400E010E0D8ECC2E4B9
:1020D00004C000E010E0D8ECC2ECC801AD2FBC2F6A
:1020E0008093520490935304A0935404B0935504E6
:1020F00080907B0490907C04A0907D04B0907E043E
:102100008092560490925704A0925804B0925904B9
:1021100020913E0430913F0440914004509141048D
:10212000C701B6010E94EF6E2B013C0120914204D1
:10213000309143044091440450914504B8018D2FDF
:102140009C2F0E94EF6E9B01AC01C301B2010E9463
:10215000126C6B017C012091460430914704409140
:10216000480450914904C501B4010E94EF6E9B01DF
:10217000AC01C701B6010E94126C6B017C0120E02A
:1021800030E0A9010E949F6E18164CF0C0924E04D8
:10219000D0924F04E0925004F09251040FC020E01E
:1021A00030E0A901C701B6010E94126C60934E0491
:1021B00070934F04809350049093510440904E04C8
:1021C00050904F046090500470905104C0900E04E1
:1021D000D0900F04E0901004F0901104A701960134
:1021E000C301B2010E94116C4B015C01C301B20139
:1021F0009058A70196010E94116C6B017C0120E0B0
:1022000030E04FE753ECC501B4010E94D86C87FD64
:1022100011C020E030E04FE753E4C501B4010E9453
:102220009F6E18166CF4812C912CBFE7AB2EB3E493
:10223000BB2E06C0812C912CAFE7AA2EA3ECBA2EA0
:1022400020E030E04FE753ECC701B6010E94D86CA4
:1022500087FD11C020E030E04FE753E4C701B6012D
:102260000E949F6E18166CF4C12CD12CFFE7EF2E44
:10227000F3E4FF2E06C0C12CD12CEFE7EE2EE3ECE9
:10228000FE2EC501B4010E94446D81EC96E00E94CF
:102290006A2DC701B6010E94446D81E496E0DF918A
:1022A000CF911F910F91FF90EF90DF90CF90BF9053
:1022B000AF909F908F907F906F905F904F900C9415
:1022C0006A2D4F925F926F927F928F929F92AF9200
:1022D000BF92CF92DF92EF92FF920F931F93CF9313
:1022E000DF9381E496E00E94502D6B017C0181EC2C
:1022F00096E00E94502D9B01AC01C701B6010E94DF
:10230000116C20E030E040E05FE30E94EF6E4B0193
:102310005C01C0902A04D0902B04E0902C04F09033
:102320002D042DEC3CEC4CE45FE360918304709150
:10233000840480918504909186040E94EF6E2B01A5
:102340003C012DEC3CEC4CE45EE3C701B6010E947D
:10235000EF6E9B01AC01C301B2010E94126C60934D
:102360008304709384048093850490938604809101
:102370006504882361F1C501B4010E94446D695F61
:102380007F4F6F30710518F520E030E0A901C701DB
:10239000B6010E94D86C81111AC010926504109287
:1023A0008304109284041092850410928604809114
:1023B0007F0490918004A0918104B0918204809365
:1023C000320490933304A0933404B09335042091E5
:1023D0008304309184044091850450918604C501A2
:1023E000B4010E94116C6B017C0120913204309188
:1023F000330440913404509135040E94126C8B01D7
:10240000D82FC92F8091650420E030E04AEF54ECCA
:10241000B801882309F471C08D2F9C2F0E94D86CBD
:1024200087FD10C020E030E04AEF54E4B8018D2F62
:102430009C2F0E949F6E18164CF400E010E0DAEF1B
:10244000C4E404C000E010E0DAEFC4ECC801AD2F32
:10245000BC2F8093320490933304A0933404B09340
:10246000350420911E0430911F04409120045091A6
:102470002104C701B6010E94EF6E4B015C0120915F
:102480002204309123044091240450912504B80182
:102490008D2F9C2F0E94EF6E9B01AC01C501B401F2
:1024A0000E94126C8B01D82FC92F20E030E040E051
:1024B00051EC0E94D86C87FD10C020E030E040E075
:1024C00051E4B8018D2F9C2F0E949F6E18164CF47A
:1024D00000E010E0D0E0C1E404C000E010E0D0E093
:1024E000C1ECA8016D2F7C2F40932E0450932F0434
:1024F000609330047093310498C08D2F9C2F0E94FC
:10250000D86C87FD10C020E030E04AEF54E4B801F9
:102510008D2F9C2F0E949F6E18164CF400E010E047
:10252000DAEFC4E404C000E010E0DAEFC4ECC80164
:10253000AD2FBC2F8093320490933304A0933404C6
:10254000B093350420911E0430911F044091200463
:1025500050912104C501B4010E94EF6E6B017C0112
:1025600020912204309123044091240450912504A9
:10257000B8018D2F9C2F0E94EF6E9B01AC01C7010B
:10258000B6010E94126C6B017C0120E030E040E259
:1025900051EC0E94D86C87FD0FC020E030E040E293
:1025A00051E4B601C7010E949F6E181654F4C12C65
:1025B000D12C90E281E407C0C12CD12C90E281ECB7
:1025C00002C09E2D8F2DA601692F782F40932E04D7
:1025D00050932F0460933004709331042DEC3CEC45
:1025E0004CE45FE360917F047091800480918104EA
:1025F000909182040E94EF6E4B015C012DEC3CEC4B
:102600004CE45EE3B8018D2F9C2F0E94EF6E9B017E
:10261000AC01C501B4010E94126C60937F047093F9
:102620008004809381049093820420912E04309141
:102630002F04409130045091310460910A0270914E
:102640000B0280910C0290910D020E94126C60931B
:102650004A0470934B0480934C0490934D04DF9193
:10266000CF911F910F91FF90EF90DF90CF90BF908F
:10267000AF909F908F907F906F905F904F90089554
:1026800080916604811111C084EA98E00E9494351B
:102690000E94446D9B0177FF04C022273327261B2D
:1026A000370B253031050CF477C080916604882300
:1026B00009F47CC084EA98E00E9494350E94446D3D
:1026C0009B0177FF04C022273327261B370B2132BB
:1026D00031050CF46BC01092D9031092D80360E05E
:1026E00070E081EC96E00E946A2D60E070E081E489
:1026F00096E00E946A2D10923204109233041092D8
:1027000034041092350480910A0290910B02A0913A
:102710000C02B0910D0280934A0490934B04A09355
:102720004C04B0934D0410922A0410922B04109282
:102730002C0410922D0410920A0410920B04109293
:102740000C0410920D0440E050E0BA0181EC96E0D8
:102750000E942E2D40E050E0BA0181E496E00E94F4
:102760002E2D1092320410923304109234041092E1
:10277000350410926604109283041092840410921F
:102780008504109286041092870410928804109297
:10279000890410928A0408958091D8039091D903F6
:1027A00001969093D9038093D8037FCF8091D8036B
:1027B0009091D90345970CF44CC01092D903109214
:1027C000D803109232041092330410923404109201
:1027D000350460E070E081EC96E00E946A2D60E0D4
:1027E00070E081E496E00E946A2D80910A02909147
:1027F0000B02A0910C02B0910D0280934A049093B9
:102800004B04A0934C04B0934D0440E050E0BA0157
:1028100081EC96E00E942E2D40E050E0BA0181E468
:1028200096E00E942E2D0E9433646093770470938B
:1028300078048093790490937A046093730470937E
:102840007404809375049093760481E08093660409
:1028500008950895CF92DF92EF92FF9211DF809159
:102860006604882309F472C00E943364C090770420
:10287000D0907804E0907904F0907A046C197D0986
:102880008E099F096B3071058105910558F0D3DBE6
:102890000E94336460937704709378048093790482
:1028A00090937A040E943364C0907304D0907404AF
:1028B000E0907504F09076046C197D098E099F09EB
:1028C000653671058105910508F450C0FADC2DECE0
:1028D0003CEC4CE45FE36091870470918804809144
:1028E000890490918A040E94EF6E6B017C012DECAB
:1028F0003CEC4CE45EE360910A0470910B0480911F
:102900000C0490910D040E94EF6E9B01AC01C70175
:10291000B6010E94126C60938704709388048093C0
:10292000890490938A0460930E0470930F0480933B
:102930001004909311040E943364609373047093A5
:102940007404809375049093760410C060E070E086
:1029500081EC96E00E946A2D60E070E081E496E0F0
:10296000FF90EF90DF90CF900C946A2DFF90EF9046
:10297000DF90CF900895CF93DF938091E7089091F7
:10298000E808892B79F48CE790E00E948C6AEC01CE
:1029900066E00E94C73AD093E808C093E708CE01EA
:1029A0000E94DC3A8091E7089091E8080E940B3B76
:1029B0008091E7089091E8080E94063B8093030508
:1029C000843409F48DC090910605933009F0A7C0B6
:1029D000893109F447C008F5893009F447C078F413
:1029E000873009F447C0883009F095C080910E0205
:1029F00090910F02880F991F880F991F66C086312A
:102A000009F489C0883109F45AC08C3009F083C0B8
:102A100080910E0290910F0258C08A3479F168F4C7
:102A20008034E1F0823481F18C3109F074C020915E
:102A30000E0230910F0245E032C08A3559F18E35D1
:102A4000A1F1823509F067C080910E0290910F02CA
:102A500033E0880F991F3A95E1F737C0DF91CF91A6
:102A60000C946405DF91CF910C947705DF91CF91A1
:102A70000C94D905DF91CF910C94C00520910E02E2
:102A800030910F0249E00BC020910E0230910F02ED
:102A900047E005C020910E0230910F0246E0429FB0
:102AA000C001439F900D112410C020910E0230915F
:102AB0000F02C901880F991F820F931F06C08091D2
:102AC0000E0290910F02880F991F209110023091F1
:102AD0001102820F931F90931302809312021FC062
:102AE0000E9418068091E7089091E8080E94EB3A4E
:102AF000882339F08091E7089091E8080E940B3B09
:102B0000F1CF809106058F5F80930605853039F4FB
:102B10001092060504C0DF91CF910C941806DF9146
:102B2000CF91089589E395E00E94F94128E730E0CC
:102B30003093130220931202813059F028F0823032
:102B400099F0833001F108950E9464058AE090E0D5
:102B500015C00E9464058091090590910A05823094
:102B600091054CF101970AC00E9464058091090506
:102B700090910A0584319105F4F4019690930A0529
:102B80008093090508958091090590910A050A9797
:102B900011F40E9477058091090590910A050A9722
:102BA00014F40E94F2058091090590910A050B9793
:102BB00014F00C9402060895CF92DF92EF92FF92E8
:102BC0000F931F9365E070E080E090E00E946264E4
:102BD00081EC96E00E94242D43E050E068E973E028
:102BE0000E94F06181E496E00E94242D43E050E0D1
:102BF00068EA73E00E94F06181EC95E00E94242D68
:102C000043E050E068EB73E00E94F06181E495E0FE
:102C10000E94242D43E050E068EC73E00E94F061D4
:102C200026E040E052EC61E070E089EC9CE00E941C
:102C3000006826E040E052EC61E070E086E69DE04E
:102C40000E94006826E040E052EC61E070E083E022
:102C50009EE00E94006865E070E080E090E00E94E5
:102C6000626484EA98E00E94543965E070E080E094
:102C700090E00E94626461E08DE00E94316691E024
:102C8000909380008BE08093810023E02093B0003C
:102C900024E02093B1009093900080939100909352
:102CA000A0008093A100909320018093210168E00F
:102CB00070E081EC96E00E94003068E070E081E412
:102CC00096E00E94003068E070E081EC95E00E94A0
:102CD000003068E070E081E495E00E9400306EE230
:102CE00070E081EC96E00E9404306EE270E081E4D6
:102CF00096E00E9404306EE270E081EC95E00E9464
:102D000004306EE270E081E495E00E9404304AE90C
:102D1000C42E49E9D42EED2C4FE3F42E00E010E050
:102D2000980146E656E666EE7FE381EC96E00E9467
:102D3000E22F00E010E0980146E656E666EE7FE3FB
:102D400081E496E00E94E22F00E010E0980146E660
:102D500056E666EE7FE381EC95E00E94E22F00E00C
:102D600010E0980146E656E666EE7FE381E495E0E2
:102D70000E94E22FC12CD12C7601970186014CEEE6
:102D800051E568E37EE381EC96E00E94C82F97014D
:102D900086014CEE51E568E37EE381E496E00E9413
:102DA000C82F970186014CEE51E568E37EE381EC84
:102DB00095E00E94C82F970186014CEE51E568E32B
:102DC0007EE381E495E00E94C82F60E070E081EC32
:102DD00096E00E94143060E070E081E496E00E948A
:102DE000143060E070E081EC95E00E94143060E007
:102DF00070E081E495E00E94143010926804109213
:102E0000670480910A0290910B02A0910C02B0918C
:102E10000D0280934A0490934B04A0934C04B0930A
:102E20004D0480E090E0A0EAB1E480933E049093EA
:102E30003F04A0934004B093410480E090E0A0E8F8
:102E4000BFE38093420490934304A0934404B0935F
:102E500045048DEC9CECACE4BEE380934604909377
:102E60004704A0934804B09349048FE892ECA5E787
:102E7000BDE380931E0490931F04A0932004B0939D
:102E800021048AE097EDA3EABBE3809322049093A8
:102E90002304A0932404B09325040E94E00466E276
:102EA00073E089EC9CE00E94DA6A6EE574E089ECDC
:102EB0009CE00E94DE6A0E94336460937704709302
:102EC00078048093790490937A04609373047093E8
:102ED0007404809375049093760460936F047093E8
:102EE000700480937104909372040E943364609321
:102EF0006B0470936C0480936D0490936E041F9127
:102F00000F91FF90EF90DF90CF900895CF93DF93D4
:102F1000C9E5D9E0CE010E94F75A239689E0CD3762
:102F2000D807C1F784E599E00E9409428CE499E052
:102F30000E94922B89E399E00E944B588AE299E023
:102F40000E944B458EE199E00E945D218AE199E063
:102F50000E945C4489EE98E00E946F3C48E660E085
:102F600084EA98E00E9479358DE798E00E948D26EA
:102F700089E798E00E94F53BC5E7D7E0CE010E94C3
:102F80001854CF5BDF4F88E0C937D807B9F781E71E
:102F900097E00E9476238AE697E00E94D03984E683
:102FA00097E00E944F358EE597E00E94643588E5F2
:102FB00097E00E94D75881E497E00E94C62061E024
:102FC00081EC96E00E94C42D62E081E496E00E94CC
:102FD000C42D63E081EC95E00E94C42D64E081E49F
:102FE00095E00E94C42D68E089E395E00E94F841D5
:102FF00060E373E08EE594E0DF91CF910C94CC6BAD
:103000008EE594E00E94656B8AE299E00C94794623
:10301000682F80910105811103C089EC9CE004C0F8
:10302000833021F483E09EE00C949C6708958FEF39
:10303000EFDF85E5EDCF8FEFEBDF85E5E9DF0C9482
:103040004306CF93C82F81E0E3DF8C2FCF91E0CFF1
:10305000EF92FF920F931F93CF93DF937C01FC01BC
:10306000C4810C2F158184E0D3DF8C2FD1DFC0E029
:10307000D0E0C017D1073CF4BE01C7010E940F6C1D
:10308000C7DF2196F6CFDF91CF911F910F91FF906F
:10309000EF900895FF920F931F93CF93DF931F92AA
:1030A000CDB7DEB78B01F82E82E09983B1DFA8019E
:1030B0006F2D9981792F4093290550932A056093AC
:1030C0002B0570932C05802FA3DF80912A05A0DFAC
:1030D00080912B059DDF80912C050F90DF91CF9182
:1030E0001F910F91FF9094CF1F93CF93DF9300D048
:1030F000CDB7DEB7182F86E069837A839B8388DF9C
:103100006981609329057A8170932A0510932B05B4
:103110009B8190932C05862F7BDF80912A0578DF99
:1031200080912B0575DF80912C050F900F900F90EB
:10313000DF91CF911F916CCF1F93CF93DF931F929D
:10314000CDB7DEB7182F83E0998362DF1093270590
:10315000998190932805812F5BDF809128050F903E
:10316000DF91CF911F9154CFCF92DF92EF92FF92D8
:103170000F931F93CF93DF93CDB7DEB728970FB68A
:10318000F894DEBF0FBECDBF082F86E090E00E940E
:103190002406182F402F50E04634510508F03BC359
:1031A000FA01EE58FF4F0C94047180912809909118
:1031B0002909009751F00E947544811791F0809180
:1031C0002809909129090E948D6A8EE090E00E9462
:1031D0008C6A7C01612F0E94DD58F0922909E092EF
:1031E000280960E971E080912809909129090E94DD
:1031F0005C596B017C011BDF8091070509DFC7016A
:10320000B601F3C387E090E00E942406082F89E30B
:1032100099E00E9475448113D6C389E399E00E9426
:1032200078448013D0C389E399E00E946958DDC3D4
:103230008AE199E00E947544811761F0612F8AE16B
:1032400099E00E94D9448AE199E00E94FF4460E03D
:103250000E9431668AE199E00E94C94415C087E066
:1032600090E00E942406082F89E798E00E947544A8
:10327000811729F0612F89E798E00E94D944602FD7
:1032800089E798E00E94F83BBC01882777FD80958C
:10329000982F0E94776DA9C38091E7089091E80864
:1032A0000097E1F04F960E947544811731F1E0904C
:1032B000E708F090E808E114F10481F084E893E075
:1032C000F70191838083C70182599F4F0E94656BEC
:1032D000C7010E94B560C7010E948D6A8CE790E02B
:1032E0000E948C6A7C01612F0E94C73AF092E80824
:1032F000E092E708C7010E94DC3A8091E7089091CC
:10330000E8080E94063B682F809303058FEF860F25
:103310008E3F08F080C218C08AE199E00E9475448F
:10332000811761F0612F8AE199E00E94D9448AE116
:1033300099E00E94FF4460E00E94316660E08AE10B
:1033400099E00E948C44682F70E080E090E00E9439
:10335000756D4BC38AE199E00E947544811799F01D
:10336000612F8AE199E00E94D9448AE199E00E94A4
:10337000FC4460E00E9431668AE199E00E94FF44CB
:1033800060E00E94316660E08AE199E00E947B443F
:10339000182F60E08AE199E00E948C44612F70E070
:1033A000660F771F680F711D882777FD8095982F0E
:1033B00070CF87E090E00E942406082F8AE199E010
:1033C0000E947544811306C38AE199E00E94784403
:1033D000801300C38AE199E0013061F40E94FC444B
:1033E00062E00E94316660E08AE199E00E947B44DD
:1033F0008027A9CF0E94FF4462E00E94316660E00E
:103400008AE199E00E948C4461E068279DCF8DE7B6
:1034100098E00E9475448117A9F0612F8DE798E02C
:103420000E94D9448DE798E00E94FF44482F8DE721
:1034300098E048870E94FC444885682F8DE798E013
:103440000E947A2A8DE798E00E94822ACEC287E005
:1034500090E00E942406082F8AE697E00E947544B7
:10346000811729F0612F8AE697E00E94D9448AE605
:1034700097E00E94D339602F8AE697E00E94C03A15
:10348000182FD5DD80910705C3DD812FC2C184E6E9
:1034900097E00E9475448117A9F0612F84E697E0B8
:1034A0000E94D94484E697E00E94FC44482F84E6B9
:1034B00097E048870E94FF444885682F84E697E09C
:1034C0000E94523584E697E00E9462351FC08EE567
:1034D00097E00E9475448117A9F0612F8EE597E06F
:1034E0000E94D9448EE597E00E94FC44482F8EE567
:1034F00097E048870E94FF444885682F8EE597E053
:103500000E9467358EE597E00E94773515DE6EC222
:1035100087E090E00E942406682F11117CC184EAA4
:1035200098E06F830E948F356F81883609F073C1F0
:1035300058C26EE574E0CE0101960E94F66BCE0192
:10354000019686DDCE0101960E94656B4FC260E058
:103550000E943166812F0E949F6696CEE82FF0E090
:10356000EE0FFF1FEC5EFD4F108160E0812F0E9487
:103570003166812F0E94F46487CE87E090E00E943C
:1035800051067C0160E0812F0E943166970144273B
:1035900037FD4095542F61E0812F0E94C76611C20C
:1035A00087E090E00E942406082F61E0812F0E94AE
:1035B000316660E0812F0E946A6682E090E00E949E
:1035C000876461E0812F0E946A668AE090E00E9431
:1035D000876460E0812F0E946A6660E0802F0E940D
:1035E000316620E335E740E050E061E0802F0E9443
:1035F000C7666B017C0165E070E080E090E00E94AE
:10360000626415DD8091070503DDC701B60141CE77
:1036100060918F0470919004809191049091920434
:10362000E4C188E597E00E947544811729F0612F75
:1036300088E597E00E94D94488E597E00E94DA582F
:10364000E8C081E497E00E947544811729F0612F5A
:1036500081E497E00E94D9441091000587E090E052
:103660000E94240691E01813D0C0D0C08111BEC1C1
:1036700087E090E00E942406182F88E090E00E94E6
:103680002406113059F4813019F481EC96E027C0FA
:10369000823009F0ABC181EC96E029C0123059F4B8
:1036A000813019F481E496E01AC0823009F09EC19D
:1036B00081E496E01CC0133059F4813019F481EC98
:1036C00095E00DC0823009F091C181EC95E00FC00A
:1036D000143009F08BC1813029F481E495E00E9417
:1036E000592F6FC1823009F081C181E495E00E94B9
:1036F000502D7BC1823719F4809106058AC0853729
:1037000009F074C10E94E20F84C087E090E00E943B
:103710002406D82E88E090E00E942406082F80918D
:103720002D0590912E05009751F00E947544811748
:1037300089F080912D0590912E050E948D6A81E17E
:1037400090E00E948C6A7C01612FD6D7F0922E0502
:10375000E0922D05F1E0DF122CC001110CC0809128
:103760002D0590912E050E94EE2480912D059091BB
:103770002E05CCD74EC0013069F480912D05909173
:103780002E050E94EE2480912D0590912E05BED726
:10379000872F3FC00230E1F580912D0590912E05D5
:1037A0000E94EE2480912D0590912E05AFD7862F93
:1037B00030C082E0D8122CC080912D0590912E054A
:1037C0000E940625011104C091E08823F9F01DC074
:1037D000023021F491E08230C1F418C0043021F4A9
:1037E00091E0843091F412C0053021F491E08530ED
:1037F00061F40CC0073021F491E0873031F406C049
:10380000093039F491E0893009F090E0892F01C046
:1038100080E017DCEBC060E070E0CB01E6C087E041
:1038200090E00E942406682F88E090E06F830E9459
:103830002406482F6F81103109F580913F05909142
:103840004005009791F488E190E048870E948C6AD7
:103850007C0148856F810E94FB2BF0924005E0922D
:103860003F05C7010E94002C02C00E94042C8091D9
:103870003F05909140050E94882CA3C0113109F0AA
:10388000B5C089E090E048876F830E94510680911F
:103890003F059091400548856F81009789F488E144
:1038A00090E00E948C6A7C0148856F810E94FB2B0E
:1038B000F0924005E0923F05C7010E94002C02C033
:1038C0000E94042C80913F05909140050E94D62CC7
:1038D0008CC087E090E00E942406D82E88E090E01B
:1038E0000E942406082F8091370590913805009793
:1038F00091F04F960E9475448D1591F1E090370537
:10390000F0903805E114F10431F0C7010E94AC07D2
:10391000C7010E948D6A84E691E00E948C6A7C0156
:103920006D2D0E940848F0923805E092370540E07E
:1039300052EC61E070E0C7010E94D64665E070E09D
:1039400080E090E00E946264809137059091380594
:103950000E94C64A62E370E080E090E00E946264E8
:10396000193041F4602F80913705909138050E94FD
:1039700062513BC01A3041F4602F8091370590911D
:1039800038050E94AC5231C01B3041F4602F809149
:103990003705909138050E94555327C01C3041F4DB
:1039A000602F80913705909138050E940A521DC002
:1039B0001D30E1F4602F80913705909138050E9409
:1039C000BA5092DB13C0402F612F89E399E00E9427
:1039D000565829CC402F612F8AE199E00E94E94492
:1039E000F9CC84EA98E00E94A03554DB28960FB603
:1039F000F894DEBF0FBECDBFDF91CF911F910F9125
:103A0000FF90EF90DF90CF900895CF92DF92EF92EA
:103A1000FF920F931F93CF93DF9310926A0483E07A
:103A200090E00E942406182F84E090E00E94240673
:103A3000C82F85E090E00E942406D82F1093070538
:103A4000C230F9F018F4C13039F06FC1C430E1F080
:103A5000C53009F461C169C1813039F0873129F07D
:103A6000843219F0E4DA812FD3DA8D2F7DDBDF91F8
:103A7000CF911F910F91FF90EF90DF90CF900C941A
:103A800043060E94DA0748C140E050E0BA0181ECE9
:103A900096E00E942E2D40E050E0BA0181E496E0CD
:103AA0000E942E2D40E050E0BA0181EC95E00E948A
:103AB0002E2D40E050E0BA0181E495E00E942E2DC9
:103AC000C12CD12CE12CF12C00E010E020E231E4FB
:103AD00040E050E0BA0181EC96E00E946B2F00E0DC
:103AE00010E020E231E440E050E0BA0181E496E0E9
:103AF0000E946B2F00E010E020E231E440E050E053
:103B0000BA0181EC95E00E946B2F00E010E020E20A
:103B100031E440E050E0BA0181E495E00E946B2F6F
:103B200060E070E081EC96E00E946A2D60E070E059
:103B300081E496E00E946A2D60E070E081EC95E0FF
:103B40000E946A2D60E070E081E495E00E946A2D99
:103B500060E070E081EC96E00E94143060E070E07C
:103B600081E496E00E94143060E070E081EC95E022
:103B70000E94143060E070E081E495E00E9414300F
:103B800061E084E599E00E94164260E070E084E51F
:103B900099E00E94364269E084E599E00E9416426D
:103BA00060E070E084E599E00E94364262E084E5DE
:103BB00099E00E94164260E070E084E599E00E947E
:103BC00036426AE084E599E00E94164260E070E0C7
:103BD00084E599E00E94364263E084E599E00E9422
:103BE000164260E070E084E599E00E9436426BE0A6
:103BF00084E599E00E94164260E070E084E599E077
:103C00000E94364264E084E599E00E94164260E03A
:103C100070E084E599E00E9436426CE084E599E02A
:103C20000E94164260E070E084E599E00E9436420E
:103C300061E08CE499E00E94A22B60E070E08CE4EB
:103C400099E00E94AE2B62E08CE499E00E94A22BE6
:103C500060E070E08CE499E00E94AE2B63E08CE4BD
:103C600099E00E94A22B60E070E08CE499E00E9451
:103C7000AE2B64E08CE499E00E94A22B60E070E03F
:103C80008CE499E00E94AE2B40E050E0BA0185E759
:103C900097E00E94235540E050E0BA0186EB97E0A0
:103CA0000E94235540E050E0BA0187EF97E00E9460
:103CB000235540E050E0BA0188E398E00E94235584
:103CC00040E050E0BA0185E797E00E94B35640E03B
:103CD00050E0BA0186EB97E00E94B35640E050E016
:103CE000BA0187EF97E00E94B35640E050E0BA0176
:103CF00088E398E00E94B35685E797E00E943D581C
:103D000086EB97E00E943D5887EF97E00E943D5870
:103D100088E398E00E943D58DF91CF911F910F9169
:103D2000FF90EF90DF90CF9086C9DF91CF911F91E8
:103D30000F91FF90EF90DF90CF900895109269045B
:103D40001092010589EC9CE00E94F3661816190692
:103D500044F481E0809369041092010589EC9CE0B1
:103D60000FC083E09EE00E94F3661816190664F403
:103D700081E08093690483E08093010583E09EE005
:103D80000E940C678093FF040895D8DF8091690436
:103D9000882309F446C06091FF0480916A04653568
:103DA00061F481110AC0809102058F3FD9F481E04E
:103DB0008093050580936A0415C0609302058823EB
:103DC00089F080910505823019F46093040507C0DD
:103DD000833028F09091040591509093040590E071
:103DE0000E943406809105058F5F843318F4809318
:103DF000050504C01092050510926A0480916A04BA
:103E0000882369F080910405811109C0809105051E
:103E1000843028F010926A04F8DD1092050581E0E4
:103E200008950895CF93DF938091280990912909EF
:103E3000892B61F48EE090E00E948C6AEC0167E0CF
:103E40000E94DD58D0932909C093280986E990E0A3
:103E5000909313028093120280912809909129096E
:103E6000009709F469C060E971E00E945C590E9402
:103E7000446D70930E0560930D059B01255131092A
:103E800023313105F8F46CE271E080E090E00E94AB
:103E9000FE6A70930C0560930B056F3B71055CF037
:103EA00080916704811107C081E080936804DF91ED
:103EB000CF910C94C00581E080936704DF91CF918E
:103EC0000C94D905615071096331710568F56CE294
:103ED00071E080E090E00E94FE6A70930C056093B0
:103EE0000B056F3B710584F00E948A05CCE2D1E09E
:103EF0004CDF811121C062E070E080E090E00E9420
:103F000062642197A9F718C00E94A505CCE2D1E010
:103F10003CDF811111C062E070E080E090E00E941F
:103F200062642197A9F708C0109268041092670490
:103F3000DF91CF910C946405DF91CF9108950F9399
:103F40001F930E9433640E94756D20E030E04AE7C1
:103F500054E40E94DC6C20919304309194044091CD
:103F60009504509196040E94116C60938F04709395
:103F70009004809391049093920481E497E008D197
:103F8000809300050E94336400916B0410916C04CF
:103F900020916D0430916E04601B710B820B930BAA
:103FA000693E73408105910598F00E9433646093E7
:103FB0006B0470936C0480936D0490936E04609115
:103FC000640481E06827609364048DE00E946A665F
:103FD0008091E7089091E808892B11F00E94BB14AA
:103FE00085E797E00E944758019719F485E797E025
:103FF0001AC086EB97E00E944758029719F486EBA7
:1040000097E011C087EF97E00E944758039719F493
:1040100087EF97E008C088E398E00E94475804972C
:1040200021F488E398E00E941C5881EC96E00E94FD
:10403000353581E496E00E94353581EC95E00E94AB
:10404000353581E495E00E94353578DE11E08091C8
:104050006904882309F445C06091FF0480916A04D3
:10406000653559F4811109C0809102058F3FD1F463
:104070001093050510936A0415C060930205882308
:1040800089F080910505823019F46093040507C01A
:10409000833028F09091040591509093040590E0AE
:1040A0000E943406809105058F5F843318F4809355
:1040B000050504C01092050510926A0480916A04F7
:1040C000882369F080910405811109C0809105055C
:1040D000843028F010926A0498DC109205052EDED8
:1040E000B6CF8DE798E00E947544882321F08DE7D4
:1040F00098E00E94822A84EA98E00E949A356093B0
:104100007B0470937C0480937D0490937E04809163
:104110000605811123C00E94336400916F04109141
:1041200070042091710430917204601B710B820B3A
:10413000930B6B3071058105910528F10E94336462
:1041400060936F0470937004809371049093720471
:1041500084EA98E01F910F910C940F36813019F486
:104160001F910F915FCE823041F484EA98E00E9463
:104170000F361F910F910C942A14843021F41F9153
:104180000F910C9492151F910F9108950C945C441B
:10419000CF92DF92EF92FF920F931F93CF93DF9313
:1041A000EC010C891D890E943364CC80DD80EE8097
:1041B000FF809B01AC012C193D094E095F09690183
:1041C0007A0139E0C316D104E104F104E8F16C830B
:1041D0007D838E839F83CE010E94C9444885598583
:1041E0006A857B85452B462B472B49F4AC01662716
:1041F00057FD6095762F488B598B6A8B7B8B48894E
:1042000059896A897B89841B950B97FF03C0919517
:1042100081959109449764F44C855D856E857F8511
:104220004F5F5F4F6F4F7F4F4C875D876E877F87F4
:10423000488559856A857B854F5F5F4F6F4F7F4FFC
:10424000488759876A877B8788859985AA85BB8532
:104250000597A105B105D1F4188619861A861B8623
:104260008C859D85AE85BF850397A105B10540F07E
:1042700088899989AA89BB898C019D8B8C8B02C006
:104280000C891D891C861D861E861F86C80164E652
:1042900070E00E94B3706830710528F4FB01E65BA2
:1042A000FC4F808101C080E0DF91CF911F910F9181
:1042B000FF90EF90DF90CF9008950C945C440F93A3
:1042C0001F93CF93DF93EC01062F18E060E0888501
:1042D0000E946A6600FF02C061E001C060E089855B
:1042E0000E946A66069561E088850E946A661150A0
:1042F00069F760E088850E946A6661E089850E94AE
:104300006A6661E088850E946A6660E089850E942D
:10431000316618EC89850E949F66892B59F01150EF
:10432000C9F761E089850E94316660E089850E9455
:104330006A66EFCF61E08985DF91CF911F910F9180
:104340000C943166CF93DF93EC0161E088850E9485
:104350006A6661E089850E946A6660E089850E94DC
:104360006A6660E08885DF91CF910C946A66CF938E
:10437000DF93EC0160E088850E946A6660E08985D1
:104380000E946A6661E088850E946A6661E08985AC
:10439000DF91CF910C946A66CF92DF92FF920F93D8
:1043A0001F93CF93DF931F92CDB7DEB76C01F62E2C
:1043B0007983C8DF60E4C60182DFC601D8DFC601A9
:1043C000C1DFF6016581C6017ADF0F2D7981172FD4
:1043D00084E0F82EF80161918F01C60170DFFA9434
:1043E000C9F7C601C4DFC601ADDFF6016681C601AB
:1043F00066DFC6010F90DF91CF911F910F91FF9063
:10440000DF90CF90B4CF4F925F926F927F928F9256
:104410009F92AF92BF92CF92DF92EF92FF920F9353
:104420001F93CF93DF9300D01F92CDB7DEB76A0101
:104430007B01890137FD48C0B9016F5F7F4F882735
:1044400077FD8095982F0E94776D9B01AC0160E00D
:1044500070E080E291E40E94526F4B015C019B018D
:10446000AC01C701B6010E94DC6C0E94B26D2B0149
:104470003C01B801882777FD8095982F0E94776DC1
:104480009B01AC0160E070E080E291E40E94526F19
:1044900069837A838B839C83A5019401C301B20154
:1044A0000E94EF6E9B01AC01C701B6010E94116C26
:1044B00029813A814B815C810E94DC6C0E94B26D43
:1044C0000E94446DCB011FC088249924821A930A4C
:1044D000A12CB12C20E030E040E251E4C701B6014C
:1044E0000E94EF6E6B017C018FEFA81AB80AA81426
:1044F000B90484F3C701B6010E94446DCB016AE0A0
:1045000070E00E94B3700F900F900F900F90DF91AA
:10451000CF911F910F91FF90EF90DF90CF90BF90C0
:10452000AF909F908F907F906F905F904F90089585
:10453000DB0180E090E22C91223208F09C93EC9118
:10454000F0E0EA58FD4FE491ED938F5F843099F7E6
:104550000895EF92FF920F931F93CF93DF9300D0B4
:104560001F92CDB7DEB78C01DB01FE013196CE0183
:1045700005967F012D912193E817F907D9F7B70127
:10458000C801D6DFB701C80107DF0F900F900F9069
:104590000F90DF91CF911F910F91FF90EF900895B1
:1045A000CF93DF9300D01F92CDB7DEB720E22983EF
:1045B0002A832B832C83BE016F5F7F4FCADF0F904E
:1045C0000F900F900F90DF91CF910895CF93DF93CD
:1045D000EC016A83E62FF0E0EE0FFF1FEF55FD4F71
:1045E00081818983908198838887998761E00E947F
:1045F000316661E089850E94316680E48C8380ECBD
:104600008D838AE88E83CE01DF91CF91C9CF8F92BF
:104610009F92AF92BF92CF92DF92EF92FF920F9351
:104620001F93CF93DF9300D01F92CDB7DEB75C010D
:104630006A017B0119821A821B821C8220E030E011
:10464000A901C701B6010E94D86C87FF09C0F7FA1B
:10465000F094F7F8F09481E289839924939401C04F
:10466000912C03E010E0812C9801B701A601C5014F
:10467000CADE181619062CF0002319F08820B9F0AC
:104680000CC001110AC0E1E0F0E0EC0FFD1FE90DE4
:10469000F11D20E1280F208307C0E1E0F0E0EC0FDE
:1046A000FD1FE90DF11D808393948824839483E09A
:1046B000891530F0015011090C3F8FEF1807A1F652
:1046C000BE016F5F7F4FC50144DF0F900F900F90C9
:1046D0000F90DF91CF911F910F91FF90EF90DF909E
:1046E000CF90BF90AF909F908F9008950E945C44B0
:1046F00088E080937D090895CF93DF93EC010E94B9
:10470000654488E38C83DF91CF9108950F931F93C5
:10471000CF93FC018185928524E130E0B9010E94AC
:104720009F708B01838594856EE170E00E949F707D
:10473000C62F472F85859685B9010E949F70562FF9
:10474000E72FC8010F3F110519F010F08FEF90E02F
:10475000A0E0B0E0DC01992788270C2F142F0F3F31
:10476000110519F010F00FEF10E020E030E0322FCB
:10477000212F102F0027082B192B2A2B3B2B652FBD
:104780007E2F6F3F710519F010F06FEF70E080E041
:1047900090E0602B712B822B932BCF911F910F9167
:1047A000089561E00C949D4461E00C94AD4460E098
:1047B0000C94AD44EF92FF920F931F93CF93DF932E
:1047C000EC01F62E8A01E22E6C818CEA9BE00E94BD
:1047D000195D6F2D8CEA9BE00E94C45C813001F56D
:1047E00060E08CEA9BE00E94235D81112EC081E095
:1047F00090E00E94876421E04E2D6C818CEA9BE062
:104800000E940B5DE80100E010E0F12C8CEA9BE0D7
:104810000E946D5C892B31F00E151F0574F002C0EB
:104820008FEF13C081E090E00E94876481E00E1555
:104830001F0509F480E0819508C00F5F1F4F8CEAC7
:104840009BE00E94755C8993E1CFDF91CF911F912E
:104850000F91FF90EF900895CF93DF931F92CDB704
:10486000DEB7198221E0AE014F5F5F4F62E9A2DF40
:1048700089810F90DF91CF9108950F931F93CF936C
:10488000DF93CDB7DEB728970FB6F894DEBF0FBE23
:10489000CDBF8C01AE014F5F5F4F88E0FA011192EE
:1048A0008A95E9F728E060E5C80184DF8A8190E015
:1048B000982F88272981822BF801928781878C8104
:1048C00090E0982F88272B81822B948783878E8175
:1048D00090E0982F88272D81822B96878587888561
:1048E00090E0982F88272F81822B908B878728969E
:1048F0000FB6F894DEBF0FBECDBFDF91CF911F91F1
:104900000F910895EF92FF921F93CF93DF931F9221
:10491000CDB7DEB7162F7A01FC0164818CEA9BE0EB
:1049200029830E94195D612F8CEA9BE00E94C45C80
:104930002981813091F4422F50E0B7018CEA9BE04D
:104940000E94985C61E08CEA9BE00F90DF91CF9130
:104950001F91FF90EF900C94235D8FEF0F90DF91EC
:10496000CF911F91FF90EF900895CF93DF931F9207
:10497000CDB7DEB7498321E0AE014F5F5F4FC2DFA5
:104980000F90DF91CF910895CF93DF93EC010FDF6C
:10499000CE0107DF8CEA9BE00E94025D40EC60E400
:1049A00070E0CE01E2DF40E061E470E0CE01DDDFE7
:1049B00040E162E470E0CE01D8DF42E064E470E000
:1049C000CE01D3DF40E060E670E0CE01CEDF41E013
:1049D00061E670E0CE01DF91CF91C7CFCF93DF9337
:1049E000EC01D2DFCE0138DF803E61F460EA70E096
:1049F00080E090E00E946264CE013FDFCE01D4DE11
:104A000080E001C089E0DF91CF9108954F925F92DD
:104A10006F927F928F929F92AF92BF92CF92DF92CE
:104A2000EF92FF92CF93DF93EC01D8DF811159C150
:104A300089849A84EB84FC84AD84BE8420EB821646
:104A400024E0920608F0EBC084EAE81686E0F80657
:104A500008F0E5C020EBA21624E0B20608F0DFC0A3
:104A6000A814B90408F04DC0E814F90408F449C0CA
:104A70006701C80CD91CCA0CDB1CE501CC0FDD1F7B
:104A80008DE2C81681E0D806F0F0B70180E090E032
:104A90000E94756D2B013C01B40180E090E00E9402
:104AA000756D20E030E040EC5FE30E94EF6E9B010B
:104AB000AC01C301B2010E949F6E181624F4CE15FA
:104AC000DF0508F410C1CE15DF0540F4C815D9057F
:104AD00028F429E7C216D10408F009C181E9881633
:104AE00081E0980608F4FDC025E4E21622E0F20613
:104AF00008F4F7C081E4A81681E0B80608F4F1C014
:104B0000F8C0E814F90498F5AE14BF0480F58E0CD3
:104B10009F1C8A0C9B1C2DED8216910408F4E1C0A9
:104B2000B70180E090E00E94756D6B017C01B501DA
:104B300080E090E00E94756D2AE939E949E150E48E
:104B40000E94EF6E4B015C019B01AC01C701B601F5
:104B50000E94D86C87FF02C082E0D0C0A5019401FA
:104B6000C701B6010E949F6E87FFF6CFBAC0AE1490
:104B7000BF0420F08A149B0408F4B7C0E814F904B9
:104B8000E0F1A814B904C8F1C701880D991D8A0D78
:104B90009B1D8139914008F4A4C0B70180E090E0EA
:104BA0000E94756D6B017C01B40180E090E00E9471
:104BB000756D2DEC3CEC4CE050E40E94EF6E9B01D7
:104BC000AC01C701B6010E949F6E18160CF08DC093
:104BD000B50180E090E00E94756D2DEC3CEC4CE05E
:104BE00050E40E94EF6E9B01AC01C701B6010E9428
:104BF0009F6E18160CF477C078C0C501880D991DFA
:104C0000E816F90608F06DC0E80CF91CEA0CFB1C6C
:104C10008DEBE81682E0F80608F06BC062C0EA147B
:104C2000FB0420F48A149B0408F45FC0E814F90420
:104C300020F4AE14BF0408F48FCF2F853889C40147
:104C4000B9010E949F70F62F462FC701B9010E943B
:104C50009F70E62FC501B9010E949F70862FF93021
:104C600028F0E53050F46230E8F476CFF33038F4D1
:104C7000E53038F46330A8F13EC0FB30C0F4463074
:104C8000B0F4EB3010F0853070F1453080F4E53051
:104C900010F48B3050F5443079F0E83088F08830EB
:104CA00020F50AC0FB3058F3853008F455CFE730C3
:104CB00038F08730D0F404C0EA3010F08630A8F421
:104CC000F650F33028F4E630A0F0823090F40FC0B4
:104CD000493078F0493069F0E83058F4823048F4CF
:104CE0003BCF89E00BC085E009C087E007C084E0C6
:104CF00005C080E003C0F53060F2D9CFDF91CF91DD
:104D0000FF90EF90DF90CF90BF90AF909F908F90EB
:104D10007F906F905F904F900895CF93DF93EC0159
:104D200060E00E9465448EE18B871C82DF91CF9109
:104D30000895AF92BF92CF92DF92EF92FF920F93BE
:104D40001F93CF93DF93CDB7DEB76A970FB6F89472
:104D5000DEBF0FBECDBF8C01CE0101967C01C12C00
:104D6000D12C5C01C6010E94D873F70181937F01A9
:104D7000FFEFCF1ADF0A8AE1C816D10499F72D8117
:104D80003E814F81588569817A818B819C810E9407
:104D9000126C29853A854B855C850E94126C2D85A5
:104DA0003E854F8558890E94126C29893A894B8922
:104DB0005C890E94126C2D893E894F89588D0E9412
:104DC000126C6B017C01698D70E080E090E00E94C4
:104DD000776D9B01AC01C701B6010E94126C20E007
:104DE00030E04AE253E40E94126C0E94496D8A8DC1
:104DF00068130CC08AE1F501D8011D9601900D924F
:104E00008A95E1F781E0F801848302C0F8011482F9
:104E10006A960FB6F894DEBF0FBECDBFDF91CF917B
:104E20001F910F91FF90EF90DF90CF90BF90AF90C8
:104E30000895CF92DF92EF92FF920F931F93CF933B
:104E4000DF938C01EB012C813D814E815F81688174
:104E500079818A819B810E94126C288539854A85D7
:104E60005B850E94126C2C853D854E855F850E9476
:104E7000126C288939894A895B890E94126C2C89B5
:104E80003D894E895F890E94126C6B017C01688D9F
:104E900070E080E090E00E94776D9B01AC01C7015B
:104EA000B6010E94126C20E030E04AE253E40E9416
:104EB000126C0E94496D698FE12CF12C6991C70138
:104EC0000E94E0738FEFE81AF80AEAE1EE16F104A7
:104ED000A9F781E0F8018483DF91CF911F910F91B1
:104EE000FF90EF90DF90CF900895EF92FF921F9385
:104EF000CF93DF931F92CDB7DEB7162F7A01FC0157
:104F000063858CEA9BE029830E94195D612F8CEAFE
:104F10009BE00E94C45C2981813091F4422F50E0D3
:104F2000B7018CEA9BE00E94985C61E08CEA9BE010
:104F30000F90DF91CF911F91FF90EF900C94235D24
:104F40008FEF0F90DF91CF911F91FF90EF90089519
:104F5000CF93DF931F92CDB7DEB7498321E0AE0137
:104F60004F5F5F4FC2DF0F90DF91CF910895EF92B7
:104F7000FF920F931F93CF93DF93EC01F62E8A01DC
:104F8000E22E6B858CEA9BE00E94195D6F2D8CEA06
:104F90009BE00E94C45C813001F560E08CEA9BE0FC
:104FA0000E94235D81112EC081E090E00E94876401
:104FB00021E04E2D6B858CEA9BE00E940B5DE801A1
:104FC00000E010E0F12C8CEA9BE00E946D5C892BE4
:104FD00031F00E151F0574F002C08FEF13C081E091
:104FE00090E00E94876481E00E151F0509F480E0BF
:104FF000819508C00F5F1F4F8CEA9BE00E94755C93
:105000008993E1CFDF91CF911F910F91FF90EF90A6
:105010000895CF93DF93EC01AC014B5F5F4F23E02A
:105020006AE0A5DF81110AC08D81883439F48E8150
:10503000843321F481E09F81933309F080E0DF9194
:10504000CF910895CF92DF92EF92FF920F931F932B
:10505000CF93DF93EC016B018A0179013BD0AE0164
:105060004B5F5F4F26E063E0CE0181DF882321F0B4
:10507000992787FD909525C08C85813029F441E0E2
:1050800062E070E0CE0164DF8D8190E0982F882788
:105090002E81822BF60191838083898590E0982F61
:1050A00088272A85822BF801918380838F8190E065
:1050B000982F88272885822BF7019183808380E0B1
:1050C00090E0DF91CF911F910F91FF90EF90DF90D3
:1050D000CF9008952F923F924F925F926F927F925E
:1050E0008F929F92AF92BF92CF92DF92EF92FF92F8
:1050F0000F931F93CF93DF93CDB7DEB76C970FB6A7
:10510000F894DEBF0FBECDBF8C0162E00E947B44ED
:105110008111B5C16AE070E080E090E00E946264B5
:1051200062E0C8010E947B448111A9C1C80171DFFE
:10513000882309F4A4C10E9433646B017C01712CA3
:10514000BB24B39462E0C8010E947B44811116C065
:105150000E9433646C197D098E099F09693C7105B1
:105160008105910578F3A8950E9433646B017C0159
:105170007B24672DC8010E94AD44E4CF64E670E053
:1051800080E090E00E9462640E9433644B015C0105
:105190002FEF3FE7388B2F8740E050E85E874D8741
:1051A0008FEF9FE79C878B87E0E0F0E8FA87E9873D
:1051B00038872F83212C50E8352E662463940E9473
:1051C00033646C197D098E099F09693C710581055D
:1051D000910550F0A8950E9433646B017C01762400
:1051E000672DC8010E94AD440E9433646819790993
:1051F0008A099B096B30710581059105E0F1A8953D
:105200009E012F5F3F4FAE014D5F5F4FBE016B5F51
:105210007F4FC80117DF8D819E814F81588584178C
:1052200095072CF02816390624F41C0102C0988733
:105230008F838B819C81EB85FC858E179F0744F0C3
:1052400029853A85281739072CF49A87898702C05F
:105250009C878B8789819A814F8558898417950708
:1052600044F0ED85FE85E817F9072CF49E878D87BD
:1052700002C0988B8F8762E0C8010E947B44811135
:105280009ECF60E0C8010E94AD44B101882777FD40
:105290008095982F0E94776D6B017C012F81388556
:1052A000B901882777FD8095982F0E94776D698BCB
:1052B0007A8B8B8B9C8B9B01AC01C701B6010E9442
:1052C000126C905820E030E040E05FE30E94EF6E07
:1052D000F801658776878787908B29853A85B9019C
:1052E000882777FD8095982F0E94776D2B013C01D0
:1052F0004B855C85BA01882777FD8095982F0E94A1
:10530000776D6D8B7E8B8F8B988F9B01AC01C3016A
:10531000B2010E94126C905820E030E040E05FE360
:105320000E94EF6EF801618B728B838B948B2D85BD
:105330003E85B901882777FD8095982F0E94776D6B
:105340004B015C014F855889BA01882777FD80950C
:10535000982F0E94776D698F7A8F8B8F9C8F9B011E
:10536000AC01C501B4010E94126C905820E030E0FD
:1053700040E05FE30E94EF6EF801658B768B878BD0
:10538000908F80E090E0A0E8BFE3818F928FA38FA1
:10539000B48F29893A894B895C89C701B6010E947B
:1053A000116C6B017C012D893E894F89588DC30199
:1053B000B2010E94116CA70196010E94DC6CF801F9
:1053C000658F768F878F90A3298D3A8D4B8D5C8D5D
:1053D000C501B4010E94116CA70196010E94DC6C0A
:1053E000F80161A372A383A394A32F813885221AA5
:1053F000330A37FE03C031942194310889859A8598
:105400004B855C85841B950B97FF03C09195819517
:1054100091092D853E85EF85F8892E1B3F0B37FFBF
:1054200003C0319521953109821593052CF0221581
:10543000330514F081E009C0281639062CF028172E
:10544000390714F082E001C083E0F80185A3B801B8
:10545000635F7F4FC801EDDC61E0C8010E94AD448D
:1054600062E0C8010E947B44811102C0A895F8CF78
:10547000A89564E670E080E090E00E9462646C961B
:105480000FB6F894DEBF0FBECDBFDF91CF911F9155
:105490000F91FF90EF90DF90CF90BF90AF909F90D3
:1054A0008F907F906F905F904F903F902F900895D6
:1054B000CF93DF93EC018CEA9BE00E94025D61E0F8
:1054C000CE010E94AD4440E760E070E0CE0140DDD7
:1054D00040E261E070E0CE013BDD81E08C8741E09D
:1054E00062E070E0CE0134DDCE0123DCCE01DF913D
:1054F000CF91F0CD60937F0940937E09FC016083DA
:105500004183D6CF2F923F924F925F926F927F92BC
:105510008F929F92AF92BF92CF92DF92EF92FF92C3
:105520000F931F93CF93DF93CDB7DEB762970FB67C
:10553000F894DEBF0FBECDBF8C01CCDD9E012F5F86
:105540003F4FAE014D5F5F4FBE016B5F7F4FC801A4
:1055500079DD882349F0682F772767FD7095872FBD
:10556000972F0E94776DC5C0F80184812D803E8001
:105570002B813C8138872F83882309F478C04584A8
:10558000568467847088818C928CA38CB48CB9010A
:10559000882777FD8095982F0E94776DF8012189E3
:1055A0003289438954890E94126CF801258D368D09
:1055B000478D50A10E94EF6E0E94446D6F837887E3
:1055C00089879A8769817A81882777FD8095982FC6
:1055D0000E94776DF801258936894789508D0E9490
:1055E000126CF80121A132A143A154A10E94EF6ED7
:1055F0000E94446D6B877C878D879E87F80115A17B
:10560000113041F42B853C85B901882777FD8095C1
:10561000982F32C0B101882777FD8095982F0E947E
:10562000776DA30192010E94126CA50194010E9462
:10563000EF6E0E94446D4B015C01123089F42B85A2
:105640003C85B901882777FD8095982F0E94776D5A
:105650009B01AC01B401882777FD8095982F17C076
:10566000133019F5882777FD8095982F05C0B10173
:10567000882777FD8095982F0E94776D9B01AC015C
:10568000EF81F885BF01882777FD8095982F2F87B8
:10569000388B498B5A8B0E94776D2F8538894989C1
:1056A0005A890E94856C6B017C0120E030E0A901E1
:1056B000C701B6010E94D86C87FF0DC02BED3FE0FB
:1056C00049EC50E4C701B6010E94126C20E030E0C2
:1056D00044E353E406C020E030E044E353E4C70170
:1056E000B6010E94EF6E2BED3FE049E450E40E94CA
:1056F000DC6C62960FB6F894DEBF0FBECDBFDF91B3
:10570000CF911F910F91FF90EF90DF90CF90BF90BE
:10571000AF909F908F907F906F905F904F903F9051
:105720002F90089560E00E94654481E0809380009E
:105730008BE08093810083E08093B00084E08093CD
:10574000B1000895CF93DF93EC010E94D94484EF18
:1057500091E09F838E83DF91CF9108950F931F93E4
:10576000CF93DF938C016F3F710519F014F06FEF49
:1057700070E0EB0161308FEF780714F4C1E0DFEFE8
:10578000F801868197818C179D0709F1D783C6831D
:10579000D7FD0AC061E0C8010E94AD4485E090E0F9
:1057A0000E948764BE010CC060E0C8010E94AD4445
:1057B00085E090E00E948764662777276C1B7D0B4D
:1057C000C801DF91CF911F910F910C94D544DF91C7
:1057D000CF911F910F91089580E899E00C94A6391C
:1057E00080E899E00C94CF39DC01ED91FC910190B7
:1057F000F081E02D19944150FC01408361830895AC
:105800008CEA9BE00C94025DFC0161834150408373
:1058100008950F931F93CF93DF938C01FC01618157
:105820008CEA9BE00E94195DC0E0D0E0F801EC0F2B
:10583000FD1F6681772767FD70958CEA9BE0D4DFBA
:105840002196C231D10591F78CEA9BE0DF91CF918F
:105850001F910F910C94355DCF92DF92EF92FF92E2
:105860000F931F93FC018081868382E08783C0862B
:10587000D186E286F3864487558766877787008BD3
:10588000118B228B338BCF01C4DF62E070E080E0AC
:1058900090E01F910F91FF90EF90DF90CF900C94CC
:1058A00062640F931F93FC018081868383E087836A
:1058B00000871187228733874487558766877787D4
:1058C000CF01A7DF62E070E080E090E01F910F91D0
:1058D0000C946264FC012081268324E12783718774
:1058E000608797DF62E070E080E090E00C94626493
:1058F000FC012081268322E127834087518762872C
:10590000738787DF62E070E080E090E00C9462646F
:10591000EF92FF920F931F93CF93DF93CDB7DEB734
:1059200028970FB6F894DEBF0FBECDBF8C01FC01E7
:1059300061818CEA9BE00E94195DF80160818CEA2C
:105940009BE00E94C45C63E270E08CEA9BE04CDF69
:1059500060E08CEA9BE00E94235D44E0F8016181F5
:105960008CEA9BE00E94175D8E010F5F1F4F7E0146
:10597000F5E0EF0EF11C8CEA9BE00E94755CF801EB
:1059800081938F01EE15FF05B1F769817A818B81D3
:105990009C8128960FB6F894DEBF0FBECDBFDF9175
:1059A000CF911F910F91FF90EF900895EF92FF928A
:1059B0000F931F93CF93DF93CDB7DEB728970FB622
:1059C000F894DEBF0FBECDBF8C01FC0161818CEA73
:1059D0009BE00E94195DF80160818CEA9BE00E94C7
:1059E000C45C64E270E08CEA9BE0FEDE60E08CEA7E
:1059F0009BE00E94235D44E0F80161818CEA9BE01A
:105A00000E94175D8E010F5F1F4F7E01F5E0EF0EC4
:105A1000F11C8CEA9BE00E94755CF80181938F0178
:105A2000EE15FF05B1F769817A818B819C812896FB
:105A30000FB6F894DEBF0FBECDBFDF91CF911F919F
:105A40000F91FF90EF9008958E589F4FFC01808139
:105A5000089582599F4FFC0180810895FC0146A35F
:105A600057A360A771A70895FC0146A157A160A59F
:105A700071A54F5F5F4F6F4F7F4F46A357A360A73E
:105A800071A70895FC0146A157A160A571A54150D9
:105A900051096109710946A357A360A771A7089529
:105AA000FC016285738584859585089522E0FC015B
:105AB00020839B016F3F710519F014F02FEF30E048
:105AC0002130FFEF3F0714F421E03FEFFC01378363
:105AD00026830895EF92FF920F931F93CF93DF9346
