:1000000016C300000C94493C0C941E3C0C94F33B2A
:100010000C94C83B0C949D3B0C94723B0C94473B56
:100020000C941C3B0C94743C0C94743C0C94743CE9
:100030002FC300000C94FD1E2BC3000029C3000039
:1000400027C300000C94CB3F23C3000021C3000052
:100050001FC300001DC300001BC300000C94D23A54
:1000600017C300000C94E14C0C94B84C11C3000071
:100070000FC300000DC300000BC3000009C3000044
:100080000C949E3F05C3000003C3000001C30000A1
:10009000FFC20000FDC20000FBC200000C94083D3E
:1000A000F7C20000F5C200000C94713FF1C20000DD
:1000B000EFC20000EDC20000EBC200000C94443F10
:1000C000E7C20000E5C20000E3C200000C948F4CC0
:1000D0000C94664CDDC200000C943D4C0C94144C06
:1000E000D7C200000417381362130F140F147314CF
:1000F000FA160F14631963196319631963196319E5
:100100006319F0149E1403156319631963192D15EF
:10011000B917E915B716D8165615221463196319BD
:100120004017481763196319631963196C175B1734
:1001300063196319631963196319631963196319DF
:100140006319631963196319A217AB17631963194C
:100150006319631963196319631963190518CC17B7
:1001600063191218BA18FF2F0630E32FEA2FF12F68
:10017000F82F0D301430974B9A4B894B8D4B934B86
:10018000D14B9E4BA24BA84BAC4BB04BB64BBA4B92
:10019000BE4BD14BC44BC84BCC4BE64DEB4DF04D59
:1001A000FA4D044E7D4E0E4E164E1E4E284E324EC9
:1001B0003C4E4B4E554E7D4E5F4E694E734E084A37
:1001C000D73B3BCE016E84BCBFFDC12F3D6C74316B
:1001D0009ABD56833DDA3D00C77F11BED9E4BB4CC2
:1001E0003E916BAAAABE000000803F08000000BE3E
:1001F000922449123EABAAAA2ABECDCCCC4C3E00DA
:10020000000080BEABAAAAAA3E00000000BF00000A
:1002100000803F0000000000084178D3BB4387D135
:10022000133D190E3CC3BD4282AD2B3E68EC827675
:10023000BED98FE1A93E4C80EFFFBE01C4FF7F3FD6
:10024000000000000007634236B79BD8A71A396840
:100250005618AEBAAB558C1D3CB7CC5763BD6DED8F
:10026000FD753EF6177231BF000000803F00200090
:10027000000000000030007C82827C00310042FEE1
:100280000200003200468A92620033004492926C6F
:100290000034001C64FE04003500F292928C00369B
:1002A000007C92924C003700C08E90E00038006CC9
:1002B00092926C0039006492927C006100042A2AB8
:1002C0001E006200FE12120C0063000C12121200DB
:1002D00064000C1212FE0065001C2A2A1800660039
:1002E000103E50500067000815151E006800FE10F3
:1002F0001E00006900002E0000006A0002012E00AE
:10030000006B00FE081412006C0000FE0200006D7D
:10031000001E100E100E6E001E10100E006F000C4E
:1003200012120C0070001F12120C0071000C12123D
:100330001F0072001E081010007300122925120001
:100340007400103E12000075001C02021E00761898
:1003500004020418007718061C0618007800120C16
:100360000C120079001805051E007A0012161A12E8
:100370000041007E88887E004200FE92926C00431D
:10038000007C828244004400FE82827C004500FEA4
:10039000929282004600FE9090800047007C8292FC
:1003A0005C004800FE1010FE00490082FE82000042
:1003B0004A000C0202FC004B00FE1028C6004C0054
:1003C000FE020202004D00FE403040FE4E00FE40A4
:1003D0003008FE4F007C8282827C5000FE9090604C
:1003E0000051007C828A847A5200FE989462005305
:1003F000006492924C00540080FE8080005500FC06
:100400000202FC005600F00C020CF05700FE04380B
:1004100004FE5800C63838C60059C0201E20C0004F
:100420005A00869AB2C2002C00010E0C00002E0069
:100430000006060000257254781E2A4E2100007A1C
:100440000000003F00204A3000002D001010101066
:10045000002B08083E0808002F00020C3040002A3C
:100460002214081422003A0000140000002200C0E8
:1004700000C000002328FE28FE28002800007C82FF
:100480000000290000827C00003B000224000000E4
:100490007E0040804080003B0002240000003D00C0
:1004A00028282828007C0000FE0000003E0082442E
:1004B0002810003C0010284482004000000000008A
:1004C000007C447C007C005C547454547C70107C30
:1004D00074545C7C545C40407C7C547C74547C0040
:1004E000040020202000000000002000230026003F
:1004F00029002C002F00320000010000030106013A
:10050000090100002200250028002B002E003100E8
:10051000340002010000050108010B010505050575
:10052000070508080808020202020A0A080804046B
:100530000404010101010101010103030303030399
:100540000303040707070C0C0C0C0C0C0C0C020228
:10055000020206060606060606060B0B0B0B0B0B25
:100560000B0B0102102020080810204010204080B2
:100570000201020108040201010204081020408067
:1005800080402010080402018004020180402010F5
:10059000080402010804020101020408102040803E
:1005A00001020408102040803F065B4F666D7D0706
:1005B0007F6F777C395E7971BF86DBCFE6EDFD8793
:1005C000FFEFF7FCB9DEF9F1004000002100240044
:1005D00027002A002D003000330001010000040133
:1005E00007010A0100000A0B02090C0D0E0807039F
:1005F00004010000000000000000000000000000F6
:1006000000000000000000000000000000000000EA
:1006100012111000000000000000000000000000A7
:10062000000000000000000000001160FE5F1124C7
:100630001FBECFEFD1E2DEBFCDBF00E00CBF13E0A5
:10064000A0E0B2E0EEECF4ED00E00BBF02C00790DA
:100650000D92A239B107D9F72DE0A2E9B3E001C0AC
:100660001D92A634B207E1F713E0C6E1D3E000E043
:1006700006C021970109802FFE010E94AB62C5319F
:10068000D10780E00807A9F70E945F510C94566AD1
:10069000B7CC2F923F924F925F926F927F928F9240
:1006A0009F92AF92BF92CF92DF92EF92FF920F9301
:1006B0001F93CF93DF93CDB7DEB7C054D1090FB6E8
:1006C000F894DEBF0FBECDBFD0902504803211F468
:1006D0000C948D0B48F58A3009F44FC088F48530AE
:1006E00009F492C028F4833009F4CBC70C94D212D9
:1006F000883009F4A3C1893009F45EC20C94D21287
:100700008C3009F45FC108F410C2843109F4CAC7FF
:100710008E3111F00C94D21261E08D2D0E94834D28
:10072000609126048D2DF6C7823311F40C94250CAC
:1007300070F4823209F4D4C710F40C94DC0B8832C4
:1007400009F492C0893209F42CC30C94D2128D336F
:1007500049F148F4843311F40C94380C8C3309F4C7
:10076000BDC10C94D2128E3311F40C94810C8034E0
:1007700011F40C94A30D0C94D21287E090E00E9427
:100780006A508C016D2D89EE9BE00E94533884EFF6
:1007900091E09093F00B8093EF0BC8010E94482FDB
:1007A0000C94D212D1100C94D2121091260488E02D
:1007B00090E00E946A50113091F422E020934F099A
:1007C0009C018F3F910519F014F02FEF30E021309C
:1007D0006FEF360714F00C94010D0C94FF0C1230DF
:1007E00011F00C94D2121093CF089C018F3F910509
:1007F00019F014F02FEF30E021307FEF370714F0BD
:100800000C94180D0C94160D86E090E00E946A502E
:1008100022E020934F098F3F910519F014F08FEFDC
:1008200090E08130AFEF9A0714F481E09FEF90934E
:1008300056098093550988E090E00E946A5022E0B2
:100840002093CF088F3F910519F014F08FEF90E0BF
:100850008130BFEF9B0714F481E09FEF9093D6089F
:100860008093D5080C94D21287E090E00E946A50E1
:100870008C0189E090E00E9438504B015C01E1E07E
:10088000DE1225C061E0CE0101960E942233BE0136
:100890006F5F7F4F83E09AE00E94B14FB501A401E2
:1008A00083E09AE00E940C33B801110F880B990B7A
:1008B0000E94D0686B017C01AB01BC0183E09AE02F
:1008C0000E94CC40B701A60183E09AE027C0F2E085
:1008D000DF1228C062E0CE0101960E942233BE01E1
:1008E0006F5F7F4F88E39AE00E94B14FB501A4018A
:1008F00088E39AE00E940C33B801110F880B990B22
:100900000E94D0686B017C01AB01BC0188E39AE0D6
:100910000E94CC40B701A60188E39AE00E945540AE
:100920000C94D21223E0D21225C063E0CE010196CE
:100930000E942233BE016F5F7F4F8DE69AE00E94D6
:10094000B14FB501A4018DE69AE00E940C33B801C5
:10095000110F880B990B0E94D0686B017C01AB01D1
:10096000BC018DE69AE00E94CC40B701A6018DE65D
:100970009AE0D4CF64E0D6120C94D212CE01019644
:100980000E942233BE016F5F7F4F82EA9AE00E948D
:10099000B14FB501A40182EA9AE00E940C33B8017C
:1009A000110F880B990B0E94D0686B017C01AB0181
:1009B000BC0182EA9AE00E94CC40B701A60182EA1B
:1009C0009AE0ACCF2091260488E090E021962FAFEA
:1009D00021970E946A508C018AE090E00E94535057
:1009E0006B017C0121962FAD2197213069F4B8016C
:1009F000110F880B990B0E94D0688B019C01B701E5
:100A0000A60185EB98E010C0223011F00C94D212B0
:100A1000B801110F880B990B0E94D0688B019C01C3
:100A2000B701A6018FEB98E00E94BD2868E270E054
:100A300080E090E00E94B04E0C94D212C090260448
:100A40001091270400912804F0902904E0902A04D2
:100A50008091C90BDD2049F08D110C94A90E809175
:100A6000CA0B8C110C94A90E08C081110C940A0FAA
:100A70008091CA0B8C110C940A0F112331F1115083
:100A8000212F30E08091CB0B9091CC0B28173907A8
:100A900008F5812F880F180F812F90E0E091CD0B82
:100AA000F091CE0BE80FF91FF082E091CD0BF091A1
:100AB000CE0BE80FF91F01832091CD0B3091CE0BA7
:100AC000F901E80FF91FE28205C04E2D6F2D802F2E
:100AD0000E94722B0E94162B0C94D21210912604A5
:100AE00081E1D8120C94D2120E944D4F153060F45F
:100AF00010931D0483E890E00E94FF50811711F4C9
:100B00000C94D212612F0BC010921D0483E890E068
:100B10000E94FF50882311F40C94D21260E083E805
:100B200090E00E94FD500C94D21280912604ED2D8D
:100B3000F0E0EE0FFF1FE955FD4F813011F46081A9
:100B400001C061811091270470E0E8EBF3E080E0E0
:100B500090E0219131912617370781F0232B41F442
:100B6000FC01EE0FFF1FE854FC4F7183608306C049
:100B700001968C30910569F780E090E0FC01EE0F62
:100B8000FF1F8E0F9F1FFC01EF50F44F808191815A
:100B9000A28189839A83AB83153B10F00C94D21207
:100BA000898190E0FC01EE0FFF1F8E0F9F1FFC015B
:100BB000E25EF74F80813CC68091BF0B8D1561F1DD
:100BC000D092BF0BED2DF0E0EE0FFF1FE955FD4F6A
:100BD00081818093BE0B90819093BD0B8093C50B58
:100BE0009093C60B61E00E94834D61E08091C60B3B
:100BF0000E94834D80E48093C10B80EC8093C20BF4
:100C00008AE88093C30B80E289838A838B838C83F9
:100C1000CE0101960E94CF2A87E090E00E945350B7
:100C20006B017C0119821A821B821C8220E030E059
:100C3000A9010E94CA6887FF09C0F7FAF094F7F883
:100C4000F09481E2898391E09AAF01C01AAEBDEFC2
:100C50002B2E33243A9403E010E01BAE17FD48C05E
:100C6000B8016F5F7F4F072E000C880B990B0E9415
:100C7000D0689B01AC0160E070E080E291E40E94EA
:100C8000E1644B015C019B01AC01C701B6010E940C
:100C900080630E9419642B013C01B801012E000CF5
:100CA000880B990B0E94D0689B01AC0160E070E05A
:100CB00080E291E40E94E1646CAF7DAF8EAF9FAFA4
:100CC000A5019401C301B2010E942F699B01AC01EF
:100CD000C701B6010E94B9622CAD3DAD4EAD5FAD0E
:100CE0000E9480630E9419640E94E863CB0123C0C4
:100CF00020E030E040E251E4C701B6010E942F69D4
:100D0000A2E02A16310484F020E030E040E251E411
:100D10000E942F69B2E02B16310431F020E030E060
:100D200040E251E40E942F690E94E863CB016AE02F
:100D300070E00E9498621816190634F0002321F022
:100D4000EBADEE23D9F00DC001110BC0E1E0F0E0F6
:100D5000EC0FFD1F2AADE20FF11D60E1680F60830B
:100D600008C0E1E0F0E0EC0FFD1F6AADE60FF11DF9
:100D700080837AAD7F5F7AAF81E08BAF9AAD94309C
:100D800050F401501109AFEF2A1A3A0A0C3FBFEF95
:100D90001B0709F063CFCE0101960E94CF2A0C9465
:100DA000D21280918A0B8D15B1F1ED2DF0E0EE0F8E
:100DB000FF1FE955FD4F808180938C0B91819093AB
:100DC0008D0BD0928A0B61E00E94834D61E080918F
:100DD0008D0B0E94834D61E080918C0B0E94544DDD
:100DE00061E080918D0B0E94544D80E40E943D4251
:100DF0008CE80E943D42E0E9FBE080E18E0F119219
:100E00008E13FDCF81E080938E0B10928F0B80E9C3
:100E10009BE00E94E04180912604813009F06AC184
:100E2000009127048091280440912904042E000C8D
:100E3000550BAAE2B4E0E4E9F3E09F012459334002
:100E4000241735071CF49D919193F7CFFA01EC56C6
:100E5000FC4F1082002E000C110B91E090938F0B31
:100E6000E12CF12CF701EC56FC4F9081F701E8578B
:100E7000F44F992321F023E1E216F10481F4F0927A
:100E8000A40BE092A30B158E2AEFB7012603A00155
:100E9000279F500D11240417150764F005C0958F86
:100EA0007FEFE71AF70ADECF0131110524F000E1E8
:100EB00010E001C08A011093A10B0093A00B8031B8
:100EC0000CF08FE0282F87FD2FEF2093A20B101638
:100ED00011060CF069C040E050E0842F4017510724
:100EE00059F04F5F5F4F4131510509F4CFC0FA010E
:100EF000E857F44F1782F1CF403109F4C7C090E0B2
:100F000037E0E0E2BE2E492F50E04E155F050CF0B1
:100F100042C0A12CBA016B55744F6B013A9DD001B0
:100F20001124BD0162597D4FFB011491103429F148
:100F3000FB019490F6010081002E000C110BE92DAD
:100F4000F0E00E171F07B9F400E010E01196FD0164
:100F5000E00FF11FE259FD4FD490E82FF0E0E85781
:100F6000F44FD0868F5F803141F00F5F1F4F063006
:100F7000110569F702C0A394D1CFFB0164916034DD
:100F800029F4FA01E857F44FB58E91509F5F8031F4
:100F900009F0B9CF7BC0E82FF0E0E857F44F108696
:100FA0008F5F8031C1F772C00417150741F4E0E983
:100FB000FBE080E18E0F11928E13FDCF67C0EE270C
:100FC000FF27E01BF10BCF0166E070E00E94986202
:100FD000382FF093A10BE093A00BAB0190E087E0DA
:100FE00070E2972E4E155F050CF047C0812CBA01B8
:100FF0006B55744F6B01889DD0011124BD0162595E
:101000007D4FFB01B490F0E4BF1619F1FB01749021
:10101000F601A0800A2C000CBB08E72DF0E0AE160C
:10102000BF06A1F4FD01E30FF11D37FDFA95E1596B
:10103000FD4FD490E92FF0E0E857F44FD0869F5F42
:10104000903130F43F5F363069F702C08394D3CFDC
:1010500030E0FB016491603431F4FA01E857F44F59
:10106000958E415051094F5F5F4F903108F4BACFD0
:101070001093A10B0093A00B09C0E92FF0E0E857F3
:10108000F44F10869F5F9031C1F7F2CF822F220F6D
:10109000990B27E030E0281B390BE0E9FBE037FD36
:1010A00014C090E19E0F8081022E01C0880F0A9427
:1010B000EAF781939E13F7CF80918E0B8111D2C2F4
:1010C000E0E9FBE090E19E0F0FC0079740E14E0F73
:1010D000208130E0082E02C0359527950A94E2F76A
:1010E00021934E13F5CFE8CF8081809581939E1395
:1010F000FBCFB8C2823009F092C020912704009142
:101100002804A9E2B4E0E8EAF3E08D91819363E07A
:10111000E83BF607D1F7203114F00C94D2120830D6
:1011200014F00C94D21280918E0B402F002E000CE4
:10113000550B022E000C330B68EA73E010E1160F1A
:101140008823B1F188E090E0841B950B6FEFF62EB9
:1011500001C0FF0C8A95EAF7D901A057B44FE8EA1D
:10116000F3E0285A334066277727641B750BC901C3
:101170008E0F9F1F97FD17C08C91EF2CE822101641
:1011800054F49081892F90E0042E02C095958795A4
:101190000A94E2F706C08081062E01C0880F0A94E7
:1011A000EAF78E298C93119631961E13E0CF5AC21E
:1011B00088E090E0841B950B6FEFF62E01C0FF0CCA
:1011C0008A95EAF7D901A057B44FE8EAF3E0285A24
:1011D000334066277727641B750BC9018E0F9F1F4D
:1011E00097FD18C08C91EF2CE8229081892F90E018
:1011F0008095909510163CF4042E02C09595879525
:101200000A94E2F705C0062E01C0880F0A94EAF797
:101210008E298C93119631961E13DFCF23C2833013
:1012200009F08FC04091270480912804A0912904DF
:101230005AE0652F0E947862282F30E0F901EE0F06
:10124000FF1F2E0F3F1FF901EF53FB4FE491E09377
:10125000900BF901EE53FB4FE491E093910BF901F0
:10126000ED53FB4F24912093920B1092930B292F57
:1012700030E0F901EE0FFF1F2E0F3F1FF901EF5372
:10128000FB4FE491E093940BF901EE53FB4FE49193
:10129000E093950BF901ED53FB4F24912093960BAE
:1012A0008A2F0E947862282F30E0F901EE0FFF1F8D
:1012B0002E0F3F1FF901EF53FB4FE491E093990B81
:1012C000F901EE53FB4FE491E0939A0BF901ED53D2
:1012D000FB4F249120939B0B10929C0B892F90E045
:1012E000FC01EE0FFF1F8E0F9F1FFC01EF53FB4F02
:1012F000E491E0939D0BFC01EE53FB4FE491E093EE
:101300009E0BFC01ED53FB4F849180939F0B442374
:1013100031F088E28093970B8093980B04C0109271
:10132000970B1092980B80918E0B81119BC1E0E975
:10133000FBE090E19E0F8081809581939E13FBCF0F
:1013400091C1843011F00C94D21288E090E00E9498
:1013500053506B017C014B015C01B7FAB094B7F8B4
:10136000B09420E030E0A9010E94CA6887FF05C060
:101370008AAE9BAE3A2C2B2C04C0CAAEDBAE3E2C00
:101380002F2C03E01AE0812E912C20E03EE34CE16B
:1013900056E4C701B6010E94916487FD03C089E04D
:1013A0008EAB0DC020E030EE49E754ECC701B6012A
:1013B0000E94CA6818163CF08BE08EAB89E08FABB8
:1013C00088AF89AFDFC020E030E0A901C701B601D6
:1013D0000E94CA68A82EAA1CAA24AA1C10E060E0D9
:1013E00070E080E09FE3101741F020E030E040E241
:1013F00051E40E9480631F5FF6CF9B01AC016AAD90
:101400007BAD832D922D0E94BA622B013C010E947C
:10141000ED63FB019B0110E0C901B4010E948462ED
:10142000A1E0B0E0AC0FBD1FA10FB11D8AE0689F25
:10143000201911242C931F5F9B01672B69F7812FC3
:101440008A0DB82EB00E94E09B1518F404E0081B2A
:101450009CCF8CE08EAB8FAB88AF89AFBF0180E0B3
:1014600090E00E94CE689B01AC01C301B2010E94D2
:10147000B9622B013C0184E0F82EFB18AA2041F050
:10148000FE01EF0DF11D8BE086AB85E0F82EFB1819
:10149000F10E8F2D811B112369F0E6E3F0E0EC0FD4
:1014A000FD1FE80FF11DDE01A10FB11D8C9180839E
:1014B0001150EFCF002309F465C0A3E0FA120EC06B
:1014C00020E030E040E251E4C301B2010E942F6904
:1014D0000E94E863672B21F58CE073CFB2E0FB122A
:1014E0000EC020E030E048EC52E4C301B2010E949B
:1014F0002F690E94E863672B99F48CE061CFE1E0EB
:10150000FE120EC020E030E04AE754E4C301B2010D
:101510000E942F690E94E863672B11F48CE04FCF83
:1015200011E01F0DE6E3F0E0EC0FFD1FEF0DF11DE4
:101530008AE08083015030F120E030E040E251E465
:10154000C301B2010E942F694B015C010E94E86354
:10155000FF24F394F10EE6E3F0E0EC0FFD1FE10F42
:10156000F11D6083072E000C880B990B0E94D06838
:101570009B01AC01C501B4010E94B9622B013C0181
:101580001F2DD8CF8EA990E0FC01EE0FFF1F8E0F0C
:101590009F1FFC01EF53FB4FE491E093900BFC0184
:1015A000EE53FB4FE491E093910BFC01ED53FB4FA5
:1015B000E491E093920B1092930B8FA990E0FC01C1
:1015C000EE0FFF1F8E0F9F1FFC01EF53FB4FE491A7
:1015D000E093940BFC01EE53FB4FE491E093950BE9
:1015E000FC01ED53FB4FE491E093960B1092970BA7
:1015F00088AD90E0FC01EE0FFF1F8E0F9F1FFC01D6
:10160000EF53FB4FE491E093980BFC01EE53FB4F3B
:10161000E491E093990BFC01ED53FB4FE491E093CF
:101620009A0B10929B0B89AD90E0FC01EE0FFF1F0F
:101630008E0F9F1FFC01EF53FB4FE491E0939C0B37
:10164000FC01EE53FB4FE491E0939D0BFC01ED5345
:10165000FB4FE491E0939E0B10929F0B80918E0BB9
:10166000882329F080E99BE00E94E0419BC7E0E9E4
:10167000FBE090E19E0F8081809581939E13FBCFCC
:10168000F1CF8091BB0B8D1529F06D2D89EB9BE07F
:101690000E94533811E080912604811101C010E0AE
:1016A00061E00EC08091BB0B8D1529F06D2D89EB8B
:1016B0009BE00E9453381091260461E0123040F400
:1016C0008091B90B0E94834D612F8091B90B22C08C
:1016D000123009F460E089EB9BE00E94441E62C76F
:1016E00061E08D2D0E94834D87E090E00E946A505A
:1016F0008C0189E090E00E946A507C01D0921D0824
:1017000018161906ACF061E08D2D0E94834D60E043
:1017100080911D080E94544D45C761E08D2D0E94A7
:10172000834D6091260470E08D2D0E94BF4D3AC715
:10173000980140E050E060E472E48FE090E00E94A5
:10174000F96929013A01890137FF02C00F5F1F4F74
:101750001595079561E08D2D0E94834D28EE33E0AD
:10176000D7010E94B3624B015C016201550CEE0887
:10177000FF0880E090E0DC012C013D014C0C5D1C79
:101780006E1C7F1C88159905AA05BB0508F00AC7C1
:1017900061E080911D080E94544DC8010E94A54E31
:1017A00060E080911D080E94544DC8010E94A54E22
:1017B000A895D301C201E0CF10912604153B08F093
:1017C000F1C66D2D70E0E8EBF3E020E030E08191B0
:1017D00091918617970789F0892B41F4F901EE0F53
:1017E000FF1FE854FC4F7183608307C02F5F3F4F9A
:1017F0002C30310561F720E030E0D901AA0FBB1F82
:101800002A0F3B1FD901AF50B44F8C9111962C91E8
:10181000119712969C9189832A839B8390E0DC0127
:10182000AA0FBB1F8A0F9B1FDC01A25EB74F8C91D2
:1018300087FD04C0CE0101960E94BC3E612F70E07E
:10184000CE0101960E94393EADC60E94C63A0E9462
:10185000CE6820E030E04AE754E40E948063609361
:1018600061047093620480936304909364049AC645
:10187000D11098C687E090E00E946A508C0189E000
:1018800090E00E946A50BC01990F880B990B0E944E
:10189000D06820E030E040E85EE30E942F696B01F1
:1018A0007C016093E9037093EA038093EB039093C8
:1018B000EC03B801110F880B990B0E94D068905867
:1018C0002CEE31E548E35EE30E942F696093090442
:1018D00070930A0480930B0490930C04C701B60123
:1018E0000E94E8639B0177FF04C022273327261B51
:1018F000370B223031050CF455C681E08093DC03B0
:1019000051C610912604F1E0DF122AC088E090E071
:101910000E9438506B017C018CE090E00E946A507C
:1019200097FF03C0919581959109113069F4BC012D
:10193000990F880B990B0E94D0688B019C01B7010D
:10194000A6018FE499E0FCC0123009F02BC6BC015F
:10195000990F880B990B0E94D0688B019C01ECC0F9
:1019600022E0D21235C088E090E00E946A50113027
:10197000B1F4BC01990F880B990B0E94D06821E04B
:1019800020934F092093500960935D0970935E097D
:1019900080935F09909360091092B90903C61230D1
:1019A00009F000C6BC01990F880B990B0E94D06802
:1019B00021E02093CF082093D0086093DD08709336
:1019C000DE088093DF089093E00810923909EAC599
:1019D00063E0D61232C088E090E00E946A50113075
:1019E000A9F422E020934F099C018F3F910519F043
:1019F00014F02FEF30E021307FEF370714F421E0AF
:101A00003FEF3093560920935509CCC5123009F0A9
:101A1000C9C51093CF089C018F3F910519F014F0B0
:101A20002FEF30E021308FEF380714F421E03FEF43
:101A30003093D6082093D508B5C594E0D91217C0C5
:101A4000113049F4109275091092760910927709B5
:101A500010927809A7C5123009F0A4C51092F508B4
:101A60001092F6081092F7081092F8089BC5A5E0AE
:101A7000DA1298C588E090E00E9438506B017C0132
:101A80008CE090E00E946A50113091F4BC01990FF3
:101A9000880B990B0E94D0684B015C0144275527A5
:101AA000BA014C195D096E097F09950184013EC098
:101AB0001230D1F4BC01990F880B990B0E94D068A9
:101AC0004B015C018B019C01B701A6018FE499E0F9
:101AD0000E94326244275527BA014C195D096E09EC
:101AE0007F09950184012AC0133089F4BC01990F44
:101AF000880B990B0E94D0684B015C01F094E09434
:101B0000D094C094C11CD11CE11CF11C0BC014303A
:101B100009F048C5BC01990F880B990B0E94D06849
:101B20004B015C0195018401B701A6018FE499E0A6
:101B30000E94326295018401B701A6018FEC98E002
:101B40000E9432622FC56091260410912704E09014
:101B50009203F0909303E114F10431F484E691E0F0
:101B600021966FAF21971EC0F70181A18617E1F181
:101B70008BE992E091838083E259FF4F80819181CC
:101B800021966FAF21970E94A8668BE892E0D7015B
:101B90008D939C93C7010E94F23CC7010E94A866E6
:101BA00084E691E00E9413667C0121966FAD219737
:101BB0000E943638F0929303E092920340E052EC98
:101BC00061E070E0C7010E94963665E070E080E059
:101BD00090E00E94B04EC7010E94163562E370E0AB
:101BE00080E090E00E94B04EB1E0DB1211C00091A5
:101BF0002804E0909203F0909303F701E654FF4F1E
:101C00008081811708F00AC11F3F09F0CBC406C1CB
:101C1000F2E0DF1215C0D090280400912904B090A2
:101C20002A04E0909203F0909303F701E654FF4FEB
:101C30008081811708F065C11F3F09F0B3C461C1FD
:101C4000F3E0DF120FC0E0909203F0909303F701EE
:101C5000E654FF4F8081811708F0FEC11F3F09F055
:101C6000A1C4FAC1F4E0DF121BC089E090E00E9439
:101C700038502B013C018DE090E00E9453504B0105
:101C80005C01E0909203F0909303F701E654FF4F5C
:101C90008081811708F02FC21F3F09F083C42BC237
:101CA000F5E0DF121BC089E090E00E9438502B0164
:101CB0003C018DE090E00E9453504B015C01E090AC
:101CC0009203F0909303F701E654FF4F8081811750
:101CD00008F092C21F3F09F065C48EC2F6E0DF1221
:101CE00014C089E090E00E946A506C01E090920379
:101CF000F0909303F701E654FF4F8081811708F0BD
:101D0000FCC21F3F09F04EC4F8C2F7E0DF120FC05B
:101D1000E0909203F0909303F701E654FF4F808127
:101D2000811708F05BC31F3F09F03CC457C3F8E0BC
:101D3000DF1238C4E0909203F0909303F701E65469
:101D4000FF4F8081811708F0B2C31F3F09F02AC4FA
:101D5000AEC3D092C90BC092CA0BED2DF0E0EE0FCE
:101D6000FF1FE955FD4F81818093C80B80818093CF
:101D7000C70B40E060E080E00E94722B20E030E082
:101D800052E041E08091CB0B9091CC0B28173907A2
:101D9000E8F4822F880F820F90E0E091CF0BF09152
:101DA000D00BE80FF91F5083E091CF0BF091D00BCF
:101DB000E80FF91F11826091CF0B7091D00BFB01DE
:101DC000E80FF91F42832F5F3F4FDCCF72E0C7124D
:101DD00003C08091C80B02C08091C70B282F30E050
:101DE000F901EE59FA4FE491E093D50BF901E45E65
:101DF000FA4FE491F0E0EE0FFF1FEE5FFA4F2591EE
:101E000034913093D20B2093D10B61E00E94834D2B
:101E10000C943D050E949F2B0C943D05D701ED913C
:101E2000FC910190F081E02D60EFC7011995D70179
:101E3000ED91FC910190F081E02D612FC701199582
:101E4000D701ED91FC910190F081E02D60E6C70192
:101E50001995D701ED91FC910190F081E02D66E19B
:101E6000C7011995D701ED91FC910190F081E02D0A
:101E7000602FC7011995D701ED91FC91612F600F7B
:101E80006A580190F081E02DC7011995D701ED91B5
:101E9000FC910190F081E02D67EFC7011995870152
:101EA00005541F4FF801808191818F7B9927918381
:101EB00080830E94C63A6701F3EACF1AFEEFDF0A79
:101EC000D6016D937D938D939C931397F801808138
:101ED000918186FDBAC0C7010E945D330E94C63A57
:101EE000F60180809180A280B380DC01CB0188194B
:101EF0009909AA09BB09813B9440A105B10530F3BA
:101F00007FC0D701ED91FC910190F081E02D60EF51
:101F1000C7011995D701ED91FC910190F081E02D59
:101F2000612FC7011995D701ED91FC910190F081C6
:101F3000E02D60E6C7011995D701ED91FC91019064
:101F4000F081E02D67E1C70119956D2DC7010E9451
:101F50006E361958C82ED12CC10ED11C602FC70166
:101F60000E946E36082F10E00C0D111D6B2DC7015D
:101F70000E946E36D701ED91FC91682F70E0600FE2
:101F8000711D0190F081E02DC7011995D701ED91E8
:101F9000FC910190F081E02D67EFC7011995870151
:101FA00005541F4FF801808191818F7B9927918380
:101FB00080830E94C63A6701F3EACF1AFEEFDF0A78
:101FC000D6016D937D938D939C931397F801808137
:101FD000918186FD3AC0C7010E945D330E94C63AD6
:101FE000D6018D909D90AD90BC90DC01CB018819FD
:101FF0009909AA09BB09813B9440A105B10530F3B9
:10200000D8018D919C9111978F7B992711969C9364
:102010008E93A895C7C2C7010E945D330E94C63A3D
:10202000D6018D909D90AD90BC90DC01CB018819BC
:102030009909AA09BB09813B9440A105B10500F7A4
:10204000F8018081918186FFE6CF808191818F7B2D
:10205000992791838083A6C2D701ED91FC910190CD
:10206000F081E02D60EFC7011995D701ED91FC914A
:102070000190F081E02D612FC7011995D701ED91F5
:10208000FC910190F081E02D60E6C7011995D70120
:10209000ED91FC910190F081E02D68E1C701199567
:1020A000D701ED91FC9168E7610F0190F081E02D7F
:1020B000C7011995D701ED91FC910190F081E02DB8
:1020C00067EFC7011995870105541F4FF8018081FB
:1020D00091818F7B9927918380830E94C63A670103
:1020E000F3EACF1AFEEFDF0AD6016D937D938D934D
:1020F0009C931397A5CFD701ED91FC910190F081AE
:10210000E02D60EFC7011995D701ED91FC91019089
:10211000F081E02D612FC7011995D701ED91FC9158
:102120000190F081E02D60E6C7011995D701ED918E
:10213000FC910190F081E02D63E3C7011995B30193
:10214000A201C7010E94AB3563E9610F082F10E0BF
:10215000060F111DC501B4010E94E86341E0C701EB
:102160000E942F36800FD701ED91FC91682F6F7779
:102170000190F081E02DC7011995D701ED91FC91F7
:102180000190F081E02D67EFC70119958701055493
:102190001F4FF801808191818F7B992791838083E4
:1021A000E955FF4F118210820E94C63A6701F3EA97
:1021B000CF1AFEEFDF0AD6016D937D938D939C932A
:1021C0001397F8018081918186FD3FCFC7010E945E
:1021D0005D330E94C63AD6018D909D90AD90BC9023
:1021E000DC01CB0188199909AA09BB09813B9440FC
:1021F000A105B10530F304CFD701ED91FC91019019
:10220000F081E02D60EFC7011995D701ED91FC91A8
:102210000190F081E02D612FC7011995D701ED9153
:10222000FC910190F081E02D60E6C7011995D7017E
:10223000ED91FC910190F081E02D64E3C7011995C7
:10224000B301A201C7010E94AB3564E9610F082FF9
:1022500010E0060F111DC501B4010E94E86341E0C2
:10226000C7010E942F36800FD701ED91FC91682F96
:102270006F770190F081E02DC7011995D701ED919D
:10228000FC910190F081E02D67EFC701199587015E
:1022900005541F4FF801808191818F7B992791838D
:1022A0008083E955FF4F118210820E94C63A670170
:1022B000F3EACF1AFEEFDF0AD6016D937D938D937B
:1022C0009C931397F8018081918186FDBECEC70152
:1022D0000E945D330E94C63AD6018D909D90AD90CC
:1022E000BC90DC01CB0188199909AA09BB09813B83
:1022F0009440A105B10530F383CED701ED91FC9157
:102300000190F081E02D60EFC7011995D701ED91A3
:10231000FC910190F081E02D612FC7011995D70143
:10232000ED91FC910190F081E02D60E6C7011995D7
:10233000D701ED91FC910190F081E02D65E3C7019B
:10234000199540E0B601C7010E942F361B56682F31
:1023500070E0610F711DD701ED91FC910190F0814A
:10236000E02DC7011995D701ED91FC910190F08105
:10237000E02D67EFC7011995870105541F4FF8013C
:10238000808191818F7B9927918380830E94C63AB7
:102390006701F3EACF1AFEEFDF0AD6016D937D9352
:1023A0008D939C931397F8018081918186FD4DCE8A
:1023B000C7010E945D330E94C63AD6018D909D9060
:1023C000AD90BC90DC01CB0188199909AA09BB0921
:1023D000813B9440A105B10530F312CED701ED91B8
:1023E000FC910190F081E02D60EFC7011995D701B4
:1023F000ED91FC910190F081E02D612FC7011995BD
:10240000D701ED91FC910190F081E02D60E6C701CC
:102410001995D701ED91FC910190F081E02D60E3D9
:10242000C7011995D701ED91FC9160E9610F019009
:10243000F081E02DC7011995D701ED91FC91019034
:10244000F081E02D67EFC7011995870105541F4FF3
:10245000F801808191818F7B9927918380830E94ED
:10246000C63A6701F3EACF1AFEEFDF0AD6016D9391
:102470007D938D939C931397F8018081918186FDC4
:10248000E4CDC7010E945D330E94C63AD6018D900B
:102490009D90AD90BC90DC01CB0188199909AA09E7
:1024A000BB09813B9440A105B10530F3A9CDD7010B
:1024B000ED91FC910190F081E02D60EFC70119953D
:1024C000D701ED91FC910190F081E02D612FC701C2
:1024D0001995D701ED91FC910190F081E02D60E616
:1024E000C7011995D701ED91FC910190F081E02D84
:1024F00067E3C7011995D701ED91FC910190F08137
:10250000E02D60E0C701199541E068E270E0C70185
:102510000E942F361956682F70E0610F711DD70188
:10252000ED91FC910190F081E02DC7011995D70143
:10253000ED91FC910190F081E02D67EFC7011995B5
:10254000870105541F4FF801808191818F7B992766
:10255000918380830E94C63A6701F3EACF1AFEEFA7
:10256000DF0AD6016D937D938D939C931397F801A9
:102570008081918186FD69CDC7010E945D330E94F3
:10258000C63AD6018D909D90AD90BC90DC01CB01F8
:1025900088199909AA09BB09813B9440A105B10595
:1025A00030F32ECDC05CDF4F0FB6F894DEBF0FBE08
:1025B000CDBFDF91CF911F910F91FF90EF90DF90F2
:1025C000CF90BF90AF909F908F907F906F905F90D3
:1025D0004F903F902F9008954F925F926F927F920D
:1025E0008F929F92AF92BF92CF92DF92EF92FF9223
:1025F0000F931F93CF93DF93CDB7DEB76E970FB6D0
:10260000F894DEBF0FBECDBF10925604F0902204A6
:102610008091230400912404F092D803823009F4BD
:1026200057C620F4813051F00C94111E843009F407
:1026300053C6853009F4D6C70C94111E013049F0F9
:10264000073139F0043229F00E94494F8F2D0E9442
:10265000454F10912504402F50E04134510508F0BA
:1026600032C6FA018827EE58FF4F8F4F0C94AB62A9
:102670008091DA039091DB03009739F0DC01129628
:102680002C91211771F00E94A8668EE090E00E94C4
:1026900013667C01612F0E94651EF092DB03E092BD
:1026A000DA038091DA039091DB030E9459476B01B2
:1026B0007C010E94494F8091D8030E94454FC70179
:1026C000B601E9C5909126048091D80B811304C00E
:1026D0008091D90B891749F1E12FF0E0EE0FFF1F30
:1026E000E955FD4F20812093D60B81818093D70B34
:1026F0001093D80B9093D90B923009F0822F90E071
:10270000FC01EE59FA4FE491E093DA0BFC01E45E30
:10271000FA4FE491F0E0EE0FFF1FE851FB4F859177
:1027200094919093DC0B8093DB0B0E941C478CEC04
:102730000E94B04684E40E94B0460E94C63A6B01F3
:102740007C0103E210E08091DA0BE091DB0BF09169
:10275000DC0B9181282F2095922391839281982BD5
:102760009283D8011197F1F79081892309F43DC72D
:102770000E941C478CEC0E94B0468EEB0E94B04633
:10278000DE01119667E070E003E210E08FECE82EC6
:10279000F12C95E0B92EBA0E48E050E031E020E08F
:1027A000A090DA0BE091DB0BF091DC0BF8949181B7
:1027B0009A299183D2809A2C9094D920D282CB01ED
:1027C0000197F1F7D180992D9D21918392819A29CA
:1027D0009283C8010197F1F790817894F7013197BE
:1027E000F1F78A2D892309F0232B330F415051092A
:1027F000B9F62D93BA12D0CF6A8170E0762F662792
:102800008981682B072E000C880B990B0E94D068D9
:1028100020E030E040E85DE30E942F693CC58091F4
:10282000BB0B811751F0612F89EB9BE00E9453385D
:1028300060E08091BA0B0E94834D89EB9BE00E947F
:102840002C1E34C38091BB0B811751F0612F89EB93
:102850009BE00E94533860E08091BA0B0E94834D48
:1028600089EB9BE00E942C1EBC01990F880B990BF1
:102870000E94D0689B01AC0160E070EC8FE794E4AB
:102880000E94806320E030E040E85FE30E94B9628C
:102890009B01AC0160E070E48CE196E40E948063EF
:1028A00020E030E44CE156E40E9480630E94A16481
:1028B00020E030E443E555E40E9480632FE03FECE4
:1028C0004BE55BE30E94BA629B01AC0160E070E003
:1028D00080E89FE30E94806323E333E948E853E400
:1028E0000E94B962D8C4009126048091D90A811748
:1028F00029F0612F87ED9AE00E945338013059F496
:1029000087ED9AE00E94381E2091D0033091D103C8
:102910008A5E91400CC0023071F487ED9AE00E940B
:102920002C1E8A5E91402091D2033091D303BC01CA
:10293000620F731F8BC060E070E088C0E0905A04A3
:10294000F0905B04E114F104E1F0D70191968C91D1
:1029500091978117B1F18BE992E08D939C93F701E8
:10296000E259FF4F808191810E94A8668BE892E036
:10297000F70191838083C7010E94F23CC7010E9446
:10298000A8668CE790E00E9413667C01612F0E948C
:102990009C378DE492E0D70111969C938E9390968C
:1029A0008C91F701E858FF4F8083F701878DE75836
:1029B000FF4F8083F0925B04E0925A04C7010E94AB
:1029C0009B1EE0915A04F0915B04E658FF4F608132
:1029D0006093D9038FEF860F8E3F08F059C460C013
:1029E0008091BB0B811751F0612F89EB9BE00E9416
:1029F000533860E08091BA0B0E94834D89EB9BE0D5
:102A00000E94A0414CC08091BB0B811779F0612FCF
:102A100089EB9BE00E94533860E08091B90B0E94E3
:102A2000834D60E08091BA0B0E94834D60E089EB9A
:102A30009BE00E94541E182F89EB9BE00E94A0414E
:102A4000612F70E0660F771F680F711D072E000C55
:102A5000880B990B0E94D0681EC4009126048091B7
:102A6000BB0B8113D1C58091BC0B8013CDC562E037
:102A7000013059F48091B90B0E94834D60E089EBDD
:102A80009BE00E94541E80270AC08091BA0B0E94CE
:102A9000834D89EB9BE00E94A04161E08627682F6F
:102AA00070E080E090E00E94CE68F5C38091DD0A7E
:102AB000811709F48BC0612F8BED9AE00E94533887
:102AC0008091DC0A9091DB0A9093D5038093D40324
:102AD0000E94852F61E08BED9AE00E94441E80E702
:102AE0008D8FBE01635E7F4F80E00E948E3080E25A
:102AF0008C8FBE01645E7F4F81E00E948E3081E04A
:102B00008093E70A8B8FBE01655E7F4F82E00E9453
:102B10008E30CE0101967C0100E010E06C01C8010E
:102B20000E94E369D7018D937D010F5F1F4F0A312A
:102B30001105A9F72D813E814F81588569817A81E0
:102B40008B819C810E94BA6229853A854B855C8580
:102B50000E94BA622D853E854F8558890E94BA62CF
:102B600029893A894B895C890E94BA622D893E89FC
:102B70004F89588D0E94BA624B015C01898D682F84
:102B800070E080E090E00E94D0689B01AC01C5013C
:102B9000B4010E94BA6220E030E04AE253E40E94AD
:102BA000BA620E94ED638A8D68130CC08AE1F60157
:102BB000A8EEBAE001900D928A95E1F781E080934A
:102BC000DF0A02C01092DF0A0E94D3420E948E45A3
:102BD00062C3E09026048091FA09811729F0612FE1
:102BE00088EF99E00E945338FE0131966F0185E02D
:102BF000DF011D928A95E9F760E088EF99E00E9475
:102C0000441E64E170E080E090E00E94B04E61E01C
:102C100088EF99E00E94441E8BE990E00197F1F75C
:102C200060E088EF99E00E94441E0E94C63A4B0182
:102C30005C0188EF99E00E94A041811110C00E94C0
:102C4000C63ADC01CB0188199909AA09BB09039787
:102C5000A105B10570F31092FC091092FD090E94C4
:102C6000C63A4B015C0188EF99E00E94A04188239D
:102C700061F00E94C63ADC01CB0188199909AA09C2
:102C8000BB090397A105B10570F300E010E00E94B5
:102C9000C63A4B015C0188EF99E00E94A041811186
:102CA0000CC00E94C63ADC01CB0188199909AA0917
:102CB000BB090397A105B10570F30E94A13A4B012E
:102CC0005C010E94C63A2B013C0188EF99E00E940A
:102CD000A041882361F00E94C63ADC01CB0184192F
:102CE0009509A609B7090397A105B10570F30E94DC
:102CF000A13ADC01CB0188199909AA09BB09F8019D
:102D000053E0F595E7955A95E1F78997A105B10547
:102D100030F0EC0DFD1D8081880F816004C0EC0D4A
:102D2000FD1D8081880F80830F5F1F4F08321105C2
:102D300009F0ADCF59814B81242F30E0250F311D93
:102D40008D8190E02817390721F45093FC094093B6
:102D5000FD09E11003C01091FC0902C01091FD09AA
:102D60000E94494F8F2D0E94454F812F58C180915D
:102D7000F4098117D1F0612F82EF99E00E94533856
:102D80008091F2099091F3099093F6098093F709E5
:102D90008091F60960E00E94834D8091F70980934D
:102DA000F2098091F6098093F30982EF99E020C03F
:102DB0008091EE098117D1F0612F8CEE99E00E948D
:102DC00053388091EC099091ED099093F00980932C
:102DD000F1098091F00960E00E94834D8091F10932
:102DE0008093EC098091F0098093ED098CEE99E0D5
:102DF0003FD7BDC18091260411113AC49091870B31
:102E0000983609F060C211C41A8219821C821B8292
:102E10001E821D826091AF087091B0086115710526
:102E200041F04091B3085091B408CE0101960E9440
:102E3000D44B1D81E12EFE8084E00E94454F812FFE
:102E40000E94454F00E010E00E151F05A4F48D818F
:102E50009E810817190748F489819A81009729F003
:102E6000FC01E00FF11F808101C080E00E94454F0E
:102E70000F5F1F4FE9CF89819A810E94A86623C204
:102E800060E0812F0E94834D812F0E942C4D0EC047
:102E9000E12FF0E0EE0FFF1FEF5DFD4F108160E0CE
:102EA000812F0E94834D812F0E94864EBC01990F75
:102EB000880B990BCFCD87E090E00E946A507C018F
:102EC00060E0812F0E94834DA701FF0C660B770BFA
:102ED000812F0E946130F5C10091260461E0812FAD
:102EE0000E94834D60E0812F0E94544D83E090E06A
:102EF0000197F1F761E0812F0E94544D83E290E049
:102F00000197F1F760E0812F0E94544D60E0802F1F
:102F10000E94834D40E355E760E070E0802F0E94FF
:102F200061306B017C0165E070E080E090E00E9420
:102F3000B04E0E94494F8091D8030E94454FC7016F
:102F4000B60188CD60915D0470915E0480915F044C
:102F500090916004A0C18091E809811729F0612F48
:102F600086EE99E00E94533886EE99E00E94A041D7
:102F700056C08091D109811729F0612F8FEC99E01B
:102F80000E94533881E020915C0490912604291717
:102F900009F445C080E043C0111195C19091260409
:102FA000809127049130B9F4813049F46091690926
:102FB00070916A0980916B0990916C0982C182308D
:102FC00009F081C16091590970915A0980915B099A
:102FD00090915C0960C1923009F075C1813049F46B
:102FE0006091E9087091EA088091EB089091EC08F3
:102FF00068C1823009F067C16091D9087091DA0820
:103000008091DB089091DC0846C1103719F40E94CA
:10301000015141C1113709F056C180911D040E9430
:10302000EE5051C100912604E0905804F0905904EC
:10303000E114F10429F589EB90E00E9413667C010C
:10304000612F58D6F0925904E092580440E855E2B6
:1030500060E070E0C7010E9496368091580490911C
:1030600059040E941B306AE070E080E090E00E940A
:10307000B04E80915804909159040E941B3040C07A
:10308000F70181A18117E1F18BE992E091838083BF
:10309000E259FF4F808191810E94A8668BE892E0FF
:1030A000D7018D939C93C7010E94F23CC7010E94F7
:1030B000A86689EB90E00E9413667C01612F1AD606
:1030C000F0925904E092580440E855E260E070E064
:1030D000C7010E94963680915804909159040E942D
:1030E0001B306AE070E080E090E00E94B04E80917A
:1030F0005804909159040E941B301092000203C0A2
:1031000081E08093000280910002882361F1013008
:1031100041F42091580430915904F901E558FF4FCA
:1031200013C0023041F42091580430915904F90140
:10313000E358FF4F09C0033079F4209158043091CF
:103140005904F901E158FF4F808190E0982F8827BA
:1031500031962081822B02C080E090E09093D703CB
:103160008093D60304C08091D6039091D7030E9428
:103170007950A9C06091260400912704E090920341
:10318000F0909303E114F10421F484E691E06E8F52
:103190001CC0F70181A18617D9F18BE992E09183D8
:1031A0008083E259FF4F808191816E8F0E94A866D3
:1031B0008BE892E0D7018D939C93C7010E94F23C6B
:1031C000C7010E94A86684E691E00E9413667C0114
:1031D0006E8D0E943638F0929303E092920340E0A5
:1031E00052EC61E070E0C7010E94963665E070E045
:1031F00080E090E00E94B04E809192039091930302
:103200000E94163562E370E080E090E00E94B04ECC
:10321000193071F4E0909203F0909303F701E654B3
:10322000FF4F8081801708F04EC20F3F89F54BC2D7
:103230001A3071F4E0909203F0909303F701E65492
:10324000FF4F8081801708F0C7C20F3F09F5C4C245
:103250001B3071F4E0909203F0909303F701E65471
:10326000FF4F8081801708F044C30F3F89F441C3AA
:103270001C30A1F4E0909203F0909303F701E65420
:10328000FF4F8081801708F0BDC30F3F09F4BAC318
:1032900060E070E0CB010E94BD5015C01D3099F474
:1032A000E0909203F0909303F701E654FF4F808182
:1032B000801708F029C40F3F09F426C460E070E0CD
:1032C000CB010E94915087E193E00E948E41A9C4F6
:1032D000802F0E94490386C18DE280931D0840E043
:1032E00060E080E00E94722B0E94162B10927509FC
:1032F0001092760910927709109278091092F508C9
:103300001092F6081092F7081092F80880E090E00A
:10331000A0E2B1E480935D0990935E09A0935F09F8
:10332000B09360091092BB091092B90921E0209373
:103330004F091092500910926D0910926E09109267
:103340006F09109270091092CE091092CD098091E8
:103350006D0990916E09A0916F09B091700940912B
:10336000690950916A0960916B0970916C09841B1D
:10337000950BA60BB70B181619061A061B061CF49C
:103380002093BA0902C01092BA0980E090E0A0E24E
:10339000B1E48093DD089093DE08A093DF08B0933A
:1033A000E00810923B091092390921E02093CF08E0
:1033B0001092D0081092ED081092EE081092EF08CB
:1033C0001092F00810924E0910924D098091ED086C
:1033D0009091EE08A091EF08B091F0084091E908B3
:1033E0005091EA086091EB087091EC08841B950BF2
:1033F000A60BB70B181619061A061B061CF4209309
:103400003A0902C010923A0960E070E08FE499E056
:1034100006D760E070E08FEC98E001D710924F097A
:103420001092CF0861E089EE9BE00E94533804EFD0
:1034300011E01093F00B0093EF0B80E090E00E94FE
:10344000482F62E089EE9BE00E9453381093F00B06
:103450000093EF0B80E090E00E94482F63E089EE3C
:103460009BE00E9453381093F00B0093EF0B80E029
:1034700090E00E94482F64E089EE9BE00E94533860
:103480001093F00B0093EF0B80E090E00E94482F28
:1034900040E050E0BA0185EB98E00E94332840E01C
:1034A00050E0BA018FEB98E00E94332810920A0A8C
:1034B00010920B0A10920C0A10920D0A10920E0A2A
:1034C00010920F0A1092100A1092110A1092260AF6
:1034D0001092270A1092280A1092290A10921E0AA6
:1034E00010921F0A1092200A1092210A10923F0A8D
:1034F0001092400A1092410A1092420A1092430A16
:103500001092440A1092450A1092460A10925B0AE1
:1035100010925C0A10925D0A10925E0A1092530A91
:103520001092540A1092550A1092560A1092740A78
:103530001092750A1092760A1092770A1092780A01
:103540001092790A10927A0A10927B0A1092900ACD
:103550001092910A1092920A1092930A1092880A7D
:103560001092890A10928A0A10928B0A1092A90A64
:103570001092AA0A1092AB0A1092AC0A1092AD0AED
:103580001092AE0A1092AF0A1092B00A1092C50AB9
:103590001092C60A1092C70A1092C80A1092BD0A69
:1035A0001092BE0A1092BF0A1092C00A40E050E08A
:1035B000BA0183E09AE00E940C3340E050E0BA0187
:1035C00088E39AE00E940C3340E050E0BA018DE6B7
:1035D0009AE00E940C3340E050E0BA0182EA9AE09F
:1035E0000E940C330E94F5501CC30E94C63ADC01B5
:1035F000CB018C199D09AE09BF098E3E9240A105F1
:10360000B10508F4A0C8B4C8E12FF0E0EE0FFF1F29
:10361000E955FD4F80818093B90B81818093BA0B6E
:103620001093BB0B0093BC0B22CA813049F440902D
:103630004F0B5090500B6090510B7090520B15C077
:10364000823049F44090530B5090540B6090550BCE
:103650007090560B0AC0833041F44090570B509045
:10366000580B6090590B70905A0BC301B20113CEE6
:10367000113009F028CE9091440B993609F023CEF1
:10368000813049F480900C0B90900D0BA0900E0BA4
:10369000B0900F0B15C0823049F48090100B9090C1
:1036A000110BA090120BB090130B0AC0833041F4A1
:1036B0008090140B9090150BA090160BB090170BE8
:1036C000C501B401E8CDD701ED91FC910190F081E5
:1036D000E02D60EFC7011995D701ED91FC910190A4
:1036E000F081E02D602FC7011995D701ED91FC9174
:1036F0000190F081E02D60E6C7011995D701ED91A9
:10370000FC910190F081E02D63E2C7011995D7018A
:10371000ED91FC910190F081E02D60E0C7011995D9
:10372000D701ED91FC910190F081E02D63E8600FED
:10373000C7011995D701ED91FC910190F081E02D21
:1037400067EFC70119956701BBEBCB0ED11CF601E2
:10375000808191818B7F9927918380830E94C63AD3
:103760005701F3EAAF1AFEEFBF0AD5016D937D93BF
:103770008D939C931397D6018D919C9182FD16C0D9
:10378000C7010E945D330E94C63AF5014080518016
:1037900062807380DC01CB0184199509A609B70901
:1037A000813B9440A105B10530F3A895F6018081D5
:1037B00091818B7F99279183808310E001501109BB
:1037C00084E1809FF001819FF00D1124EE0EFF1E19
:1037D000F701EF53FF4F88C0D701ED91FC910190A5
:1037E000F081E02D60EFC7011995D701ED91FC91B3
:1037F0000190F081E02D602FC7011995D701ED915F
:10380000FC910190F081E02D60E6C7011995D70188
:10381000ED91FC910190F081E02D65E2C7011995D1
:10382000D701ED91FC910190F081E02D60E0C7019E
:103830001995D701ED91FC910190F081E02D65E89B
:10384000600FC7011995D701ED91FC910190F081AE
:10385000E02D67EFC70119956701BBEBCB0ED11CBB
:10386000F601808191818F7E9927918380830E94C8
:10387000C63A5701F3EAAF1AFEEFBF0AD5016D93BE
:103880007D938D939C931397D6018D919C9184FD8C
:1038900016C0C7010E945D330E94C63AD5014D9003
:1038A0005D906D907C90DC01CB0184199509A6098F
:1038B000B709813B9440A105B10530F3A895F60105
:1038C00080819181877F99279183808310E00150C7
:1038D000110984E1809FF001819FF00D1124EE0E0B
:1038E000FF1EF701E753FF4F608171818281938151
:1038F000D2CCD701ED91FC910190F081E02D60EFE9
:10390000C7011995D701ED91FC910190F081E02D4F
:10391000602FC7011995D701ED91FC910190F081BD
:10392000E02D60E6C7011995D701ED91FC9101905A
:10393000F081E02D66E2C7011995D701ED91FC9168
:103940000190F081E02D60E0C7011995D701ED915C
:10395000FC910190F081E02D66E8600FC701199598
:10396000D701ED91FC910190F081E02D67EFC70147
:1039700019956701BBEBCB0ED11CF60180819181BB
:103980008F7D9927918380830E94C63A5701F3EA7D
:10399000AF1AFEEFBF0AD5016D937D938D939C9373
:1039A0001397D6018D919C9185FD16C0C7010E9489
:1039B0005D330E94C63AD5014D905D906D907C902C
:1039C000DC01CB0184199509A609B709813B944014
:1039D000A105B10530F3A895F601808191818F7D15
:1039E00099279183808310E00150110984E1809F21
:1039F000F001819FF00D1124EE0EFF1EF701E3533D
:103A0000FF4F72CFD701ED91FC910190F081E02D35
:103A100060EFC7011995D701ED91FC910190F081FC
:103A2000E02D602FC7011995D701ED91FC91019010
:103A3000F081E02D60E6C7011995D701ED91FC9169
:103A40000190F081E02D67E2C7011995D701ED9152
:103A5000FC910190F081E02D60E0C7011995D7013C
:103A6000ED91FC910190F081E02D67E8600FC701B6
:103A70001995D701ED91FC910190F081E02D67EF50
:103A8000C70119956701BBEBCB0ED11CF6018081F4
:103A90009181877F9927918380830E94C63A57013D
:103AA000F3EAAF1AFEEFBF0AD5016D937D938D93B4
:103AB0009C931397D6018D919C9183FD16C0C701ED
:103AC0000E945D330E94C63AD5014D905D906D9085
:103AD0007C90DC01CB0184199509A609B709813BCB
:103AE0009440A105B10530F3A89510E001501109EB
:103AF00084E1809FF001819FF00D1124EE0EFF1EE6
:103B0000F701EB53FF4FF0CED701ED91FC910190FF
:103B1000F081E02D60EFC7011995D701ED91FC917F
:103B20000190F081E02D602FC7011995D701ED912B
:103B3000FC910190F081E02D60E6C7011995D70155
:103B4000ED91FC910190F081E02D66E3C70119959C
:103B5000D701ED91FC910190F081E02D60E0C7016B
:103B60001995D701ED91FC910190F081E02D66E966
:103B7000600FC7011995D701ED91FC910190F0817B
:103B8000E02D67EFC70119956701BBEBCB0ED11C88
:103B9000F601808191818D7F9927918380830E9496
:103BA000C63A5701F3EAAF1AFEEFBF0AD5016D938B
:103BB0007D938D939C931397D6018D919C9181FD5C
:103BC00016C0C7010E945D330E94C63AF5014080CD
:103BD000518062807380DC01CB0184199509A609AC
:103BE000B709813B9440A105B10530F3A895F601D2
:103BF000808191818D7F99279183808310E001508E
:103C0000110984E1809FF001819FF00D1124EE0ED7
:103C1000FF1EF701E354FF4F608171818281938120
:103C200050CB6E960FB6F894DEBF0FBECDBFDF91BE
:103C3000CF911F910F91FF90EF90DF90CF90BF90A9
:103C4000AF909F908F907F906F905F904F9008956E
:103C50000E94693199270895CF93DF93EC0160E0CA
:103C600089810E94834D8981DF91CF910C94864E8A
:103C7000CF93DF93EC0160E088810E94834D8881BF
:103C8000DF91CF910C94864E1F93CF93DF93EC017D
:103C9000162F61E089810E94834D612F8981DF9118
:103CA000CF911F910C94544DCF93DF93EC018881F9
:103CB0000E94834D88810E942C4D21E0892B09F4BC
:103CC00020E0822FDF91CF910895DC01E62FF0E014
:103CD000EE0FFF1FE955FD4F80818C938181119676
:103CE0008C93119712966C930895FC0110821182A7
:103CF00012820895CF93DF93EC010E949C378BE7EB
:103D000092E099838883FE01E854FF4F1082E054CB
:103D1000F1098FE1DF01982F1D929A95E9F77F96BF
:103D2000DF011D928A95E9F7CA54DF4F1982188284
:103D3000DF91CF910895CF93DF93EC0140E855E2F6
:103D400060E070E00E94963660E08F8DDF91CF9149
:103D50000C94834D1F93CF93DF93EC018BA18823A9
:103D600079F089A18F3019F48AE396E007C0803199
:103D700019F484E797E002C087ED96E00E940A4DAF
:103D800060E0CE014F9690DF182F8BA1882311F0B1
:103D9000CE01D1DF81E08127DF91CF911F9108957E
:103DA000CF93DF93EC01D6DF8823E9F0CE010E94A8
:103DB0003E3118161906F4F4E881F9810680F7817E
:103DC000E02DCE0119958F3F9105A4F4FE01E65830
:103DD000FF4FC558DF4F009719F4888180830AC0D0
:103DE0008083888307C0FE01E658FF4F1082C558C4
:103DF000DF4F1882DF91CF9108951F920F920FB677
:103E00000F9211240BB60F920F931F932F933F9392
:103E10004F935F936F937F938F939F93AF93BF93D2
:103E2000CF93EF93FF9382E00E942C4DC82F809197
:103E3000C7049091C80401969093C8048093C70466
:103E400080912D05843618F085E08093C20490910E
:103E5000C204933079F018F4923039F072C0943083
:103E600011F1953009F44AC06CC0C1116AC01092BA
:103E70002D0529C0C13009F064C0E0912D0581E015
:103E80008E0F80932D05F0E08091C7049091C804B7
:103E9000EF53FB4F80871092C8041092C70484E050
:103EA0008093C2044EC0C11114C0E0912D0581E081
:103EB0008E0F80932D05F0E08091C7049091C80487
:103EC000EF53FB4F80871092C8041092C70483E021
:103ED000E7CF8091C7049091C8048536910588F199
:103EE00085E08093C2040E94C63A6093C304709335
:103EF000C4048093C5049093C60423C00E94C63AAC
:103F00000091C3041091C4042091C5043091C604EB
:103F1000DC01CB01801B910BA20BB30B893C9105FB
:103F2000A105B10540F010922D051092C804109221
:103F3000C70482E0B5CFC11104C01092C80410922A
:103F4000C704FF91EF91CF91BF91AF919F918F9156
:103F50007F916F915F914F913F912F911F910F91A1
:103F60000F900BBE0F900FBE0F901F901895DF9211
:103F7000EF92FF920F931F93CF93DF93D42ED52F01
:103F8000C22F8C010E5B1F4FF801808191E090934E
:103F90007705809399051092780510929A0581E132
:103FA00098E00E949639813011F580E00E94DB2D67
:103FB000811125C06C2FF80180810E94382EED2CD4
:103FC000FD2E00E010E0D0E090912E0580912F05AD
:103FD000981779F00C171D0764F40F5F1F4F81E1EC
:103FE00098E00E944B39F70181937F01EDCF8FEF6D
:103FF00006C081E00C171D0709F480E08195DF9170
:10400000CF911F910F91FF90EF90DF9008954F9205
:104010005F926F927F928F929F92AF92BF92CF9258
:10402000DF92EF92FF920F931F93CF93DF93CDB761
:10403000DEB727970FB6F894DEBF0FBECDBF8C0159
:1040400080E090E0A3E8B2E4F80186839783A0873C
:10405000B187128613861486158616861786108AEF
:10406000118A128A138A148A158A168A178A108E60
:10407000118E128E138E148E158E168E178E10A220
:1040800011A213A212A215A214A217A216A210A680
:1040900011A612A613A614A615A616A617A610AA50
:1040A00011AA12AA13AA0E94852F60E273E080E091
:1040B00090E00E94B04E1B82AE014D5F5F4F6BE6F9
:1040C000C8010E94AB2F81E08A83AE014E5F5F4F33
:1040D0006AE1C8010E94AB2F88E08983AE014F5F7F
:1040E0005F4F6BE1C8010E94AB2F54EFE52EFF2418
:1040F000F394812C912C5401412C512C32011C82BF
:104100001D821E821F826801F4E3CF0ED11C26E0BF
:10411000A60163E4C8012BDFF80184A990E0982F81
:10412000882725A9822B092E000CAA0BBB0B2C81FA
:104130003D814E815F81280F391F4A1F5B1F2C83F1
:104140003D834E835F8386A990E0982F882727A917
:10415000822B092E000CAA0BBB0B480E591E6A1E9F
:104160007B1E80AD90E0982F882721AD822B092EF1
:10417000000CAA0BBB0B880E991EAA1EBB1E31E0B9
:10418000E31AF10821F684EFC82EDD24D394E12C44
:10419000F12C6C817D818E819F81A70196010E9407
:1041A000F969CA01B9010E94D068F80160A771A736
:1041B00082A793A7C301B201A70196010E94F969E2
:1041C000CA01B9010E94D068F80164A775A786A743
:1041D00097A7C501B401A70196010E94F969CA0118
:1041E000B9010E94D068F80160AB71AB82AB93ABB0
:1041F00027960FB6F894DEBF0FBECDBFDF91CF91EB
:104200001F910F91FF90EF90DF90CF90BF90AF90F4
:104210009F908F907F906F905F904F900895EF9256
:10422000FF920F931F93CF93DF93FC016F3F7105B4
:1042300019F014F06FEF70E0EB0161307F4F14F470
:10424000C1E0DFEF808591858C179D07D1F1D18783
:10425000C087D583C483DF01A059BF4FCF018F58DA
:104260009F4F7C018F0101591F4FD7FF12C060E0A3
:104270008C910E94544D8FE090E00197F1F761E03E
:10428000F70180810E94544D662777276C1B7D0BB8
:104290000EC061E08C910E94544D8FE090E0019738
:1042A000F1F760E0F70180810E94544DBE01F801F2
:1042B0008081DF91CF911F910F91FF90EF900C942F
:1042C000BF4DDF91CF911F910F91FF90EF90089517
:1042D0002F923F924F925F926F927F928F929F9216
:1042E000AF92BF92CF92DF92EF92FF920F931F9304
:1042F000CF93DF93CDB7DEB72A970FB6F894DEBF22
:104300000FBECDBF9A878987DC0196966D917D910E
:104310008D919C91999712960D911C911397569699
:104320002D913D914D915C9159972D833E834F8303
:1043300058870E94D0686B017C01B801110F880B6F
:10434000990B0E94D0682D813E814F8158850E9433
:104350002F699B01AC01C701B6010E94806320E078
:1043600030E044EB53E40E942F690E94E863E98542
:10437000FA85628F738F848F958F0E94C63A098564
:104380001A850A581F4FD801CD90DD90ED90FC9012
:10439000DC01CB018C199D09AE09BF094597A10528
:1043A000B10508F467C00E94C63A6B017C01E9853B
:1043B000FA8586A097A0A0A4B1A482A193A1A4A1EC
:1043C000B5A12280338026893789408D518D29837C
:1043D0003A834B835C83A5019401281B390B4A0B5C
:1043E0005B0BCA01B9010E94D0682B013C01D801C6
:1043F0008D919C91C81AD90AB60180E090E00E9484
:10440000CE689B01AC0160E070E08AE794E40E9412
:1044100080639B01AC01C301B2010E942F6920E0BF
:1044200030E040E752E40E942F696B017C01B1014A
:10443000330C880B990B0E94D06829813A814B81FB
:104440005C810E942F699B01AC01C701B6010E94EB
:104450008063E985FA85628773878487958782A25E
:1044600093A2A4A2B5A20E94C63AF8016083718308
:1044700082839383A985BA859C90B1E09B1278C30F
:104480000E94C63A09851A8506581F4FF801C08058
:10449000D180E280F380DC01CB018C199D09AE094B
:1044A000BF098997A105B10508F433C40E94C63A33
:1044B000D8016D937D938D939C931397E985FA852D
:1044C0008181811179C2868D978DA0A1B1A1028DC4
:1044D000138D248D358DBC01CD01601B710B820BBA
:1044E000930B0E94D0686B017C01A984BA84FAE620
:1044F000AF0EB11CD5018C9109851A850C581F4F40
:104500008111B4C1E985FA85E559FF4F808120E02A
:1045100030E0A901882339F0C701B6010E94CA68BA
:1045200087FF33C006C0C701B6010E949164181608
:1045300064F5E985FA852285338544855585EE5AEB
:10454000FF4F60817181828193810E942F69DC011C
:10455000CB01B058E985FA85E65AFF4F80839183F5
:10456000A283B38360817181828193810E94E86319
:104570009B01D8016D937C93F5019082A985BA8542
:1045800015967C936E931497EEC220E030E0A9015B
:10459000C701B6010E94916426013701181624F064
:1045A00077FA709477F87094E985FA85668577854F
:1045B0008089918920E030E040EC50E40E942F692E
:1045C0009B01AC01C301B2010E94916487FFC1C38A
:1045D00020E030E0A901C701B6010E9491641816DD
:1045E0005CF420E030E040E251E4C701B6010E94F3
:1045F000916418165CF03AC120E030E040E251ECE2
:10460000C701B6010E94CA6887FF30C1E985FA85F3
:10461000468457846088718820E030E040E251E4AD
:10462000C701B6010E94B9624B015C0120E030E095
:1046300040EC50E4C301B2010E942F69A50194012E
:104640000E942F6920E030E0A9010E9491641816B1
:104650009CF4A985BA851E966D917D918D919C9152
:10466000519720E030E040EC50E40E942F69A50112
:1046700094010E942F6911C0E985FA8566857785C6
:104680008089918920E030E040EC50E40E942F695D
:10469000A50194010E942F6990580E94316520E085
:1046A00030E040EC50E40E9480632B013C01A9857E
:1046B000BA851A968D909D90AD90BC901D9720E084
:1046C00030E0A901C701B6010E949164A7019601DB
:1046D00018160CF05058E985FA85EE5AFF4F808184
:1046E0009181A281B38189839A83AB83BC83C70103
:1046F000B6010E9480639B01AC01C301B2010E941C
:104700002F699B01AC01C501B4010E94B9629B01F4
:10471000AC0169817A818B819C810E942F692B0178
:104720003C0120E030E040EA51EC0E94CA6887FD7D
:1047300011C020E030E040EA51E4C301B2010E9420
:10474000916418166CF4412C512C40EA642E41E41B
:10475000742E06C0412C512C50EA652E51EC752E5A
:10476000D8016D917C91072E000C880B990B0E944B
:10477000D068A984BA84BAE5AB0EB11CF501608398
:104780007183828393836081718182819381A3018C
:1047900092010E94B962D5016D937D938D939C9394
:1047A000139720E030E0A901C701B6010E9491648F
:1047B00087FD24C0F501608171818281938120E0B1
:1047C00030E048EC51E40E94CA6887FD12C0D50170
:1047D0006D917D918D919C9120E030E04FE753E405
:1047E0000E949164181624F580E090E0AFE7B3E4EE
:1047F0002EC080E090E0A8ECB1E429C0D5016D9115
:104800007D918D919C9120E030E04FE753EC0E9428
:10481000CA6887FD13C0F50160817181828193812F
:1048200020E030E048EC51EC0E94916418165CF0F6
:10483000F50180819181A281B38109C080E090E07F
:10484000AFE7B3EC04C080E090E0A8ECB1ECF50178
:1048500080839183A283B3836081718182819381FC
:104860000E94E863F80171836083A2C081E0D501F2
:104870008C93E985FA85E258FF4F0190F081E02D95
:10488000309769F0A985BA85A459BF4F6C9170E043
:10489000A985BA85AD58BF4F8C9190E01995E985EF
:1048A000FA852285338544855585EE5AFF4F608110
:1048B0007181828193810E942F694B015C0120E00C
:1048C00030E040EA51EC0E94CA6887FD11C020E048
:1048D00030E040EA51E4C501B4010E949164181629
:1048E0006CF4812C912C20EAA22E21E4B22E06C079
:1048F000812C912C30EAA32E31ECB32EE985FA8578
:10490000E65BFF4F2081318142815381C701B601AF
:104910000E942F69E984FA84FAE5EF0EF11CD701B1
:104920006D937D938D939C9313976D917D918D9154
:104930009C91A50194010E94B962F7016083718383
:1049400082839383608171818281938120E030E052
:104950004FE753EC0E94CA6887FD13C0D7016D91E1
:104960007D918D919C9120E030E04FE753E40E94CF
:10497000916418165CF0F70180819181A281B38166
:1049800009C080E090E0AFE7B3EC04C080E090E0C5
:10499000AFE7B3E4F70180839183A283B38360819F
:1049A0007181828193810E94E863D8016D937C9329
:1049B000F80120813181D7C0A985BA8511968C91E3
:1049C0001197813009F0CDC01A966D917D918D912E
:1049D0009C911D971E962D913D914D915C91519703
:1049E0009A96CD90DD90ED90FC909D970E94B962D3
:1049F0009B01AC01C701B6010E942F696B017C01CC
:104A000020E030E048EC51EC0E94CA6887FD11C0FC
:104A100020E030E048EC51E4C701B6010E94916407
:104A200018166CF4C12CD12C88ECE82E81E4F82EF9
:104A300006C0C12CD12C98ECE92E91ECF92E0985F9
:104A40001A850C581F4FF80160817181072E000CE8
:104A5000880B990B0E94D068A985BA85DA966D9368
:104A60007D938D939C93DD97DA966D917D918D91D9
:104A70009C91DD97A70196010E94B962E985FA85AC
:104A800062AF73AF84AF95AF5F01FAE6AF0EB11CB2
:104A9000D5018C91E985FA85882329F012AE13AEF1
:104AA00014AE15AE1FC0668577858089918920E098
:104AB00030E0A9010E94CA68811114C020E030E0F2
:104AC000A901C701B6010E94916418160CF0FBC140
:104AD00020E030E040E751E4C701B6010E94CA6817
:104AE00087FDFCC1A985BA85DA966D917D918D917E
:104AF0009C91DD9720E030E04FE753EC0E94CA68BC
:104B000087FD15C0E985FA8562AD73AD84AD95ADBD
:104B100020E030E04FE753E40E949164181664F0FF
:104B2000E985FA8582AD93ADA4ADB5AD09C080E04D
:104B300090E0AFE7B3EC04C080E090E0AFE7B3E40F
:104B4000E985FA8582AF93AFA4AFB5AF62AD73AD1F
:104B500084AD95AD0E94E8639B01D8016D937C9371
:104B600002C020E030E0E985FA8535832483D1C096
:104B7000E985FA858081823009F0C3C10E94C63A76
:104B800009851A8506581F4FD801CD90DD90ED900C
:104B9000FC90DC01CB018C199D09AE09BF098997F6
:104BA000A105B10508F4B5C00E94C63AF8016083BA
:104BB000718382839383A985BA8514966D917C91C4
:104BC000159716960D911C911797072E000C880BC0
:104BD000990B0E94D0682DEC3CEC4CE45FE30E9402
:104BE0002F696B017C01B801110F880B990B0E9492
:104BF000D0682DEC3CEC4CE45EE30E942F699B01F5
:104C0000AC01C701B6010E94BA6220E030E0A90100
:104C10000E94916487FD2DC0E985FA8564817581C4
:104C200006811781072E000C880B990B0E94D06813
:104C30002DEC3CEC4CE45FE30E942F696B017C019E
:104C4000B801110F880B990B0E94D0682DEC3CEC39
:104C50004CE45EE30E942F699B01AC01C701B601E1
:104C60000E94BA6220E030E040E05FE30E94BA6256
:104C700030C0A985BA8514966D917C9115971696CA
:104C80000D911C911797072E000C880B990B0E9411
:104C9000D0682DEC3CEC4CE45FE30E942F696B0183
:104CA0007C01B801110F880B990B0E94D0682DEC84
:104CB0003CEC4CE45EE30E942F699B01AC01C70110
:104CC000B6010E94BA6220E030E040E05FE30E945B
:104CD000B9620E94E863E985FA85758364838481FB
:104CE0009581181619061CF48481958109C0A9853F
:104CF000BA8514968D919C911597919581959109FE
:104D00000B973CF4E985FA8586819781892B09F414
:104D1000F1C0A985BA8514966D917C911597CD0146
:104D20002A960FB6F894DEBF0FBECDBFDF91CF91AC
:104D30001F910F91FF90EF90DF90CF90BF90AF90B9
:104D40009F908F907F906F905F904F903F902F90AB
:104D500066CAA985BA851A962D913D914D915C91AF
:104D60001D9729833A834B835C831E968D909D907B
:104D7000AD90BC90519720E030E0A901C701B60189
:104D80000E949164181624F0A7019601505802C0A1
:104D9000A7019601A985BA859A964D905D906D9070
:104DA0007C909D97C701B6010E9480639B01AC0176
:104DB000C501B4010E942F699B01AC0169817A8110
:104DC0008B819C810E94B9629B01AC01C301B2013D
:104DD0000E942F696B017C0120E030E048EC51EC2F
:104DE0000E94CA6887FD11C020E030E048EC51E421
:104DF000C701B6010E94916418166CF4C12CD12C25
:104E000068ECE62E61E4F62E06C0C12CD12C78ECBD
:104E1000E72E71ECF72EF80160817181072E000CEE
:104E2000880B990B0E94D068A985BA85DA966D9394
:104E30007D938D939C93DD97DA966D917D918D9105
:104E40009C91DD97A70196010E94B962E985FA85D8
:104E500062AF73AF84AF95AF62AD73AD84AD95AD06
:104E600020E030E04FE753EC0E94CA6887FD17C08E
:104E7000A985BA85DA966D917D918D919C91DD978A
:104E800020E030E04FE753E40E949164181664F08C
:104E9000E985FA8582AD93ADA4ADB5AD09C080E0DA
:104EA00090E0AFE7B3EC04C080E090E0AFE7B3E49C
:104EB000E985FA8582AF93AFA4AFB5AF62AD73ADAC
:104EC00084AD95AD70CD20E030E040E751ECC701F6
:104ED000B6010E94916418160CF004CEA985BA851B
:104EE000DA961D921D921D921C92DD9781E0F501CC
:104EF0008083F8CDA985BA8515961C921E921497C9
:104F000008CF2A960FB6F894DEBF0FBECDBFDF9153
:104F1000CF911F910F91FF90EF90DF90CF90BF90B6
:104F2000AF909F908F907F906F905F904F903F9049
:104F30002F9008958F929F92AF92BF92CF92DF925F
:104F4000EF92FF921F93CF93DF93EC01FC01ED589A
:104F5000FF4F608315E0169FF0011124E75AFD4FC3
:104F600080817E019DE6E90EF11CD7018C934E01F4
:104F7000BEE68B0E911C9181D4019C931196928177
:104F80009C935E01B0E7AB0EB11C9381D5019C935D
:104F90006E01B1E7CB0ED11C9481F601908362E0E3
:104FA0000E94834D62E0D4018C910E94834D61E0A8
:104FB000F50180810E94834D61E0D6018C910E94B1
:104FC000834D1EA21FA218A619A684EF91E099870F
:104FD0008887188289E090E09B838A8388E691E144
:104FE000ADE1B2E48E8B9F8BA88FB98FF7018081E2
:104FF000823119F4359610831AC0833111F484E09C
:1050000003C0843131F483E0FE01EE58FF4F80830A
:105010000EC0853111F482E0F7CF833011F481E0C6
:10502000F3CF823021F4FE01EE58FF4F108260E092
:1050300070E0CE01F4D81EA21FA218A619A60E94E5
:10504000C63ACA58DF4F688379838A839B83DF918E
:10505000CF911F91FF90EF90DF90CF90BF90AF90D6
:105060009F908F9008954F925F926F927F928F9250
:105070009F92AF92BF92CF92DF92EF92FF920F93E7
:105080001F93CF93DF93CDB7DEB76E970FB6F8942B
:10509000DEBF0FBECDBF4C012A013B0120E030E056
:1050A00048E453E4C301B2010E94916418168CF0E5
:1050B00020E030E048E453ECC301B2010E94CA682A
:1050C00087FF0DC0412C512C28E4622E23EC722E58
:1050D00006C0412C512C98E4692E93E4792ECE0120
:1050E00001965C018EE0F50111928A95E9F76E0157
:1050F000FFE0CF0ED11C8AE0F60111928A95E9F704
:105100009E01275E3F4F86E0F90111928A95E9F7EB
:10511000F4018481898F85E08A8F4B8E5C8E6D8E41
:105120007E8E16E0E12EF12C00E010E04EE050E023
:1051300060E070E0C50124D62EE030E0A601B501A4
:10514000C401E1D5C601E1D443D380E06E960FB629
:10515000F894DEBF0FBECDBFDF91CF911F910F91AD
:10516000FF90EF90DF90CF90BF90AF909F908F9087
:105170007F906F905F904F9008952F923F924F9243
:105180005F926F927F928F929F92AF92BF92CF92D7
:10519000DF92EF92FF920F931F93CF93DF93CDB7E0
:1051A000DEB7A8970FB6F894DEBF0FBECDBF5C0187
:1051B0006A017B012801390120E030E048E453E432
:1051C000C301B2010E94916418168CF020E030E017
:1051D00048E453ECC301B2010E94CA6887FF0DC0C6
:1051E000412C512C28E4622E23EC722E06C0412C57
:1051F000512C98E4692E93E4792E20E030E0A90147
:10520000C701B6010E94CA68811105C0B301A2019D
:10521000C50129DF6DC0CE0101964C0182E1F40188
:1052200011928A95E9F78AE01E01FDE12F0E311CEB
:10523000F101982F11929A95E9F79E012D5E3F4F4B
:10524000F90111928A95E9F7F50184818B8B81E14F
:105250008C8BCD8ADE8AEF8AF88E498E5A8E6B8EC1
:105260007C8E1AE0E12EF12C00E010E042E150E0EB
:1052700060E070E0C40184D522E130E0A101B40116
:10528000C50141D5C10141D4A3D218A61FA24091A6
:10529000210D5091220D6091230D7091240D42300B
:1052A00051056105710510F042E050E0C090250DF8
:1052B000D090260DC114D104B1F0B601CE0187966D
:1052C0000E943568C6010E94A8661092260D1092B1
:1052D000250D1092210D1092220D1092230D109287
:1052E000240D10921F0D81E098A5911101C080E05E
:1052F000A8960FB6F894DEBF0FBECDBFDF91CF9159
:105300001F910F91FF90EF90DF90CF90BF90AF90E3
:105310009F908F907F906F905F904F903F902F90D5
:1053200008958F929F92AF92BF92CF92DF92EF92A9
:10533000FF920F931F93CF93DF93CDB7DEB768979C
:105340000FB6F894DEBF0FBECDBF4C018AE05E0100
:105350002BE0A20EB11CF501282F11922A95E9F736
:10536000FE0131966F0111928A95E9F7F40184816B
:105370008F8B87E0888F12E0E12EF12C00E010E0A7
:105380009E01295E3F4F4AE050E060E070E0C501B9
:10539000F7D42AE030E0A601B501C401B4D4C601B7
:1053A000B4D31E8A1D8A4091210D5091220D609127
:1053B000230D7091240D423051056105710510F0E7
:1053C00042E050E00091250D1091260D01151105C8
:1053D000B1F0B801CE0145960E943568C8010E941F
:1053E000A8661092260D1092250D1092210D109294
:1053F000220D1092230D1092240D10921F0D81E0AA
:105400009E89911101C080E068960FB6F894DEBFC6
:105410000FBECDBFDF91CF911F910F91FF90EF9005
:10542000DF90CF90BF90AF909F908F900895809124
:10543000570490915604853561F491110AC080910A
:1054400055048F3FE1F481E0809354048093560427
:1054500016C080935504992391F0E0915404E230F2
:1054600019F48093530407C0E33028F0909153045B
:10547000915090935304F0E0E15EFB4F8083809164
:1054800054048F5F843318F48093540404C0109242
:1054900054041092560480915604882371F0809130
:1054A000530481110AC080915404843030F010926A
:1054B00056040E94EC121092540481E00895CF9299
:1054C000DF92EF92FF920F931F93CF93DF93EB0145
:1054D0007B0124E0E20EF11C8B016C01C61AD70A95
:1054E000C601800F911F0E94E369F80181938F012B
:1054F000EE15FF05A9F7CE01DF91CF911F910F9116
:10550000FF90EF90DF90CF900895AF92BF92CF922F
:10551000DF92EF92FF920F931F93CF93DF931F922F
:10552000CDB7DEB75C017B018B016C0184E0C80E56
:10553000D11CF80161918F01C50169830E94E36963
:105540006981681719F0C5010E94EB69FFEFAF1A76
:10555000BF0AAC14BD0469F7C7010F90DF91CF916A
:105560001F910F91FF90EF90DF90CF90BF90AF9081
:105570000895CF93DF93CDEBDBE061E088850E9457
:10558000544D61E089850E94544D60E089850E94F8
:10559000544D60E08885DF91CF910C94544DCF93AA
:1055A000DF9300D01F92CDB7DEB79C01DE011196CC
:1055B000AD0194E09A0FF90181919F01FA01819365
:1055C000AF019E13F8CF80E22C91223208F08C9329
:1055D000EC91F0E0E855FA4FE491ED939A13F4CF93
:1055E000C8DF80E40E948A420E947442C2DF809138
:1055F000C20B0E948A4289810E948A428A810E944B
:105600008A428B810E948A428C810E948A420E9437
:105610007442AFDF8091C30B0E948A420F900F90BB
:105620000F900F90DF91CF910C9474420F931F93C2
:10563000CF93DF938091CB0B9091CC0BEC01CC0FEF
:10564000DD1FC80FD91F0091CD0B1091CE0BAE01FD
:10565000B8018091CF0B9091D00B0E942868892BC4
:1056600009F43BC0A091D10BB091D20B8091D50B26
:105670003FB7F8942C91982F90959223822BF801A4
:10568000CE0FDF1FEC17FD0781F0219148E08C93CE
:1056900000C027FF9C93220F00C000C000C008F488
:1056A0009C9300C04A9599F7EDCF3FBF4091CB0B3B
:1056B0005091CC0BCA01880F991F480F591F609158
:1056C000CD0B7091CE0B8091CF0B9091D00B0E949F
:1056D00035688BEC97E00197F1F7DF91CF911F913F
:1056E0000F910895E0E0F0E02091CB0B3091CC0BCE
:1056F000E217F30710F5DF01BB27A217B307D8F4B1
:105700002E2F220F2E0F30E0A091CD0BB091CE0B9B
:10571000A20FB31F6C93A091CD0BB091CE0BA20F33
:10572000B31F11968C93A091CD0BB091CE0BA20F0D
:10573000B31F12964C933196D7CF81E0089540E085
:1057400060E080E0CFDF20E030E042E051E0809197
:10575000CB0B9091CC0B28173907E8F4822F880FD8
:10576000820F90E0E091CF0BF091D00BE80FF91F82
:105770004083E091CF0BF091D00BE80FF91F11821D
:105780006091CF0B7091D00BFB01E80FF91F528392
:105790002F5F3F4FDCCFEEE8F5E0E491E093D50BCF
:1057A000E8E4F5E0E491F0E0EE0FFF1FEE5FFA4F62
:1057B000859194919093D20B8093D10B61E08CE210
:1057C0000E94834D1092C90B82E08093CA0B08950A
:1057D0002F923F924F925F926F927F928F929F9201
:1057E000AF92BF92CF92DF92EF92FF920F931F93EF
:1057F000CF93DF931F92CDB7DEB705E010E086E0D0
:10580000E82EF12C93E0C92ED12C22E0A22EB12C4F
:1058100034E0832E912C80911B0D90911C0DA09152
:105820001D0DB0911E0D4091170D5091180D6091F6
:10583000190D70911A0D481759076A077B0709F46B
:105840004EC1FC01EB5EF34F22810196A11DB11DFB
:105850009927AA27BB2780931B0D90931C0DA0931B
:105860001D0DB0931E0D8091150C9091160C833078
:10587000910569F5E091280DF091290DEF5DF24F4A
:1058800020838091280D9091290DA0912A0DB0912F
:105890002B0D0196A11DB11D84309105A105B10507
:1058A00049F08093280D9093290DA0932A0DB09371
:1058B0002B0DB1CF1092280D1092290D10922A0DA8
:1058C00010922B0D9092160C8092150CA4CF843060
:1058D0009105ACF48130910541F4253A09F09BCF54
:1058E000B092160CA092150C96CF029709F093CFA8
:1058F0002093200DD092160CC092150C8CCF8530C1
:10590000910509F04DC02093270D2090210D309076
:10591000220D4090230D5090240D8091250D9091E3
:10592000260DFC0140E050E0BA0130E0421553057D
:105930006405750539F0A1913A274F5F5F4F6F4FAE
:105940007F4FF4CF231739F121E030E03093160C6C
:105950002093150C009731F00E94A8661092260D36
:105960001092250D10922C0D10922D0D10922E0DCF
:1059700010922F0D1092280D1092290D10922A0DC1
:1059800010922B0D1092210D1092220D1092230DCA
:105990001092240D38C0F092160CE092150C3BCFFB
:1059A00085309105ACF1069709F035CF2A3509F419
:1059B00092C08091250D9091260D009731F00E94A4
:1059C000A8661092260D1092250D1092210D1092AE
:1059D000220D1092230D1092240D81E090E09093FF
:1059E000160C8093150C10922C0D10922D0D109208
:1059F0002E0D10922F0D1092280D1092290D10923D
:105A00002A0D10922B0D1092200D1092270D03CF0E
:105A100040902C0D50902D0D60902E0D70902F0DFC
:105A2000411451046104710401F58091210D90919C
:105A3000220DA091230DB091240D8F3F9105A1055A
:105A4000B10541F038F021E030E03093160C20939E
:105A5000150C88CF019629830E9413669093260D1A
:105A60008093250D2981892B71F38091250D9091CB
:105A7000260DFC01E40DF51D208380912C0D9091E5
:105A80002D0DA0912E0DB0912F0D0196A11DB11DD0
:105A900080932C0D90932D0DA0932E0DB0932F0D70
:105AA0004091210D5091220D6091230D7091240D94
:105AB00084179507A607B70709F0ADCE10922C0DF5
:105AC00010922D0D10922E0D10922F0D1093160C7A
:105AD0000093150CA0CE31E030931F0D7ECF809146
