:1000000018C300000C94894D0C94BA4D0C94EB4D20
:100010000C941C4E0C944D4E0C947E4E0C94AF4E92
:100020000C94E04E0C945F4B0C945F4B0C945F4B24
:1000300031C300000C9482322DC300002BC300009A
:1000400029C300000C94784525C3000023C3000099
:1000500021C300001FC300001DC300000C94114FFA
:1000600019C300000C94A6530C94DC5313C3000076
:1000700011C300000FC300000DC300000BC300003C
:100080000C94A54507C3000005C3000003C300008E
:1000900001C30000FFC20000FDC200000C944049F3
:1000A000F9C20000F7C200000C94D245F3C2000070
:1000B000F1C20000EFC20000EDC200000C94FF4549
:1000C000E9C20000E7C20000E5C200000C945154F0
:1000D0000C948754DFC200000C94FC540C943255ED
:1000E000D9C20000E41720164D16631663167A165F
:1000F000D3176316CA18CA18CA18CA18CA18CA1851
:10010000CA18D7169716F516CA18CA18CA18241787
:100110006C1872179217B2175217CA18CA18CA1851
:10012000F217F917CA18CA18CA18CA181B180818DB
:10013000CA18CA18CA18CA18CA18CA18CA18CA18AF
:10014000CA18CA18CA18CA1853185C18CA18CA1884
:10015000CA18CA18CA18CA18CA18CA18C4188218DD
:10016000634D2D4D354D414D4E4D6F4D7C4D655080
:100170006A506F5079508350FC508D5095509D506F
:10018000A750B150BB50CA50D450FC50DE50E8507C
:10019000F2501E512151105114511A5158512551EC
:1001A00029512F51335137513D51415145515851EA
:1001B0004B514F515351084AD73B3BCE016E84BC43
:1001C000BFFDC12F3D6C74319ABD56833DDA3D00B1
:1001D000C77F11BED9E4BB4C3E916BAAAABE0000FA
:1001E00000803F08000000BE922449123EABAAAA3C
:1001F0002ABECDCCCC4C3E00000080BEABAAAAAA41
:100200003E00000000BF000000803F000000000032
:10021000084178D3BB4387D1133D190E3CC3BD427F
:1002200082AD2B3E68EC8276BED98FE1A93E4C8030
:10023000EFFFBE01C4FF7F3F0000000000076342E4
:1002400036B79BD8A71A39685618AEBAAB558C1D6D
:100250003CB7CC5763BD6DEDFD753EF6177231BFEF
:10026000000000803F003F065B4F666D7D077F6F9B
:10027000777C395E7971BF86DBCFE6EDFD87FFEFD6
:10028000F7FCB9DEF9F100407C447C007C005C5452
:100290007454547C70107C74545C7C545C40407C7E
:1002A0007C547C74547C000400202020000000203A
:1002B00000000000000030007C82827C003100429F
:1002C000FE0200003200468A92620033004492929D
:1002D0006C0034001C64FE04003500F292928C0025
:1002E00036007C92924C003700C08E90E0003800BF
:1002F0006C92926C0039006492927C006100042A36
:100300002A1E006200FE12120C0063000C12121270
:100310000064000C1212FE0065001C2A2A180066F8
:1003200000103E50500067000815151E006800FEC2
:10033000101E00006900002E0000006A0002012E5D
:1003400000006B00FE081412006C0000FE020000AA
:100350006D001E100E100E6E001E10100E006F00AD
:100360000C12120C0070001F12120C0071000C1203
:10037000121F0072001E08101000730012292512AF
:10038000007400103E12000075001C02021E007670
:100390001804020418007718061C061800780012CA
:1003A0000C0C120079001805051E007A0012161AAE
:1003B000120041007E88887E004200FE92926C000E
:1003C00043007C828244004400FE82827C0045001F
:1003D000FE929282004600FE9090800047007C8250
:1003E000925C004800FE1010FE00490082FE820070
:1003F000004A000C0202FC004B00FE1028C6004C14
:1004000000FE020202004D00FE403040FE4E00FEA3
:10041000403008FE4F007C8282827C5000FE90902B
:10042000600051007C828A847A5200FE98946200B7
:1004300053006492924C00540080FE80800055006E
:10044000FC0202FC005600F00C020CF05700FE0407
:100450003804FE5800C63838C60059C0201E20C0D7
:10046000005A00869AB2C2002C00010E0C00002E29
:10047000000006060000257254781E2A4E21000056
:100480007A0000003F00204A3000002D00101010BC
:1004900010002B08083E0808002F00020C30400016
:1004A0002A2214081422003A00001400000022003E
:1004B000C000C000002328FE28FE28002800007C81
:1004C000820000290000827C00003B000224000022
:1004D000007E0040804080003B0002240000003D80
:1004E0000028282828007C0000FE0000003E008232
:1004F000442810003C001028448200400000000006
:10050000000000000A0B02090C0D0E08070304018D
:1005100000000000000000000000000000000000DB
:1005200000000000000000000000000000001211A8
:1005300010000000000000000000000000000000AB
:100540000000000000000000010210202008081038
:100550002040102040800201020108040201010233
:10056000040810204080804020100804020180040C
:100570000201804020100804020108040201010267
:100580000408102040800102040810204080050566
:100590000505070508080808020202020A0A0808F9
:1005A0000404040401010101010101010303030327
:1005B00003030303040707070C0C0C0C0C0C0C0CB6
:1005C0000202020206060606060606060B0B0B0BC7
:1005D0000B0B0B0B000020002300260029002C0031
:1005E0002F00320000010000030106010901000094
:1005F0002200250028002B002E00310034000201CB
:100600000000050108010B01000021002400270063
:100610002A002D0030003300010100000401070111
:100620000A01AB144D245F480E54B954645520158B
:10063000512411241FBECFEFD1E2DEBFCDBF00E0B9
:100640000CBF13E0A0E0B2E0EEE4FEEB00E00BBF75
:1006500002C007900D92A23CB107D9F72EE0A2ECA0
:10066000B3E001C01D92AE3AB207E1F716E0CEE268
:10067000D6E000E006C022970109FE010BBF0E94F0
:10068000515CC232D10780E00807A9F70E94A85543
:100690000C94165FB5CCCF92DF92EF92FF920F933E
:1006A0001F93E82FF92F05C00150110921093109C5
:1006B00061F1908196239417B9F305C00150110997
:1006C0002109310911F1908196239413F7CFC12CA0
:1006D000D12CE12CF12C0AC08FEFC81AD80AE80AF5
:1006E000F80A0C151D052E053F0579F0808186233B
:1006F000841791F36C2D7D2D8E2D9F2D1F910F91C1
:10070000FF90EF90DF90CF90089560E070E080E080
:1007100090E01F910F91FF90EF90DF90CF900895A0
:1007200083ED96E00E945A240E94C751892B21F440
:1007300083ED96E00C94732483ED96E00C9465248D
:1007400082E596E00E945A240E94C751892B21F429
:1007500082E596E00C94732482E596E00C9465247F
:1007600081ED95E00E945A240E94C751892B21F403
:1007700081ED95E00C94732481ED95E00C94652453
:1007800080E595E00E945A240E94C751892B21F4EC
:1007900080E595E00C94732480E595E00C94652445
:1007A0000C94085F0C94005FCF92DF92EF92FF925F
:1007B0000F931F93CF93DF931F921F92CDB7DEB796
:1007C0006C018B017C0184E0E80EF11CC601698399
:1007D0007A830E94005FF80181938F01FFEFCF1AA7
:1007E000DF0A69817A81CE14DF0481F7CB010F9093
:1007F0000F90DF91CF911F910F91FF90EF90DF90BD
:10080000CF900895EF92FF920F931F93CF93DF93B2
:100810001F92CDB7DEB77C01FC0100811181C801B8
:1008200069830E94005F6981681719F0C8010E94FE
:10083000085FC7010F90DF91CF911F910F91FF903B
:10084000EF900895BF92CF92DF92EF92FF920F93B5
:100850001F93CF93DF9300D0CDB7DEB78C01B62EB8
:10086000E62EF72E6C0184E0C80ED11CF7016191D1
:100870007F011A830983CE0101967B83C3DF0F5F5B
:100880001F4F7B810C151D0589F78B2D972F0F901E
:100890000F900F90DF91CF911F910F91FF90EF90EC
:1008A000DF90CF90BF900895CF92DF92EF92FF92AA
:1008B0000F931F93CF93DF931F921F92CDB7DEB795
:1008C0006C018C0183E5E82EF12CF80161918F0118
:1008D000FA82E982CE01019695DFFFEFEF1AFF0A57
:1008E00087E5E816F10489F7C6010F900F90DF91B4
:1008F000CF911F910F91FF90EF90DF90CF900895CF
:100900006BEA80E590E04CDF6DEC81E590E048DF3C
:100910006BEA82E590E044DF8AE092E0C5DF68E2BE
:1009200074E087E590E08EDF6CE274E08BE590E0A8
:1009300089DF60E374E08FE590E084DF68E074E0D5
:1009400083E690E07FDF6CE074E087E690E07ADF9A
:1009500060E174E08BE690E075DF68EE73E08FE6AF
:1009600090E070DF6FEE83E790E01ADF6BEA82E9D8
:1009700090E016DF6091240583E990E011DF6FEECF
:1009800084E990E00DCF6BEA80E990E009DF6DEC3F
:1009900081E990E005DF6BEA82E990E001DF609198
:1009A000240583E990E0FCDE6FEE84E990E0F8CE68
:1009B0000F931F93CF93DF9380E590E0F3DE8B3AA4
:1009C00029F481E590E0EEDE8D3C71F099DF80E95D
:1009D00090E0E8DE8B3A09F04BC081E990E0E2DE7E
:1009E0008D3C09F045C049C082E590E0DBDE8B3AE2
:1009F00009F037C083E790E0D5DE8F3E91F50AE03D
:100A000012E0C3E5D0E0CE010E94005FF8018193BF
:100A10008F012196C735D105B1F768E274E087E50B
:100A200090E0C2DE6CE274E08BE590E0BDDE60E356
:100A300074E08FE590E0B8DE68E074E083E690E073
:100A4000B3DE6CE074E087E690E0AEDE60E174E077
:100A50008BE690E0A9DE68EE73E08FE690E0A4DE1E
:100A6000B6CF6FEB72E08DEC9CE00E941656AFCFD4
:100A7000DF91CF911F910F9186CF82E990E092DEB6
:100A80008B3A81F484E990E08DDE8F3E59F483E95E
:100A900090E00E94005F80932405DF91CF911F9129
:100AA0000F91089565EE72E08DEC9CE0DF91CF919F
:100AB0001F910F910C9416566091120270911302BF
:100AC00083ED96E00E949B246091120270911302C4
:100AD00071956195710982E596E00C949B24609173
:100AE00012027091130271956195710983ED96E080
:100AF0000E949B24609112027091130282E596E09D
:100B00000C949B24609112027091130277FF02C033
:100B10006D5F7F4F75956795759567957195619533
:100B2000710983ED96E00E949B24609112027091FE
:100B3000130282E596E00C949B246091120270915E
:100B4000130271956195710983ED96E00E949B24D3
:100B5000609112027091130277FF02C06D5F7F4FA8
:100B6000759567957595679582E596E00C949B243D
:100B7000609112027091130283ED96E00E949B2413
:100B8000609112027091130277FF02C06F5F7F4F76
:100B90007595679571956195710982E596E00C945C
:100BA0009B24609112027091130277FF02C06F5F65
:100BB0007F4F7595679583ED96E00E949B24609129
:100BC00012027091130271956195710982E596E0A8
:100BD0000C949B24609112027091130283ED96E0B5
:100BE0000E949B24609112027091130282E596E0AC
:100BF0000C949B246091120270911302719561957F
:100C0000710983ED96E00E949B246091120270911D
:100C1000130271956195710982E596E00C949B240D
:100C200060E070E083ED96E00E949B2460E070E05D
:100C300082E596E00C949B2420911F05211104C0AD
:100C4000FC01E751FB4F0BC0223021F4FC01EB54B7
:100C5000FB4F05C0233029F4FC01EF57FB4F808187
:100C60000895089520911F05211104C0FC01E7514A
:100C7000FB4F0BC0223021F4FC01EB54FB4F05C0AD
:100C8000233021F4FC01EF57FB4F608308958091DE
:100C90001F05811103C08DEC9CE009C0823019F45E
:100CA0008AE69DE004C0833021F487E09EE00C9446
:100CB00003560895CF93DF93EC01BEDF8093440584
:100CC000CE010196B9DF809345058091440590914E
:100CD0004505DF91CF9108950F931F93CF93DF9335
:100CE000EC01AADF06E415E0F8018083CE0101964D
:100CF000A3DF80934705CE0102969EDF80934805CF
:100D0000CE01039699DF80934905F80160817181D6
:100D100082819381DF91CF911F910F910895CF939D
:100D2000DF93EC0189DF80934605CE01019684DFD5
:100D300080934705CE0102967FDF80934805CE0160
:100D400003967ADF809349056091460570914705C7
:100D50008091480590914905DF91CF910895EF92D8
:100D6000FF920F931F93CF93DF938B01C4EDD3E0DA
:100D7000845D93407C01CE01845D93408017910790
:100D800034F4C7018C0F9D1F57DF8993F4CFF8010E
:100D9000EC52FC4F108284ED93E0DF91CF911F91D4
:100DA0000F91FF90EF900895CF92DF92EF92FF9214
:100DB0000F931F93CF93DF937B0104EC13E0C0E00C
:100DC000D0E0845C93406C01CE15DF0564F4C03143
:100DD000D10549F0C601800F911F2EDFF8018193E4
:100DE0008F012196F1CF84EC93E0DF91CF911F9199
:100DF0000F91FF90EF90DF90CF900895CF92DF9208
:100E0000EF92FF92CF93DF93C82F882777FD8095CD
:100E1000982F0E949F586B017C0181E4C89FE001DC
:100E20001124C857D84FB701A601CE010E94D04166
:100E300040E050E46CE976E4CE010E942A4260E191
:100E4000CE010E945C3FB701A601CE010E94A342E1
:100E5000CE01DF91CF91FF90EF90DF90CF900C9477
:100E60004943FC01DB0112968C9112978283139601
:100E70008C911397838314968C9114978483159681
:100E80008C911597858316968C9116978683179665
:100E90008C911797878318968C911897808719964D
:100EA0008C91199781871A968C911A9782871B9635
:100EB0008C911B9783871C964D915D916D917C91D0
:100EC0001F97448755876687778750964D915D9128
:100ED0006D917C915397408B518B628B738B5496A1
:100EE0004D915D916D917C915797448B558B668B9D
:100EF000778B58964D915D916D917C915B97408F6A
:100F0000518F628F738F5C964D915D916D917C9145
:100F10005F97448F558F668F778F90964D915D9137
:100F20006D917C91939740A351A362A373A3949670
:100F30004D915D916D917C91979744A355A366A3C4
:100F400077A398964D915D916D917C919B9740A769
:100F500051A762A773A79C964D915D916D917C916D
:100F60009F9744A755A766A777A7D0964D915D9107
:100F70006D917C91D39740AB51AB62AB73ABD49680
:100F80004D915D916D917C91D79744AB55AB66AB1C
:100F900077ABD8968D919C91D99791AF80AFDA9627
:100FA0008D919C91DB9793AF82AFDC968D919C9154
:100FB000DD9795AF84AFDE968C91DE9786AFDF9696
:100FC0008D919C91DF01DF968D939C93CF010895C5
:100FD000ECE2F5E020E030E04191519148175907EB
:100FE00091F0452B41F4F901EE0FFF1FE45DFA4F3C
:100FF0009183808308C02F5F3F4F2C30310561F70C
:1010000080E090E00895C90108954F925F926F9239
:101010007F928F929F92AF92BF92CF92DF92EF9288
:10102000FF920F931F93CF93DF93CDB7DEB7C254D8
:10103000D1090FB6F894DEBF0FBECDBF182F86E0E2
:1010400090E0FADD682E103209F4BBC220F51930A9
:1010500009F4F5C150F4153009F46CC0183009F4E6
:101060006FC1133009F0FEC479C21B3009F4C0C14E
:1010700008F443C0143109F484C21E3109F0F2C4EB
:1010800061E00E94595187E090E0D6DD682F862DFF
:101090000E949251E7C4143309F4CAC208F5183209
:1010A00009F425C120F4113209F497C2DBC41932C6
:1010B00009F4DAC1123309F0D5C40E945B4F0E94D3
:1010C0009D5820E030E04AE754E40E9404586093C1
:1010D0007D0470937E0480937F0490938004C2C447
:1010E0001D33D1F020F41C3309F461C1BBC41E339D
:1010F00009F4E7C21C34A9F1B5C487E090E0DADD59
:101100007C01662D8FE599E00E945B39B7018FE580
:1011100099E00E947B39A6C48111A4C487E090E0C5
:101120008BDD182F88E090E0C5DD66277727681BE8
:10113000790BDFC386E090E0BDDD66277727681B6B
:10114000790B83ED96E00E94872488E090E0B2DD81
:1011500066277727681B790B82E596E00E94872433
:1011600081C483E090E068DD182F87E090E064DDC3
:10117000782E81E0681234C088E090E0D0DD4B0129
:101180005C018CE090E096DD2C01E72CF12CB7019E
:10119000CE0101960E94D93EC701019721E4289F04
:1011A0007001299FF00C1124C7018857984F7C01CA
:1011B000BE016F5F7F4F55DEB20157FE04C0662748
:1011C0007727641975098FEF870D18DE212F30E01E
:1011D00000E615E1B501A401C7010E94B33F42C476
:1011E00092E069122BC088E090E064DD7C01072D5D
:1011F00010E0B801CE0101960E94D93EC8010197C6
:1012000021E4289F8001299F100D11240857184FB1
:10121000BE016F5F7F4FC80124DEB7018FEF870DDE
:10122000EDDDB701882777FD8095982F0E949F58A4
:10123000AB01BC01C8010E94A34214C486E068123D
:1012400036C088E090E06BDD4B015C018CE090E003
:1012500031DD682E092FE72CF12CB701CE01019664
:101260000E94D93E97012150310981E4829F70018B
:10127000839FF00C1124C7018857984F7C01BE0151
:101280006F5F7F4FEEDD662D702F77FF03C0719586
:10129000619571098FEF870DB1DD212F30E000E6F8
:1012A00015E1B501A401C7010E94953FDBC394E09D
:1012B0006912D8C3072D10E0B801CE0101960E9433
:1012C000D93EC801019721E4289F8001299F100D74
:1012D00011240857184FBE016F5F7F4FC801C1DD51
:1012E00040E050E0BA01C8010E942A40BBC387E039
:1012F00090E0E0DC7C0189E090E011DD4B015C01D5
:10130000062D10E0B801CE0101960E94D93EC80119
:10131000019721E4289F8001299F100D112408576F
:10132000184FBE016F5F7F4FC8019BDDB7018FEF84
:10133000860D64DDB501A401C8010E94BA4192C3C3
:1013400087E090E079DCB82E88E090E075DCE82E4C
:1013500089E090E071DC182F8AE090E06DDCF82ED7
:101360008BE090E069DC082F8DE399E00E942A3B36
:10137000861171C38DE399E00E942D3B8B116BC3E5
:10138000EE2049F06FEF6E0D2F2D412F8DE399E088
:101390000E942F3C07C0202F4F2D612F8DE399E035
:1013A0000E94BB3C8DE399E00E94E73C5BC387E071
:1013B00090E042DC182F82E1681254C331DC153012
:1013C00050F41093240583E990E0ECD9811709F4D7
:1013D00049C3612F09C01092240583E990E0E2D946
:1013E000882309F43FC360E083E990E0D9D93AC388
:1013F00087E090E021DCE62DF0E0EE0FFF1FE456E1
:10140000FD4F813011F4008101C0018188E090E03E
:1014100013DCF82E10E0C801DBDDFC01EE0FFF1F2E
:10142000E80FF91FEC59F64F208131814281298361
:101430003A834B8394EB9F1508F414C3E7C081E310
:1014400099E00E942A3B861529F0662D81E399E0F8
:101450000E94B21E87E090E03FDCAB01BC0181E35B
:1014600099E00E94D31EFEC28CEF98E00E942A3BB6
:10147000861529F0662D8CEF98E00E94073487E0EE
:1014800090E0DADB813011F588E090E0D5DB182FB1
:1014900089E090E0D1DB482F8AE090E023964FAFBF
:1014A0002397CADB682F772767FD70958BE090E064
:1014B00056DC9C01612F772767FD709523964FAD11
:1014C00023978CEF98E00E942336CCC28230D9F467
:1014D00088E090E0B1DBF82E89E090E0ADDB482FAA
:1014E00060E170E08AE090E023964FAF23975CDCE8
:1014F0008C0120E123964FAD23976F2D8CEF98E060
:101500000E942E34AFC28330D9F488E090E094DB9F
:10151000182F89E090E090DB682F8AE090E0239616
:101520006FAF239789DB21E023966FAD23971111CD
:1015300001C020E0482F8CEF98E00E945D3692C2F7
:10154000843009F08FC288E090E0C6DBAB01BC01BB
:1015500023E08CEF98E00E942D3784C28DE299E061
:101560000E942A3B861529F0662D8DE299E00E94A3
:101570008A3B87E090E060DB61E0811114C060E0AD
:1015800012C08DE299E00E942A3B861529F0662D53
:101590008DE299E00E948A3B87E090E04DDB82304B
:1015A00038F4682F61708DE299E00E94523B5AC274
:1015B00061E0823009F460E08DE299E00E94623BD4
:1015C00051C261E00E94595187E090E035DB682FFD
:1015D00070E0862D0E94415045C287E090E02CDBF0
:1015E000F82E84EB8F1508F43DC2062D10E0C801DB
:1015F000EFDCFC01EE0FFF1FE80FF91FEC59F64F6F
:1016000020813181428129833A834B83CE01019627
:101610000E948A47811105C0B801CE0101960E943F
:10162000F7466F2D70E0CE0101960E942B471AC23B
:10163000811118C287E090E03DDB8C0189E090E0E9
:1016400039DBBC01882777FD8095982F0E949F5831
:1016500090582AE939E949E15EE30E94175A4B01A3
:101660005C016093140470931504809316049093A6
:101670001704B801882777FD8095982F0E949F58FE
:101680002DEC3CEC4CE45EE30E94175A6093F403AB
:101690007093F5038093F6039093F703C501B401AB
:1016A0000E946C589B0177FF04C022273327261B1A
:1016B000370B223031050CF4D5C181E080934F0403
:1016C000D1C183E090E0B8DAE82E87E090E0B4DAA8
:1016D000182F91E069125EC088E090E020DB4B019A
:1016E0005C018CE090E0E6DA97FF03C0919581956C
:1016F0009109113099F4F12CBC01882777FD809570
:10170000982F0E949F588B019C019DE4C92E95E162
:10171000D92EB501A40183ED96E09AC1123079F477
:10172000F12CBC01882777FD8095982F0E949F5847
:101730008B019C018DE4C82E85E1D82E85C1133024
:1017400099F4F12CBC01882777FD8095982F0E9491
:101750009F588B019C01BDE4CB2EB5E1DB2EB5017A
:10176000A40181ED95E074C1143009F07BC1F12C26
:10177000BC01882777FD8095982F0E949F588B0188
:101780009C01ADE4CA2EA5E1DA2EB501A40180E5E5
:1017900095E05EC186E0681264C088E090E0BFDA40
:1017A0004B015C018CE090E085DA97FF03C09195D6
:1017B00081959109113099F4F12CBC01882777FDAE
:1017C0008095982F0E949F588B019C01FDE4CF2E9D
:1017D000F5E1DF2EB501A40183ED96E03FC01230A4
:1017E00099F4F12CBC01882777FD8095982F0E94F1
:1017F0009F588B019C01EDE4CE2EE5E1DE2EB50174
:10180000A40182E596E02AC0133099F4F12CBC01C2
:10181000882777FD8095982F0E949F588B019C0107
:101820007DE4C72E75E1D72EB501A40181ED95E0C9
:1018300015C0143009F016C1F12CBC01882777FDC2
:101840008095982F0E949F588B019C016DE4C62EB5
:1018500065E1D62EB501A40180E595E00E949E26A3
:1018600001C192E069123EC088E090E023DA1130B5
:1018700061F4BC01882777FD8095982F0E949F58BE
:10188000AB01BC0183ED96E02AC0123061F4BC01CB
:10189000882777FD8095982F0E949F58AB01BC0147
:1018A00082E596E01CC0133061F4BC01882777FD07
:1018B0008095982F0E949F58AB01BC0181ED95E067
:1018C0000EC0143009F0CEC0BC01882777FD80958A
:1018D000982F0E949F58AB01BC0180E595E00E94C3
:1018E0009226C0C083E0681217C088E090E0E2D979
:1018F000BC01113019F0123021F42ECC83ED96E0AA
:101900002DCC133019F481ED95E028CC143009F07A
:10191000A9C080E595E022CC94E0691223C0113083
:1019200031F440E050E0BA0183ED96E018C0123087
:1019300031F440E050E0BA0182E596E010C0133087
:1019400031F440E050E0BA0181ED95E008C0143078
:1019500009F088C040E050E0BA0180E595E00E94BF
:101960005F2480C085E068127DC088E090E0D7D910
:101970004B015C018CE090E09DD91130F9F4BC0181
:10198000882777FD8095982F0E949F582B013C0156
:10199000C12CD12CE12CF12C8B019C01B501A401AF
:1019A00083ED96E00E94D62644275527BA014819B0
:1019B00059096A097B099301820148C01230B9F4C0
:1019C000BC01882777FD8095982F0E949F582B0196
:1019D0003C0144275527BA01481959096A097B096E
:1019E000C12CD12CE12CF12C9301820127C01330A2
:1019F00051F4BC01882777FD8095982F0E949F584D
:101A00002B013C0113C0143069F5BC01882777FD18
:101A10008095982F0E949F582B013C01B094A09470
:101A200090948094811C911CA11CB11CC12CD12CC0
:101A3000E12CF12C93018201B501A40183ED96E024
:101A40000E94D62693018201B501A40182E596E0A9
:101A50000E94D62607C04B2D662D8DE399E00E948B
:101A60007E3C8ECCCE5BDF4F0FB6F894DEBF0FBE50
:101A7000CDBFDF91CF911F910F91FF90EF90DF903D
:101A8000CF90BF90AF909F908F907F906F905F901E
:101A90004F9008954F925F926F927F928F929F9294
:101AA000AF92BF92CF92DF92EF92FF920F931F936C
:101AB000CF93DF9387EB98E00E94CE2C90586093F1
:101AC0007504709376048093770490937804209142
:101AD00034043091350440913604509137040E940B
:101AE00039576B017C0120913C0430913D044091B9
:101AF0003E0450913F040E943A578B01D82FC92FC2
:101B000020E030E048EC52EC0E94005887FD10C005
:101B100020E030E048EC52E4B8018D2F9C2F0E9469
:101B2000C75918164CF400E010E0D8ECC2E404C029
:101B300000E010E0D8ECC2ECC801AD2FBC2F8093C0
:101B40003C0490933D04A0933E04B0933F048090E6
:101B5000650490906604A0906704B0906804809239
:101B6000400490924104A0924204B0924304209118
:101B700028043091290440912A0450912B04C70174
:101B8000B6010E94175A2B013C0120912C04309180
:101B90002D0440912E0450912F04B8018D2F9C2FBD
:101BA0000E94175A9B01AC01C301B2010E943A572F
:101BB0006B017C012091300430913104409132045A
:101BC00050913304C501B4010E94175A9B01AC0126
:101BD000C701B6010E943A576B017C0120E030E05A
:101BE000A9010E94C75918164CF0C0923804D0922F
:101BF0003904E0923A04F0923B040FC020E030E058
:101C0000A901C701B6010E943A5760933804709346
:101C1000390480933A0490933B04409038045090E8
:101C2000390460903A0470903B04C090F803D0905F
:101C3000F903E090FA03F090FB03A7019601C301BA
:101C4000B2010E9439574B015C01C301B2019058A7
:101C5000A70196010E9439576B017C0120E030E01A
:101C60004FE753ECC501B4010E94005887FD11C035
:101C700020E030E04FE753E4C501B4010E94C759AA
:101C800018166CF4812C912CEFE7AE2EE3E4BE2EF7
:101C900006C0812C912C7FE7A72E73ECB72E20E095
:101CA00030E04FE753ECC701B6010E94005887FDB2
:101CB00011C020E030E04FE753E4C701B6010E94B5
:101CC000C75918166CF4C12CD12C6FE7E62E63E4CB
:101CD000F62E06C0C12CD12C5FE7E52E53ECF52E75
:101CE000C501B4010E946C5883ED96E00E949B24CC
:101CF000C701B6010E946C5882E596E0DF91CF9152
:101D00001F910F91FF90EF90DF90CF90BF90AF9019
:101D10009F908F907F906F905F904F900C949B243A
:101D20004F925F926F927F928F929F92AF92BF92EB
:101D3000CF92DF92EF92FF920F931F93CF93DF9397
:101D400082E596E00E9481246B017C0183ED96E0A0
:101D50000E9481249B01AC01C701B6010E94395742
:101D600020E030E040E05FE30E94175A4B015C0145
:101D7000C0901404D0901504E0901604F09017045D
:101D80002DEC3CEC4CE45FE360916D0470916E04CB
:101D900080916F04909170040E94175A2B013C01AE
:101DA0002DEC3CEC4CE45EE3C701B6010E94175AEF
:101DB0009B01AC01C301B2010E943A5760936D04CC
:101DC00070936E0480936F049093700480914F041D
:101DD000882361F1C501B4010E946C58695F7F4F8F
:101DE0006F30710518F520E030E0A901C701B60198
:101DF0000E94005881111AC010924F0410926D0475
:101E000010926E0410926F04109270048091690415
:101E100090916A04A0916B04B0916C0480931C04AF
:101E200090931D04A0931E04B0931F0420916D0491
:101E300030916E0440916F0450917004C501B4015B
:101E40000E9439576B017C0120911C0430911D04C4
:101E500040911E0450911F040E943A578B01D82FC5
:101E6000C92F80914F0420E030E04AEF54ECB801D4
:101E7000882309F471C08D2F9C2F0E94005887FD84
:101E800010C020E030E04AEF54E4B8018D2F9C2FC1
:101E90000E94C75918164CF400E010E0DAEFC4E4D1
:101EA00004C000E010E0DAEFC4ECC801AD2FBC2F95
:101EB00080931C0490931D04A0931E04B0931F04F0
:101EC000209108043091090440910A0450910B04B8
:101ED000C701B6010E94175A4B015C0120910C0406
:101EE00030910D0440910E0450910F04B8018D2FD4
:101EF0009C2F0E94175A9B01AC01C501B4010E949E
:101F00003A578B01D82FC92F20E030E040E051EC48
:101F10000E94005887FD10C020E030E040E051E40E
:101F2000B8018D2F9C2F0E94C75918164CF400E061
:101F300010E0D0E0C1E404C000E010E0D0E0C1EC6B
:101F4000A8016D2F7C2F40931804509319046093BF
:101F50001A0470931B0498C08D2F9C2F0E94005868
:101F600087FD10C020E030E04AEF54E4B8018D2F27
:101F70009C2F0E94C75918164CF400E010E0DAEFCD
:101F8000C4E404C000E010E0DAEFC4ECC801AD2FF7
:101F9000BC2F80931C0490931D04A0931E04B09347
:101FA0001F04209108043091090440910A045091C3
:101FB0000B04C501B4010E94175A6B017C012091EA
:101FC0000C0430910D0440910E0450910F04B8019F
:101FD0008D2F9C2F0E94175A9B01AC01C701B6019F
:101FE0000E943A576B017C0120E030E040E251EC66
:101FF0000E94005887FD0FC020E030E040E251E42D
:10200000B601C7010E94C759181654F4C12CD12C2F
:1020100090E281E407C0C12CD12C90E281EC02C097
:102020009E2D8F2DA601692F782F40931804509371
:10203000190460931A0470931B042DEC3CEC4CE4DF
:102040005FE36091690470916A0480916B049091E0
:102050006C040E94175A4B015C012DEC3CEC4CE4E3
:102060005EE3B8018D2F9C2F0E94175A9B01AC0193
:10207000C501B4010E943A576093690470936A04E1
:1020800080936B0490936C04209118043091190490
:1020900040911A0450911B0460910A0270910B0246
:1020A00080910C0290910D020E943A576093340483
:1020B000709335048093360490933704DF91CF9169
:1020C0001F910F91FF90EF90DF90CF90BF90AF9056
:1020D0009F908F907F906F905F904F900895809128
:1020E0005004811111C087EB98E00E94CE2C0E9411
:1020F0006C589B0177FF04C022273327261B370B20
:10210000253031050CF477C080915004882309F400
:102110007CC087EB98E00E94CE2C0E946C589B01FB
:1021200077FF04C022273327261B370B21323105C6
:102130000CF46BC01092C3031092C20360E070E015
:1021400083ED96E00E949B2460E070E082E596E0DB
:102150000E949B2410921C0410921D0410921E04D5
:1021600010921F0480910A0290910B02A0910C0220
:10217000B0910D028093340490933504A0933604FB
:10218000B0933704109214041092150410921604A0
:10219000109217041092F4031092F5031092F603B4
:1021A0001092F70340E050E0BA0183ED96E00E9400
:1021B0005F2440E050E0BA0182E596E00E945F248F
:1021C00010921C0410921D0410921E0410921F0401
:1021D0001092500410926D0410926E0410926F04CD
:1021E0001092700410927104109272041092730491
:1021F0001092740408958091C2039091C3030196D4
:102200009093C3038093C2037FCF8091C2039091C8
:10221000C30345970CF44CC01092C3031092C20341
:1022200010921C0410921D0410921E0410921F04A0
:1022300060E070E083ED96E00E949B2460E070E037
:1022400082E596E00E949B2480910A0290910B0205
:10225000A0910C02B0910D02809334049093350448
:10226000A0933604B093370440E050E0BA0183ED08
:1022700096E00E945F2440E050E0BA0182E596E0DB
:102280000E945F240E945B4F60936104709362041C
:10229000809363049093640460935D0470935E0480
:1022A00080935F049093600481E0809350040895CC
:1022B0000895CF92DF92EF92FF9211DF8091500448
:1022C000882309F472C00E945B4FC0906104D090D3
:1022D0006204E0906304F09064046C197D098E0937
:1022E0009F096B3071058105910558F0D3DB0E9481
:1022F0005B4F6093610470936204809363049093D6
:1023000064040E945B4FC0905D04D0905E04E09036
:102310005F04F09060046C197D098E099F09653691
:1023200071058105910508F450C0FADC2DEC3CECF8
:102330004CE45FE3609171047091720480917304C6
:10234000909174040E94175A6B017C012DEC3CECB7
:102350004CE45EE36091F4037091F5038091F60321
:102360009091F7030E94175A9B01AC01C701B60177
:102370000E943A57609371047093720480937304BF
:10238000909374046093F8037093F9038093FA03B5
:102390009093FB030E945B4F60935D0470935E0417
:1023A00080935F049093600410C060E070E083ED60
:1023B00096E00E949B2460E070E082E596E0FF904A
:1023C000EF90DF90CF900C949B24FF90EF90DF90E4
:1023D000CF900895CF93DF938091FA089091FB08F6
:1023E000892B79F48CE790E00E94B455EC0166E00B
:1023F0000E940D32D093FB08C093FA08CE010E94D0
:1024000022328091FA089091FB080E94513280910B
:10241000FA089091FB080E944C3280932105843485
:1024200009F48DC090912405933009F0A7C089313B
:1024300009F447C008F5893009F447C078F48730BB
:1024400009F447C0883009F095C080910E02909140
:102450000F02880F991F880F991F66C0863109F4F3
:1024600089C0883109F45AC08C3009F083C080914A
:102470000E0290910F0258C08A3479F168F48034CA
:10248000E1F0823481F18C3109F074C020910E02A8
:1024900030910F0245E032C08A3559F18E35A1F1F5
:1024A000823509F067C080910E0290910F02C3E05F
:1024B000880F991FCA95E1F737C0DF91CF910C942F
:1024C0005C05DF91CF910C946F05DF91CF910C9457
:1024D000D105DF91CF910C94B80520910E02309177
:1024E0000F0249E00BC020910E0230910F0247E02D
:1024F00005C020910E0230910F0246E0429FC001BC
:10250000439F900D112410C020910E0230910F02B4
:10251000C901880F991F820F931F06C080910E0278
:1025200090910F02880F991F209110023091110293
:10253000820F931F90931302809312021FC00E9478
:1025400010068091FA089091FB080E94313288238E
:1025500039F08091FA089091FB080E945132F1CF36
:10256000809124058F5F80932405853039F4109283
:10257000240504C0DF91CF910C941006DF91CF9118
:1025800008958AE495E00E943E3928E730E03093D0
:10259000130220931202813059F028F0823099F012
:1025A000833001F108950E945C058AE090E015C037
:1025B0000E945C0580912605909127058230910547
:1025C0004CF101970AC00E945C058091260590910C
:1025D000270584319105F4F40196909327058093A3
:1025E0002605089580912605909127050A9711F4F4
:1025F0000E946F0580912605909127050A9714F493
:102600000E94EA0580912605909127050B9714F00A
:102610000C94FA050895CF92DF92EF92FF920F93F8
:102620001F9365E070E080E090E00E948A4F83EDA8
:1026300096E00E94552443E050E060E973E00E9478
:10264000184D82E596E00E94552443E050E060EA90
:1026500073E00E94184D81ED95E00E94552443E0FF
:1026600050E060EB73E00E94184D80E595E00E9419
:10267000552443E050E060EC73E00E94184D26E0E2
:1026800040E052EC61E070E08DEC9CE00E94285349
:1026900026E040E052EC61E070E08AE69DE00E94B6
:1026A000285326E040E052EC61E070E087E09EE0D5
:1026B0000E94285365E070E080E090E00E948A4F1D
:1026C00087EB98E00E948E3065E070E080E090E05B
:1026D0000E948A4F61E08DE00E94595181E0809311
:1026E00080008AE08093810083E08093B00082E0E4
:1026F0008093B10068E070E083ED96E00E9435279A
:1027000068E070E082E596E00E94352768E070E0BE
:1027100081ED95E00E94352768E070E080E595E066
:102720000E9435276EE270E083ED96E00E94392723
:102730006EE270E082E596E00E9439276EE270E07A
:1027400081ED95E00E9439276EE270E080E595E02A
:102750000E9439271AE9C12E19E9D12EED2C1FE369
:10276000F12E00E010E0980146E656E666EE7FE3C3
:1027700083ED96E00E94172700E010E0980146E6FE
:1027800056E666EE7FE382E596E00E94172700E0BA
:1027900010E0980146E656E666EE7FE381ED95E0AF
:1027A0000E94172700E010E0980146E656E666EE24
:1027B0007FE380E595E00E941727C12CD12C76019C
:1027C000970186014CEE51E568E37EE383ED96E0E8
:1027D0000E94FD26970186014CEE51E568E37EE3F9
:1027E00082E596E00E94FD26970186014CEE51E5B8
:1027F00068E37EE381ED95E00E94FD269701860166
:102800004CEE51E568E37EE380E595E00E94FD260D
:1028100060E070E083ED96E00E94492760E070E0A0
:1028200082E596E00E94492760E070E081ED95E046
:102830000E94492760E070E080E595E00E9449270A
:10284000109252041092510480910A0290910B024E
:10285000A0910C02B0910D02809334049093350442
:10286000A0933604B093370480E090E0A0EAB1E48E
:102870008093280490932904A0932A04B0932B04F6
:1028800080E090E0A0E8BFE380932C0490932D04B7
:10289000A0932E04B0932F048DEC9CECACE4BEE32B
:1028A0008093300490933104A0933204B0933304A6
:1028B0008FE892ECA5E7BDE38093080490930904A8
:1028C000A0930A04B0930B048AE097EDA3EABBE35C
:1028D00080930C0490930D04A0930E04B0930F0406
:1028E0000E94D80461E273E08DEC9CE00E940256E5
:1028F00068E474E08DEC9CE00E9406560E945B4FF9
:102900006093610470936204809363049093640401
:1029100060935D0470935E0480935F049093600401
:102920006093590470935A0480935B0490935C0401
:102930000E945B4F60935504709356048093570434
:102940009093580410921F051F910F91FF90EF90E4
:10295000DF90CF900895CF93DF93C4E6D9E0CE0106
:102960000E942C46239689E0C838D807C1F78FE526
:1029700099E00E944E398CE499E00E9481438DE3F6
:1029800099E00E94FC3B81E399E00E94291D8DE2C1
:1029900099E00E94113B8CEF98E00E94B43348E626
:1029A00060E087EB98E00E94B32C80E998E00E94F9
:1029B000481F8CE898E00E943B33C8E8D7E0CE017E
:1029C0000E94D33ECF5BDF4F88E0CC38D807B9F701
:1029D00084E897E00E94421F8DE797E00E9416313D
:1029E00087E797E00E94892C81E797E00E949E2C60
:1029F0008BE697E00E940C4484E597E093D761E072
:102A000083ED96E00E94F52462E082E596E00E9464
:102A1000F52463E081ED95E00E94F52464E080E513
:102A200095E00E94F52468E08AE495E00E943D3933
:102A30006BE273E088E494E0DF91CF910C94F4565C
:102A400088E494E00E948D568DE399E00C942A3D31
:102A5000682F80911F05811103C08DEC9CE009C097
:102A6000823019F48AE69DE004C0833021F487E0C7
:102A70009EE00C94C45208958FEFEADF85E5E8CF1D
:102A80008FEFE6DF85E5E4DF0C944706CF93C82F90
:102A900081E0DEDF8C2FCF91DBCF1F93CF93DF93CD
:102AA0001F92CDB7DEB7182F6983E6DF8981D0DFAB
:102AB000812FECDF0F90DF91CF911F910C9447068F
:102AC0001F93CF93DF931F92CDB7DEB7182F698383
:102AD000D3DF8981BDDF812FD9DF0F90DF91CF91C7
:102AE0001F910C944706EF92FF920F931F93CF9381
:102AF000DF937C01FC01C4810C2F158184E0A8DFE9
:102B00008C2FA6DFC0E0D0E0C017D1073CF4BE0197
:102B1000C7010E9437579CDF2196F6CFDF91CF91F6
:102B20001F910F91FF90EF900895FF920F931F93C5
:102B3000CF93DF931F92CDB7DEB78B01F82E82E0E3
:102B4000998386DFA8016F2D9981792F40934605DF
:102B5000509347056093480570934905802F78DFAF
:102B60008091470575DF8091480572DF80914905A6
:102B70000F90DF91CF911F910F91FF9069CF1F931D
:102B8000CF93DF9300D0CDB7DEB7182F86E06983EF
:102B90007A839B835DDF6981609346057A817093B8
:102BA0004705109348059B8190934905862F50DF78
:102BB000809147054DDF809148054ADF80914905A6
:102BC0000F900F900F90DF91CF911F9141CF1F93E6
:102BD000CF93DF931F92CDB7DEB7182F83E0998391
:102BE00037DF10934405998190934505812F30DF9D
:102BF000809145050F90DF91CF911F9129CFCF9202
:102C0000DF92EF92FF920F931F93CF93DF93CDB795
:102C1000DEB727970FB6F894DEBF0FBECDBF082FE3
:102C200086E090E00E941C06182F402F50E04E33A3
:102C3000510508F0AFC2FA01EE58FF4F0C942C5C1E
:102C400080913B0990913C09009751F00E942A3BEA
:102C5000811791F080913B0990913C090E94B555F4
:102C60008EE090E00E94B4557C01612F0E941244D6
:102C7000F0923C09E0923B0960E971E080913B09E8
:102C800090913C090E9491446B017C01F5DE80919A
:102C90002505DEDEC701B60193C287E090E00E9401
:102CA0001C06082F8CE499E00E942A3B811376C20F
:102CB0008CE499E00E942D3B801370C28CE499E073
:102CC0000E949E437DC28DE299E00E942A3B8117BB
:102CD00061F0612F8DE299E00E948A3B8DE299E0DC
:102CE0000E94B03B60E00E9459518DE299E00E9441
:102CF0007E3B15C087E090E00E941C06082F8CE800
:102D000098E00E942A3B811729F0612F8CE898E017
:102D10000E948A3B602F8CE898E00E943D33BC0102
:102D2000882777FD8095982F0E949F5849C28091EF
:102D3000FA089091FB080097E1F04F960E942A3B19
:102D4000811731F1E090FA08F090FB08E114F104EA
:102D500081F08FE693E0F70191838083C701825968
:102D60009F4F0E948D56C7010E94DD4BC7010E94F4
:102D7000B5558CE790E00E94B4557C01612F0E940C
:102D80000D32F092FB08E092FA08C7010E9422324D
:102D90008091FA089091FB080E944C32682F809332
:102DA00021058FEF860F8E3F08F0F4C118C08DE229
:102DB00099E00E942A3B811761F0612F8DE299E032
:102DC0000E948A3B8DE299E00E94B03B60E00E9445
:102DD000595160E08DE299E00E94413B682F70E01C
:102DE00080E090E00E949D58EBC18DE299E00E9446
:102DF0002A3B811799F0612F8DE299E00E948A3B6E
:102E00008DE299E00E94AD3B60E00E9459518DE255
:102E100099E00E94B03B60E00E94595160E08DE271
:102E200099E00E94303B182F60E08DE299E00E940B
:102E3000413B612F70E0660F771F680F711D882777
:102E400077FD8095982F70CF87E090E00E941C0658
:102E5000082F8DE299E00E942A3B8113A6C18DE2E2
:102E600099E00E942D3B8013A0C18DE299E00130D2
:102E700061F40E94AD3B62E00E94595160E08DE236
:102E800099E00E94303B8027A9CF0E94B03B62E0CE
:102E90000E94595160E08DE299E00E94413B61E05F
:102EA00068279DCF80E998E00E942A3B8117A9F00E
:102EB000612F80E998E00E948A3B80E998E00E94B7
:102EC000B03B482F80E998E04F830E94AD3B4F8193
:102ED000682F80E998E00E94352380E998E00E94FD
:102EE0003D236EC187E090E00E941C06082F8DE70D
:102EF00097E00E942A3B811729F0612F8DE797E028
:102F00000E948A3B8DE797E00E941931602F8DE780
:102F100097E00E940632182FAFDD8091250598DDDD
:102F2000812F36C187E797E00E942A3B8117A9F0DD
:102F3000612F87E797E00E948A3B87E797E00E942E
:102F4000AD3B482F87E797E04F830E94B03B4F810E
:102F5000682F87E797E00E948C2C87E797E00E9414
:102F60009C2C1FC081E797E00E942A3B8117A9F0A3
:102F7000612F81E797E00E948A3B81E797E00E94FA
:102F8000AD3B482F81E797E04F830E94B03B4F81D4
:102F9000682F81E797E00E94A12C81E797E00E94CB
:102FA000B12C15DE0EC187E090E00E941C06682F50
:102FB0001111F0C087EB98E06F830E94C92C6F81DC
:102FC000883609F0E7C0F8C068E474E0CE010196E5
:102FD0000E941E57CE01019686DDCE0101960E9409
:102FE0008D56EFC060E00E945951812F0E94C75159
:102FF00096CEE82FF0E0EE0FFF1FEC5EFD4F108144
:1030000060E0812F0E945951812F0E941C5087CE71
:1030100087E090E00E945A067C0160E0812F0E94C8
:1030200059519701442737FD4095542F61E0812F76
:103030000E94EF51A0C087E090E00E941C06082F7C
:1030400061E0812F0E94595160E0812F0E949251CE
:1030500082E090E00E94AF4F61E0812F0E94925188
:103060008AE090E00E94AF4F60E0812F0E94925171
:1030700060E0802F0E94595120E335E740E050E0A6
:1030800061E0802F0E94EF516B017C0165E070E0F0
:1030900080E090E00E948A4FEFDC80912505D8DC2B
:1030A000C701B60141CE6091790470917A04809194
:1030B0007B0490917C0484C08BE697E00E942A3BBD
:1030C000811729F0612F8BE697E00E948A3B8BE6FF
:1030D00097E00E940F445CC084E597E00E942A3B81
:1030E000811729F0612F84E597E00E948A3B1091B7
:1030F0001E0587E090E00E941C0691E0181390E006
:10310000892F46C081115DC087E090E00E941C06B7
:10311000182F88E090E00E941C06113059F481308D
:1031200019F483ED96E025C0823009F04AC083EDA2
:1031300096E027C0123059F4813019F482E596E008
:1031400018C0823009F03DC082E596E01AC0133005
:1031500051F4813019F481ED95E00BC0823089F58E
:1031600081ED95E00EC0143061F5813031F480E5D9
:1031700095E00E948C2603DD24C0823011F580E5A5
:1031800095E00E9481241CC08237D9F480912405E7
:103190007DDC17C060E070E0CB0112C0402F612FD2
:1031A0008CE499E00E948C4389CD402F612F8DE201
:1031B00099E00E949A3B59CE87EB98E00E94DA2C66
:1031C000B4DC27960FB6F894DEBF0FBECDBFDF91FB
:1031D000CF911F910F91FF90EF90DF90CF900895C6
:1031E000CF92DF92EF92FF920F931F93CF93DF93D3
:1031F0001092540483E090E00E941C06182F84E093
:1032000090E00E941C06C82F85E090E00E941C06FA
:10321000D82F10932505C230F9F018F4C13039F0D9
:1032200043C1C430E1F0C53009F435C13DC181303E
:1032300039F0873129F0843219F01EDC812F08DC47
:103240008D2FDDDCDF91CF911F910F91FF90EF90DB
:10325000DF90CF900C9447060E9405081CC140E007
:1032600050E0BA0183ED96E00E945F2440E050E018
:10327000BA0182E596E00E945F2440E050E0BA0186
:1032800081ED95E00E945F2440E050E0BA0180E5C6
:1032900095E00E945F24C12CD12CE12CF12C00E0A0
:1032A00010E020E231E440E050E0BA0183ED96E026
:1032B0000E949E2600E010E020E231E440E050E071
:1032C000BA0182E596E00E949E2600E010E020E22E
:1032D00031E440E050E0BA0181ED95E00E949E2685
:1032E00000E010E020E231E440E050E0BA0180E587
:1032F00095E00E949E2660E070E083ED96E00E94DB
:103300009B2460E070E082E596E00E949B2460E0F0
:1033100070E081ED95E00E949B2460E070E080E524
:1033200095E00E949B2460E070E083ED96E00E94AF
:10333000492760E070E082E596E00E94492760E05E
:1033400070E081ED95E00E94492760E070E080E543
:1033500095E00E94492761E08FE599E00E945B3982
:1033600060E070E08FE599E00E947B3969E08FE5CD
:1033700099E00E945B3960E070E08FE599E00E947F
:103380007B3962E08FE599E00E945B3960E070E094
:103390008FE599E00E947B396AE08FE599E00E9411
:1033A0005B3960E070E08FE599E00E947B3963E073
:1033B0008FE599E00E945B3960E070E08FE599E06D
:1033C0000E947B396BE08FE599E00E945B3960E0F9
:1033D00070E08FE599E00E947B3964E08FE599E029
:1033E0000E945B3960E070E08FE599E00E947B39D4
:1033F0006CE08FE599E00E945B3960E070E08FE55A
:1034000099E00E947B3940E050E0BA0188E897E0FB
:103410000E942A4040E050E0BA0189EC97E00E9407
:103420002A4040E050E0BA018AE098E00E942A4039
:1034300040E050E0BA018BE498E00E942A4040E06E
:1034400050E0BA0188E897E00E94BA4140E050E0BD
:10345000BA0189EC97E00E94BA4140E050E0BA011D
:103460008AE098E00E94BA4140E050E0BA018BE463
:1034700098E00E94BA4188E897E00E94444389ECB2
:1034800097E00E9444438AE098E00E9444438BE422
:1034900098E00E944443DF91CF911F910F91FF90DC
:1034A000EF90DF90CF90ECCADF91CF911F910F91F9
:1034B000FF90EF90DF90CF900895109253048DEC21
:1034C0009CE00E941B521816190644F481E0809378
:1034D000530410921F058DEC9CE01FC08AE69DE00E
:1034E0000E941B52181619064CF481E08093530475
:1034F00082E080931F058AE69DE00FC087E09EE092
:103500000E941B521816190664F481E0809353043C
:1035100083E080931F0587E09EE00E9434528093F1
:103520001D050895CADF80915304882309F446C01D
:1035300060911D0580915404653561F481110AC0C4
:10354000809120058F3FD9F481E0809323058093FB
:10355000540415C060932005882389F080912305C9
:10356000823019F46093220507C0833028F09091CF
:10357000220591509093220590E00E94320680919E
:1035800023058F5F843318F48093230504C01092C1
:1035900023051092540480915404882369F080918B
:1035A0002205811109C080912305843028F01092F2
:1035B000540416DE1092230581E008950895CF93F8
:1035C000DF9380913B0990913C09892B61F48EE057
:1035D00090E00E94B455EC0167E00E941244D09341
:1035E0003C09C0933B0986E990E0909313028093D5
:1035F000120280913B0990913C09009709F469C03F
:1036000060E971E00E9491440E946C5870932B0510
:1036100060932A059B012551310923313105F8F4C6
:103620006CE271E080E090E00E94265670932905DC
:10363000609328056F3B71055CF080915104811106
:1036400007C081E080935204DF91CF910C94B805BC
:1036500081E080935104DF91CF910C94D1056150AA
:1036600071096331710568F56CE271E080E090E00A
:103670000E94265670932905609328056F3B7105BB
:1036800084F00E948205CCE2D1E04CDF811121C0A0
:1036900062E070E080E090E00E948A4F2197A9F7F5
:1036A00018C00E949D05CCE2D1E03CDF811111C021
:1036B00062E070E080E090E00E948A4F2197A9F7D5
:1036C00008C01092520410925104DF91CF910C94D3
:1036D0005C05DF91CF9108950F931F930E945B4F7C
:1036E0000E949D5820E030E04AE754E40E940458CC
:1036F00020917D0430917E0440917F04509180049C
:103700000E9439576093790470937A0480937B0404
:1037100090937C0484E597E007D180931E050E9476
:103720005B4F00915504109156042091570430913D
:103730005804601B710B820B930B693E734081052B
:10374000910598F00E945B4F609355047093560466
:10375000809357049093580460914E0481E0682749
:1037600060934E048DE00E9492518091FA089091EE
:10377000FB08892B11F00E94EA1188E897E00E946B
:103780007D43019719F488E897E01AC089EC97E027
:103790000E947D43029719F489EC97E011C08AE0FA
:1037A00098E00E947D43039719F48AE098E008C0EE
:1037B0008BE498E00E947D43049721F48BE498E029
:1037C0000E944E4383ED96E00E946F2C82E596E0C6
:1037D0000E946F2C81ED95E00E946F2C80E595E0B2
:1037E0000E946F2C6ADE11E080915304882309F453
:1037F00045C060911D0580915404653559F48111CF
:1038000009C0809120058F3FD1F4109323051093B8
:10381000540415C060932005882389F08091230506
:10382000823019F46093220507C0833028F090910C
:10383000220591509093220590E00E9432068091DB
:1038400023058F5F843318F48093230504C01092FE
:1038500023051092540480915404882369F08091C8
:103860002205811109C080912305843028F010922F
:103870005404B6DC1092230520DEB6CF80E998E030
:103880000E942A3B882319F080E998E0F6D687EB5E
:1038900098E00E94D42C6093650470936604809332
:1038A00067049093680480912405811123C00E94CD
:1038B0005B4F0091590410915A0420915B043091A0
:1038C0005C04601B710B820B930B6B3071058105DF
:1038D000910528F10E945B4F6093590470935A043C
:1038E00080935B0490935C0487EB98E01F910F91A9
:1038F0000C94492D813019F41F910F9160CE8230C4
:1039000041F487EB98E00E94492D1F910F910C9490
:103910005911843021F41F910F910C94C1121F9101
:103920000F9108950C94113BCF92DF92EF92FF928A
:103930000F931F93CF93DF93EC010C891D890E9495
:103940005B4FCC80DD80EE80FF809B01AC012C19A9
:103950003D094E095F0969017A0139E0C316D104B6
:10396000E104F104E8F16C837D838E839F83CE01B3
:103970000E947E3B488559856A857B85452B462B71
:10398000472B49F4AC01662757FD6095762F488B8D
:10399000598B6A8B7B8B488959896A897B89841BFF
:1039A000950B97FF03C0919581959109449764F415
:1039B0004C855D856E857F854F5F5F4F6F4F7F4F75
:1039C0004C875D876E877F87488559856A857B85AB
:1039D0004F5F5F4F6F4F7F4F488759876A877B875D
:1039E00088859985AA85BB850597A105B105D1F480
:1039F000188619861A861B868C859D85AE85BF859F
:103A00000397A105B10540F088899989AA89BB89E6
:103A10008C019D8B8C8B02C00C891D891C861D8698
:103A20001E861F86C80164E670E00E94DB5B68307A
:103A3000710528F4FB01EB5CFC4F808101C080E044
:103A4000DF91CF911F910F91FF90EF90DF90CF907A
:103A500008950C94113B0F931F93CF93DF93EC01C8
:103A6000062F18E060E088850E94925100FF02C096
:103A700061E001C060E089850E949251069561E095
:103A800088850E949251115069F760E088850E94F4
:103A9000925161E089850E94925161E088850E947F
:103AA000925160E089850E94595118EC89850E94E5
:103AB000C751892B59F01150C9F761E089850E94DF
:103AC000595160E089850E949251EFCF61E089856C
:103AD000DF91CF911F910F910C945951CF93DF93A8
:103AE000EC0161E088850E94925161E089850E9425
:103AF000925160E089850E94925160E08885DF9153
:103B0000CF910C949251CF93DF93EC0160E08885C4
:103B10000E94925160E089850E94925161E08885FF
:103B20000E94925161E08985DF91CF910C9492516E
:103B3000CF92DF92FF920F931F93CF93DF931F9249
:103B4000CDB7DEB76C01F62E7983C8DF60E4C6011D
:103B500082DFC601D8DFC601C1DFF6016581C6017B
:103B60007ADF0F2D7981172F84E0F82EF80161910B
:103B70008F01C60170DFFA94C9F7C601C4DFC60120
:103B8000ADDFF6016681C60166DFC6010F90DF91E9
:103B9000CF911F910F91FF90DF90CF90B4CF4F92B4
:103BA0005F926F927F928F929F92AF92BF92CF92CD
:103BB000DF92EF92FF920F931F93CF93DF9300D08A
:103BC0001F92CDB7DEB76A017B01890137FD48C07E
:103BD000B9016F5F7F4F882777FD8095982F0E94EE
:103BE0009F589B01AC0160E070E080E291E40E948C
:103BF0007A5A4B015C019B01AC01C701B6010E94DE
:103C000004580E94DA582B013C01B801882777FD3F
:103C10008095982F0E949F589B01AC0160E070E056
:103C200080E291E40E947A5A69837A838B839C8331
:103C3000A5019401C301B2010E94175A9B01AC0176
:103C4000C701B6010E94395729813A814B815C81B5
:103C50000E9404580E94DA580E946C58CB011FC081
:103C600088249924821A930AA12CB12C20E030E0F8
:103C700040E251E4C701B6010E94175A6B017C0172
:103C80008FEFA81AB80AA814B90484F3C701B601C3
:103C90000E946C58CB016AE070E00E94DB5B0F90E1
:103CA0000F900F900F90DF91CF911F910F91FF9088
:103CB000EF90DF90CF90BF90AF909F908F907F90CC
:103CC0006F905F904F900895DB0180E090E22C911F
:103CD000223208F09C93EC91F0E0EA59FD4FE49118
:103CE000ED938F5F843099F70895EF92FF920F93D1
:103CF0001F93CF93DF9300D01F92CDB7DEB78C0117
:103D0000DB01FE013196CE0105967F012D912193B5
:103D1000E817F907D9F7B701C801D6DFB701C8011D
:103D200007DF0F900F900F900F90DF91CF911F91B1
:103D30000F91FF90EF900895CF93DF9300D01F92E3
:103D4000CDB7DEB720E229832A832B832C83BE01E3
:103D50006F5F7F4FCADF0F900F900F900F90DF9132
:103D6000CF910895CF93DF93EC016A83E62FF0E0C3
:103D7000EE0FFF1FE456FD4F818189839081988368
:103D80008887998761E00E94595161E089850E9486
:103D9000595180E48C8380EC8D838AE88E83CE0138
:103DA000DF91CF91C9CF8F929F92AF92BF92CF9266
:103DB000DF92EF92FF920F931F93CF93DF9300D088
:103DC0001F92CDB7DEB75C016A017B0119821A82AE
:103DD0001B821C8220E030E0A901C701B6010E94CD
:103DE000005887FF09C0F7FAF094F7F8F09481E2E1
:103DF00089839924939401C0912C03E010E0812CD5
:103E00009801B701A601C501CADE181619062CF0E3
:103E1000002319F08820B9F00CC001110AC0E1E0BC
:103E2000F0E0EC0FFD1FE90DF11D20E1280F2083CC
:103E300007C0E1E0F0E0EC0FFD1FE90DF11D80830C
:103E400093948824839483E0891530F001501109FC
:103E50000C3F8FEF1807A1F6BE016F5F7F4FC501C2
:103E600044DF0F900F900F900F90DF91CF911F9133
:103E70000F91FF90EF90DF90CF90BF90AF909F9009
:103E80008F9008950E94113B88E0809388090895DF
:103E9000CF93DF93EC0160E00E941A3B8EE18B87A9
:103EA0001C82DF91CF910895AF92BF92CF92DF92A3
:103EB000EF92FF920F931F93CF93DF93CDB7DEB7AF
:103EC0006A970FB6F894DEBF0FBECDBF8C01CE014E
:103ED00001967C01C12CD12C5C01C6010E94005FBF
:103EE000F70181937F01FFEFCF1ADF0A8AE1C8163D
:103EF000D10499F72D813E814F81588569817A815E
:103F00008B819C810E943A5729853A854B855C8537
:103F10000E943A572D853E854F8558890E943A5711
:103F200029893A894B895C890E943A572D893E89B3
:103F30004F89588D0E943A576B017C01698D70E062
:103F400080E090E00E949F589B01AC01C701B60140
:103F50000E943A5720E030E04AE253E40E943A5788
:103F60000E9471588A8D68130CC08AE1F501D8014E
:103F70001D9601900D928A95E1F781E0F801848306
:103F800002C0F80114826A960FB6F894DEBF0FBE25
:103F9000CDBFDF91CF911F910F91FF90EF90DF90F8
:103FA000CF90BF90AF900895CF92DF92EF92FF92A3
:103FB0000F931F93CF93DF938C01EB012C813D81F5
:103FC0004E815F81688179818A819B810E943A5705
:103FD000288539854A855B850E943A572C853D8521
:103FE0004E855F850E943A57288939894A895B89BD
:103FF0000E943A572C893D894E895F890E943A5721
:104000006B017C01688D70E080E090E00E949F5819
:104010009B01AC01C701B6010E943A5720E030E095
:104020004AE253E40E943A570E947158698FE12C8A
:10403000F12C6991C7010E94085F8FEFE81AF80A16
:10404000EAE1EE16F104A9F781E0F8018483DF913B
:10405000CF911F910F91FF90EF90DF90CF90089537
:10406000EF92FF921F93CF93DF931F92CDB7DEB7EE
:10407000162F7A01FC01638580EB9BE029830E9467
:104080004348612F80EB9BE00E94F04729818130FB
:1040900091F4422F50E0B70180EB9BE00E94C447AF
:1040A00061E080EB9BE00F90DF91CF911F91FF903B
:1040B000EF900C944D488FEF0F90DF91CF911F91AF
:1040C000FF90EF900895CF93DF931F92CDB7DEB7A7
:1040D000498321E0AE014F5F5F4FC2DF0F90DF9158
:1040E000CF910895EF92FF920F931F93CF93DF9399
:1040F000EC01F62E8A01E22E6B8580EB9BE00E949C
:1041000043486F2D80EB9BE00E94F047813001F522
:1041100060E080EB9BE00E944D4881112EC081E061
:1041200090E00E94AF4F21E04E2D6B8580EB9BE02D
:104130000E943748E80100E010E0F12C80EB9BE0A2
:104140000E949947892B31F00E151F0574F002C0AB
:104150008FEF13C081E090E00E94AF4F81E00E1519
:104160001F0509F480E0819508C00F5F1F4F80EBA9
:104170009BE00E94A1478993E1CFDF91CF911F91EE
:104180000F91FF90EF900895CF93DF93EC01AC0176
:104190004B5F5F4F23E06AE0A5DF81110AC08D818C
:1041A000883439F48E81843321F481E09F81933304
:1041B00009F080E0DF91CF910895CF92DF92EF92E6
:1041C000FF920F931F93CF93DF93EC016B018A0152
:1041D00079013BD0AE014B5F5F4F26E063E0CE013B
:1041E00081DF882321F0992787FD909525C08C8554
:1041F000813029F441E062E070E0CE0164DF8D811E
:1042000090E0982F88272E81822BF601918380835E
:10421000898590E0982F88272A85822BF801918341
:1042200080838F8190E0982F88272885822BF70143
:104230009183808380E090E0DF91CF911F910F9177
:10424000FF90EF90DF90CF9008952F923F924F9282
:104250005F926F927F928F929F92AF92BF92CF9216
:10426000DF92EF92FF920F931F93CF93DF93CDB71F
:10427000DEB76C970FB6F894DEBF0FBECDBF8C01D2
:1042800062E00E94303B8111B5C16AE070E080E0DD
:1042900090E00E948A4F62E0C8010E94303B811189
:1042A000A9C1C80171DF882309F4A4C10E945B4F32
:1042B0006B017C01712CBB24B39462E0C8010E94A5
:1042C000303B811116C00E945B4F6C197D098E092D
:1042D0009F09693C71058105910578F3A8950E94B5
:1042E0005B4F6B017C017B24672DC8010E94623B00
:1042F000E4CF64E670E080E090E00E948A4F0E9484
:104300005B4F4B015C012FEF3FE7388B2F8740E07D
:1043100050E85E874D878FEF9FE79C878B87E0E0B3
:10432000F0E8FA87E98738872F83212C50E8352E6B
:10433000662463940E945B4F6C197D098E099F0966
:10434000693C71058105910550F0A8950E945B4F6D
:104350006B017C017624672DC8010E94623B0E949C
:104360005B4F681979098A099B096B3071058105D2
:104370009105E0F1A8959E012F5F3F4FAE014D5F83
:104380005F4FBE016B5F7F4FC80117DF8D819E813C
:104390004F815885841795072CF02816390624F488
:1043A0001C0102C098878F838B819C81EB85FC85E3
:1043B0008E179F0744F029853A85281739072CF472
:1043C0009A87898702C09C878B8789819A814F85CC
:1043D00058898417950744F0ED85FE85E817F9079D
:1043E0002CF49E878D8702C0988B8F8762E0C8016E
:1043F0000E94303B81119ECF60E0C8010E94623B69
:10440000B101882777FD8095982F0E949F586B01F6
:104410007C012F813885B901882777FD8095982FF9
:104420000E949F58698B7A8B8B8B9C8B9B01AC0174
:10443000C701B6010E943A57905820E030E040E0B2
:104440005FE30E94175AF801658776878787908B0C
:1044500029853A85B901882777FD8095982F0E9494
:104460009F582B013C014B855C85BA01882777FD5D
:104470008095982F0E949F586D8B7E8B8F8B988F85
:104480009B01AC01C301B2010E943A57905820E051
:1044900030E040E05FE30E94175AF801618B728BB5
:1044A000838B948B2D853E85B901882777FD809578
:1044B000982F0E949F584B015C014F855889BA0183
:1044C000882777FD8095982F0E949F58698F7A8F53
:1044D0008B8F9C8F9B01AC01C501B4010E943A57A0
:1044E000905820E030E040E05FE30E94175AF80166
:1044F000658B768B878B908F80E090E0A0E8BFE3A0
:10450000818F928FA38FB48F29893A894B895C89D7
:10451000C701B6010E9439576B017C012D893E8984
:104520004F89588DC301B2010E943957A7019601E6
:104530000E940458F801658F768F878F90A3298D8C
:104540003A8D4B8D5C8DC501B4010E943957A7018E
:1045500096010E940458F80161A372A383A394A357
:104560002F813885221A330A37FE03C031942194F3
:10457000310889859A854B855C85841B950B97FF4F
:1045800003C09195819591092D853E85EF85F88928
:104590002E1B3F0B37FF03C0319521953109821542
:1045A00093052CF02215330514F081E009C028167C
:1045B00039062CF02817390714F082E001C083E097
:1045C000F80185A3B801635F7F4FC801EDDC61E0AE
:1045D000C8010E94623B62E0C8010E94303B811129
:1045E00002C0A895F8CFA89564E670E080E090E05E
:1045F0000E948A4F6C960FB6F894DEBF0FBECDBFF7
:10460000DF91CF911F910F91FF90EF90DF90CF90AE
:10461000BF90AF909F908F907F906F905F904F90E2
:104620003F902F900895CF93DF93EC0180EB9BE0B8
:104630000E942E4861E0CE010E94623B40E760E0AC
:1046400070E0CE0140DD40E261E070E0CE013BDD94
:1046500081E08C8741E062E070E0CE0134DDCE0184
:1046600023DCCE01DF91CF91F0CD60938A09409396
:104670008909FC0160834183D6CF2F923F924F92EC
:104680005F926F927F928F929F92AF92BF92CF92E2
:10469000DF92EF92FF920F931F93CF93DF93CDB7EB
:1046A000DEB762970FB6F894DEBF0FBECDBF8C01A8
:1046B000CCDD9E012F5F3F4FAE014D5F5F4FBE01CE
:1046C0006B5F7F4FC80179DD882349F0682F77271A
:1046D00067FD7095872F972F0E949F58C5C0F801DE
:1046E00084812D803E802B813C8138872F838823D5
:1046F00009F478C04584568467847088818C928CD4
:10470000A38CB48CB901882777FD8095982F0E94DF
:104710009F58F80121893289438954890E943A5768
:10472000F801258D368D478D50A10E94175A0E94A1
:104730006C586F83788789879A8769817A818827FF
:1047400077FD8095982F0E949F58F801258936891A
:104750004789508D0E943A57F80121A132A143A107
:1047600054A10E94175A0E946C586B877C878D87D2
:104770009E87F80115A1113041F42B853C85B901C4
:10478000882777FD8095982F32C0B101882777FD63
:104790008095982F0E949F58A30192010E943A573A
:1047A000A50194010E94175A0E946C584B015C01AC
:1047B000123089F42B853C85B901882777FD8095D7
:1047C000982F0E949F589B01AC01B401882777FD68
:1047D0008095982F17C0133019F5882777FD80959D
:1047E000982F05C0B101882777FD8095982F0E94EA
:1047F0009F589B01AC01EF81F885BF01882777FDA9
:104800008095982F2F87388B498B5A8B0E949F5801
:104810002F85388949895A890E94AD576B017C01DF
:1048200020E030E0A901C701B6010E94005887FFCF
:104830000DC02BED3FE049EC50E4C701B6010E94EA
:104840003A5720E030E044E353E406C020E030E093
:1048500044E353E4C701B6010E94175A2BED3FE031
:1048600049E450E40E94045862960FB6F894DEBF03
:104870000FBECDBFDF91CF911F910F91FF90EF90B1
:10488000DF90CF90BF90AF909F908F907F906F9070
:104890005F904F903F902F9008958BE899E00C9493
:1048A000EC308BE899E00C9415318D589F4FFC014A
:1048B0008081089581599F4FFC0180810895FC01FA
:1048C00046A357A360A771A70895FC0146A157A16D
:1048D00060A571A54F5F5F4F6F4F7F4F46A357A3F2
:1048E00060A771A70895FC0146A157A160A571A515
:1048F000415051096109710946A357A360A771A7E7
:104900000895FC016285738584859585089522E06C
:10491000FC0120839B016F3F710519F014F02FEF0C
:1049200030E02130FFEF3F0714F421E03FEFFC01BE
:10493000378326830895EF92FF920F931F93CF93AF
:10494000DF93FC016F3F710519F014F06FEF70E019
:10495000EB0161308FEF780714F4C1E0DFEF808561
:1049600091858C179D07D1F1D187C087D583C483EA
:10497000DF01AF58BF4FCF018E589F4F7C018F0191
:1049800000591F4FD7FF12C060E08C910E949251D6
:1049900085E090E00E94AF4F61E0F70180810E94C6
:1049A0009251662777276C1B7D0B0EC061E08C91BE
:1049B0000E94925185E090E00E94AF4F60E0F701C5
:1049C00080810E949251BE01F8018081DF91CF91D8
:1049D0001F910F91FF90EF900C944150DF91CF9178
:1049E0001F910F91FF90EF9008959F92AF92BF9209
:1049F000CF92DF92EF92FF920F931F93CF93DF93AB
:104A0000EC01DC01AC58BF4F6C9385E0982E969E6C
:104A1000F0011124E258FD4F80818E0102591F4F91
:104A2000D8018C935E01BFE6AB0EB11C9181D5011C
:104A30009C93119692819C936E01B1E7CB0ED11C91
:104A40009381D6019C937E01B2E7EB0EF11C948119
:104A5000F70190833697108262E00E94595162E01C
:104A6000D5018C910E94595161E0F60180810E942C
:104A7000595161E0D7018C910E9459511EA21FA289
:104A800018A619A684EF91E099878887188289E093
:104A900090E09B838A8348E651E16DE172E44E8B9E
:104AA0005F8B688F798FF8018081823119F4359698
:104AB00090821AC0833111F484E003C0843131F450
:104AC00083E0FE01ED58FF4F80830EC0853111F465
:104AD00082E0F7CF833011F481E0F3CF823021F40C
:104AE000FE01ED58FF4F108260E070E0CE0123DF41
:104AF0001EA21FA218A619A60E945B4FC958DF4F1D
:104B0000688379838A839B83DF91CF911F910F9173
:104B1000FF90EF90DF90CF90BF90AF909F9008955F
:104B20002F923F924F925F926F927F928F929F92BD
:104B3000AF92BF92CF92DF92EF92FF920F931F93AB
:104B4000CF93DF9300D000D0CDB7DEB79E838D83A7
:104B50000E945B4F0D811E8109581F4FF801C080D4
:104B6000D180E280F3806C197D098E099F0965313F
:104B700071058105910508F465C00E945B4F69834A
:104B80007A838B839C83ED81FE81C6A0D7A0E0A4AD
:104B9000F1A482A193A1A4A1B5A12280338046886B
:104BA0005788608C718CA7019601281B390B4A0B22
:104BB0005B0BCA01B9010E949F584B015C01F801CF
:104BC0008081918169817A81681B790B80E090E016
:104BD0000E949D589B01AC0160E070E08AE794E47C
:104BE0000E9404589B01AC01C501B4010E94175AF0
:104BF00020E030E040E752E40E94175A4B015C018C
:104C0000B101882777FD8095982F0E949F58A301B6
:104C100092010E94175A9B01AC01C501B4010E9488
:104C20000458ED81FE816287738784879587C2A2CD
:104C3000D3A2E4A2F5A20E945B4FF80160837183C6
:104C40008283938326960FB6F894DEBF0FBECDBF46
:104C5000DF91CF911F910F91FF90EF90DF90CF9058
:104C6000BF90AF909F908F907F906F905F904F908C
:104C70003F902F900895AF92BF92CF92DF92EF9224
:104C8000FF920F931F93CF93DF9300D01F92CDB766
:104C9000DEB75C01FC0166A177A180A591A5028128
:104CA000138126893789408D518D29833A834B831F
:104CB0005C830E949F586B017C01B801882777FDB7
:104CC0008095982F0E949F5829813A814B815C8161
:104CD0000E94175A9B01AC01C701B6010E940458FB
:104CE00020E030E044EB53E40E94175A0E946C58D5
:104CF000F501628F738F848F958F0F900F900F90B7
:104D00000F90DF91CF911F910F91FF90EF90DF9067
:104D1000CF90BF90AF900895FC01628D738D848D0C
:104D2000958D0895FC0181E08083818346875787B4
:104D3000608B718BE659FF4F10820895CF92DF92FE
:104D4000EF920F931F93FC0106871787208B318BFF
:104D5000DC01A359BF4FEC9213971C9212961C9240
:104D600081E080831182468F578F60A371A3539691
:104D7000CD92DC92468D578D60A171A1028D138D6D
:104D8000248D358D401B510B620B730BE559FF4F82
:104D9000141615061606170614F4808301C0108237
:104DA0001F910F91EF90DF90CF9008958F929F9277
:104DB000AF92BF92CF92DF92EF92FF920F931F9329
:104DC000FC01828C938CA48CB58C840E951EA61E3F
:104DD000B71E868E978EA0A2B1A2468D578D60A178
:104DE00071A1ACDF1F910F91FF90EF90DF90CF90FA
:104DF000BF90AF909F908F900895CF92DF92EF92E7
:104E0000FF920F931F93FC0142A753A764A775A7B6
:104E100006A717A720AB31ABC2AAD3AAE4AAF5AA6A
:104E20001F910F91FF90EF90DF90CF900895CF9258
:104E3000DF92EF92FF920F931F93FC01E65BFF4F0F
:104E4000408351836283738334960083118322836A
:104E500033833496C082D182E282F3821F910F9114
:104E6000FF90EF90DF90CF900895FC0173836283F1
:104E70000895CF93DF93EC01882777FD8095982FD5
:104E80000E949F586E8B7F8B888F998FDF91CF9177
:104E90000895FC01608308952F923F924F925F9294
:104EA0006F927F928F929F92AF92BF92CF92DF923A
:104EB000EF92FF920F931F93CF93DF9300D01F9237
:104EC000CDB7DEB71C01DC015E966D917D918D91B1
:104ED0009C9191975A960D911D912D913C915D97C2
:104EE000601B710B820B930B0E949F586B017C011E
:104EF0005101BAE6AB0EB11CF501808181010B585E
:104F00001F4F8111ABC13196808120E030E0A901B3
:104F1000882339F0C701B6010E94005887FF32C0CC
:104F200006C0C701B6010E94C75918165CF5D10129
:104F30001A962D913D914D915C911D97F101EE5A7C
:104F4000FF4F60817181828193810E94175ADC0139
:104F5000CB01B058F101E65AFF4F80839183A283C1
:104F6000B38360817181828193810E946C58F801C2
:104F70007183608321E0D5012C93F10175836483F3
:104F8000CB01BCC220E030E0A901C701B6010E94FC
:104F9000C75926013701181624F077FA709477F86C
:104FA0007094D1011E966D917D918D919C91519738
:104FB00020E030E040EC50E40E94175A9B01AC0125
:104FC000C301B2010E94C75987FFEAC120E030E067
:104FD000A901C701B6010E94C75918165CF420E068
:104FE00030E040E251E4C701B6010E94C7591816EB
:104FF0005CF034C120E030E040E251ECC701B60182
:105000000E94005887FF2AC1F101468457846088B6
:10501000718820E030E040E251E4C701B6010E940F
:1050200039574B015C0120E030E040EC50E4C30113
:10503000B2010E94175AA50194010E94175A20E05C
:1050400030E0A9010E94C759181694F4D1011E96A8
:105050006D917D918D919C91519720E030E040ECD5
:1050600050E40E94175AA50194010E94175A10C0DB
:10507000F101668577858089918920E030E040ECF8
:1050800050E40E94175AA50194010E94175A9058A3
:105090000E94CA5A20E030E040EC50E40E940458DC
:1050A0002B013C01D1011A968D909D90AD90BC9042
:1050B0001D9720E030E0A901C701B6010E94C75941
:1050C000A701960118160CF05058B1016E5A7F4F87
:1050D000DB018D919D910D90BC91A02D89839A83C8
:1050E000AB83BC83C701B6010E9404589B01AC018D
:1050F000C301B2010E94175A9B01AC01C501B40162
:105100000E9439579B01AC0169817A818B819C8116
:105110000E94175A4B015C0120E030E040EA51EC5C
:105120000E94005887FD11C020E030E040EA51E4C1
:10513000C501B4010E94C75918166CF4812C912C3A
:1051400050EAA52E51E4B52E06C0812C912C40EAE0
:10515000A42E41ECB42EF80160817181882777FD7F
:105160008095982F0E949F58FAE52F0E311CD1018F
:105170006D937D938D939C9313976D917D918D91FC
:105180009C91A50194010E943957F10160837183BC
:105190008283938320E030E0A901C701B6010E9419
:1051A000C759D10187FD23C06D917D918D919C914F
:1051B00020E030E048EC51E40E94005887FD12C026
:1051C000F101608171818281938120E030E04FE7BD
:1051D00053E40E94C75918161CF580E090E0AFE731
:1051E000B3E42DC080E090E0A8ECB1E428C06D915C
:1051F0007D918D919C9120E030E04FE753EC0E942F
:10520000005887FD13C0F101608171818281938113
:1052100020E030E048EC51EC0E94C75918165CF0D1
:10522000F10180819181A281B38109C080E090E089
:10523000AFE7B3EC04C080E090E0A8ECB1ECF10182
:1052400080839183A283B383608171818281938102
:105250000E946C58F801718360839EC081E0D50183
:105260008C93F101E158FF4F0190F081E02D3097D0
:1052700071F0D101A459BF4F9C91911108C08C933A
:1052800011966C9170E017968C9190E01995F10150
:105290002285338544855585EE5AFF4F60817181A3
:1052A000828193810E94175A4B015C0120E030E01B
:1052B00040EA51EC0E94005887FD11C020E030E028
:1052C00040EA51E4C501B4010E94C75918166CF4B4
:1052D000812C912C30EAA32E31E4B32E06C0812C10
:1052E000912C20EAA22E21ECB22EF101E65BFF4FB9
:1052F0002081318142815381C701B6010E94175A32
:10530000FAE52F0E311CD1016D937D938D939C9303
:1053100013976D917D918D919C91A50194010E94AF
:105320003957F10160837183828393836081718136
:105330008281938120E030E04FE753EC0E940058D7
:1053400087FD13C0D1016D917D918D919C9120E0DD
:1053500030E04FE753E40E94C75918165CF0F101A2
:1053600080819181A281B38109C080E090E0AFE7A4
:10537000B3EC04C080E090E0AFE7B3E4F1018083D8
:105380009183A283B38360817181828193810E9422
:105390006C58D8016D937C93F80180819181AEC0E7
:1053A000D1011A968D919D910D90BC91A02D89836C
:1053B0009A83AB83BC83F10186849784A088B188EB
:1053C00020E030E0A901C701B6010E94C7591816B4
:1053D00024F0A7019601505802C0A7019601F101DF
:1053E00042A453A464A475A4C701B6010E94045842
:1053F0009B01AC01C501B4010E94175A9B01AC018D
:1054000069817A818B819C810E9439579B01AC0113
:10541000C301B2010E94175A6B017C0120E030E009
:1054200048EC51EC0E94005887FD11C020E030E0AC
:1054300048EC51E4C701B6010E94C75918166CF434
:10544000C12CD12C78ECE72E71E4F72E06C0C12CCC
:10545000D12C68ECE62E61ECF62ED8016D917C9192
:10546000882777FD8095982F0E949F58F10162AFA1
:1054700073AF84AF95AF62AD73AD84AD95ADA70149
:1054800096010E943957D101DA966D937D938D93E1
:105490009C93DD97DA966D917D918D919C91DD972E
:1054A00020E030E04FE753EC0E94005887FD13C026
:1054B000F10162AD73AD84AD95AD20E030E04FE712
:1054C00053E40E94C75918165CF0F10182AD93AD08
:1054D000A4ADB5AD09C080E090E0AFE7B3EC04C087
:1054E00080E090E0AFE7B3E4F10182AF93AFA4AF07
:1054F000B5AF62AD73AD84AD95AD49CF0F900F9050
:105500000F900F90DF91CF911F910F91FF90EF902F
:10551000DF90CF90BF90AF909F908F907F906F90D3
:105520005F904F903F902F900895AF92BF92CF928F
:10553000DF92EF92FF920F931F93CF93DF93EC01D3
:105540006A857B858C859D852E853F85488959890F
:10555000CAA4DBA4ECA4FDA40E9439579B01AC01B2
:10556000C701B6010E94175A6B017C0120E030E0B0
:1055700048EC51EC0E94005887FD11C020E030E05B
:1055800048EC51E4C701B6010E94C75918166CF4E3
:10559000C12CD12CF8ECEF2EF1E4FF2E06C0C12C6B
:1055A000D12CE8ECEE2EE1ECFE2E8E010B581F4FB5
:1055B000F80160817181882777FD8095982F0E947E
:1055C0009F586AAF7BAF8CAF9DAF6AAD7BAD8CADA2
:1055D0009DADA70196010E9439576AAF7BAF8CAF92
:1055E0009DAF5E01FAE6AF0EB11CF5018081882304
:1055F00029F01AAE1BAE1CAE1DAE1EC06E857F8597
:105600008889998920E030E0A9010E940058811121
:1056100013C020E030E0A901C701B6010E94C759BC
:1056200018168CF520E030E040E751E4C701B601E0
:105630000E94005887FD31C06AAD7BAD8CAD9DAD39
:1056400020E030E04FE753EC0E94005887FD11C086
:105650006AAD7BAD8CAD9DAD20E030E04FE753E40B
:105660000E94C759181654F08AAD9BADACADBDADC4
:105670001CC080E090E0AFE7B3EC17C080E090E0A2
:10568000AFE7B3E412C020E030E040E751ECC701DF
:10569000B6010E94C75918167CF61AAE1BAE1CAE96
:1056A0001DAE81E0F5018083C7CF8AAF9BAFACAF61
:1056B000BDAF6AAD7BAD8CAD9DAD0E946C58F8015D
:1056C00071836083CB01DF91CF911F910F91FF9088
:1056D000EF90DF90CF90BF90AF900895CF92DF9280
:1056E000EF92FF920F931F93CF93DF93EC010E94F1
:1056F0005B4F8E0105581F4FF801C080D180E280BA
:10570000F3806C197D098E099F0969327105810545
:105710009105B8F00E945B4FF8016083718382832A
:1057200093838981811103C0CE01B6DB08C08981D2
:10573000813019F4CE01F9DE02C080E090E09D8353
:105740008C83DF91CF911F910F91FF90EF90DF90AD
:10575000CF900895CF92DF92EF92FF920F931F9315
:10576000CF93DF93EC010E945B4F8E0105581F4FD2
:10577000F801C080D180E280F3806C197D098E0928
:105780009F09693271058105910508F49FC00E9447
:105790005B4FF80160837183828393836C817D8189
:1057A0000E811F81882777FD8095982F0E949F5832
:1057B0002DEC3CEC4CE45FE30E94175A6B017C013A
:1057C000B801882777FD8095982F0E949F582DEC6F
:1057D0003CEC4CE45EE30E94175A9B01AC01C7010C
:1057E000B6010E943A5720E030E0A9010E94C75953
:1057F0006C817D810E811F8187FD28C0882777FD00
:105800008095982F0E949F582DEC3CEC4CE45FE370
:105810000E94175A6B017C01B801882777FD80959B
:10582000982F0E949F582DEC3CEC4CE45EE30E94C4
:10583000175A9B01AC01C701B6010E943A5720E0FC
:1058400030E040E05FE30E943A5727C0882777FDA9
:105850008095982F0E949F582DEC3CEC4CE45FE320
:105860000E94175A6B017C01B801882777FD80954B
:10587000982F0E949F582DEC3CEC4CE45EE30E9474
:10588000175A9B01AC01C701B6010E943A5720E0AC
:1058900030E040E05FE30E9439570E946C587D83FE
:1058A0006C838C819D81181619061CF48C819D8156
:1058B00005C08C819D819195819591090B9734F458
:1058C0008E819F81892B11F41D821C82DF91CF91E3
:1058D0001F910F91FF90EF90DF90CF900895CF939D
:1058E000DF93EC01C8D9CE011BD98881813019F42E
:1058F000CE01F4DE05C08881823041F4CE012ADF7A
:105900006C817D81CE01DF91CF9115C8DF91CF9160
:10591000089560E00C941A3BCF93DF93EC016C8305
:105920004D838C8160E00E9459518D8188838C81E8
:105930008983DF91CF9108950C94723B60E00C94C1
:105940001A3BCF93DF93EC016C834D838C8160E035
:105950000E9459518D8188838C818983DF91CF91F9
:1059600008950C94723B0F931F93CF93DF931F9274
:10597000CDB7DEB78C0149830E941A3BF801EE5B7C
:10598000FF4F498140830F90DF91CF911F910F917D
:1059900008958E5B9F4FFC0180810895FC01628514
:1059A0007385848595850895FC01628D738D848D42
:1059B000958D0895FC01613029F432852385948505
:1059C00085850DC0623029F43685278590898189C7
:1059D00006C0633029F43289238994898589AC0112
:1059E000632F722F852F942F0895EF92FF920F93BC
:1059F0001F93CF93DF93F62E8A01E22EEC01CE5B4C
:105A0000DF4F688180EB9BE00E9443486F2D80EB65
:105A10009BE00E94F047813001F560E080EB9BE065
:105A20000E944D4881112EC081E090E00E94AF4F4E
:105A300021E04E2D688180EB9BE00E943748E80111
:105A400000E010E0F12C80EB9BE00E949947892B4D
:105A500031F00E151F0574F002C08FEF13C081E006
:105A600090E00E94AF4F81E00E151F0509F480E021
:105A7000819508C00F5F1F4F80EB9BE00E94A147FC
:105A80008993E1CFDF91CF911F910F91FF90EF901C
:105A900008952F923F924F925F926F927F928F92D2
:105AA0009F92AF92BF92CF92DF92EF92FF920F93AD
:105AB0001F93CF93DF93CDB7DEB768970FB6F894F7
:105AC000DEBF0FBECDBF1C010E945B4F4B015C01CE
:105AD000C090A60AD090A70AE090A80AF090A90A60
